{
	"AutoChain.sol": {
		"AutoChain": {
			"abi": [
				{
					"inputs": [
						{
							"internalType": "uint256",
							"name": "_dealId",
							"type": "uint256"
						},
						{
							"components": [
								{
									"components": [
										{
											"internalType": "string",
											"name": "name",
											"type": "string"
										},
										{
											"internalType": "string",
											"name": "surname",
											"type": "string"
										},
										{
											"internalType": "string",
											"name": "fathername",
											"type": "string"
										}
									],
									"internalType": "struct AutoChain.FullName",
									"name": "fullAcquirerName",
									"type": "tuple"
								},
								{
									"components": [
										{
											"internalType": "uint256",
											"name": "series",
											"type": "uint256"
										},
										{
											"internalType": "uint256",
											"name": "number",
											"type": "uint256"
										},
										{
											"internalType": "string",
											"name": "where_issued",
											"type": "string"
										},
										{
											"internalType": "string",
											"name": "when_issued",
											"type": "string"
										}
									],
									"internalType": "struct AutoChain.Passport",
									"name": "acquirerPassport",
									"type": "tuple"
								},
								{
									"internalType": "string",
									"name": "acquirerRegAddr",
									"type": "string"
								}
							],
							"internalType": "struct AutoChain.AcquirerProfile",
							"name": "_acquirerProfile",
							"type": "tuple"
						}
					],
					"name": "AcquirerInfo",
					"outputs": [],
					"stateMutability": "payable",
					"type": "function"
				},
				{
					"inputs": [
						{
							"internalType": "uint256",
							"name": "_dealId",
							"type": "uint256"
						}
					],
					"name": "AdDelete",
					"outputs": [],
					"stateMutability": "nonpayable",
					"type": "function"
				},
				{
					"inputs": [],
					"name": "CarHistory",
					"outputs": [],
					"stateMutability": "view",
					"type": "function"
				},
				{
					"inputs": [
						{
							"components": [
								{
									"components": [
										{
											"internalType": "string",
											"name": "name",
											"type": "string"
										},
										{
											"internalType": "string",
											"name": "surname",
											"type": "string"
										},
										{
											"internalType": "string",
											"name": "fathername",
											"type": "string"
										}
									],
									"internalType": "struct AutoChain.FullName",
									"name": "full_seller_name",
									"type": "tuple"
								},
								{
									"components": [
										{
											"internalType": "uint256",
											"name": "series",
											"type": "uint256"
										},
										{
											"internalType": "uint256",
											"name": "number",
											"type": "uint256"
										},
										{
											"internalType": "string",
											"name": "where_issued",
											"type": "string"
										},
										{
											"internalType": "string",
											"name": "when_issued",
											"type": "string"
										}
									],
									"internalType": "struct AutoChain.Passport",
									"name": "seller_passport",
									"type": "tuple"
								},
								{
									"internalType": "string",
									"name": "seller_reg_addr",
									"type": "string"
								},
								{
									"components": [
										{
											"internalType": "string",
											"name": "model",
											"type": "string"
										},
										{
											"internalType": "uint256",
											"name": "release_year",
											"type": "uint256"
										},
										{
											"internalType": "string",
											"name": "car_id",
											"type": "string"
										},
										{
											"internalType": "string",
											"name": "color",
											"type": "string"
										},
										{
											"internalType": "string",
											"name": "sign_id",
											"type": "string"
										},
										{
											"internalType": "uint256",
											"name": "mileage",
											"type": "uint256"
										},
										{
											"internalType": "uint256",
											"name": "engine_volume",
											"type": "uint256"
										},
										{
											"components": [
												{
													"internalType": "uint256",
													"name": "car_series",
													"type": "uint256"
												},
												{
													"internalType": "uint256",
													"name": "car_number",
													"type": "uint256"
												},
												{
													"internalType": "string",
													"name": "car_where_issued",
													"type": "string"
												},
												{
													"internalType": "string",
													"name": "car_when_issued",
													"type": "string"
												}
											],
											"internalType": "struct AutoChain.CarPassport",
											"name": "car_passport",
											"type": "tuple"
										},
										{
											"components": [
												{
													"internalType": "uint256",
													"name": "reg_car_series",
													"type": "uint256"
												},
												{
													"internalType": "uint256",
													"name": "reg_car_number",
													"type": "uint256"
												}
											],
											"internalType": "struct AutoChain.CarRegistration",
											"name": "car_registration",
											"type": "tuple"
										}
									],
									"internalType": "struct AutoChain.CarInfo",
									"name": "full_car_info",
									"type": "tuple"
								},
								{
									"internalType": "uint256",
									"name": "car_cost",
									"type": "uint256"
								},
								{
									"internalType": "string",
									"name": "description",
									"type": "string"
								}
							],
							"internalType": "struct AutoChain.Advert",
							"name": "_advert",
							"type": "tuple"
						}
					],
					"name": "SellerInfo",
					"outputs": [],
					"stateMutability": "nonpayable",
					"type": "function"
				},
				{
					"inputs": [
						{
							"components": [
								{
									"internalType": "uint256",
									"name": "dateOfOperation",
									"type": "uint256"
								},
								{
									"internalType": "string",
									"name": "actionHappened",
									"type": "string"
								},
								{
									"internalType": "bool",
									"name": "isSigned",
									"type": "bool"
								}
							],
							"internalType": "struct AutoChain.HistoryPiece",
							"name": "_record",
							"type": "tuple"
						}
					],
					"name": "SetCarHistory",
					"outputs": [],
					"stateMutability": "nonpayable",
					"type": "function"
				},
				{
					"inputs": [
						{
							"internalType": "uint256",
							"name": "_dealId",
							"type": "uint256"
						}
					],
					"name": "ShowAcquirerInfo",
					"outputs": [
						{
							"components": [
								{
									"components": [
										{
											"internalType": "string",
											"name": "name",
											"type": "string"
										},
										{
											"internalType": "string",
											"name": "surname",
											"type": "string"
										},
										{
											"internalType": "string",
											"name": "fathername",
											"type": "string"
										}
									],
									"internalType": "struct AutoChain.FullName",
									"name": "fullAcquirerName",
									"type": "tuple"
								},
								{
									"components": [
										{
											"internalType": "uint256",
											"name": "series",
											"type": "uint256"
										},
										{
											"internalType": "uint256",
											"name": "number",
											"type": "uint256"
										},
										{
											"internalType": "string",
											"name": "where_issued",
											"type": "string"
										},
										{
											"internalType": "string",
											"name": "when_issued",
											"type": "string"
										}
									],
									"internalType": "struct AutoChain.Passport",
									"name": "acquirerPassport",
									"type": "tuple"
								},
								{
									"internalType": "string",
									"name": "acquirerRegAddr",
									"type": "string"
								}
							],
							"internalType": "struct AutoChain.AcquirerProfile",
							"name": "",
							"type": "tuple"
						}
					],
					"stateMutability": "view",
					"type": "function"
				},
				{
					"inputs": [],
					"name": "ShowAdvertInfo",
					"outputs": [
						{
							"components": [
								{
									"internalType": "uint256",
									"name": "adId",
									"type": "uint256"
								},
								{
									"internalType": "string",
									"name": "model",
									"type": "string"
								},
								{
									"internalType": "uint256",
									"name": "release_year",
									"type": "uint256"
								},
								{
									"internalType": "uint256",
									"name": "mileage",
									"type": "uint256"
								},
								{
									"internalType": "uint256",
									"name": "engine_volume",
									"type": "uint256"
								},
								{
									"internalType": "uint256",
									"name": "car_cost",
									"type": "uint256"
								}
							],
							"internalType": "struct AutoChain.MainAd[]",
							"name": "",
							"type": "tuple[]"
						}
					],
					"stateMutability": "view",
					"type": "function"
				},
				{
					"inputs": [
						{
							"internalType": "uint256",
							"name": "_advertIndex",
							"type": "uint256"
						}
					],
					"name": "ShowSoloAdvertInfo",
					"outputs": [
						{
							"components": [
								{
									"components": [
										{
											"internalType": "string",
											"name": "model",
											"type": "string"
										},
										{
											"internalType": "uint256",
											"name": "release_year",
											"type": "uint256"
										},
										{
											"internalType": "string",
											"name": "car_id",
											"type": "string"
										},
										{
											"internalType": "string",
											"name": "color",
											"type": "string"
										},
										{
											"internalType": "string",
											"name": "sign_id",
											"type": "string"
										},
										{
											"internalType": "uint256",
											"name": "mileage",
											"type": "uint256"
										},
										{
											"internalType": "uint256",
											"name": "engine_volume",
											"type": "uint256"
										},
										{
											"components": [
												{
													"internalType": "uint256",
													"name": "car_series",
													"type": "uint256"
												},
												{
													"internalType": "uint256",
													"name": "car_number",
													"type": "uint256"
												},
												{
													"internalType": "string",
													"name": "car_where_issued",
													"type": "string"
												},
												{
													"internalType": "string",
													"name": "car_when_issued",
													"type": "string"
												}
											],
											"internalType": "struct AutoChain.CarPassport",
											"name": "car_passport",
											"type": "tuple"
										},
										{
											"components": [
												{
													"internalType": "uint256",
													"name": "reg_car_series",
													"type": "uint256"
												},
												{
													"internalType": "uint256",
													"name": "reg_car_number",
													"type": "uint256"
												}
											],
											"internalType": "struct AutoChain.CarRegistration",
											"name": "car_registration",
											"type": "tuple"
										}
									],
									"internalType": "struct AutoChain.CarInfo",
									"name": "full_car_info",
									"type": "tuple"
								},
								{
									"internalType": "uint256",
									"name": "car_cost",
									"type": "uint256"
								},
								{
									"internalType": "string",
									"name": "description",
									"type": "string"
								}
							],
							"internalType": "struct AutoChain.DealDetails",
							"name": "",
							"type": "tuple"
						}
					],
					"stateMutability": "view",
					"type": "function"
				},
				{
					"inputs": [
						{
							"internalType": "uint256",
							"name": "_dealId",
							"type": "uint256"
						},
						{
							"internalType": "bool",
							"name": "isSeller",
							"type": "bool"
						}
					],
					"name": "SignCheck",
					"outputs": [],
					"stateMutability": "nonpayable",
					"type": "function"
				},
				{
					"inputs": [
						{
							"internalType": "uint256",
							"name": "_number",
							"type": "uint256"
						}
					],
					"name": "Test",
					"outputs": [
						{
							"internalType": "uint256",
							"name": "",
							"type": "uint256"
						}
					],
					"stateMutability": "pure",
					"type": "function"
				},
				{
					"inputs": [
						{
							"internalType": "uint256",
							"name": "_carCost",
							"type": "uint256"
						}
					],
					"name": "ToEthConverter",
					"outputs": [
						{
							"internalType": "uint256",
							"name": "",
							"type": "uint256"
						}
					],
					"stateMutability": "view",
					"type": "function"
				},
				{
					"inputs": [],
					"name": "currentEmptyId",
					"outputs": [
						{
							"internalType": "uint256",
							"name": "",
							"type": "uint256"
						}
					],
					"stateMutability": "view",
					"type": "function"
				},
				{
					"inputs": [
						{
							"internalType": "uint256",
							"name": "",
							"type": "uint256"
						}
					],
					"name": "deals",
					"outputs": [
						{
							"internalType": "uint256",
							"name": "id",
							"type": "uint256"
						},
						{
							"internalType": "address",
							"name": "sellerAddress",
							"type": "address"
						},
						{
							"components": [
								{
									"components": [
										{
											"internalType": "string",
											"name": "name",
											"type": "string"
										},
										{
											"internalType": "string",
											"name": "surname",
											"type": "string"
										},
										{
											"internalType": "string",
											"name": "fathername",
											"type": "string"
										}
									],
									"internalType": "struct AutoChain.FullName",
									"name": "full_seller_name",
									"type": "tuple"
								},
								{
									"components": [
										{
											"internalType": "uint256",
											"name": "series",
											"type": "uint256"
										},
										{
											"internalType": "uint256",
											"name": "number",
											"type": "uint256"
										},
										{
											"internalType": "string",
											"name": "where_issued",
											"type": "string"
										},
										{
											"internalType": "string",
											"name": "when_issued",
											"type": "string"
										}
									],
									"internalType": "struct AutoChain.Passport",
									"name": "seller_passport",
									"type": "tuple"
								},
								{
									"internalType": "string",
									"name": "seller_reg_addr",
									"type": "string"
								},
								{
									"components": [
										{
											"internalType": "string",
											"name": "model",
											"type": "string"
										},
										{
											"internalType": "uint256",
											"name": "release_year",
											"type": "uint256"
										},
										{
											"internalType": "string",
											"name": "car_id",
											"type": "string"
										},
										{
											"internalType": "string",
											"name": "color",
											"type": "string"
										},
										{
											"internalType": "string",
											"name": "sign_id",
											"type": "string"
										},
										{
											"internalType": "uint256",
											"name": "mileage",
											"type": "uint256"
										},
										{
											"internalType": "uint256",
											"name": "engine_volume",
											"type": "uint256"
										},
										{
											"components": [
												{
													"internalType": "uint256",
													"name": "car_series",
													"type": "uint256"
												},
												{
													"internalType": "uint256",
													"name": "car_number",
													"type": "uint256"
												},
												{
													"internalType": "string",
													"name": "car_where_issued",
													"type": "string"
												},
												{
													"internalType": "string",
													"name": "car_when_issued",
													"type": "string"
												}
											],
											"internalType": "struct AutoChain.CarPassport",
											"name": "car_passport",
											"type": "tuple"
										},
										{
											"components": [
												{
													"internalType": "uint256",
													"name": "reg_car_series",
													"type": "uint256"
												},
												{
													"internalType": "uint256",
													"name": "reg_car_number",
													"type": "uint256"
												}
											],
											"internalType": "struct AutoChain.CarRegistration",
											"name": "car_registration",
											"type": "tuple"
										}
									],
									"internalType": "struct AutoChain.CarInfo",
									"name": "full_car_info",
									"type": "tuple"
								},
								{
									"internalType": "uint256",
									"name": "car_cost",
									"type": "uint256"
								},
								{
									"internalType": "string",
									"name": "description",
									"type": "string"
								}
							],
							"internalType": "struct AutoChain.Advert",
							"name": "advert",
							"type": "tuple"
						},
						{
							"internalType": "address",
							"name": "acquirerAddress",
							"type": "address"
						},
						{
							"components": [
								{
									"components": [
										{
											"internalType": "string",
											"name": "name",
											"type": "string"
										},
										{
											"internalType": "string",
											"name": "surname",
											"type": "string"
										},
										{
											"internalType": "string",
											"name": "fathername",
											"type": "string"
										}
									],
									"internalType": "struct AutoChain.FullName",
									"name": "fullAcquirerName",
									"type": "tuple"
								},
								{
									"components": [
										{
											"internalType": "uint256",
											"name": "series",
											"type": "uint256"
										},
										{
											"internalType": "uint256",
											"name": "number",
											"type": "uint256"
										},
										{
											"internalType": "string",
											"name": "where_issued",
											"type": "string"
										},
										{
											"internalType": "string",
											"name": "when_issued",
											"type": "string"
										}
									],
									"internalType": "struct AutoChain.Passport",
									"name": "acquirerPassport",
									"type": "tuple"
								},
								{
									"internalType": "string",
									"name": "acquirerRegAddr",
									"type": "string"
								}
							],
							"internalType": "struct AutoChain.AcquirerProfile",
							"name": "profile",
							"type": "tuple"
						},
						{
							"internalType": "enum AutoChain.Dealstatus",
							"name": "status",
							"type": "uint8"
						},
						{
							"internalType": "bool",
							"name": "sellerSigned",
							"type": "bool"
						},
						{
							"internalType": "bool",
							"name": "buyerSigned",
							"type": "bool"
						}
					],
					"stateMutability": "view",
					"type": "function"
				}
			],
			"devdoc": {
				"kind": "dev",
				"methods": {},
				"version": 1
			},
			"evm": {
				"assembly": "    /* \"AutoChain.sol\":119:6732  contract AutoChain{... */\n  mstore(0x40, 0x80)\n    /* \"AutoChain.sol\":2171:2172  0 */\n  0x00\n    /* \"AutoChain.sol\":2139:2172  uint256 public currentEmptyId = 0 */\n  0x01\n  sstore\n    /* \"AutoChain.sol\":119:6732  contract AutoChain{... */\n  callvalue\n  dup1\n  iszero\n  tag_1\n  jumpi\n  0x00\n  dup1\n  revert\ntag_1:\n  pop\n  dataSize(sub_0)\n  dup1\n  dataOffset(sub_0)\n  0x00\n  codecopy\n  0x00\n  return\nstop\n\nsub_0: assembly {\n        /* \"AutoChain.sol\":119:6732  contract AutoChain{... */\n      mstore(0x40, 0x80)\n      jumpi(tag_1, lt(calldatasize, 0x04))\n      shr(0xe0, calldataload(0x00))\n      dup1\n      0x63a242a6\n      gt\n      tag_15\n      jumpi\n      dup1\n      0xafda5933\n      gt\n      tag_16\n      jumpi\n      dup1\n      0xafda5933\n      eq\n      tag_11\n      jumpi\n      dup1\n      0xc31e3a0a\n      eq\n      tag_12\n      jumpi\n      dup1\n      0xc91a5172\n      eq\n      tag_13\n      jumpi\n      dup1\n      0xdd12d0b9\n      eq\n      tag_14\n      jumpi\n      jump(tag_1)\n    tag_16:\n      dup1\n      0x63a242a6\n      eq\n      tag_8\n      jumpi\n      dup1\n      0x6d618d0f\n      eq\n      tag_9\n      jumpi\n      dup1\n      0x7a8b9fb4\n      eq\n      tag_10\n      jumpi\n      jump(tag_1)\n    tag_15:\n      dup1\n      0x03988f84\n      eq\n      tag_2\n      jumpi\n      dup1\n      0x0c37d69b\n      eq\n      tag_3\n      jumpi\n      dup1\n      0x1f801c0e\n      eq\n      tag_4\n      jumpi\n      dup1\n      0x2888783e\n      eq\n      tag_5\n      jumpi\n      dup1\n      0x329e1ed2\n      eq\n      tag_6\n      jumpi\n      dup1\n      0x4a99b536\n      eq\n      tag_7\n      jumpi\n    tag_1:\n      0x00\n      dup1\n      revert\n        /* \"AutoChain.sol\":2095:2132  mapping(uint256 => Deal) public deals */\n    tag_2:\n      callvalue\n      dup1\n      iszero\n      tag_17\n      jumpi\n      0x00\n      dup1\n      revert\n    tag_17:\n      pop\n      tag_18\n      0x04\n      dup1\n      calldatasize\n      sub\n      dup2\n      add\n      swap1\n      tag_19\n      swap2\n      swap1\n      tag_20\n      jump\t// in\n    tag_19:\n      tag_21\n      jump\t// in\n    tag_18:\n      mload(0x40)\n      tag_22\n      swap9\n      swap8\n      swap7\n      swap6\n      swap5\n      swap4\n      swap3\n      swap2\n      swap1\n      tag_23\n      jump\t// in\n    tag_22:\n      mload(0x40)\n      dup1\n      swap2\n      sub\n      swap1\n      return\n        /* \"AutoChain.sol\":6554:6723  function ToEthConverter(uint256 _carCost) view public returns(uint256){ // Преобразует рубли в ETH ... */\n    tag_3:\n      callvalue\n      dup1\n      iszero\n      tag_24\n      jumpi\n      0x00\n      dup1\n      revert\n    tag_24:\n      pop\n      tag_25\n      0x04\n      dup1\n      calldatasize\n      sub\n      dup2\n      add\n      swap1\n      tag_26\n      swap2\n      swap1\n      tag_20\n      jump\t// in\n    tag_26:\n      tag_27\n      jump\t// in\n    tag_25:\n      mload(0x40)\n      tag_28\n      swap2\n      swap1\n      tag_29\n      jump\t// in\n    tag_28:\n      mload(0x40)\n      dup1\n      swap2\n      sub\n      swap1\n      return\n        /* \"AutoChain.sol\":5527:5703  function SetCarHistory(HistoryPiece memory _record) public { // Добавление записи с информацией об действии с автомобиля... */\n    tag_4:\n      callvalue\n      dup1\n      iszero\n      tag_30\n      jumpi\n      0x00\n      dup1\n      revert\n    tag_30:\n      pop\n      tag_31\n      0x04\n      dup1\n      calldatasize\n      sub\n      dup2\n      add\n      swap1\n      tag_32\n      swap2\n      swap1\n      tag_33\n      jump\t// in\n    tag_32:\n      tag_34\n      jump\t// in\n    tag_31:\n      stop\n        /* \"AutoChain.sol\":5709:5837  function CarHistory() view public { //View функция. Отображение истории автомобиля... */\n    tag_5:\n      callvalue\n      dup1\n      iszero\n      tag_35\n      jumpi\n      0x00\n      dup1\n      revert\n    tag_35:\n      pop\n      tag_36\n      tag_37\n      jump\t// in\n    tag_36:\n      stop\n        /* \"AutoChain.sol\":6334:6546  function AdDelete(uint256 _dealId) public{... */\n    tag_6:\n      callvalue\n      dup1\n      iszero\n      tag_38\n      jumpi\n      0x00\n      dup1\n      revert\n    tag_38:\n      pop\n      tag_39\n      0x04\n      dup1\n      calldatasize\n      sub\n      dup2\n      add\n      swap1\n      tag_40\n      swap2\n      swap1\n      tag_20\n      jump\t// in\n    tag_40:\n      tag_41\n      jump\t// in\n    tag_39:\n      stop\n        /* \"AutoChain.sol\":4997:5519  function SignCheck(uint256 _dealId, bool isSeller) public {... */\n    tag_7:\n      callvalue\n      dup1\n      iszero\n      tag_42\n      jumpi\n      0x00\n      dup1\n      revert\n    tag_42:\n      pop\n      tag_43\n      0x04\n      dup1\n      calldatasize\n      sub\n      dup2\n      add\n      swap1\n      tag_44\n      swap2\n      swap1\n      tag_45\n      jump\t// in\n    tag_44:\n      tag_46\n      jump\t// in\n    tag_43:\n      stop\n        /* \"AutoChain.sol\":5845:5944  function Test(uint256 _number) pure public returns (uint256){... */\n    tag_8:\n      callvalue\n      dup1\n      iszero\n      tag_47\n      jumpi\n      0x00\n      dup1\n      revert\n    tag_47:\n      pop\n      tag_48\n      0x04\n      dup1\n      calldatasize\n      sub\n      dup2\n      add\n      swap1\n      tag_49\n      swap2\n      swap1\n      tag_20\n      jump\t// in\n    tag_49:\n      tag_50\n      jump\t// in\n    tag_48:\n      mload(0x40)\n      tag_51\n      swap2\n      swap1\n      tag_29\n      jump\t// in\n    tag_51:\n      mload(0x40)\n      dup1\n      swap2\n      sub\n      swap1\n      return\n        /* \"AutoChain.sol\":2591:3933  function ShowAdvertInfo() view public returns (MainAd[] memory){ // View функция. Возврат массива со всеми сделками в статусе Active.... */\n    tag_9:\n      callvalue\n      dup1\n      iszero\n      tag_52\n      jumpi\n      0x00\n      dup1\n      revert\n    tag_52:\n      pop\n      tag_53\n      tag_54\n      jump\t// in\n    tag_53:\n      mload(0x40)\n      tag_55\n      swap2\n      swap1\n      tag_56\n      jump\t// in\n    tag_55:\n      mload(0x40)\n      dup1\n      swap2\n      sub\n      swap1\n      return\n        /* \"AutoChain.sol\":5957:6326  function ShowSoloAdvertInfo(uint256 _advertIndex) view public returns (DealDetails memory){... */\n    tag_10:\n      callvalue\n      dup1\n      iszero\n      tag_57\n      jumpi\n      0x00\n      dup1\n      revert\n    tag_57:\n      pop\n      tag_58\n      0x04\n      dup1\n      calldatasize\n      sub\n      dup2\n      add\n      swap1\n      tag_59\n      swap2\n      swap1\n      tag_20\n      jump\t// in\n    tag_59:\n      tag_60\n      jump\t// in\n    tag_58:\n      mload(0x40)\n      tag_61\n      swap2\n      swap1\n      tag_62\n      jump\t// in\n    tag_61:\n      mload(0x40)\n      dup1\n      swap2\n      sub\n      swap1\n      return\n        /* \"AutoChain.sol\":4705:4989  function ShowAcquirerInfo(uint256 _dealId) view public returns (AcquirerProfile memory){ // View функция. Отображение информации о покупателе на FrontEnd. Может не понадобиться.... */\n    tag_11:\n      callvalue\n      dup1\n      iszero\n      tag_63\n      jumpi\n      0x00\n      dup1\n      revert\n    tag_63:\n      pop\n      tag_64\n      0x04\n      dup1\n      calldatasize\n      sub\n      dup2\n      add\n      swap1\n      tag_65\n      swap2\n      swap1\n      tag_20\n      jump\t// in\n    tag_65:\n      tag_66\n      jump\t// in\n    tag_64:\n      mload(0x40)\n      tag_67\n      swap2\n      swap1\n      tag_68\n      jump\t// in\n    tag_67:\n      mload(0x40)\n      dup1\n      swap2\n      sub\n      swap1\n      return\n        /* \"AutoChain.sol\":3943:4695  function AcquirerInfo(uint256 _dealId, AcquirerProfile memory _acquirerProfile) public payable { // Функция для получения информации о покупателе со стороны FrontEnd + средства для оплаты. ... */\n    tag_12:\n      tag_69\n      0x04\n      dup1\n      calldatasize\n      sub\n      dup2\n      add\n      swap1\n      tag_70\n      swap2\n      swap1\n      tag_71\n      jump\t// in\n    tag_70:\n      tag_72\n      jump\t// in\n    tag_69:\n      stop\n        /* \"AutoChain.sol\":2181:2585  function SellerInfo(Advert memory _advert) public { // Функция для получения информации о продавце с FrontEnd... */\n    tag_13:\n      callvalue\n      dup1\n      iszero\n      tag_73\n      jumpi\n      0x00\n      dup1\n      revert\n    tag_73:\n      pop\n      tag_74\n      0x04\n      dup1\n      calldatasize\n      sub\n      dup2\n      add\n      swap1\n      tag_75\n      swap2\n      swap1\n      tag_76\n      jump\t// in\n    tag_75:\n      tag_77\n      jump\t// in\n    tag_74:\n      stop\n        /* \"AutoChain.sol\":2139:2172  uint256 public currentEmptyId = 0 */\n    tag_14:\n      callvalue\n      dup1\n      iszero\n      tag_78\n      jumpi\n      0x00\n      dup1\n      revert\n    tag_78:\n      pop\n      tag_79\n      tag_80\n      jump\t// in\n    tag_79:\n      mload(0x40)\n      tag_81\n      swap2\n      swap1\n      tag_29\n      jump\t// in\n    tag_81:\n      mload(0x40)\n      dup1\n      swap2\n      sub\n      swap1\n      return\n        /* \"AutoChain.sol\":2095:2132  mapping(uint256 => Deal) public deals */\n    tag_21:\n      mstore(0x20, 0x00)\n      dup1\n      0x00\n      mstore\n      keccak256(0x00, 0x40)\n      0x00\n      swap2\n      pop\n      swap1\n      pop\n      dup1\n      0x00\n      add\n      sload\n      swap1\n      dup1\n      0x01\n      add\n      0x00\n      swap1\n      sload\n      swap1\n      0x0100\n      exp\n      swap1\n      div\n      0xffffffffffffffffffffffffffffffffffffffff\n      and\n      swap1\n      dup1\n      0x02\n      add\n      mload(0x40)\n      dup1\n      0xc0\n      add\n      0x40\n      mstore\n      swap1\n      dup2\n      0x00\n      dup3\n      add\n      mload(0x40)\n      dup1\n      0x60\n      add\n      0x40\n      mstore\n      swap1\n      dup2\n      0x00\n      dup3\n      add\n      dup1\n      sload\n      tag_82\n      swap1\n      tag_83\n      jump\t// in\n    tag_82:\n      dup1\n      0x1f\n      add\n      0x20\n      dup1\n      swap2\n      div\n      mul\n      0x20\n      add\n      mload(0x40)\n      swap1\n      dup2\n      add\n      0x40\n      mstore\n      dup1\n      swap3\n      swap2\n      swap1\n      dup2\n      dup2\n      mstore\n      0x20\n      add\n      dup3\n      dup1\n      sload\n      tag_84\n      swap1\n      tag_83\n      jump\t// in\n    tag_84:\n      dup1\n      iszero\n      tag_85\n      jumpi\n      dup1\n      0x1f\n      lt\n      tag_86\n      jumpi\n      0x0100\n      dup1\n      dup4\n      sload\n      div\n      mul\n      dup4\n      mstore\n      swap2\n      0x20\n      add\n      swap2\n      jump(tag_85)\n    tag_86:\n      dup3\n      add\n      swap2\n      swap1\n      0x00\n      mstore\n      keccak256(0x00, 0x20)\n      swap1\n    tag_87:\n      dup2\n      sload\n      dup2\n      mstore\n      swap1\n      0x01\n      add\n      swap1\n      0x20\n      add\n      dup1\n      dup4\n      gt\n      tag_87\n      jumpi\n      dup3\n      swap1\n      sub\n      0x1f\n      and\n      dup3\n      add\n      swap2\n    tag_85:\n      pop\n      pop\n      pop\n      pop\n      pop\n      dup2\n      mstore\n      0x20\n      add\n      0x01\n      dup3\n      add\n      dup1\n      sload\n      tag_88\n      swap1\n      tag_83\n      jump\t// in\n    tag_88:\n      dup1\n      0x1f\n      add\n      0x20\n      dup1\n      swap2\n      div\n      mul\n      0x20\n      add\n      mload(0x40)\n      swap1\n      dup2\n      add\n      0x40\n      mstore\n      dup1\n      swap3\n      swap2\n      swap1\n      dup2\n      dup2\n      mstore\n      0x20\n      add\n      dup3\n      dup1\n      sload\n      tag_89\n      swap1\n      tag_83\n      jump\t// in\n    tag_89:\n      dup1\n      iszero\n      tag_90\n      jumpi\n      dup1\n      0x1f\n      lt\n      tag_91\n      jumpi\n      0x0100\n      dup1\n      dup4\n      sload\n      div\n      mul\n      dup4\n      mstore\n      swap2\n      0x20\n      add\n      swap2\n      jump(tag_90)\n    tag_91:\n      dup3\n      add\n      swap2\n      swap1\n      0x00\n      mstore\n      keccak256(0x00, 0x20)\n      swap1\n    tag_92:\n      dup2\n      sload\n      dup2\n      mstore\n      swap1\n      0x01\n      add\n      swap1\n      0x20\n      add\n      dup1\n      dup4\n      gt\n      tag_92\n      jumpi\n      dup3\n      swap1\n      sub\n      0x1f\n      and\n      dup3\n      add\n      swap2\n    tag_90:\n      pop\n      pop\n      pop\n      pop\n      pop\n      dup2\n      mstore\n      0x20\n      add\n      0x02\n      dup3\n      add\n      dup1\n      sload\n      tag_93\n      swap1\n      tag_83\n      jump\t// in\n    tag_93:\n      dup1\n      0x1f\n      add\n      0x20\n      dup1\n      swap2\n      div\n      mul\n      0x20\n      add\n      mload(0x40)\n      swap1\n      dup2\n      add\n      0x40\n      mstore\n      dup1\n      swap3\n      swap2\n      swap1\n      dup2\n      dup2\n      mstore\n      0x20\n      add\n      dup3\n      dup1\n      sload\n      tag_94\n      swap1\n      tag_83\n      jump\t// in\n    tag_94:\n      dup1\n      iszero\n      tag_95\n      jumpi\n      dup1\n      0x1f\n      lt\n      tag_96\n      jumpi\n      0x0100\n      dup1\n      dup4\n      sload\n      div\n      mul\n      dup4\n      mstore\n      swap2\n      0x20\n      add\n      swap2\n      jump(tag_95)\n    tag_96:\n      dup3\n      add\n      swap2\n      swap1\n      0x00\n      mstore\n      keccak256(0x00, 0x20)\n      swap1\n    tag_97:\n      dup2\n      sload\n      dup2\n      mstore\n      swap1\n      0x01\n      add\n      swap1\n      0x20\n      add\n      dup1\n      dup4\n      gt\n      tag_97\n      jumpi\n      dup3\n      swap1\n      sub\n      0x1f\n      and\n      dup3\n      add\n      swap2\n    tag_95:\n      pop\n      pop\n      pop\n      pop\n      pop\n      dup2\n      mstore\n      pop\n      pop\n      dup2\n      mstore\n      0x20\n      add\n      0x03\n      dup3\n      add\n      mload(0x40)\n      dup1\n      0x80\n      add\n      0x40\n      mstore\n      swap1\n      dup2\n      0x00\n      dup3\n      add\n      sload\n      dup2\n      mstore\n      0x20\n      add\n      0x01\n      dup3\n      add\n      sload\n      dup2\n      mstore\n      0x20\n      add\n      0x02\n      dup3\n      add\n      dup1\n      sload\n      tag_98\n      swap1\n      tag_83\n      jump\t// in\n    tag_98:\n      dup1\n      0x1f\n      add\n      0x20\n      dup1\n      swap2\n      div\n      mul\n      0x20\n      add\n      mload(0x40)\n      swap1\n      dup2\n      add\n      0x40\n      mstore\n      dup1\n      swap3\n      swap2\n      swap1\n      dup2\n      dup2\n      mstore\n      0x20\n      add\n      dup3\n      dup1\n      sload\n      tag_99\n      swap1\n      tag_83\n      jump\t// in\n    tag_99:\n      dup1\n      iszero\n      tag_100\n      jumpi\n      dup1\n      0x1f\n      lt\n      tag_101\n      jumpi\n      0x0100\n      dup1\n      dup4\n      sload\n      div\n      mul\n      dup4\n      mstore\n      swap2\n      0x20\n      add\n      swap2\n      jump(tag_100)\n    tag_101:\n      dup3\n      add\n      swap2\n      swap1\n      0x00\n      mstore\n      keccak256(0x00, 0x20)\n      swap1\n    tag_102:\n      dup2\n      sload\n      dup2\n      mstore\n      swap1\n      0x01\n      add\n      swap1\n      0x20\n      add\n      dup1\n      dup4\n      gt\n      tag_102\n      jumpi\n      dup3\n      swap1\n      sub\n      0x1f\n      and\n      dup3\n      add\n      swap2\n    tag_100:\n      pop\n      pop\n      pop\n      pop\n      pop\n      dup2\n      mstore\n      0x20\n      add\n      0x03\n      dup3\n      add\n      dup1\n      sload\n      tag_103\n      swap1\n      tag_83\n      jump\t// in\n    tag_103:\n      dup1\n      0x1f\n      add\n      0x20\n      dup1\n      swap2\n      div\n      mul\n      0x20\n      add\n      mload(0x40)\n      swap1\n      dup2\n      add\n      0x40\n      mstore\n      dup1\n      swap3\n      swap2\n      swap1\n      dup2\n      dup2\n      mstore\n      0x20\n      add\n      dup3\n      dup1\n      sload\n      tag_104\n      swap1\n      tag_83\n      jump\t// in\n    tag_104:\n      dup1\n      iszero\n      tag_105\n      jumpi\n      dup1\n      0x1f\n      lt\n      tag_106\n      jumpi\n      0x0100\n      dup1\n      dup4\n      sload\n      div\n      mul\n      dup4\n      mstore\n      swap2\n      0x20\n      add\n      swap2\n      jump(tag_105)\n    tag_106:\n      dup3\n      add\n      swap2\n      swap1\n      0x00\n      mstore\n      keccak256(0x00, 0x20)\n      swap1\n    tag_107:\n      dup2\n      sload\n      dup2\n      mstore\n      swap1\n      0x01\n      add\n      swap1\n      0x20\n      add\n      dup1\n      dup4\n      gt\n      tag_107\n      jumpi\n      dup3\n      swap1\n      sub\n      0x1f\n      and\n      dup3\n      add\n      swap2\n    tag_105:\n      pop\n      pop\n      pop\n      pop\n      pop\n      dup2\n      mstore\n      pop\n      pop\n      dup2\n      mstore\n      0x20\n      add\n      0x07\n      dup3\n      add\n      dup1\n      sload\n      tag_108\n      swap1\n      tag_83\n      jump\t// in\n    tag_108:\n      dup1\n      0x1f\n      add\n      0x20\n      dup1\n      swap2\n      div\n      mul\n      0x20\n      add\n      mload(0x40)\n      swap1\n      dup2\n      add\n      0x40\n      mstore\n      dup1\n      swap3\n      swap2\n      swap1\n      dup2\n      dup2\n      mstore\n      0x20\n      add\n      dup3\n      dup1\n      sload\n      tag_109\n      swap1\n      tag_83\n      jump\t// in\n    tag_109:\n      dup1\n      iszero\n      tag_110\n      jumpi\n      dup1\n      0x1f\n      lt\n      tag_111\n      jumpi\n      0x0100\n      dup1\n      dup4\n      sload\n      div\n      mul\n      dup4\n      mstore\n      swap2\n      0x20\n      add\n      swap2\n      jump(tag_110)\n    tag_111:\n      dup3\n      add\n      swap2\n      swap1\n      0x00\n      mstore\n      keccak256(0x00, 0x20)\n      swap1\n    tag_112:\n      dup2\n      sload\n      dup2\n      mstore\n      swap1\n      0x01\n      add\n      swap1\n      0x20\n      add\n      dup1\n      dup4\n      gt\n      tag_112\n      jumpi\n      dup3\n      swap1\n      sub\n      0x1f\n      and\n      dup3\n      add\n      swap2\n    tag_110:\n      pop\n      pop\n      pop\n      pop\n      pop\n      dup2\n      mstore\n      0x20\n      add\n      0x08\n      dup3\n      add\n      mload(0x40)\n      dup1\n      0x0120\n      add\n      0x40\n      mstore\n      swap1\n      dup2\n      0x00\n      dup3\n      add\n      dup1\n      sload\n      tag_113\n      swap1\n      tag_83\n      jump\t// in\n    tag_113:\n      dup1\n      0x1f\n      add\n      0x20\n      dup1\n      swap2\n      div\n      mul\n      0x20\n      add\n      mload(0x40)\n      swap1\n      dup2\n      add\n      0x40\n      mstore\n      dup1\n      swap3\n      swap2\n      swap1\n      dup2\n      dup2\n      mstore\n      0x20\n      add\n      dup3\n      dup1\n      sload\n      tag_114\n      swap1\n      tag_83\n      jump\t// in\n    tag_114:\n      dup1\n      iszero\n      tag_115\n      jumpi\n      dup1\n      0x1f\n      lt\n      tag_116\n      jumpi\n      0x0100\n      dup1\n      dup4\n      sload\n      div\n      mul\n      dup4\n      mstore\n      swap2\n      0x20\n      add\n      swap2\n      jump(tag_115)\n    tag_116:\n      dup3\n      add\n      swap2\n      swap1\n      0x00\n      mstore\n      keccak256(0x00, 0x20)\n      swap1\n    tag_117:\n      dup2\n      sload\n      dup2\n      mstore\n      swap1\n      0x01\n      add\n      swap1\n      0x20\n      add\n      dup1\n      dup4\n      gt\n      tag_117\n      jumpi\n      dup3\n      swap1\n      sub\n      0x1f\n      and\n      dup3\n      add\n      swap2\n    tag_115:\n      pop\n      pop\n      pop\n      pop\n      pop\n      dup2\n      mstore\n      0x20\n      add\n      0x01\n      dup3\n      add\n      sload\n      dup2\n      mstore\n      0x20\n      add\n      0x02\n      dup3\n      add\n      dup1\n      sload\n      tag_118\n      swap1\n      tag_83\n      jump\t// in\n    tag_118:\n      dup1\n      0x1f\n      add\n      0x20\n      dup1\n      swap2\n      div\n      mul\n      0x20\n      add\n      mload(0x40)\n      swap1\n      dup2\n      add\n      0x40\n      mstore\n      dup1\n      swap3\n      swap2\n      swap1\n      dup2\n      dup2\n      mstore\n      0x20\n      add\n      dup3\n      dup1\n      sload\n      tag_119\n      swap1\n      tag_83\n      jump\t// in\n    tag_119:\n      dup1\n      iszero\n      tag_120\n      jumpi\n      dup1\n      0x1f\n      lt\n      tag_121\n      jumpi\n      0x0100\n      dup1\n      dup4\n      sload\n      div\n      mul\n      dup4\n      mstore\n      swap2\n      0x20\n      add\n      swap2\n      jump(tag_120)\n    tag_121:\n      dup3\n      add\n      swap2\n      swap1\n      0x00\n      mstore\n      keccak256(0x00, 0x20)\n      swap1\n    tag_122:\n      dup2\n      sload\n      dup2\n      mstore\n      swap1\n      0x01\n      add\n      swap1\n      0x20\n      add\n      dup1\n      dup4\n      gt\n      tag_122\n      jumpi\n      dup3\n      swap1\n      sub\n      0x1f\n      and\n      dup3\n      add\n      swap2\n    tag_120:\n      pop\n      pop\n      pop\n      pop\n      pop\n      dup2\n      mstore\n      0x20\n      add\n      0x03\n      dup3\n      add\n      dup1\n      sload\n      tag_123\n      swap1\n      tag_83\n      jump\t// in\n    tag_123:\n      dup1\n      0x1f\n      add\n      0x20\n      dup1\n      swap2\n      div\n      mul\n      0x20\n      add\n      mload(0x40)\n      swap1\n      dup2\n      add\n      0x40\n      mstore\n      dup1\n      swap3\n      swap2\n      swap1\n      dup2\n      dup2\n      mstore\n      0x20\n      add\n      dup3\n      dup1\n      sload\n      tag_124\n      swap1\n      tag_83\n      jump\t// in\n    tag_124:\n      dup1\n      iszero\n      tag_125\n      jumpi\n      dup1\n      0x1f\n      lt\n      tag_126\n      jumpi\n      0x0100\n      dup1\n      dup4\n      sload\n      div\n      mul\n      dup4\n      mstore\n      swap2\n      0x20\n      add\n      swap2\n      jump(tag_125)\n    tag_126:\n      dup3\n      add\n      swap2\n      swap1\n      0x00\n      mstore\n      keccak256(0x00, 0x20)\n      swap1\n    tag_127:\n      dup2\n      sload\n      dup2\n      mstore\n      swap1\n      0x01\n      add\n      swap1\n      0x20\n      add\n      dup1\n      dup4\n      gt\n      tag_127\n      jumpi\n      dup3\n      swap1\n      sub\n      0x1f\n      and\n      dup3\n      add\n      swap2\n    tag_125:\n      pop\n      pop\n      pop\n      pop\n      pop\n      dup2\n      mstore\n      0x20\n      add\n      0x04\n      dup3\n      add\n      dup1\n      sload\n      tag_128\n      swap1\n      tag_83\n      jump\t// in\n    tag_128:\n      dup1\n      0x1f\n      add\n      0x20\n      dup1\n      swap2\n      div\n      mul\n      0x20\n      add\n      mload(0x40)\n      swap1\n      dup2\n      add\n      0x40\n      mstore\n      dup1\n      swap3\n      swap2\n      swap1\n      dup2\n      dup2\n      mstore\n      0x20\n      add\n      dup3\n      dup1\n      sload\n      tag_129\n      swap1\n      tag_83\n      jump\t// in\n    tag_129:\n      dup1\n      iszero\n      tag_130\n      jumpi\n      dup1\n      0x1f\n      lt\n      tag_131\n      jumpi\n      0x0100\n      dup1\n      dup4\n      sload\n      div\n      mul\n      dup4\n      mstore\n      swap2\n      0x20\n      add\n      swap2\n      jump(tag_130)\n    tag_131:\n      dup3\n      add\n      swap2\n      swap1\n      0x00\n      mstore\n      keccak256(0x00, 0x20)\n      swap1\n    tag_132:\n      dup2\n      sload\n      dup2\n      mstore\n      swap1\n      0x01\n      add\n      swap1\n      0x20\n      add\n      dup1\n      dup4\n      gt\n      tag_132\n      jumpi\n      dup3\n      swap1\n      sub\n      0x1f\n      and\n      dup3\n      add\n      swap2\n    tag_130:\n      pop\n      pop\n      pop\n      pop\n      pop\n      dup2\n      mstore\n      0x20\n      add\n      0x05\n      dup3\n      add\n      sload\n      dup2\n      mstore\n      0x20\n      add\n      0x06\n      dup3\n      add\n      sload\n      dup2\n      mstore\n      0x20\n      add\n      0x07\n      dup3\n      add\n      mload(0x40)\n      dup1\n      0x80\n      add\n      0x40\n      mstore\n      swap1\n      dup2\n      0x00\n      dup3\n      add\n      sload\n      dup2\n      mstore\n      0x20\n      add\n      0x01\n      dup3\n      add\n      sload\n      dup2\n      mstore\n      0x20\n      add\n      0x02\n      dup3\n      add\n      dup1\n      sload\n      tag_133\n      swap1\n      tag_83\n      jump\t// in\n    tag_133:\n      dup1\n      0x1f\n      add\n      0x20\n      dup1\n      swap2\n      div\n      mul\n      0x20\n      add\n      mload(0x40)\n      swap1\n      dup2\n      add\n      0x40\n      mstore\n      dup1\n      swap3\n      swap2\n      swap1\n      dup2\n      dup2\n      mstore\n      0x20\n      add\n      dup3\n      dup1\n      sload\n      tag_134\n      swap1\n      tag_83\n      jump\t// in\n    tag_134:\n      dup1\n      iszero\n      tag_135\n      jumpi\n      dup1\n      0x1f\n      lt\n      tag_136\n      jumpi\n      0x0100\n      dup1\n      dup4\n      sload\n      div\n      mul\n      dup4\n      mstore\n      swap2\n      0x20\n      add\n      swap2\n      jump(tag_135)\n    tag_136:\n      dup3\n      add\n      swap2\n      swap1\n      0x00\n      mstore\n      keccak256(0x00, 0x20)\n      swap1\n    tag_137:\n      dup2\n      sload\n      dup2\n      mstore\n      swap1\n      0x01\n      add\n      swap1\n      0x20\n      add\n      dup1\n      dup4\n      gt\n      tag_137\n      jumpi\n      dup3\n      swap1\n      sub\n      0x1f\n      and\n      dup3\n      add\n      swap2\n    tag_135:\n      pop\n      pop\n      pop\n      pop\n      pop\n      dup2\n      mstore\n      0x20\n      add\n      0x03\n      dup3\n      add\n      dup1\n      sload\n      tag_138\n      swap1\n      tag_83\n      jump\t// in\n    tag_138:\n      dup1\n      0x1f\n      add\n      0x20\n      dup1\n      swap2\n      div\n      mul\n      0x20\n      add\n      mload(0x40)\n      swap1\n      dup2\n      add\n      0x40\n      mstore\n      dup1\n      swap3\n      swap2\n      swap1\n      dup2\n      dup2\n      mstore\n      0x20\n      add\n      dup3\n      dup1\n      sload\n      tag_139\n      swap1\n      tag_83\n      jump\t// in\n    tag_139:\n      dup1\n      iszero\n      tag_140\n      jumpi\n      dup1\n      0x1f\n      lt\n      tag_141\n      jumpi\n      0x0100\n      dup1\n      dup4\n      sload\n      div\n      mul\n      dup4\n      mstore\n      swap2\n      0x20\n      add\n      swap2\n      jump(tag_140)\n    tag_141:\n      dup3\n      add\n      swap2\n      swap1\n      0x00\n      mstore\n      keccak256(0x00, 0x20)\n      swap1\n    tag_142:\n      dup2\n      sload\n      dup2\n      mstore\n      swap1\n      0x01\n      add\n      swap1\n      0x20\n      add\n      dup1\n      dup4\n      gt\n      tag_142\n      jumpi\n      dup3\n      swap1\n      sub\n      0x1f\n      and\n      dup3\n      add\n      swap2\n    tag_140:\n      pop\n      pop\n      pop\n      pop\n      pop\n      dup2\n      mstore\n      pop\n      pop\n      dup2\n      mstore\n      0x20\n      add\n      0x0b\n      dup3\n      add\n      mload(0x40)\n      dup1\n      0x40\n      add\n      0x40\n      mstore\n      swap1\n      dup2\n      0x00\n      dup3\n      add\n      sload\n      dup2\n      mstore\n      0x20\n      add\n      0x01\n      dup3\n      add\n      sload\n      dup2\n      mstore\n      pop\n      pop\n      dup2\n      mstore\n      pop\n      pop\n      dup2\n      mstore\n      0x20\n      add\n      0x15\n      dup3\n      add\n      sload\n      dup2\n      mstore\n      0x20\n      add\n      0x16\n      dup3\n      add\n      dup1\n      sload\n      tag_143\n      swap1\n      tag_83\n      jump\t// in\n    tag_143:\n      dup1\n      0x1f\n      add\n      0x20\n      dup1\n      swap2\n      div\n      mul\n      0x20\n      add\n      mload(0x40)\n      swap1\n      dup2\n      add\n      0x40\n      mstore\n      dup1\n      swap3\n      swap2\n      swap1\n      dup2\n      dup2\n      mstore\n      0x20\n      add\n      dup3\n      dup1\n      sload\n      tag_144\n      swap1\n      tag_83\n      jump\t// in\n    tag_144:\n      dup1\n      iszero\n      tag_145\n      jumpi\n      dup1\n      0x1f\n      lt\n      tag_146\n      jumpi\n      0x0100\n      dup1\n      dup4\n      sload\n      div\n      mul\n      dup4\n      mstore\n      swap2\n      0x20\n      add\n      swap2\n      jump(tag_145)\n    tag_146:\n      dup3\n      add\n      swap2\n      swap1\n      0x00\n      mstore\n      keccak256(0x00, 0x20)\n      swap1\n    tag_147:\n      dup2\n      sload\n      dup2\n      mstore\n      swap1\n      0x01\n      add\n      swap1\n      0x20\n      add\n      dup1\n      dup4\n      gt\n      tag_147\n      jumpi\n      dup3\n      swap1\n      sub\n      0x1f\n      and\n      dup3\n      add\n      swap2\n    tag_145:\n      pop\n      pop\n      pop\n      pop\n      pop\n      dup2\n      mstore\n      pop\n      pop\n      swap1\n      dup1\n      0x19\n      add\n      0x00\n      swap1\n      sload\n      swap1\n      0x0100\n      exp\n      swap1\n      div\n      0xffffffffffffffffffffffffffffffffffffffff\n      and\n      swap1\n      dup1\n      0x1a\n      add\n      mload(0x40)\n      dup1\n      0x60\n      add\n      0x40\n      mstore\n      swap1\n      dup2\n      0x00\n      dup3\n      add\n      mload(0x40)\n      dup1\n      0x60\n      add\n      0x40\n      mstore\n      swap1\n      dup2\n      0x00\n      dup3\n      add\n      dup1\n      sload\n      tag_148\n      swap1\n      tag_83\n      jump\t// in\n    tag_148:\n      dup1\n      0x1f\n      add\n      0x20\n      dup1\n      swap2\n      div\n      mul\n      0x20\n      add\n      mload(0x40)\n      swap1\n      dup2\n      add\n      0x40\n      mstore\n      dup1\n      swap3\n      swap2\n      swap1\n      dup2\n      dup2\n      mstore\n      0x20\n      add\n      dup3\n      dup1\n      sload\n      tag_149\n      swap1\n      tag_83\n      jump\t// in\n    tag_149:\n      dup1\n      iszero\n      tag_150\n      jumpi\n      dup1\n      0x1f\n      lt\n      tag_151\n      jumpi\n      0x0100\n      dup1\n      dup4\n      sload\n      div\n      mul\n      dup4\n      mstore\n      swap2\n      0x20\n      add\n      swap2\n      jump(tag_150)\n    tag_151:\n      dup3\n      add\n      swap2\n      swap1\n      0x00\n      mstore\n      keccak256(0x00, 0x20)\n      swap1\n    tag_152:\n      dup2\n      sload\n      dup2\n      mstore\n      swap1\n      0x01\n      add\n      swap1\n      0x20\n      add\n      dup1\n      dup4\n      gt\n      tag_152\n      jumpi\n      dup3\n      swap1\n      sub\n      0x1f\n      and\n      dup3\n      add\n      swap2\n    tag_150:\n      pop\n      pop\n      pop\n      pop\n      pop\n      dup2\n      mstore\n      0x20\n      add\n      0x01\n      dup3\n      add\n      dup1\n      sload\n      tag_153\n      swap1\n      tag_83\n      jump\t// in\n    tag_153:\n      dup1\n      0x1f\n      add\n      0x20\n      dup1\n      swap2\n      div\n      mul\n      0x20\n      add\n      mload(0x40)\n      swap1\n      dup2\n      add\n      0x40\n      mstore\n      dup1\n      swap3\n      swap2\n      swap1\n      dup2\n      dup2\n      mstore\n      0x20\n      add\n      dup3\n      dup1\n      sload\n      tag_154\n      swap1\n      tag_83\n      jump\t// in\n    tag_154:\n      dup1\n      iszero\n      tag_155\n      jumpi\n      dup1\n      0x1f\n      lt\n      tag_156\n      jumpi\n      0x0100\n      dup1\n      dup4\n      sload\n      div\n      mul\n      dup4\n      mstore\n      swap2\n      0x20\n      add\n      swap2\n      jump(tag_155)\n    tag_156:\n      dup3\n      add\n      swap2\n      swap1\n      0x00\n      mstore\n      keccak256(0x00, 0x20)\n      swap1\n    tag_157:\n      dup2\n      sload\n      dup2\n      mstore\n      swap1\n      0x01\n      add\n      swap1\n      0x20\n      add\n      dup1\n      dup4\n      gt\n      tag_157\n      jumpi\n      dup3\n      swap1\n      sub\n      0x1f\n      and\n      dup3\n      add\n      swap2\n    tag_155:\n      pop\n      pop\n      pop\n      pop\n      pop\n      dup2\n      mstore\n      0x20\n      add\n      0x02\n      dup3\n      add\n      dup1\n      sload\n      tag_158\n      swap1\n      tag_83\n      jump\t// in\n    tag_158:\n      dup1\n      0x1f\n      add\n      0x20\n      dup1\n      swap2\n      div\n      mul\n      0x20\n      add\n      mload(0x40)\n      swap1\n      dup2\n      add\n      0x40\n      mstore\n      dup1\n      swap3\n      swap2\n      swap1\n      dup2\n      dup2\n      mstore\n      0x20\n      add\n      dup3\n      dup1\n      sload\n      tag_159\n      swap1\n      tag_83\n      jump\t// in\n    tag_159:\n      dup1\n      iszero\n      tag_160\n      jumpi\n      dup1\n      0x1f\n      lt\n      tag_161\n      jumpi\n      0x0100\n      dup1\n      dup4\n      sload\n      div\n      mul\n      dup4\n      mstore\n      swap2\n      0x20\n      add\n      swap2\n      jump(tag_160)\n    tag_161:\n      dup3\n      add\n      swap2\n      swap1\n      0x00\n      mstore\n      keccak256(0x00, 0x20)\n      swap1\n    tag_162:\n      dup2\n      sload\n      dup2\n      mstore\n      swap1\n      0x01\n      add\n      swap1\n      0x20\n      add\n      dup1\n      dup4\n      gt\n      tag_162\n      jumpi\n      dup3\n      swap1\n      sub\n      0x1f\n      and\n      dup3\n      add\n      swap2\n    tag_160:\n      pop\n      pop\n      pop\n      pop\n      pop\n      dup2\n      mstore\n      pop\n      pop\n      dup2\n      mstore\n      0x20\n      add\n      0x03\n      dup3\n      add\n      mload(0x40)\n      dup1\n      0x80\n      add\n      0x40\n      mstore\n      swap1\n      dup2\n      0x00\n      dup3\n      add\n      sload\n      dup2\n      mstore\n      0x20\n      add\n      0x01\n      dup3\n      add\n      sload\n      dup2\n      mstore\n      0x20\n      add\n      0x02\n      dup3\n      add\n      dup1\n      sload\n      tag_163\n      swap1\n      tag_83\n      jump\t// in\n    tag_163:\n      dup1\n      0x1f\n      add\n      0x20\n      dup1\n      swap2\n      div\n      mul\n      0x20\n      add\n      mload(0x40)\n      swap1\n      dup2\n      add\n      0x40\n      mstore\n      dup1\n      swap3\n      swap2\n      swap1\n      dup2\n      dup2\n      mstore\n      0x20\n      add\n      dup3\n      dup1\n      sload\n      tag_164\n      swap1\n      tag_83\n      jump\t// in\n    tag_164:\n      dup1\n      iszero\n      tag_165\n      jumpi\n      dup1\n      0x1f\n      lt\n      tag_166\n      jumpi\n      0x0100\n      dup1\n      dup4\n      sload\n      div\n      mul\n      dup4\n      mstore\n      swap2\n      0x20\n      add\n      swap2\n      jump(tag_165)\n    tag_166:\n      dup3\n      add\n      swap2\n      swap1\n      0x00\n      mstore\n      keccak256(0x00, 0x20)\n      swap1\n    tag_167:\n      dup2\n      sload\n      dup2\n      mstore\n      swap1\n      0x01\n      add\n      swap1\n      0x20\n      add\n      dup1\n      dup4\n      gt\n      tag_167\n      jumpi\n      dup3\n      swap1\n      sub\n      0x1f\n      and\n      dup3\n      add\n      swap2\n    tag_165:\n      pop\n      pop\n      pop\n      pop\n      pop\n      dup2\n      mstore\n      0x20\n      add\n      0x03\n      dup3\n      add\n      dup1\n      sload\n      tag_168\n      swap1\n      tag_83\n      jump\t// in\n    tag_168:\n      dup1\n      0x1f\n      add\n      0x20\n      dup1\n      swap2\n      div\n      mul\n      0x20\n      add\n      mload(0x40)\n      swap1\n      dup2\n      add\n      0x40\n      mstore\n      dup1\n      swap3\n      swap2\n      swap1\n      dup2\n      dup2\n      mstore\n      0x20\n      add\n      dup3\n      dup1\n      sload\n      tag_169\n      swap1\n      tag_83\n      jump\t// in\n    tag_169:\n      dup1\n      iszero\n      tag_170\n      jumpi\n      dup1\n      0x1f\n      lt\n      tag_171\n      jumpi\n      0x0100\n      dup1\n      dup4\n      sload\n      div\n      mul\n      dup4\n      mstore\n      swap2\n      0x20\n      add\n      swap2\n      jump(tag_170)\n    tag_171:\n      dup3\n      add\n      swap2\n      swap1\n      0x00\n      mstore\n      keccak256(0x00, 0x20)\n      swap1\n    tag_172:\n      dup2\n      sload\n      dup2\n      mstore\n      swap1\n      0x01\n      add\n      swap1\n      0x20\n      add\n      dup1\n      dup4\n      gt\n      tag_172\n      jumpi\n      dup3\n      swap1\n      sub\n      0x1f\n      and\n      dup3\n      add\n      swap2\n    tag_170:\n      pop\n      pop\n      pop\n      pop\n      pop\n      dup2\n      mstore\n      pop\n      pop\n      dup2\n      mstore\n      0x20\n      add\n      0x07\n      dup3\n      add\n      dup1\n      sload\n      tag_173\n      swap1\n      tag_83\n      jump\t// in\n    tag_173:\n      dup1\n      0x1f\n      add\n      0x20\n      dup1\n      swap2\n      div\n      mul\n      0x20\n      add\n      mload(0x40)\n      swap1\n      dup2\n      add\n      0x40\n      mstore\n      dup1\n      swap3\n      swap2\n      swap1\n      dup2\n      dup2\n      mstore\n      0x20\n      add\n      dup3\n      dup1\n      sload\n      tag_174\n      swap1\n      tag_83\n      jump\t// in\n    tag_174:\n      dup1\n      iszero\n      tag_175\n      jumpi\n      dup1\n      0x1f\n      lt\n      tag_176\n      jumpi\n      0x0100\n      dup1\n      dup4\n      sload\n      div\n      mul\n      dup4\n      mstore\n      swap2\n      0x20\n      add\n      swap2\n      jump(tag_175)\n    tag_176:\n      dup3\n      add\n      swap2\n      swap1\n      0x00\n      mstore\n      keccak256(0x00, 0x20)\n      swap1\n    tag_177:\n      dup2\n      sload\n      dup2\n      mstore\n      swap1\n      0x01\n      add\n      swap1\n      0x20\n      add\n      dup1\n      dup4\n      gt\n      tag_177\n      jumpi\n      dup3\n      swap1\n      sub\n      0x1f\n      and\n      dup3\n      add\n      swap2\n    tag_175:\n      pop\n      pop\n      pop\n      pop\n      pop\n      dup2\n      mstore\n      pop\n      pop\n      swap1\n      dup1\n      0x22\n      add\n      0x00\n      swap1\n      sload\n      swap1\n      0x0100\n      exp\n      swap1\n      div\n      0xff\n      and\n      swap1\n      dup1\n      0x22\n      add\n      0x01\n      swap1\n      sload\n      swap1\n      0x0100\n      exp\n      swap1\n      div\n      0xff\n      and\n      swap1\n      dup1\n      0x22\n      add\n      0x02\n      swap1\n      sload\n      swap1\n      0x0100\n      exp\n      swap1\n      div\n      0xff\n      and\n      swap1\n      pop\n      dup9\n      jump\t// out\n        /* \"AutoChain.sol\":6554:6723  function ToEthConverter(uint256 _carCost) view public returns(uint256){ // Преобразует рубли в ETH ... */\n    tag_27:\n        /* \"AutoChain.sol\":6616:6623  uint256 */\n      0x00\n        /* \"AutoChain.sol\":6687:6715  _carCost.getConversionRate() */\n      tag_179\n        /* \"AutoChain.sol\":6687:6695  _carCost */\n      dup3\n        /* \"AutoChain.sol\":6687:6713  _carCost.getConversionRate */\n      tag_180\n        /* \"AutoChain.sol\":6687:6715  _carCost.getConversionRate() */\n      jump\t// in\n    tag_179:\n        /* \"AutoChain.sol\":6680:6715  return _carCost.getConversionRate() */\n      swap1\n      pop\n        /* \"AutoChain.sol\":6554:6723  function ToEthConverter(uint256 _carCost) view public returns(uint256){ // Преобразует рубли в ETH ... */\n      swap2\n      swap1\n      pop\n      jump\t// out\n        /* \"AutoChain.sol\":5527:5703  function SetCarHistory(HistoryPiece memory _record) public { // Добавление записи с информацией об действии с автомобиля... */\n    tag_34:\n      pop\n      jump\t// out\n        /* \"AutoChain.sol\":5709:5837  function CarHistory() view public { //View функция. Отображение истории автомобиля... */\n    tag_37:\n      jump\t// out\n        /* \"AutoChain.sol\":6334:6546  function AdDelete(uint256 _dealId) public{... */\n    tag_41:\n        /* \"AutoChain.sol\":6430:6440  msg.sender */\n      caller\n        /* \"AutoChain.sol\":6398:6440  deals[_dealId].sellerAddress == msg.sender */\n      0xffffffffffffffffffffffffffffffffffffffff\n      and\n        /* \"AutoChain.sol\":6398:6403  deals */\n      0x00\n        /* \"AutoChain.sol\":6398:6412  deals[_dealId] */\n      dup1\n        /* \"AutoChain.sol\":6404:6411  _dealId */\n      dup4\n        /* \"AutoChain.sol\":6398:6412  deals[_dealId] */\n      dup2\n      mstore\n      0x20\n      add\n      swap1\n      dup2\n      mstore\n      0x20\n      add\n      0x00\n      keccak256\n        /* \"AutoChain.sol\":6398:6426  deals[_dealId].sellerAddress */\n      0x01\n      add\n      0x00\n      swap1\n      sload\n      swap1\n      0x0100\n      exp\n      swap1\n      div\n      0xffffffffffffffffffffffffffffffffffffffff\n      and\n        /* \"AutoChain.sol\":6398:6440  deals[_dealId].sellerAddress == msg.sender */\n      0xffffffffffffffffffffffffffffffffffffffff\n      and\n      eq\n        /* \"AutoChain.sol\":6390:6480  require(deals[_dealId].sellerAddress == msg.sender, \"You're not an owner of this advert.\") */\n      tag_184\n      jumpi\n      mload(0x40)\n      0x08c379a000000000000000000000000000000000000000000000000000000000\n      dup2\n      mstore\n      0x04\n      add\n      tag_185\n      swap1\n      tag_186\n      jump\t// in\n    tag_185:\n      mload(0x40)\n      dup1\n      swap2\n      sub\n      swap1\n      revert\n    tag_184:\n        /* \"AutoChain.sol\":6519:6538  Dealstatus.Finished */\n      0x02\n        /* \"AutoChain.sol\":6495:6500  deals */\n      0x00\n        /* \"AutoChain.sol\":6495:6509  deals[_dealId] */\n      dup1\n        /* \"AutoChain.sol\":6501:6508  _dealId */\n      dup4\n        /* \"AutoChain.sol\":6495:6509  deals[_dealId] */\n      dup2\n      mstore\n      0x20\n      add\n      swap1\n      dup2\n      mstore\n      0x20\n      add\n      0x00\n      keccak256\n        /* \"AutoChain.sol\":6495:6516  deals[_dealId].status */\n      0x22\n      add\n      0x00\n        /* \"AutoChain.sol\":6495:6538  deals[_dealId].status = Dealstatus.Finished */\n      0x0100\n      exp\n      dup2\n      sload\n      dup2\n      0xff\n      mul\n      not\n      and\n      swap1\n      dup4\n      0x02\n      dup2\n      gt\n      iszero\n      tag_187\n      jumpi\n      tag_188\n      tag_189\n      jump\t// in\n    tag_188:\n    tag_187:\n      mul\n      or\n      swap1\n      sstore\n      pop\n        /* \"AutoChain.sol\":6334:6546  function AdDelete(uint256 _dealId) public{... */\n      pop\n      jump\t// out\n        /* \"AutoChain.sol\":4997:5519  function SignCheck(uint256 _dealId, bool isSeller) public {... */\n    tag_46:\n        /* \"AutoChain.sol\":5066:5083  Deal storage deal */\n      0x00\n        /* \"AutoChain.sol\":5086:5091  deals */\n      dup1\n        /* \"AutoChain.sol\":5086:5100  deals[_dealId] */\n      0x00\n        /* \"AutoChain.sol\":5092:5099  _dealId */\n      dup5\n        /* \"AutoChain.sol\":5086:5100  deals[_dealId] */\n      dup2\n      mstore\n      0x20\n      add\n      swap1\n      dup2\n      mstore\n      0x20\n      add\n      0x00\n      keccak256\n        /* \"AutoChain.sol\":5066:5100  Deal storage deal = deals[_dealId] */\n      swap1\n      pop\n        /* \"AutoChain.sol\":5117:5125  isSeller */\n      dup2\n        /* \"AutoChain.sol\":5117:5161  isSeller && msg.sender == deal.sellerAddress */\n      dup1\n      iszero\n      tag_191\n      jumpi\n      pop\n        /* \"AutoChain.sol\":5143:5147  deal */\n      dup1\n        /* \"AutoChain.sol\":5143:5161  deal.sellerAddress */\n      0x01\n      add\n      0x00\n      swap1\n      sload\n      swap1\n      0x0100\n      exp\n      swap1\n      div\n      0xffffffffffffffffffffffffffffffffffffffff\n      and\n        /* \"AutoChain.sol\":5129:5161  msg.sender == deal.sellerAddress */\n      0xffffffffffffffffffffffffffffffffffffffff\n      and\n        /* \"AutoChain.sol\":5129:5139  msg.sender */\n      caller\n        /* \"AutoChain.sol\":5129:5161  msg.sender == deal.sellerAddress */\n      0xffffffffffffffffffffffffffffffffffffffff\n      and\n      eq\n        /* \"AutoChain.sol\":5117:5161  isSeller && msg.sender == deal.sellerAddress */\n    tag_191:\n        /* \"AutoChain.sol\":5113:5323  if (isSeller && msg.sender == deal.sellerAddress) {... */\n      iszero\n      tag_192\n      jumpi\n        /* \"AutoChain.sol\":5198:5202  true */\n      0x01\n        /* \"AutoChain.sol\":5178:5182  deal */\n      dup2\n        /* \"AutoChain.sol\":5178:5195  deal.sellerSigned */\n      0x22\n      add\n      0x01\n        /* \"AutoChain.sol\":5178:5202  deal.sellerSigned = true */\n      0x0100\n      exp\n      dup2\n      sload\n      dup2\n      0xff\n      mul\n      not\n      and\n      swap1\n      dup4\n      iszero\n      iszero\n      mul\n      or\n      swap1\n      sstore\n      pop\n        /* \"AutoChain.sol\":5113:5323  if (isSeller && msg.sender == deal.sellerAddress) {... */\n      jump(tag_193)\n    tag_192:\n        /* \"AutoChain.sol\":5225:5233  isSeller */\n      dup2\n        /* \"AutoChain.sol\":5224:5233  !isSeller */\n      iszero\n        /* \"AutoChain.sol\":5224:5271  !isSeller && msg.sender == deal.acquirerAddress */\n      dup1\n      iszero\n      tag_194\n      jumpi\n      pop\n        /* \"AutoChain.sol\":5251:5255  deal */\n      dup1\n        /* \"AutoChain.sol\":5251:5271  deal.acquirerAddress */\n      0x19\n      add\n      0x00\n      swap1\n      sload\n      swap1\n      0x0100\n      exp\n      swap1\n      div\n      0xffffffffffffffffffffffffffffffffffffffff\n      and\n        /* \"AutoChain.sol\":5237:5271  msg.sender == deal.acquirerAddress */\n      0xffffffffffffffffffffffffffffffffffffffff\n      and\n        /* \"AutoChain.sol\":5237:5247  msg.sender */\n      caller\n        /* \"AutoChain.sol\":5237:5271  msg.sender == deal.acquirerAddress */\n      0xffffffffffffffffffffffffffffffffffffffff\n      and\n      eq\n        /* \"AutoChain.sol\":5224:5271  !isSeller && msg.sender == deal.acquirerAddress */\n    tag_194:\n        /* \"AutoChain.sol\":5220:5323  if (!isSeller && msg.sender == deal.acquirerAddress) {... */\n      iszero\n      tag_195\n      jumpi\n        /* \"AutoChain.sol\":5307:5311  true */\n      0x01\n        /* \"AutoChain.sol\":5288:5292  deal */\n      dup2\n        /* \"AutoChain.sol\":5288:5304  deal.buyerSigned */\n      0x22\n      add\n      0x02\n        /* \"AutoChain.sol\":5288:5311  deal.buyerSigned = true */\n      0x0100\n      exp\n      dup2\n      sload\n      dup2\n      0xff\n      mul\n      not\n      and\n      swap1\n      dup4\n      iszero\n      iszero\n      mul\n      or\n      swap1\n      sstore\n      pop\n        /* \"AutoChain.sol\":5220:5323  if (!isSeller && msg.sender == deal.acquirerAddress) {... */\n    tag_195:\n        /* \"AutoChain.sol\":5113:5323  if (isSeller && msg.sender == deal.sellerAddress) {... */\n    tag_193:\n        /* \"AutoChain.sol\":5339:5343  deal */\n      dup1\n        /* \"AutoChain.sol\":5339:5356  deal.sellerSigned */\n      0x22\n      add\n      0x01\n      swap1\n      sload\n      swap1\n      0x0100\n      exp\n      swap1\n      div\n      0xff\n      and\n        /* \"AutoChain.sol\":5339:5376  deal.sellerSigned && deal.buyerSigned */\n      dup1\n      iszero\n      tag_196\n      jumpi\n      pop\n        /* \"AutoChain.sol\":5360:5364  deal */\n      dup1\n        /* \"AutoChain.sol\":5360:5376  deal.buyerSigned */\n      0x22\n      add\n      0x02\n      swap1\n      sload\n      swap1\n      0x0100\n      exp\n      swap1\n      div\n      0xff\n      and\n        /* \"AutoChain.sol\":5339:5376  deal.sellerSigned && deal.buyerSigned */\n    tag_196:\n        /* \"AutoChain.sol\":5335:5512  if (deal.sellerSigned && deal.buyerSigned) {... */\n      iszero\n      tag_197\n      jumpi\n        /* \"AutoChain.sol\":5401:5405  deal */\n      dup1\n        /* \"AutoChain.sol\":5401:5419  deal.sellerAddress */\n      0x01\n      add\n      0x00\n      swap1\n      sload\n      swap1\n      0x0100\n      exp\n      swap1\n      div\n      0xffffffffffffffffffffffffffffffffffffffff\n      and\n        /* \"AutoChain.sol\":5393:5429  payable(deal.sellerAddress).transfer */\n      0xffffffffffffffffffffffffffffffffffffffff\n      and\n        /* \"AutoChain.sol\":5393:5452  payable(deal.sellerAddress).transfer(address(this).balance) */\n      0x08fc\n        /* \"AutoChain.sol\":5430:5451  address(this).balance */\n      selfbalance\n        /* \"AutoChain.sol\":5393:5452  payable(deal.sellerAddress).transfer(address(this).balance) */\n      swap1\n      dup2\n      iszero\n      mul\n      swap1\n      mload(0x40)\n      0x00\n      mload(0x40)\n      dup1\n      dup4\n      sub\n      dup2\n      dup6\n      dup9\n      dup9\n      call\n      swap4\n      pop\n      pop\n      pop\n      pop\n      iszero\n      dup1\n      iszero\n      tag_199\n      jumpi\n      returndatasize\n      0x00\n      dup1\n      returndatacopy\n      revert(0x00, returndatasize)\n    tag_199:\n      pop\n        /* \"AutoChain.sol\":5481:5500  Dealstatus.Finished */\n      0x02\n        /* \"AutoChain.sol\":5467:5471  deal */\n      dup2\n        /* \"AutoChain.sol\":5467:5478  deal.status */\n      0x22\n      add\n      0x00\n        /* \"AutoChain.sol\":5467:5500  deal.status = Dealstatus.Finished */\n      0x0100\n      exp\n      dup2\n      sload\n      dup2\n      0xff\n      mul\n      not\n      and\n      swap1\n      dup4\n      0x02\n      dup2\n      gt\n      iszero\n      tag_200\n      jumpi\n      tag_201\n      tag_189\n      jump\t// in\n    tag_201:\n    tag_200:\n      mul\n      or\n      swap1\n      sstore\n      pop\n        /* \"AutoChain.sol\":5335:5512  if (deal.sellerSigned && deal.buyerSigned) {... */\n    tag_197:\n        /* \"AutoChain.sol\":5055:5519  {... */\n      pop\n        /* \"AutoChain.sol\":4997:5519  function SignCheck(uint256 _dealId, bool isSeller) public {... */\n      pop\n      pop\n      jump\t// out\n        /* \"AutoChain.sol\":5845:5944  function Test(uint256 _number) pure public returns (uint256){... */\n    tag_50:\n        /* \"AutoChain.sol\":5897:5904  uint256 */\n      0x00\n        /* \"AutoChain.sol\":5933:5936  100 */\n      0x64\n        /* \"AutoChain.sol\":5923:5930  _number */\n      dup3\n        /* \"AutoChain.sol\":5923:5936  _number + 100 */\n      tag_203\n      swap2\n      swap1\n      tag_204\n      jump\t// in\n    tag_203:\n        /* \"AutoChain.sol\":5916:5936  return _number + 100 */\n      swap1\n      pop\n        /* \"AutoChain.sol\":5845:5944  function Test(uint256 _number) pure public returns (uint256){... */\n      swap2\n      swap1\n      pop\n      jump\t// out\n        /* \"AutoChain.sol\":2591:3933  function ShowAdvertInfo() view public returns (MainAd[] memory){ // View функция. Возврат массива со всеми сделками в статусе Active.... */\n    tag_54:\n        /* \"AutoChain.sol\":2638:2653  MainAd[] memory */\n      0x60\n        /* \"AutoChain.sol\":2778:2799  uint256 activeCounter */\n      0x00\n        /* \"AutoChain.sol\":2820:2833  uint256 index */\n      dup1\n        /* \"AutoChain.sol\":2815:2995  for (uint256 index = 0; index < currentEmptyId; index++){... */\n    tag_206:\n        /* \"AutoChain.sol\":2847:2861  currentEmptyId */\n      sload(0x01)\n        /* \"AutoChain.sol\":2839:2844  index */\n      dup2\n        /* \"AutoChain.sol\":2839:2861  index < currentEmptyId */\n      lt\n        /* \"AutoChain.sol\":2815:2995  for (uint256 index = 0; index < currentEmptyId; index++){... */\n      iszero\n      tag_207\n      jumpi\n        /* \"AutoChain.sol\":2913:2930  Dealstatus.Active */\n      0x00\n        /* \"AutoChain.sol\":2890:2930  deals[index].status == Dealstatus.Active */\n      0x02\n      dup2\n      gt\n      iszero\n      tag_209\n      jumpi\n      tag_210\n      tag_189\n      jump\t// in\n    tag_210:\n    tag_209:\n        /* \"AutoChain.sol\":2890:2895  deals */\n      0x00\n        /* \"AutoChain.sol\":2890:2902  deals[index] */\n      dup1\n        /* \"AutoChain.sol\":2896:2901  index */\n      dup4\n        /* \"AutoChain.sol\":2890:2902  deals[index] */\n      dup2\n      mstore\n      0x20\n      add\n      swap1\n      dup2\n      mstore\n      0x20\n      add\n      0x00\n      keccak256\n        /* \"AutoChain.sol\":2890:2909  deals[index].status */\n      0x22\n      add\n      0x00\n      swap1\n      sload\n      swap1\n      0x0100\n      exp\n      swap1\n      div\n      0xff\n      and\n        /* \"AutoChain.sol\":2890:2930  deals[index].status == Dealstatus.Active */\n      0x02\n      dup2\n      gt\n      iszero\n      tag_211\n      jumpi\n      tag_212\n      tag_189\n      jump\t// in\n    tag_212:\n    tag_211:\n      sub\n        /* \"AutoChain.sol\":2886:2983  if (deals[index].status == Dealstatus.Active){... */\n      tag_213\n      jumpi\n        /* \"AutoChain.sol\":2966:2967  1 */\n      0x01\n        /* \"AutoChain.sol\":2950:2967  activeCounter +=1 */\n      dup3\n      tag_214\n      swap2\n      swap1\n      tag_204\n      jump\t// in\n    tag_214:\n      swap2\n      pop\n        /* \"AutoChain.sol\":2886:2983  if (deals[index].status == Dealstatus.Active){... */\n    tag_213:\n        /* \"AutoChain.sol\":2863:2870  index++ */\n      dup1\n      dup1\n      tag_215\n      swap1\n      tag_216\n      jump\t// in\n    tag_215:\n      swap2\n      pop\n      pop\n        /* \"AutoChain.sol\":2815:2995  for (uint256 index = 0; index < currentEmptyId; index++){... */\n      jump(tag_206)\n    tag_207:\n      pop\n        /* \"AutoChain.sol\":3008:3035  MainAd[] memory activeDeals */\n      0x00\n        /* \"AutoChain.sol\":3051:3064  activeCounter */\n      dup2\n        /* \"AutoChain.sol\":3038:3065  new MainAd[](activeCounter) */\n      0xffffffffffffffff\n      dup2\n      gt\n      iszero\n      tag_217\n      jumpi\n      tag_218\n      tag_219\n      jump\t// in\n    tag_218:\n    tag_217:\n      mload(0x40)\n      swap1\n      dup1\n      dup3\n      mstore\n      dup1\n      0x20\n      mul\n      0x20\n      add\n      dup3\n      add\n      0x40\n      mstore\n      dup1\n      iszero\n      tag_220\n      jumpi\n      dup2\n      0x20\n      add\n    tag_221:\n      tag_222\n      tag_223\n      jump\t// in\n    tag_222:\n      dup2\n      mstore\n      0x20\n      add\n      swap1\n      0x01\n      swap1\n      sub\n      swap1\n      dup2\n      tag_221\n      jumpi\n      swap1\n      pop\n    tag_220:\n      pop\n        /* \"AutoChain.sol\":3008:3065  MainAd[] memory activeDeals = new MainAd[](activeCounter) */\n      swap1\n      pop\n        /* \"AutoChain.sol\":3079:3099  uint256 dealsCounter */\n      0x00\n        /* \"AutoChain.sol\":3120:3138  uint256 dealsIndex */\n      dup1\n        /* \"AutoChain.sol\":3115:3895  for (uint256 dealsIndex = 0; dealsIndex < currentEmptyId; dealsIndex++){... */\n    tag_224:\n        /* \"AutoChain.sol\":3157:3171  currentEmptyId */\n      sload(0x01)\n        /* \"AutoChain.sol\":3144:3154  dealsIndex */\n      dup2\n        /* \"AutoChain.sol\":3144:3171  dealsIndex < currentEmptyId */\n      lt\n        /* \"AutoChain.sol\":3115:3895  for (uint256 dealsIndex = 0; dealsIndex < currentEmptyId; dealsIndex++){... */\n      iszero\n      tag_225\n      jumpi\n        /* \"AutoChain.sol\":3233:3250  Dealstatus.Active */\n      0x00\n        /* \"AutoChain.sol\":3205:3250  deals[dealsIndex].status == Dealstatus.Active */\n      0x02\n      dup2\n      gt\n      iszero\n      tag_227\n      jumpi\n      tag_228\n      tag_189\n      jump\t// in\n    tag_228:\n    tag_227:\n        /* \"AutoChain.sol\":3205:3210  deals */\n      0x00\n        /* \"AutoChain.sol\":3205:3222  deals[dealsIndex] */\n      dup1\n        /* \"AutoChain.sol\":3211:3221  dealsIndex */\n      dup4\n        /* \"AutoChain.sol\":3205:3222  deals[dealsIndex] */\n      dup2\n      mstore\n      0x20\n      add\n      swap1\n      dup2\n      mstore\n      0x20\n      add\n      0x00\n      keccak256\n        /* \"AutoChain.sol\":3205:3229  deals[dealsIndex].status */\n      0x22\n      add\n      0x00\n      swap1\n      sload\n      swap1\n      0x0100\n      exp\n      swap1\n      div\n      0xff\n      and\n        /* \"AutoChain.sol\":3205:3250  deals[dealsIndex].status == Dealstatus.Active */\n      0x02\n      dup2\n      gt\n      iszero\n      tag_229\n      jumpi\n      tag_230\n      tag_189\n      jump\t// in\n    tag_230:\n    tag_229:\n      sub\n        /* \"AutoChain.sol\":3201:3883  if (deals[dealsIndex].status == Dealstatus.Active){... */\n      tag_231\n      jumpi\n        /* \"AutoChain.sol\":3303:3308  deals */\n      0x00\n        /* \"AutoChain.sol\":3303:3320  deals[dealsIndex] */\n      dup1\n        /* \"AutoChain.sol\":3309:3319  dealsIndex */\n      dup3\n        /* \"AutoChain.sol\":3303:3320  deals[dealsIndex] */\n      dup2\n      mstore\n      0x20\n      add\n      swap1\n      dup2\n      mstore\n      0x20\n      add\n      0x00\n      keccak256\n        /* \"AutoChain.sol\":3303:3323  deals[dealsIndex].id */\n      0x00\n      add\n      sload\n        /* \"AutoChain.sol\":3270:3281  activeDeals */\n      dup4\n        /* \"AutoChain.sol\":3282:3294  dealsCounter */\n      dup4\n        /* \"AutoChain.sol\":3270:3295  activeDeals[dealsCounter] */\n      dup2\n      mload\n      dup2\n      lt\n      tag_232\n      jumpi\n      tag_233\n      tag_234\n      jump\t// in\n    tag_233:\n    tag_232:\n      0x20\n      mul\n      0x20\n      add\n      add\n      mload\n        /* \"AutoChain.sol\":3270:3300  activeDeals[dealsCounter].adId */\n      0x00\n      add\n        /* \"AutoChain.sol\":3270:3323  activeDeals[dealsCounter].adId = deals[dealsIndex].id */\n      dup2\n      dup2\n      mstore\n      pop\n      pop\n        /* \"AutoChain.sol\":3376:3381  deals */\n      0x00\n        /* \"AutoChain.sol\":3376:3393  deals[dealsIndex] */\n      dup1\n        /* \"AutoChain.sol\":3382:3392  dealsIndex */\n      dup3\n        /* \"AutoChain.sol\":3376:3393  deals[dealsIndex] */\n      dup2\n      mstore\n      0x20\n      add\n      swap1\n      dup2\n      mstore\n      0x20\n      add\n      0x00\n      keccak256\n        /* \"AutoChain.sol\":3376:3400  deals[dealsIndex].advert */\n      0x02\n      add\n        /* \"AutoChain.sol\":3376:3414  deals[dealsIndex].advert.full_car_info */\n      0x08\n      add\n        /* \"AutoChain.sol\":3376:3420  deals[dealsIndex].advert.full_car_info.model */\n      0x00\n      add\n        /* \"AutoChain.sol\":3342:3420  activeDeals[dealsCounter].model = deals[dealsIndex].advert.full_car_info.model */\n      dup1\n      sload\n      tag_235\n      swap1\n      tag_83\n      jump\t// in\n    tag_235:\n      dup1\n      0x1f\n      add\n      0x20\n      dup1\n      swap2\n      div\n      mul\n      0x20\n      add\n      mload(0x40)\n      swap1\n      dup2\n      add\n      0x40\n      mstore\n      dup1\n      swap3\n      swap2\n      swap1\n      dup2\n      dup2\n      mstore\n      0x20\n      add\n      dup3\n      dup1\n      sload\n      tag_236\n      swap1\n      tag_83\n      jump\t// in\n    tag_236:\n      dup1\n      iszero\n      tag_237\n      jumpi\n      dup1\n      0x1f\n      lt\n      tag_238\n      jumpi\n      0x0100\n      dup1\n      dup4\n      sload\n      div\n      mul\n      dup4\n      mstore\n      swap2\n      0x20\n      add\n      swap2\n      jump(tag_237)\n    tag_238:\n      dup3\n      add\n      swap2\n      swap1\n      0x00\n      mstore\n      keccak256(0x00, 0x20)\n      swap1\n    tag_239:\n      dup2\n      sload\n      dup2\n      mstore\n      swap1\n      0x01\n      add\n      swap1\n      0x20\n      add\n      dup1\n      dup4\n      gt\n      tag_239\n      jumpi\n      dup3\n      swap1\n      sub\n      0x1f\n      and\n      dup3\n      add\n      swap2\n    tag_237:\n      pop\n      pop\n      pop\n      pop\n      pop\n        /* \"AutoChain.sol\":3342:3353  activeDeals */\n      dup4\n        /* \"AutoChain.sol\":3354:3366  dealsCounter */\n      dup4\n        /* \"AutoChain.sol\":3342:3367  activeDeals[dealsCounter] */\n      dup2\n      mload\n      dup2\n      lt\n      tag_240\n      jumpi\n      tag_241\n      tag_234\n      jump\t// in\n    tag_241:\n    tag_240:\n      0x20\n      mul\n      0x20\n      add\n      add\n      mload\n        /* \"AutoChain.sol\":3342:3373  activeDeals[dealsCounter].model */\n      0x20\n      add\n        /* \"AutoChain.sol\":3342:3420  activeDeals[dealsCounter].model = deals[dealsIndex].advert.full_car_info.model */\n      dup2\n      swap1\n      mstore\n      pop\n        /* \"AutoChain.sol\":3480:3485  deals */\n      0x00\n        /* \"AutoChain.sol\":3480:3497  deals[dealsIndex] */\n      dup1\n        /* \"AutoChain.sol\":3486:3496  dealsIndex */\n      dup3\n        /* \"AutoChain.sol\":3480:3497  deals[dealsIndex] */\n      dup2\n      mstore\n      0x20\n      add\n      swap1\n      dup2\n      mstore\n      0x20\n      add\n      0x00\n      keccak256\n        /* \"AutoChain.sol\":3480:3504  deals[dealsIndex].advert */\n      0x02\n      add\n        /* \"AutoChain.sol\":3480:3518  deals[dealsIndex].advert.full_car_info */\n      0x08\n      add\n        /* \"AutoChain.sol\":3480:3531  deals[dealsIndex].advert.full_car_info.release_year */\n      0x01\n      add\n      sload\n        /* \"AutoChain.sol\":3439:3450  activeDeals */\n      dup4\n        /* \"AutoChain.sol\":3451:3463  dealsCounter */\n      dup4\n        /* \"AutoChain.sol\":3439:3464  activeDeals[dealsCounter] */\n      dup2\n      mload\n      dup2\n      lt\n      tag_242\n      jumpi\n      tag_243\n      tag_234\n      jump\t// in\n    tag_243:\n    tag_242:\n      0x20\n      mul\n      0x20\n      add\n      add\n      mload\n        /* \"AutoChain.sol\":3439:3477  activeDeals[dealsCounter].release_year */\n      0x40\n      add\n        /* \"AutoChain.sol\":3439:3531  activeDeals[dealsCounter].release_year = deals[dealsIndex].advert.full_car_info.release_year */\n      dup2\n      dup2\n      mstore\n      pop\n      pop\n        /* \"AutoChain.sol\":3586:3591  deals */\n      0x00\n        /* \"AutoChain.sol\":3586:3603  deals[dealsIndex] */\n      dup1\n        /* \"AutoChain.sol\":3592:3602  dealsIndex */\n      dup3\n        /* \"AutoChain.sol\":3586:3603  deals[dealsIndex] */\n      dup2\n      mstore\n      0x20\n      add\n      swap1\n      dup2\n      mstore\n      0x20\n      add\n      0x00\n      keccak256\n        /* \"AutoChain.sol\":3586:3610  deals[dealsIndex].advert */\n      0x02\n      add\n        /* \"AutoChain.sol\":3586:3624  deals[dealsIndex].advert.full_car_info */\n      0x08\n      add\n        /* \"AutoChain.sol\":3586:3632  deals[dealsIndex].advert.full_car_info.mileage */\n      0x05\n      add\n      sload\n        /* \"AutoChain.sol\":3550:3561  activeDeals */\n      dup4\n        /* \"AutoChain.sol\":3562:3574  dealsCounter */\n      dup4\n        /* \"AutoChain.sol\":3550:3575  activeDeals[dealsCounter] */\n      dup2\n      mload\n      dup2\n      lt\n      tag_244\n      jumpi\n      tag_245\n      tag_234\n      jump\t// in\n    tag_245:\n    tag_244:\n      0x20\n      mul\n      0x20\n      add\n      add\n      mload\n        /* \"AutoChain.sol\":3550:3583  activeDeals[dealsCounter].mileage */\n      0x60\n      add\n        /* \"AutoChain.sol\":3550:3632  activeDeals[dealsCounter].mileage = deals[dealsIndex].advert.full_car_info.mileage */\n      dup2\n      dup2\n      mstore\n      pop\n      pop\n        /* \"AutoChain.sol\":3693:3698  deals */\n      0x00\n        /* \"AutoChain.sol\":3693:3710  deals[dealsIndex] */\n      dup1\n        /* \"AutoChain.sol\":3699:3709  dealsIndex */\n      dup3\n        /* \"AutoChain.sol\":3693:3710  deals[dealsIndex] */\n      dup2\n      mstore\n      0x20\n      add\n      swap1\n      dup2\n      mstore\n      0x20\n      add\n      0x00\n      keccak256\n        /* \"AutoChain.sol\":3693:3717  deals[dealsIndex].advert */\n      0x02\n      add\n        /* \"AutoChain.sol\":3693:3731  deals[dealsIndex].advert.full_car_info */\n      0x08\n      add\n        /* \"AutoChain.sol\":3693:3745  deals[dealsIndex].advert.full_car_info.engine_volume */\n      0x06\n      add\n      sload\n        /* \"AutoChain.sol\":3651:3662  activeDeals */\n      dup4\n        /* \"AutoChain.sol\":3663:3675  dealsCounter */\n      dup4\n        /* \"AutoChain.sol\":3651:3676  activeDeals[dealsCounter] */\n      dup2\n      mload\n      dup2\n      lt\n      tag_246\n      jumpi\n      tag_247\n      tag_234\n      jump\t// in\n    tag_247:\n    tag_246:\n      0x20\n      mul\n      0x20\n      add\n      add\n      mload\n        /* \"AutoChain.sol\":3651:3690  activeDeals[dealsCounter].engine_volume */\n      0x80\n      add\n        /* \"AutoChain.sol\":3651:3745  activeDeals[dealsCounter].engine_volume = deals[dealsIndex].advert.full_car_info.engine_volume */\n      dup2\n      dup2\n      mstore\n      pop\n      pop\n        /* \"AutoChain.sol\":3801:3806  deals */\n      0x00\n        /* \"AutoChain.sol\":3801:3818  deals[dealsIndex] */\n      dup1\n        /* \"AutoChain.sol\":3807:3817  dealsIndex */\n      dup3\n        /* \"AutoChain.sol\":3801:3818  deals[dealsIndex] */\n      dup2\n      mstore\n      0x20\n      add\n      swap1\n      dup2\n      mstore\n      0x20\n      add\n      0x00\n      keccak256\n        /* \"AutoChain.sol\":3801:3825  deals[dealsIndex].advert */\n      0x02\n      add\n        /* \"AutoChain.sol\":3801:3834  deals[dealsIndex].advert.car_cost */\n      0x15\n      add\n      sload\n        /* \"AutoChain.sol\":3764:3775  activeDeals */\n      dup4\n        /* \"AutoChain.sol\":3776:3788  dealsCounter */\n      dup4\n        /* \"AutoChain.sol\":3764:3789  activeDeals[dealsCounter] */\n      dup2\n      mload\n      dup2\n      lt\n      tag_248\n      jumpi\n      tag_249\n      tag_234\n      jump\t// in\n    tag_249:\n    tag_248:\n      0x20\n      mul\n      0x20\n      add\n      add\n      mload\n        /* \"AutoChain.sol\":3764:3798  activeDeals[dealsCounter].car_cost */\n      0xa0\n      add\n        /* \"AutoChain.sol\":3764:3834  activeDeals[dealsCounter].car_cost = deals[dealsIndex].advert.car_cost */\n      dup2\n      dup2\n      mstore\n      pop\n      pop\n        /* \"AutoChain.sol\":3853:3867  dealsCounter++ */\n      dup2\n      dup1\n      tag_250\n      swap1\n      tag_216\n      jump\t// in\n    tag_250:\n      swap3\n      pop\n      pop\n        /* \"AutoChain.sol\":3201:3883  if (deals[dealsIndex].status == Dealstatus.Active){... */\n    tag_231:\n        /* \"AutoChain.sol\":3173:3185  dealsIndex++ */\n      dup1\n      dup1\n      tag_251\n      swap1\n      tag_216\n      jump\t// in\n    tag_251:\n      swap2\n      pop\n      pop\n        /* \"AutoChain.sol\":3115:3895  for (uint256 dealsIndex = 0; dealsIndex < currentEmptyId; dealsIndex++){... */\n      jump(tag_224)\n    tag_225:\n      pop\n        /* \"AutoChain.sol\":3914:3925  activeDeals */\n      dup2\n        /* \"AutoChain.sol\":3907:3925  return activeDeals */\n      swap4\n      pop\n      pop\n      pop\n      pop\n        /* \"AutoChain.sol\":2591:3933  function ShowAdvertInfo() view public returns (MainAd[] memory){ // View функция. Возврат массива со всеми сделками в статусе Active.... */\n      swap1\n      jump\t// out\n        /* \"AutoChain.sol\":5957:6326  function ShowSoloAdvertInfo(uint256 _advertIndex) view public returns (DealDetails memory){... */\n    tag_60:\n        /* \"AutoChain.sol\":6028:6046  DealDetails memory */\n      tag_252\n      tag_253\n      jump\t// in\n    tag_252:\n        /* \"AutoChain.sol\":6058:6083  DealDetails memory soloAd */\n      tag_255\n      tag_253\n      jump\t// in\n    tag_255:\n        /* \"AutoChain.sol\":6119:6124  deals */\n      0x00\n        /* \"AutoChain.sol\":6119:6138  deals[_advertIndex] */\n      dup1\n        /* \"AutoChain.sol\":6125:6137  _advertIndex */\n      dup5\n        /* \"AutoChain.sol\":6119:6138  deals[_advertIndex] */\n      dup2\n      mstore\n      0x20\n      add\n      swap1\n      dup2\n      mstore\n      0x20\n      add\n      0x00\n      keccak256\n        /* \"AutoChain.sol\":6119:6145  deals[_advertIndex].advert */\n      0x02\n      add\n        /* \"AutoChain.sol\":6119:6159  deals[_advertIndex].advert.full_car_info */\n      0x08\n      add\n        /* \"AutoChain.sol\":6096:6159  soloAd.full_car_info = deals[_advertIndex].advert.full_car_info */\n      mload(0x40)\n      dup1\n      0x0120\n      add\n      0x40\n      mstore\n      swap1\n      dup2\n      0x00\n      dup3\n      add\n      dup1\n      sload\n      tag_256\n      swap1\n      tag_83\n      jump\t// in\n    tag_256:\n      dup1\n      0x1f\n      add\n      0x20\n      dup1\n      swap2\n      div\n      mul\n      0x20\n      add\n      mload(0x40)\n      swap1\n      dup2\n      add\n      0x40\n      mstore\n      dup1\n      swap3\n      swap2\n      swap1\n      dup2\n      dup2\n      mstore\n      0x20\n      add\n      dup3\n      dup1\n      sload\n      tag_257\n      swap1\n      tag_83\n      jump\t// in\n    tag_257:\n      dup1\n      iszero\n      tag_258\n      jumpi\n      dup1\n      0x1f\n      lt\n      tag_259\n      jumpi\n      0x0100\n      dup1\n      dup4\n      sload\n      div\n      mul\n      dup4\n      mstore\n      swap2\n      0x20\n      add\n      swap2\n      jump(tag_258)\n    tag_259:\n      dup3\n      add\n      swap2\n      swap1\n      0x00\n      mstore\n      keccak256(0x00, 0x20)\n      swap1\n    tag_260:\n      dup2\n      sload\n      dup2\n      mstore\n      swap1\n      0x01\n      add\n      swap1\n      0x20\n      add\n      dup1\n      dup4\n      gt\n      tag_260\n      jumpi\n      dup3\n      swap1\n      sub\n      0x1f\n      and\n      dup3\n      add\n      swap2\n    tag_258:\n      pop\n      pop\n      pop\n      pop\n      pop\n      dup2\n      mstore\n      0x20\n      add\n      0x01\n      dup3\n      add\n      sload\n      dup2\n      mstore\n      0x20\n      add\n      0x02\n      dup3\n      add\n      dup1\n      sload\n      tag_261\n      swap1\n      tag_83\n      jump\t// in\n    tag_261:\n      dup1\n      0x1f\n      add\n      0x20\n      dup1\n      swap2\n      div\n      mul\n      0x20\n      add\n      mload(0x40)\n      swap1\n      dup2\n      add\n      0x40\n      mstore\n      dup1\n      swap3\n      swap2\n      swap1\n      dup2\n      dup2\n      mstore\n      0x20\n      add\n      dup3\n      dup1\n      sload\n      tag_262\n      swap1\n      tag_83\n      jump\t// in\n    tag_262:\n      dup1\n      iszero\n      tag_263\n      jumpi\n      dup1\n      0x1f\n      lt\n      tag_264\n      jumpi\n      0x0100\n      dup1\n      dup4\n      sload\n      div\n      mul\n      dup4\n      mstore\n      swap2\n      0x20\n      add\n      swap2\n      jump(tag_263)\n    tag_264:\n      dup3\n      add\n      swap2\n      swap1\n      0x00\n      mstore\n      keccak256(0x00, 0x20)\n      swap1\n    tag_265:\n      dup2\n      sload\n      dup2\n      mstore\n      swap1\n      0x01\n      add\n      swap1\n      0x20\n      add\n      dup1\n      dup4\n      gt\n      tag_265\n      jumpi\n      dup3\n      swap1\n      sub\n      0x1f\n      and\n      dup3\n      add\n      swap2\n    tag_263:\n      pop\n      pop\n      pop\n      pop\n      pop\n      dup2\n      mstore\n      0x20\n      add\n      0x03\n      dup3\n      add\n      dup1\n      sload\n      tag_266\n      swap1\n      tag_83\n      jump\t// in\n    tag_266:\n      dup1\n      0x1f\n      add\n      0x20\n      dup1\n      swap2\n      div\n      mul\n      0x20\n      add\n      mload(0x40)\n      swap1\n      dup2\n      add\n      0x40\n      mstore\n      dup1\n      swap3\n      swap2\n      swap1\n      dup2\n      dup2\n      mstore\n      0x20\n      add\n      dup3\n      dup1\n      sload\n      tag_267\n      swap1\n      tag_83\n      jump\t// in\n    tag_267:\n      dup1\n      iszero\n      tag_268\n      jumpi\n      dup1\n      0x1f\n      lt\n      tag_269\n      jumpi\n      0x0100\n      dup1\n      dup4\n      sload\n      div\n      mul\n      dup4\n      mstore\n      swap2\n      0x20\n      add\n      swap2\n      jump(tag_268)\n    tag_269:\n      dup3\n      add\n      swap2\n      swap1\n      0x00\n      mstore\n      keccak256(0x00, 0x20)\n      swap1\n    tag_270:\n      dup2\n      sload\n      dup2\n      mstore\n      swap1\n      0x01\n      add\n      swap1\n      0x20\n      add\n      dup1\n      dup4\n      gt\n      tag_270\n      jumpi\n      dup3\n      swap1\n      sub\n      0x1f\n      and\n      dup3\n      add\n      swap2\n    tag_268:\n      pop\n      pop\n      pop\n      pop\n      pop\n      dup2\n      mstore\n      0x20\n      add\n      0x04\n      dup3\n      add\n      dup1\n      sload\n      tag_271\n      swap1\n      tag_83\n      jump\t// in\n    tag_271:\n      dup1\n      0x1f\n      add\n      0x20\n      dup1\n      swap2\n      div\n      mul\n      0x20\n      add\n      mload(0x40)\n      swap1\n      dup2\n      add\n      0x40\n      mstore\n      dup1\n      swap3\n      swap2\n      swap1\n      dup2\n      dup2\n      mstore\n      0x20\n      add\n      dup3\n      dup1\n      sload\n      tag_272\n      swap1\n      tag_83\n      jump\t// in\n    tag_272:\n      dup1\n      iszero\n      tag_273\n      jumpi\n      dup1\n      0x1f\n      lt\n      tag_274\n      jumpi\n      0x0100\n      dup1\n      dup4\n      sload\n      div\n      mul\n      dup4\n      mstore\n      swap2\n      0x20\n      add\n      swap2\n      jump(tag_273)\n    tag_274:\n      dup3\n      add\n      swap2\n      swap1\n      0x00\n      mstore\n      keccak256(0x00, 0x20)\n      swap1\n    tag_275:\n      dup2\n      sload\n      dup2\n      mstore\n      swap1\n      0x01\n      add\n      swap1\n      0x20\n      add\n      dup1\n      dup4\n      gt\n      tag_275\n      jumpi\n      dup3\n      swap1\n      sub\n      0x1f\n      and\n      dup3\n      add\n      swap2\n    tag_273:\n      pop\n      pop\n      pop\n      pop\n      pop\n      dup2\n      mstore\n      0x20\n      add\n      0x05\n      dup3\n      add\n      sload\n      dup2\n      mstore\n      0x20\n      add\n      0x06\n      dup3\n      add\n      sload\n      dup2\n      mstore\n      0x20\n      add\n      0x07\n      dup3\n      add\n      mload(0x40)\n      dup1\n      0x80\n      add\n      0x40\n      mstore\n      swap1\n      dup2\n      0x00\n      dup3\n      add\n      sload\n      dup2\n      mstore\n      0x20\n      add\n      0x01\n      dup3\n      add\n      sload\n      dup2\n      mstore\n      0x20\n      add\n      0x02\n      dup3\n      add\n      dup1\n      sload\n      tag_276\n      swap1\n      tag_83\n      jump\t// in\n    tag_276:\n      dup1\n      0x1f\n      add\n      0x20\n      dup1\n      swap2\n      div\n      mul\n      0x20\n      add\n      mload(0x40)\n      swap1\n      dup2\n      add\n      0x40\n      mstore\n      dup1\n      swap3\n      swap2\n      swap1\n      dup2\n      dup2\n      mstore\n      0x20\n      add\n      dup3\n      dup1\n      sload\n      tag_277\n      swap1\n      tag_83\n      jump\t// in\n    tag_277:\n      dup1\n      iszero\n      tag_278\n      jumpi\n      dup1\n      0x1f\n      lt\n      tag_279\n      jumpi\n      0x0100\n      dup1\n      dup4\n      sload\n      div\n      mul\n      dup4\n      mstore\n      swap2\n      0x20\n      add\n      swap2\n      jump(tag_278)\n    tag_279:\n      dup3\n      add\n      swap2\n      swap1\n      0x00\n      mstore\n      keccak256(0x00, 0x20)\n      swap1\n    tag_280:\n      dup2\n      sload\n      dup2\n      mstore\n      swap1\n      0x01\n      add\n      swap1\n      0x20\n      add\n      dup1\n      dup4\n      gt\n      tag_280\n      jumpi\n      dup3\n      swap1\n      sub\n      0x1f\n      and\n      dup3\n      add\n      swap2\n    tag_278:\n      pop\n      pop\n      pop\n      pop\n      pop\n      dup2\n      mstore\n      0x20\n      add\n      0x03\n      dup3\n      add\n      dup1\n      sload\n      tag_281\n      swap1\n      tag_83\n      jump\t// in\n    tag_281:\n      dup1\n      0x1f\n      add\n      0x20\n      dup1\n      swap2\n      div\n      mul\n      0x20\n      add\n      mload(0x40)\n      swap1\n      dup2\n      add\n      0x40\n      mstore\n      dup1\n      swap3\n      swap2\n      swap1\n      dup2\n      dup2\n      mstore\n      0x20\n      add\n      dup3\n      dup1\n      sload\n      tag_282\n      swap1\n      tag_83\n      jump\t// in\n    tag_282:\n      dup1\n      iszero\n      tag_283\n      jumpi\n      dup1\n      0x1f\n      lt\n      tag_284\n      jumpi\n      0x0100\n      dup1\n      dup4\n      sload\n      div\n      mul\n      dup4\n      mstore\n      swap2\n      0x20\n      add\n      swap2\n      jump(tag_283)\n    tag_284:\n      dup3\n      add\n      swap2\n      swap1\n      0x00\n      mstore\n      keccak256(0x00, 0x20)\n      swap1\n    tag_285:\n      dup2\n      sload\n      dup2\n      mstore\n      swap1\n      0x01\n      add\n      swap1\n      0x20\n      add\n      dup1\n      dup4\n      gt\n      tag_285\n      jumpi\n      dup3\n      swap1\n      sub\n      0x1f\n      and\n      dup3\n      add\n      swap2\n    tag_283:\n      pop\n      pop\n      pop\n      pop\n      pop\n      dup2\n      mstore\n      pop\n      pop\n      dup2\n      mstore\n      0x20\n      add\n      0x0b\n      dup3\n      add\n      mload(0x40)\n      dup1\n      0x40\n      add\n      0x40\n      mstore\n      swap1\n      dup2\n      0x00\n      dup3\n      add\n      sload\n      dup2\n      mstore\n      0x20\n      add\n      0x01\n      dup3\n      add\n      sload\n      dup2\n      mstore\n      pop\n      pop\n      dup2\n      mstore\n      pop\n      pop\n        /* \"AutoChain.sol\":6096:6102  soloAd */\n      dup2\n        /* \"AutoChain.sol\":6096:6116  soloAd.full_car_info */\n      0x00\n      add\n        /* \"AutoChain.sol\":6096:6159  soloAd.full_car_info = deals[_advertIndex].advert.full_car_info */\n      dup2\n      swap1\n      mstore\n      pop\n        /* \"AutoChain.sol\":6188:6193  deals */\n      0x00\n        /* \"AutoChain.sol\":6188:6207  deals[_advertIndex] */\n      dup1\n        /* \"AutoChain.sol\":6194:6206  _advertIndex */\n      dup5\n        /* \"AutoChain.sol\":6188:6207  deals[_advertIndex] */\n      dup2\n      mstore\n      0x20\n      add\n      swap1\n      dup2\n      mstore\n      0x20\n      add\n      0x00\n      keccak256\n        /* \"AutoChain.sol\":6188:6214  deals[_advertIndex].advert */\n      0x02\n      add\n        /* \"AutoChain.sol\":6188:6223  deals[_advertIndex].advert.car_cost */\n      0x15\n      add\n      sload\n        /* \"AutoChain.sol\":6170:6176  soloAd */\n      dup2\n        /* \"AutoChain.sol\":6170:6185  soloAd.car_cost */\n      0x20\n      add\n        /* \"AutoChain.sol\":6170:6223  soloAd.car_cost = deals[_advertIndex].advert.car_cost */\n      dup2\n      dup2\n      mstore\n      pop\n      pop\n        /* \"AutoChain.sol\":6255:6260  deals */\n      0x00\n        /* \"AutoChain.sol\":6255:6274  deals[_advertIndex] */\n      dup1\n        /* \"AutoChain.sol\":6261:6273  _advertIndex */\n      dup5\n        /* \"AutoChain.sol\":6255:6274  deals[_advertIndex] */\n      dup2\n      mstore\n      0x20\n      add\n      swap1\n      dup2\n      mstore\n      0x20\n      add\n      0x00\n      keccak256\n        /* \"AutoChain.sol\":6255:6281  deals[_advertIndex].advert */\n      0x02\n      add\n        /* \"AutoChain.sol\":6255:6293  deals[_advertIndex].advert.description */\n      0x16\n      add\n        /* \"AutoChain.sol\":6234:6293  soloAd.description = deals[_advertIndex].advert.description */\n      dup1\n      sload\n      tag_286\n      swap1\n      tag_83\n      jump\t// in\n    tag_286:\n      dup1\n      0x1f\n      add\n      0x20\n      dup1\n      swap2\n      div\n      mul\n      0x20\n      add\n      mload(0x40)\n      swap1\n      dup2\n      add\n      0x40\n      mstore\n      dup1\n      swap3\n      swap2\n      swap1\n      dup2\n      dup2\n      mstore\n      0x20\n      add\n      dup3\n      dup1\n      sload\n      tag_287\n      swap1\n      tag_83\n      jump\t// in\n    tag_287:\n      dup1\n      iszero\n      tag_288\n      jumpi\n      dup1\n      0x1f\n      lt\n      tag_289\n      jumpi\n      0x0100\n      dup1\n      dup4\n      sload\n      div\n      mul\n      dup4\n      mstore\n      swap2\n      0x20\n      add\n      swap2\n      jump(tag_288)\n    tag_289:\n      dup3\n      add\n      swap2\n      swap1\n      0x00\n      mstore\n      keccak256(0x00, 0x20)\n      swap1\n    tag_290:\n      dup2\n      sload\n      dup2\n      mstore\n      swap1\n      0x01\n      add\n      swap1\n      0x20\n      add\n      dup1\n      dup4\n      gt\n      tag_290\n      jumpi\n      dup3\n      swap1\n      sub\n      0x1f\n      and\n      dup3\n      add\n      swap2\n    tag_288:\n      pop\n      pop\n      pop\n      pop\n      pop\n        /* \"AutoChain.sol\":6234:6240  soloAd */\n      dup2\n        /* \"AutoChain.sol\":6234:6252  soloAd.description */\n      0x40\n      add\n        /* \"AutoChain.sol\":6234:6293  soloAd.description = deals[_advertIndex].advert.description */\n      dup2\n      swap1\n      mstore\n      pop\n        /* \"AutoChain.sol\":6311:6317  soloAd */\n      dup1\n        /* \"AutoChain.sol\":6304:6317  return soloAd */\n      swap2\n      pop\n      pop\n        /* \"AutoChain.sol\":5957:6326  function ShowSoloAdvertInfo(uint256 _advertIndex) view public returns (DealDetails memory){... */\n      swap2\n      swap1\n      pop\n      jump\t// out\n        /* \"AutoChain.sol\":4705:4989  function ShowAcquirerInfo(uint256 _dealId) view public returns (AcquirerProfile memory){ // View функция. Отображение информации о покупателе на FrontEnd. Может не понадобиться.... */\n    tag_66:\n        /* \"AutoChain.sol\":4769:4791  AcquirerProfile memory */\n      tag_291\n      tag_292\n      jump\t// in\n    tag_291:\n        /* \"AutoChain.sol\":4959:4964  deals */\n      0x00\n        /* \"AutoChain.sol\":4959:4973  deals[_dealId] */\n      dup1\n        /* \"AutoChain.sol\":4965:4972  _dealId */\n      dup4\n        /* \"AutoChain.sol\":4959:4973  deals[_dealId] */\n      dup2\n      mstore\n      0x20\n      add\n      swap1\n      dup2\n      mstore\n      0x20\n      add\n      0x00\n      keccak256\n        /* \"AutoChain.sol\":4959:4981  deals[_dealId].profile */\n      0x1a\n      add\n        /* \"AutoChain.sol\":4952:4981  return deals[_dealId].profile */\n      mload(0x40)\n      dup1\n      0x60\n      add\n      0x40\n      mstore\n      swap1\n      dup2\n      0x00\n      dup3\n      add\n      mload(0x40)\n      dup1\n      0x60\n      add\n      0x40\n      mstore\n      swap1\n      dup2\n      0x00\n      dup3\n      add\n      dup1\n      sload\n      tag_294\n      swap1\n      tag_83\n      jump\t// in\n    tag_294:\n      dup1\n      0x1f\n      add\n      0x20\n      dup1\n      swap2\n      div\n      mul\n      0x20\n      add\n      mload(0x40)\n      swap1\n      dup2\n      add\n      0x40\n      mstore\n      dup1\n      swap3\n      swap2\n      swap1\n      dup2\n      dup2\n      mstore\n      0x20\n      add\n      dup3\n      dup1\n      sload\n      tag_295\n      swap1\n      tag_83\n      jump\t// in\n    tag_295:\n      dup1\n      iszero\n      tag_296\n      jumpi\n      dup1\n      0x1f\n      lt\n      tag_297\n      jumpi\n      0x0100\n      dup1\n      dup4\n      sload\n      div\n      mul\n      dup4\n      mstore\n      swap2\n      0x20\n      add\n      swap2\n      jump(tag_296)\n    tag_297:\n      dup3\n      add\n      swap2\n      swap1\n      0x00\n      mstore\n      keccak256(0x00, 0x20)\n      swap1\n    tag_298:\n      dup2\n      sload\n      dup2\n      mstore\n      swap1\n      0x01\n      add\n      swap1\n      0x20\n      add\n      dup1\n      dup4\n      gt\n      tag_298\n      jumpi\n      dup3\n      swap1\n      sub\n      0x1f\n      and\n      dup3\n      add\n      swap2\n    tag_296:\n      pop\n      pop\n      pop\n      pop\n      pop\n      dup2\n      mstore\n      0x20\n      add\n      0x01\n      dup3\n      add\n      dup1\n      sload\n      tag_299\n      swap1\n      tag_83\n      jump\t// in\n    tag_299:\n      dup1\n      0x1f\n      add\n      0x20\n      dup1\n      swap2\n      div\n      mul\n      0x20\n      add\n      mload(0x40)\n      swap1\n      dup2\n      add\n      0x40\n      mstore\n      dup1\n      swap3\n      swap2\n      swap1\n      dup2\n      dup2\n      mstore\n      0x20\n      add\n      dup3\n      dup1\n      sload\n      tag_300\n      swap1\n      tag_83\n      jump\t// in\n    tag_300:\n      dup1\n      iszero\n      tag_301\n      jumpi\n      dup1\n      0x1f\n      lt\n      tag_302\n      jumpi\n      0x0100\n      dup1\n      dup4\n      sload\n      div\n      mul\n      dup4\n      mstore\n      swap2\n      0x20\n      add\n      swap2\n      jump(tag_301)\n    tag_302:\n      dup3\n      add\n      swap2\n      swap1\n      0x00\n      mstore\n      keccak256(0x00, 0x20)\n      swap1\n    tag_303:\n      dup2\n      sload\n      dup2\n      mstore\n      swap1\n      0x01\n      add\n      swap1\n      0x20\n      add\n      dup1\n      dup4\n      gt\n      tag_303\n      jumpi\n      dup3\n      swap1\n      sub\n      0x1f\n      and\n      dup3\n      add\n      swap2\n    tag_301:\n      pop\n      pop\n      pop\n      pop\n      pop\n      dup2\n      mstore\n      0x20\n      add\n      0x02\n      dup3\n      add\n      dup1\n      sload\n      tag_304\n      swap1\n      tag_83\n      jump\t// in\n    tag_304:\n      dup1\n      0x1f\n      add\n      0x20\n      dup1\n      swap2\n      div\n      mul\n      0x20\n      add\n      mload(0x40)\n      swap1\n      dup2\n      add\n      0x40\n      mstore\n      dup1\n      swap3\n      swap2\n      swap1\n      dup2\n      dup2\n      mstore\n      0x20\n      add\n      dup3\n      dup1\n      sload\n      tag_305\n      swap1\n      tag_83\n      jump\t// in\n    tag_305:\n      dup1\n      iszero\n      tag_306\n      jumpi\n      dup1\n      0x1f\n      lt\n      tag_307\n      jumpi\n      0x0100\n      dup1\n      dup4\n      sload\n      div\n      mul\n      dup4\n      mstore\n      swap2\n      0x20\n      add\n      swap2\n      jump(tag_306)\n    tag_307:\n      dup3\n      add\n      swap2\n      swap1\n      0x00\n      mstore\n      keccak256(0x00, 0x20)\n      swap1\n    tag_308:\n      dup2\n      sload\n      dup2\n      mstore\n      swap1\n      0x01\n      add\n      swap1\n      0x20\n      add\n      dup1\n      dup4\n      gt\n      tag_308\n      jumpi\n      dup3\n      swap1\n      sub\n      0x1f\n      and\n      dup3\n      add\n      swap2\n    tag_306:\n      pop\n      pop\n      pop\n      pop\n      pop\n      dup2\n      mstore\n      pop\n      pop\n      dup2\n      mstore\n      0x20\n      add\n      0x03\n      dup3\n      add\n      mload(0x40)\n      dup1\n      0x80\n      add\n      0x40\n      mstore\n      swap1\n      dup2\n      0x00\n      dup3\n      add\n      sload\n      dup2\n      mstore\n      0x20\n      add\n      0x01\n      dup3\n      add\n      sload\n      dup2\n      mstore\n      0x20\n      add\n      0x02\n      dup3\n      add\n      dup1\n      sload\n      tag_309\n      swap1\n      tag_83\n      jump\t// in\n    tag_309:\n      dup1\n      0x1f\n      add\n      0x20\n      dup1\n      swap2\n      div\n      mul\n      0x20\n      add\n      mload(0x40)\n      swap1\n      dup2\n      add\n      0x40\n      mstore\n      dup1\n      swap3\n      swap2\n      swap1\n      dup2\n      dup2\n      mstore\n      0x20\n      add\n      dup3\n      dup1\n      sload\n      tag_310\n      swap1\n      tag_83\n      jump\t// in\n    tag_310:\n      dup1\n      iszero\n      tag_311\n      jumpi\n      dup1\n      0x1f\n      lt\n      tag_312\n      jumpi\n      0x0100\n      dup1\n      dup4\n      sload\n      div\n      mul\n      dup4\n      mstore\n      swap2\n      0x20\n      add\n      swap2\n      jump(tag_311)\n    tag_312:\n      dup3\n      add\n      swap2\n      swap1\n      0x00\n      mstore\n      keccak256(0x00, 0x20)\n      swap1\n    tag_313:\n      dup2\n      sload\n      dup2\n      mstore\n      swap1\n      0x01\n      add\n      swap1\n      0x20\n      add\n      dup1\n      dup4\n      gt\n      tag_313\n      jumpi\n      dup3\n      swap1\n      sub\n      0x1f\n      and\n      dup3\n      add\n      swap2\n    tag_311:\n      pop\n      pop\n      pop\n      pop\n      pop\n      dup2\n      mstore\n      0x20\n      add\n      0x03\n      dup3\n      add\n      dup1\n      sload\n      tag_314\n      swap1\n      tag_83\n      jump\t// in\n    tag_314:\n      dup1\n      0x1f\n      add\n      0x20\n      dup1\n      swap2\n      div\n      mul\n      0x20\n      add\n      mload(0x40)\n      swap1\n      dup2\n      add\n      0x40\n      mstore\n      dup1\n      swap3\n      swap2\n      swap1\n      dup2\n      dup2\n      mstore\n      0x20\n      add\n      dup3\n      dup1\n      sload\n      tag_315\n      swap1\n      tag_83\n      jump\t// in\n    tag_315:\n      dup1\n      iszero\n      tag_316\n      jumpi\n      dup1\n      0x1f\n      lt\n      tag_317\n      jumpi\n      0x0100\n      dup1\n      dup4\n      sload\n      div\n      mul\n      dup4\n      mstore\n      swap2\n      0x20\n      add\n      swap2\n      jump(tag_316)\n    tag_317:\n      dup3\n      add\n      swap2\n      swap1\n      0x00\n      mstore\n      keccak256(0x00, 0x20)\n      swap1\n    tag_318:\n      dup2\n      sload\n      dup2\n      mstore\n      swap1\n      0x01\n      add\n      swap1\n      0x20\n      add\n      dup1\n      dup4\n      gt\n      tag_318\n      jumpi\n      dup3\n      swap1\n      sub\n      0x1f\n      and\n      dup3\n      add\n      swap2\n    tag_316:\n      pop\n      pop\n      pop\n      pop\n      pop\n      dup2\n      mstore\n      pop\n      pop\n      dup2\n      mstore\n      0x20\n      add\n      0x07\n      dup3\n      add\n      dup1\n      sload\n      tag_319\n      swap1\n      tag_83\n      jump\t// in\n    tag_319:\n      dup1\n      0x1f\n      add\n      0x20\n      dup1\n      swap2\n      div\n      mul\n      0x20\n      add\n      mload(0x40)\n      swap1\n      dup2\n      add\n      0x40\n      mstore\n      dup1\n      swap3\n      swap2\n      swap1\n      dup2\n      dup2\n      mstore\n      0x20\n      add\n      dup3\n      dup1\n      sload\n      tag_320\n      swap1\n      tag_83\n      jump\t// in\n    tag_320:\n      dup1\n      iszero\n      tag_321\n      jumpi\n      dup1\n      0x1f\n      lt\n      tag_322\n      jumpi\n      0x0100\n      dup1\n      dup4\n      sload\n      div\n      mul\n      dup4\n      mstore\n      swap2\n      0x20\n      add\n      swap2\n      jump(tag_321)\n    tag_322:\n      dup3\n      add\n      swap2\n      swap1\n      0x00\n      mstore\n      keccak256(0x00, 0x20)\n      swap1\n    tag_323:\n      dup2\n      sload\n      dup2\n      mstore\n      swap1\n      0x01\n      add\n      swap1\n      0x20\n      add\n      dup1\n      dup4\n      gt\n      tag_323\n      jumpi\n      dup3\n      swap1\n      sub\n      0x1f\n      and\n      dup3\n      add\n      swap2\n    tag_321:\n      pop\n      pop\n      pop\n      pop\n      pop\n      dup2\n      mstore\n      pop\n      pop\n      swap1\n      pop\n        /* \"AutoChain.sol\":4705:4989  function ShowAcquirerInfo(uint256 _dealId) view public returns (AcquirerProfile memory){ // View функция. Отображение информации о покупателе на FrontEnd. Может не понадобиться.... */\n      swap2\n      swap1\n      pop\n      jump\t// out\n        /* \"AutoChain.sol\":3943:4695  function AcquirerInfo(uint256 _dealId, AcquirerProfile memory _acquirerProfile) public payable { // Функция для получения информации о покупателе со стороны FrontEnd + средства для оплаты. ... */\n    tag_72:\n        /* \"AutoChain.sol\":4251:4261  msg.sender */\n      caller\n        /* \"AutoChain.sol\":4219:4261  deals[_dealId].sellerAddress != msg.sender */\n      0xffffffffffffffffffffffffffffffffffffffff\n      and\n        /* \"AutoChain.sol\":4219:4224  deals */\n      0x00\n        /* \"AutoChain.sol\":4219:4233  deals[_dealId] */\n      dup1\n        /* \"AutoChain.sol\":4225:4232  _dealId */\n      dup5\n        /* \"AutoChain.sol\":4219:4233  deals[_dealId] */\n      dup2\n      mstore\n      0x20\n      add\n      swap1\n      dup2\n      mstore\n      0x20\n      add\n      0x00\n      keccak256\n        /* \"AutoChain.sol\":4219:4247  deals[_dealId].sellerAddress */\n      0x01\n      add\n      0x00\n      swap1\n      sload\n      swap1\n      0x0100\n      exp\n      swap1\n      div\n      0xffffffffffffffffffffffffffffffffffffffff\n      and\n        /* \"AutoChain.sol\":4219:4261  deals[_dealId].sellerAddress != msg.sender */\n      0xffffffffffffffffffffffffffffffffffffffff\n      and\n      sub\n        /* \"AutoChain.sol\":4210:4296  require((deals[_dealId].sellerAddress != msg.sender), \"You're the owner of the deal.\") */\n      tag_325\n      jumpi\n      mload(0x40)\n      0x08c379a000000000000000000000000000000000000000000000000000000000\n      dup2\n      mstore\n      0x04\n      add\n      tag_326\n      swap1\n      tag_327\n      jump\t// in\n    tag_326:\n      mload(0x40)\n      dup1\n      swap2\n      sub\n      swap1\n      revert\n    tag_325:\n        /* \"AutoChain.sol\":4341:4358  Dealstatus.Active */\n      0x00\n        /* \"AutoChain.sol\":4316:4358  deals[_dealId].status == Dealstatus.Active */\n      0x02\n      dup2\n      gt\n      iszero\n      tag_328\n      jumpi\n      tag_329\n      tag_189\n      jump\t// in\n    tag_329:\n    tag_328:\n        /* \"AutoChain.sol\":4316:4321  deals */\n      0x00\n        /* \"AutoChain.sol\":4316:4330  deals[_dealId] */\n      dup1\n        /* \"AutoChain.sol\":4322:4329  _dealId */\n      dup5\n        /* \"AutoChain.sol\":4316:4330  deals[_dealId] */\n      dup2\n      mstore\n      0x20\n      add\n      swap1\n      dup2\n      mstore\n      0x20\n      add\n      0x00\n      keccak256\n        /* \"AutoChain.sol\":4316:4337  deals[_dealId].status */\n      0x22\n      add\n      0x00\n      swap1\n      sload\n      swap1\n      0x0100\n      exp\n      swap1\n      div\n      0xff\n      and\n        /* \"AutoChain.sol\":4316:4358  deals[_dealId].status == Dealstatus.Active */\n      0x02\n      dup2\n      gt\n      iszero\n      tag_330\n      jumpi\n      tag_331\n      tag_189\n      jump\t// in\n    tag_331:\n    tag_330:\n      eq\n        /* \"AutoChain.sol\":4307:4409  require((deals[_dealId].status == Dealstatus.Active), \"This deal is already in process. Reload page.\") */\n      tag_332\n      jumpi\n      mload(0x40)\n      0x08c379a000000000000000000000000000000000000000000000000000000000\n      dup2\n      mstore\n      0x04\n      add\n      tag_333\n      swap1\n      tag_334\n      jump\t// in\n    tag_333:\n      mload(0x40)\n      dup1\n      swap2\n      sub\n      swap1\n      revert\n    tag_332:\n        /* \"AutoChain.sol\":4483:4492  msg.value */\n      callvalue\n        /* \"AutoChain.sol\":4429:4479  deals[_dealId].advert.car_cost.getConversionRate() */\n      tag_335\n        /* \"AutoChain.sol\":4429:4434  deals */\n      0x00\n        /* \"AutoChain.sol\":4429:4443  deals[_dealId] */\n      dup1\n        /* \"AutoChain.sol\":4435:4442  _dealId */\n      dup6\n        /* \"AutoChain.sol\":4429:4443  deals[_dealId] */\n      dup2\n      mstore\n      0x20\n      add\n      swap1\n      dup2\n      mstore\n      0x20\n      add\n      0x00\n      keccak256\n        /* \"AutoChain.sol\":4429:4450  deals[_dealId].advert */\n      0x02\n      add\n        /* \"AutoChain.sol\":4429:4459  deals[_dealId].advert.car_cost */\n      0x15\n      add\n      sload\n        /* \"AutoChain.sol\":4429:4477  deals[_dealId].advert.car_cost.getConversionRate */\n      tag_180\n        /* \"AutoChain.sol\":4429:4479  deals[_dealId].advert.car_cost.getConversionRate() */\n      jump\t// in\n    tag_335:\n        /* \"AutoChain.sol\":4429:4492  deals[_dealId].advert.car_cost.getConversionRate() <= msg.value */\n      gt\n      iszero\n        /* \"AutoChain.sol\":4420:4526  require((deals[_dealId].advert.car_cost.getConversionRate() <= msg.value), \"Not enough money to acquire.\") */\n      tag_336\n      jumpi\n      mload(0x40)\n      0x08c379a000000000000000000000000000000000000000000000000000000000\n      dup2\n      mstore\n      0x04\n      add\n      tag_337\n      swap1\n      tag_338\n      jump\t// in\n    tag_337:\n      mload(0x40)\n      dup1\n      swap2\n      sub\n      swap1\n      revert\n    tag_336:\n        /* \"AutoChain.sol\":4570:4580  msg.sender */\n      caller\n        /* \"AutoChain.sol\":4537:4542  deals */\n      0x00\n        /* \"AutoChain.sol\":4537:4551  deals[_dealId] */\n      dup1\n        /* \"AutoChain.sol\":4543:4550  _dealId */\n      dup5\n        /* \"AutoChain.sol\":4537:4551  deals[_dealId] */\n      dup2\n      mstore\n      0x20\n      add\n      swap1\n      dup2\n      mstore\n      0x20\n      add\n      0x00\n      keccak256\n        /* \"AutoChain.sol\":4537:4567  deals[_dealId].acquirerAddress */\n      0x19\n      add\n      0x00\n        /* \"AutoChain.sol\":4537:4580  deals[_dealId].acquirerAddress = msg.sender */\n      0x0100\n      exp\n      dup2\n      sload\n      dup2\n      0xffffffffffffffffffffffffffffffffffffffff\n      mul\n      not\n      and\n      swap1\n      dup4\n      0xffffffffffffffffffffffffffffffffffffffff\n      and\n      mul\n      or\n      swap1\n      sstore\n      pop\n        /* \"AutoChain.sol\":4616:4632  _acquirerProfile */\n      dup1\n        /* \"AutoChain.sol\":4591:4596  deals */\n      0x00\n        /* \"AutoChain.sol\":4591:4605  deals[_dealId] */\n      dup1\n        /* \"AutoChain.sol\":4597:4604  _dealId */\n      dup5\n        /* \"AutoChain.sol\":4591:4605  deals[_dealId] */\n      dup2\n      mstore\n      0x20\n      add\n      swap1\n      dup2\n      mstore\n      0x20\n      add\n      0x00\n      keccak256\n        /* \"AutoChain.sol\":4591:4613  deals[_dealId].profile */\n      0x1a\n      add\n        /* \"AutoChain.sol\":4591:4632  deals[_dealId].profile = _acquirerProfile */\n      0x00\n      dup3\n      add\n      mload\n      dup2\n      0x00\n      add\n      0x00\n      dup3\n      add\n      mload\n      dup2\n      0x00\n      add\n      swap1\n      dup2\n      tag_339\n      swap2\n      swap1\n      tag_340\n      jump\t// in\n    tag_339:\n      pop\n      0x20\n      dup3\n      add\n      mload\n      dup2\n      0x01\n      add\n      swap1\n      dup2\n      tag_341\n      swap2\n      swap1\n      tag_340\n      jump\t// in\n    tag_341:\n      pop\n      0x40\n      dup3\n      add\n      mload\n      dup2\n      0x02\n      add\n      swap1\n      dup2\n      tag_342\n      swap2\n      swap1\n      tag_340\n      jump\t// in\n    tag_342:\n      pop\n      pop\n      pop\n      0x20\n      dup3\n      add\n      mload\n      dup2\n      0x03\n      add\n      0x00\n      dup3\n      add\n      mload\n      dup2\n      0x00\n      add\n      sstore\n      0x20\n      dup3\n      add\n      mload\n      dup2\n      0x01\n      add\n      sstore\n      0x40\n      dup3\n      add\n      mload\n      dup2\n      0x02\n      add\n      swap1\n      dup2\n      tag_343\n      swap2\n      swap1\n      tag_340\n      jump\t// in\n    tag_343:\n      pop\n      0x60\n      dup3\n      add\n      mload\n      dup2\n      0x03\n      add\n      swap1\n      dup2\n      tag_344\n      swap2\n      swap1\n      tag_340\n      jump\t// in\n    tag_344:\n      pop\n      pop\n      pop\n      0x40\n      dup3\n      add\n      mload\n      dup2\n      0x07\n      add\n      swap1\n      dup2\n      tag_345\n      swap2\n      swap1\n      tag_340\n      jump\t// in\n    tag_345:\n      pop\n      swap1\n      pop\n      pop\n        /* \"AutoChain.sol\":4667:4687  Dealstatus.InProcess */\n      0x01\n        /* \"AutoChain.sol\":4643:4648  deals */\n      0x00\n        /* \"AutoChain.sol\":4643:4657  deals[_dealId] */\n      dup1\n        /* \"AutoChain.sol\":4649:4656  _dealId */\n      dup5\n        /* \"AutoChain.sol\":4643:4657  deals[_dealId] */\n      dup2\n      mstore\n      0x20\n      add\n      swap1\n      dup2\n      mstore\n      0x20\n      add\n      0x00\n      keccak256\n        /* \"AutoChain.sol\":4643:4664  deals[_dealId].status */\n      0x22\n      add\n      0x00\n        /* \"AutoChain.sol\":4643:4687  deals[_dealId].status = Dealstatus.InProcess */\n      0x0100\n      exp\n      dup2\n      sload\n      dup2\n      0xff\n      mul\n      not\n      and\n      swap1\n      dup4\n      0x02\n      dup2\n      gt\n      iszero\n      tag_346\n      jumpi\n      tag_347\n      tag_189\n      jump\t// in\n    tag_347:\n    tag_346:\n      mul\n      or\n      swap1\n      sstore\n      pop\n        /* \"AutoChain.sol\":3943:4695  function AcquirerInfo(uint256 _dealId, AcquirerProfile memory _acquirerProfile) public payable { // Функция для получения информации о покупателе со стороны FrontEnd + средства для оплаты. ... */\n      pop\n      pop\n      jump\t// out\n        /* \"AutoChain.sol\":2181:2585  function SellerInfo(Advert memory _advert) public { // Функция для получения информации о продавце с FrontEnd... */\n    tag_77:\n        /* \"AutoChain.sol\":2366:2380  currentEmptyId */\n      sload(0x01)\n        /* \"AutoChain.sol\":2339:2344  deals */\n      0x00\n        /* \"AutoChain.sol\":2339:2360  deals[currentEmptyId] */\n      dup1\n        /* \"AutoChain.sol\":2345:2359  currentEmptyId */\n      sload(0x01)\n        /* \"AutoChain.sol\":2339:2360  deals[currentEmptyId] */\n      dup2\n      mstore\n      0x20\n      add\n      swap1\n      dup2\n      mstore\n      0x20\n      add\n      0x00\n      keccak256\n        /* \"AutoChain.sol\":2339:2363  deals[currentEmptyId].id */\n      0x00\n      add\n        /* \"AutoChain.sol\":2339:2380  deals[currentEmptyId].id = currentEmptyId */\n      dup2\n      swap1\n      sstore\n      pop\n        /* \"AutoChain.sol\":2422:2429  _advert */\n      dup1\n        /* \"AutoChain.sol\":2391:2396  deals */\n      0x00\n        /* \"AutoChain.sol\":2391:2412  deals[currentEmptyId] */\n      dup1\n        /* \"AutoChain.sol\":2397:2411  currentEmptyId */\n      sload(0x01)\n        /* \"AutoChain.sol\":2391:2412  deals[currentEmptyId] */\n      dup2\n      mstore\n      0x20\n      add\n      swap1\n      dup2\n      mstore\n      0x20\n      add\n      0x00\n      keccak256\n        /* \"AutoChain.sol\":2391:2419  deals[currentEmptyId].advert */\n      0x02\n      add\n        /* \"AutoChain.sol\":2391:2429  deals[currentEmptyId].advert = _advert */\n      0x00\n      dup3\n      add\n      mload\n      dup2\n      0x00\n      add\n      0x00\n      dup3\n      add\n      mload\n      dup2\n      0x00\n      add\n      swap1\n      dup2\n      tag_349\n      swap2\n      swap1\n      tag_340\n      jump\t// in\n    tag_349:\n      pop\n      0x20\n      dup3\n      add\n      mload\n      dup2\n      0x01\n      add\n      swap1\n      dup2\n      tag_350\n      swap2\n      swap1\n      tag_340\n      jump\t// in\n    tag_350:\n      pop\n      0x40\n      dup3\n      add\n      mload\n      dup2\n      0x02\n      add\n      swap1\n      dup2\n      tag_351\n      swap2\n      swap1\n      tag_340\n      jump\t// in\n    tag_351:\n      pop\n      pop\n      pop\n      0x20\n      dup3\n      add\n      mload\n      dup2\n      0x03\n      add\n      0x00\n      dup3\n      add\n      mload\n      dup2\n      0x00\n      add\n      sstore\n      0x20\n      dup3\n      add\n      mload\n      dup2\n      0x01\n      add\n      sstore\n      0x40\n      dup3\n      add\n      mload\n      dup2\n      0x02\n      add\n      swap1\n      dup2\n      tag_352\n      swap2\n      swap1\n      tag_340\n      jump\t// in\n    tag_352:\n      pop\n      0x60\n      dup3\n      add\n      mload\n      dup2\n      0x03\n      add\n      swap1\n      dup2\n      tag_353\n      swap2\n      swap1\n      tag_340\n      jump\t// in\n    tag_353:\n      pop\n      pop\n      pop\n      0x40\n      dup3\n      add\n      mload\n      dup2\n      0x07\n      add\n      swap1\n      dup2\n      tag_354\n      swap2\n      swap1\n      tag_340\n      jump\t// in\n    tag_354:\n      pop\n      0x60\n      dup3\n      add\n      mload\n      dup2\n      0x08\n      add\n      0x00\n      dup3\n      add\n      mload\n      dup2\n      0x00\n      add\n      swap1\n      dup2\n      tag_355\n      swap2\n      swap1\n      tag_340\n      jump\t// in\n    tag_355:\n      pop\n      0x20\n      dup3\n      add\n      mload\n      dup2\n      0x01\n      add\n      sstore\n      0x40\n      dup3\n      add\n      mload\n      dup2\n      0x02\n      add\n      swap1\n      dup2\n      tag_356\n      swap2\n      swap1\n      tag_340\n      jump\t// in\n    tag_356:\n      pop\n      0x60\n      dup3\n      add\n      mload\n      dup2\n      0x03\n      add\n      swap1\n      dup2\n      tag_357\n      swap2\n      swap1\n      tag_340\n      jump\t// in\n    tag_357:\n      pop\n      0x80\n      dup3\n      add\n      mload\n      dup2\n      0x04\n      add\n      swap1\n      dup2\n      tag_358\n      swap2\n      swap1\n      tag_340\n      jump\t// in\n    tag_358:\n      pop\n      0xa0\n      dup3\n      add\n      mload\n      dup2\n      0x05\n      add\n      sstore\n      0xc0\n      dup3\n      add\n      mload\n      dup2\n      0x06\n      add\n      sstore\n      0xe0\n      dup3\n      add\n      mload\n      dup2\n      0x07\n      add\n      0x00\n      dup3\n      add\n      mload\n      dup2\n      0x00\n      add\n      sstore\n      0x20\n      dup3\n      add\n      mload\n      dup2\n      0x01\n      add\n      sstore\n      0x40\n      dup3\n      add\n      mload\n      dup2\n      0x02\n      add\n      swap1\n      dup2\n      tag_359\n      swap2\n      swap1\n      tag_340\n      jump\t// in\n    tag_359:\n      pop\n      0x60\n      dup3\n      add\n      mload\n      dup2\n      0x03\n      add\n      swap1\n      dup2\n      tag_360\n      swap2\n      swap1\n      tag_340\n      jump\t// in\n    tag_360:\n      pop\n      pop\n      pop\n      0x0100\n      dup3\n      add\n      mload\n      dup2\n      0x0b\n      add\n      0x00\n      dup3\n      add\n      mload\n      dup2\n      0x00\n      add\n      sstore\n      0x20\n      dup3\n      add\n      mload\n      dup2\n      0x01\n      add\n      sstore\n      pop\n      pop\n      pop\n      pop\n      0x80\n      dup3\n      add\n      mload\n      dup2\n      0x15\n      add\n      sstore\n      0xa0\n      dup3\n      add\n      mload\n      dup2\n      0x16\n      add\n      swap1\n      dup2\n      tag_361\n      swap2\n      swap1\n      tag_340\n      jump\t// in\n    tag_361:\n      pop\n      swap1\n      pop\n      pop\n        /* \"AutoChain.sol\":2478:2488  msg.sender */\n      caller\n        /* \"AutoChain.sol\":2440:2445  deals */\n      0x00\n        /* \"AutoChain.sol\":2440:2461  deals[currentEmptyId] */\n      dup1\n        /* \"AutoChain.sol\":2446:2460  currentEmptyId */\n      sload(0x01)\n        /* \"AutoChain.sol\":2440:2461  deals[currentEmptyId] */\n      dup2\n      mstore\n      0x20\n      add\n      swap1\n      dup2\n      mstore\n      0x20\n      add\n      0x00\n      keccak256\n        /* \"AutoChain.sol\":2440:2475  deals[currentEmptyId].sellerAddress */\n      0x01\n      add\n      0x00\n        /* \"AutoChain.sol\":2440:2488  deals[currentEmptyId].sellerAddress = msg.sender */\n      0x0100\n      exp\n      dup2\n      sload\n      dup2\n      0xffffffffffffffffffffffffffffffffffffffff\n      mul\n      not\n      and\n      swap1\n      dup4\n      0xffffffffffffffffffffffffffffffffffffffff\n      and\n      mul\n      or\n      swap1\n      sstore\n      pop\n        /* \"AutoChain.sol\":2530:2547  Dealstatus.Active */\n      0x00\n        /* \"AutoChain.sol\":2499:2504  deals */\n      dup1\n        /* \"AutoChain.sol\":2499:2520  deals[currentEmptyId] */\n      0x00\n        /* \"AutoChain.sol\":2505:2519  currentEmptyId */\n      sload(0x01)\n        /* \"AutoChain.sol\":2499:2520  deals[currentEmptyId] */\n      dup2\n      mstore\n      0x20\n      add\n      swap1\n      dup2\n      mstore\n      0x20\n      add\n      0x00\n      keccak256\n        /* \"AutoChain.sol\":2499:2527  deals[currentEmptyId].status */\n      0x22\n      add\n      0x00\n        /* \"AutoChain.sol\":2499:2547  deals[currentEmptyId].status = Dealstatus.Active */\n      0x0100\n      exp\n      dup2\n      sload\n      dup2\n      0xff\n      mul\n      not\n      and\n      swap1\n      dup4\n      0x02\n      dup2\n      gt\n      iszero\n      tag_362\n      jumpi\n      tag_363\n      tag_189\n      jump\t// in\n    tag_363:\n    tag_362:\n      mul\n      or\n      swap1\n      sstore\n      pop\n        /* \"AutoChain.sol\":2576:2577  1 */\n      0x01\n        /* \"AutoChain.sol\":2558:2572  currentEmptyId */\n      dup1\n      0x00\n        /* \"AutoChain.sol\":2558:2577  currentEmptyId += 1 */\n      dup3\n      dup3\n      sload\n      tag_364\n      swap2\n      swap1\n      tag_204\n      jump\t// in\n    tag_364:\n      swap3\n      pop\n      pop\n      dup2\n      swap1\n      sstore\n      pop\n        /* \"AutoChain.sol\":2181:2585  function SellerInfo(Advert memory _advert) public { // Функция для получения информации о продавце с FrontEnd... */\n      pop\n      jump\t// out\n        /* \"AutoChain.sol\":2139:2172  uint256 public currentEmptyId = 0 */\n    tag_80:\n      sload(0x01)\n      dup2\n      jump\t// out\n        /* \"PriceConverter.sol\":1118:1528  function getConversionRate(uint256 rubAmount) internal view returns (uint256) {... */\n    tag_180:\n        /* \"PriceConverter.sol\":1187:1194  uint256 */\n      0x00\n        /* \"PriceConverter.sol\":1207:1226  uint256 ethPriceUsd */\n      dup1\n        /* \"PriceConverter.sol\":1229:1239  getPrice() */\n      tag_366\n        /* \"PriceConverter.sol\":1229:1237  getPrice */\n      tag_367\n        /* \"PriceConverter.sol\":1229:1239  getPrice() */\n      jump\t// in\n    tag_366:\n        /* \"PriceConverter.sol\":1207:1239  uint256 ethPriceUsd = getPrice() */\n      swap1\n      pop\n        /* \"PriceConverter.sol\":1281:1298  uint256 rubPerUsd */\n      0x00\n        /* \"PriceConverter.sol\":1301:1303  77 */\n      0x4d\n        /* \"PriceConverter.sol\":1281:1303  uint256 rubPerUsd = 77 */\n      swap1\n      pop\n        /* \"PriceConverter.sol\":1345:1361  uint256 rubToUsd */\n      0x00\n        /* \"PriceConverter.sol\":1385:1394  rubPerUsd */\n      dup2\n        /* \"PriceConverter.sol\":1377:1381  1e18 */\n      0x0de0b6b3a7640000\n        /* \"PriceConverter.sol\":1365:1374  rubAmount */\n      dup7\n        /* \"PriceConverter.sol\":1365:1381  rubAmount * 1e18 */\n      tag_368\n      swap2\n      swap1\n      tag_369\n      jump\t// in\n    tag_368:\n        /* \"PriceConverter.sol\":1364:1394  (rubAmount * 1e18) / rubPerUsd */\n      tag_370\n      swap2\n      swap1\n      tag_371\n      jump\t// in\n    tag_370:\n        /* \"PriceConverter.sol\":1345:1394  uint256 rubToUsd = (rubAmount * 1e18) / rubPerUsd */\n      swap1\n      pop\n        /* \"PriceConverter.sol\":1441:1457  uint256 usdToEth */\n      0x00\n        /* \"PriceConverter.sol\":1480:1491  ethPriceUsd */\n      dup4\n        /* \"PriceConverter.sol\":1472:1476  1e18 */\n      0x0de0b6b3a7640000\n        /* \"PriceConverter.sol\":1461:1469  rubToUsd */\n      dup4\n        /* \"PriceConverter.sol\":1461:1476  rubToUsd * 1e18 */\n      tag_372\n      swap2\n      swap1\n      tag_369\n      jump\t// in\n    tag_372:\n        /* \"PriceConverter.sol\":1460:1491  (rubToUsd * 1e18) / ethPriceUsd */\n      tag_373\n      swap2\n      swap1\n      tag_371\n      jump\t// in\n    tag_373:\n        /* \"PriceConverter.sol\":1441:1491  uint256 usdToEth = (rubToUsd * 1e18) / ethPriceUsd */\n      swap1\n      pop\n        /* \"PriceConverter.sol\":1512:1520  usdToEth */\n      dup1\n        /* \"PriceConverter.sol\":1505:1520  return usdToEth */\n      swap5\n      pop\n      pop\n      pop\n      pop\n      pop\n        /* \"PriceConverter.sol\":1118:1528  function getConversionRate(uint256 rubAmount) internal view returns (uint256) {... */\n      swap2\n      swap1\n      pop\n      jump\t// out\n        /* \"PriceConverter.sol\":211:1112  function getPrice() public view returns(uint256){... */\n    tag_367:\n        /* \"PriceConverter.sol\":251:258  uint256 */\n      0x00\n        /* \"PriceConverter.sol\":441:472  AggregatorV3Interface priceFeed */\n      dup1\n        /* \"PriceConverter.sol\":497:539  0x694AA1769357215DE4FAC081bf1f309aDC325306 */\n      0x694aa1769357215de4fac081bf1f309adc325306\n        /* \"PriceConverter.sol\":441:540  AggregatorV3Interface priceFeed = AggregatorV3Interface(0x694AA1769357215DE4FAC081bf1f309aDC325306) */\n      swap1\n      pop\n        /* \"PriceConverter.sol\":665:677  int256 price */\n      0x00\n        /* \"PriceConverter.sol\":684:693  priceFeed */\n      dup2\n        /* \"PriceConverter.sol\":684:709  priceFeed.latestRoundData */\n      0xffffffffffffffffffffffffffffffffffffffff\n      and\n      0xfeaf968c\n        /* \"PriceConverter.sol\":684:711  priceFeed.latestRoundData() */\n      mload(0x40)\n      dup2\n      0xffffffff\n      and\n      0xe0\n      shl\n      dup2\n      mstore\n      0x04\n      add\n      0xa0\n      mload(0x40)\n      dup1\n      dup4\n      sub\n      dup2\n      dup7\n      gas\n      staticcall\n      iszero\n      dup1\n      iszero\n      tag_376\n      jumpi\n      returndatasize\n      0x00\n      dup1\n      returndatacopy\n      revert(0x00, returndatasize)\n    tag_376:\n      pop\n      pop\n      pop\n      pop\n      mload(0x40)\n      returndatasize\n      not(0x1f)\n      0x1f\n      dup3\n      add\n      and\n      dup3\n      add\n      dup1\n      0x40\n      mstore\n      pop\n      dup2\n      add\n      swap1\n      tag_377\n      swap2\n      swap1\n      tag_378\n      jump\t// in\n    tag_377:\n        /* \"PriceConverter.sol\":662:711  (, int256 price,,,) = priceFeed.latestRoundData() */\n      pop\n      pop\n      pop\n      swap2\n      pop\n      pop\n        /* \"PriceConverter.sol\":1098:1102  1e10 */\n      0x02540be400\n        /* \"PriceConverter.sol\":1090:1095  price */\n      dup2\n        /* \"PriceConverter.sol\":1090:1102  price * 1e10 */\n      tag_379\n      swap2\n      swap1\n      tag_380\n      jump\t// in\n    tag_379:\n        /* \"PriceConverter.sol\":1075:1103  return uint256(price * 1e10) */\n      swap3\n      pop\n      pop\n      pop\n        /* \"PriceConverter.sol\":211:1112  function getPrice() public view returns(uint256){... */\n      swap1\n      jump\t// out\n    tag_223:\n      mload(0x40)\n      dup1\n      0xc0\n      add\n      0x40\n      mstore\n      dup1\n      0x00\n      dup2\n      mstore\n      0x20\n      add\n      0x60\n      dup2\n      mstore\n      0x20\n      add\n      0x00\n      dup2\n      mstore\n      0x20\n      add\n      0x00\n      dup2\n      mstore\n      0x20\n      add\n      0x00\n      dup2\n      mstore\n      0x20\n      add\n      0x00\n      dup2\n      mstore\n      pop\n      swap1\n      jump\t// out\n    tag_253:\n      mload(0x40)\n      dup1\n      0x60\n      add\n      0x40\n      mstore\n      dup1\n      tag_381\n      tag_382\n      jump\t// in\n    tag_381:\n      dup2\n      mstore\n      0x20\n      add\n      0x00\n      dup2\n      mstore\n      0x20\n      add\n      0x60\n      dup2\n      mstore\n      pop\n      swap1\n      jump\t// out\n    tag_292:\n      mload(0x40)\n      dup1\n      0x60\n      add\n      0x40\n      mstore\n      dup1\n      tag_383\n      tag_384\n      jump\t// in\n    tag_383:\n      dup2\n      mstore\n      0x20\n      add\n      tag_385\n      tag_386\n      jump\t// in\n    tag_385:\n      dup2\n      mstore\n      0x20\n      add\n      0x60\n      dup2\n      mstore\n      pop\n      swap1\n      jump\t// out\n    tag_382:\n      mload(0x40)\n      dup1\n      0x0120\n      add\n      0x40\n      mstore\n      dup1\n      0x60\n      dup2\n      mstore\n      0x20\n      add\n      0x00\n      dup2\n      mstore\n      0x20\n      add\n      0x60\n      dup2\n      mstore\n      0x20\n      add\n      0x60\n      dup2\n      mstore\n      0x20\n      add\n      0x60\n      dup2\n      mstore\n      0x20\n      add\n      0x00\n      dup2\n      mstore\n      0x20\n      add\n      0x00\n      dup2\n      mstore\n      0x20\n      add\n      tag_387\n      tag_388\n      jump\t// in\n    tag_387:\n      dup2\n      mstore\n      0x20\n      add\n      tag_389\n      tag_390\n      jump\t// in\n    tag_389:\n      dup2\n      mstore\n      pop\n      swap1\n      jump\t// out\n    tag_384:\n      mload(0x40)\n      dup1\n      0x60\n      add\n      0x40\n      mstore\n      dup1\n      0x60\n      dup2\n      mstore\n      0x20\n      add\n      0x60\n      dup2\n      mstore\n      0x20\n      add\n      0x60\n      dup2\n      mstore\n      pop\n      swap1\n      jump\t// out\n    tag_386:\n      mload(0x40)\n      dup1\n      0x80\n      add\n      0x40\n      mstore\n      dup1\n      0x00\n      dup2\n      mstore\n      0x20\n      add\n      0x00\n      dup2\n      mstore\n      0x20\n      add\n      0x60\n      dup2\n      mstore\n      0x20\n      add\n      0x60\n      dup2\n      mstore\n      pop\n      swap1\n      jump\t// out\n    tag_388:\n      mload(0x40)\n      dup1\n      0x80\n      add\n      0x40\n      mstore\n      dup1\n      0x00\n      dup2\n      mstore\n      0x20\n      add\n      0x00\n      dup2\n      mstore\n      0x20\n      add\n      0x60\n      dup2\n      mstore\n      0x20\n      add\n      0x60\n      dup2\n      mstore\n      pop\n      swap1\n      jump\t// out\n    tag_390:\n      mload(0x40)\n      dup1\n      0x40\n      add\n      0x40\n      mstore\n      dup1\n      0x00\n      dup2\n      mstore\n      0x20\n      add\n      0x00\n      dup2\n      mstore\n      pop\n      swap1\n      jump\t// out\n        /* \"#utility.yul\":7:82   */\n    tag_391:\n        /* \"#utility.yul\":40:46   */\n      0x00\n        /* \"#utility.yul\":73:75   */\n      0x40\n        /* \"#utility.yul\":67:76   */\n      mload\n        /* \"#utility.yul\":57:76   */\n      swap1\n      pop\n        /* \"#utility.yul\":7:82   */\n      swap1\n      jump\t// out\n        /* \"#utility.yul\":88:205   */\n    tag_392:\n        /* \"#utility.yul\":197:198   */\n      0x00\n        /* \"#utility.yul\":194:195   */\n      dup1\n        /* \"#utility.yul\":187:199   */\n      revert\n        /* \"#utility.yul\":211:328   */\n    tag_393:\n        /* \"#utility.yul\":320:321   */\n      0x00\n        /* \"#utility.yul\":317:318   */\n      dup1\n        /* \"#utility.yul\":310:322   */\n      revert\n        /* \"#utility.yul\":334:411   */\n    tag_394:\n        /* \"#utility.yul\":371:378   */\n      0x00\n        /* \"#utility.yul\":400:405   */\n      dup2\n        /* \"#utility.yul\":389:405   */\n      swap1\n      pop\n        /* \"#utility.yul\":334:411   */\n      swap2\n      swap1\n      pop\n      jump\t// out\n        /* \"#utility.yul\":417:539   */\n    tag_395:\n        /* \"#utility.yul\":490:514   */\n      tag_488\n        /* \"#utility.yul\":508:513   */\n      dup2\n        /* \"#utility.yul\":490:514   */\n      tag_394\n      jump\t// in\n    tag_488:\n        /* \"#utility.yul\":483:488   */\n      dup2\n        /* \"#utility.yul\":480:515   */\n      eq\n        /* \"#utility.yul\":470:533   */\n      tag_489\n      jumpi\n        /* \"#utility.yul\":529:530   */\n      0x00\n        /* \"#utility.yul\":526:527   */\n      dup1\n        /* \"#utility.yul\":519:531   */\n      revert\n        /* \"#utility.yul\":470:533   */\n    tag_489:\n        /* \"#utility.yul\":417:539   */\n      pop\n      jump\t// out\n        /* \"#utility.yul\":545:684   */\n    tag_396:\n        /* \"#utility.yul\":591:596   */\n      0x00\n        /* \"#utility.yul\":629:635   */\n      dup2\n        /* \"#utility.yul\":616:636   */\n      calldataload\n        /* \"#utility.yul\":607:636   */\n      swap1\n      pop\n        /* \"#utility.yul\":645:678   */\n      tag_491\n        /* \"#utility.yul\":672:677   */\n      dup2\n        /* \"#utility.yul\":645:678   */\n      tag_395\n      jump\t// in\n    tag_491:\n        /* \"#utility.yul\":545:684   */\n      swap3\n      swap2\n      pop\n      pop\n      jump\t// out\n        /* \"#utility.yul\":690:1019   */\n    tag_20:\n        /* \"#utility.yul\":749:755   */\n      0x00\n        /* \"#utility.yul\":798:800   */\n      0x20\n        /* \"#utility.yul\":786:795   */\n      dup3\n        /* \"#utility.yul\":777:784   */\n      dup5\n        /* \"#utility.yul\":773:796   */\n      sub\n        /* \"#utility.yul\":769:801   */\n      slt\n        /* \"#utility.yul\":766:885   */\n      iszero\n      tag_493\n      jumpi\n        /* \"#utility.yul\":804:883   */\n      tag_494\n      tag_392\n      jump\t// in\n    tag_494:\n        /* \"#utility.yul\":766:885   */\n    tag_493:\n        /* \"#utility.yul\":924:925   */\n      0x00\n        /* \"#utility.yul\":949:1002   */\n      tag_495\n        /* \"#utility.yul\":994:1001   */\n      dup5\n        /* \"#utility.yul\":985:991   */\n      dup3\n        /* \"#utility.yul\":974:983   */\n      dup6\n        /* \"#utility.yul\":970:992   */\n      add\n        /* \"#utility.yul\":949:1002   */\n      tag_396\n      jump\t// in\n    tag_495:\n        /* \"#utility.yul\":939:1002   */\n      swap2\n      pop\n        /* \"#utility.yul\":895:1012   */\n      pop\n        /* \"#utility.yul\":690:1019   */\n      swap3\n      swap2\n      pop\n      pop\n      jump\t// out\n        /* \"#utility.yul\":1025:1143   */\n    tag_397:\n        /* \"#utility.yul\":1112:1136   */\n      tag_497\n        /* \"#utility.yul\":1130:1135   */\n      dup2\n        /* \"#utility.yul\":1112:1136   */\n      tag_394\n      jump\t// in\n    tag_497:\n        /* \"#utility.yul\":1107:1110   */\n      dup3\n        /* \"#utility.yul\":1100:1137   */\n      mstore\n        /* \"#utility.yul\":1025:1143   */\n      pop\n      pop\n      jump\t// out\n        /* \"#utility.yul\":1149:1275   */\n    tag_398:\n        /* \"#utility.yul\":1186:1193   */\n      0x00\n        /* \"#utility.yul\":1226:1268   */\n      0xffffffffffffffffffffffffffffffffffffffff\n        /* \"#utility.yul\":1219:1224   */\n      dup3\n        /* \"#utility.yul\":1215:1269   */\n      and\n        /* \"#utility.yul\":1204:1269   */\n      swap1\n      pop\n        /* \"#utility.yul\":1149:1275   */\n      swap2\n      swap1\n      pop\n      jump\t// out\n        /* \"#utility.yul\":1281:1377   */\n    tag_399:\n        /* \"#utility.yul\":1318:1325   */\n      0x00\n        /* \"#utility.yul\":1347:1371   */\n      tag_500\n        /* \"#utility.yul\":1365:1370   */\n      dup3\n        /* \"#utility.yul\":1347:1371   */\n      tag_398\n      jump\t// in\n    tag_500:\n        /* \"#utility.yul\":1336:1371   */\n      swap1\n      pop\n        /* \"#utility.yul\":1281:1377   */\n      swap2\n      swap1\n      pop\n      jump\t// out\n        /* \"#utility.yul\":1383:1501   */\n    tag_400:\n        /* \"#utility.yul\":1470:1494   */\n      tag_502\n        /* \"#utility.yul\":1488:1493   */\n      dup2\n        /* \"#utility.yul\":1470:1494   */\n      tag_399\n      jump\t// in\n    tag_502:\n        /* \"#utility.yul\":1465:1468   */\n      dup3\n        /* \"#utility.yul\":1458:1495   */\n      mstore\n        /* \"#utility.yul\":1383:1501   */\n      pop\n      pop\n      jump\t// out\n        /* \"#utility.yul\":1507:1606   */\n    tag_401:\n        /* \"#utility.yul\":1559:1565   */\n      0x00\n        /* \"#utility.yul\":1593:1598   */\n      dup2\n        /* \"#utility.yul\":1587:1599   */\n      mload\n        /* \"#utility.yul\":1577:1599   */\n      swap1\n      pop\n        /* \"#utility.yul\":1507:1606   */\n      swap2\n      swap1\n      pop\n      jump\t// out\n        /* \"#utility.yul\":1612:1771   */\n    tag_402:\n        /* \"#utility.yul\":1686:1697   */\n      0x00\n        /* \"#utility.yul\":1720:1726   */\n      dup3\n        /* \"#utility.yul\":1715:1718   */\n      dup3\n        /* \"#utility.yul\":1708:1727   */\n      mstore\n        /* \"#utility.yul\":1760:1764   */\n      0x20\n        /* \"#utility.yul\":1755:1758   */\n      dup3\n        /* \"#utility.yul\":1751:1765   */\n      add\n        /* \"#utility.yul\":1736:1765   */\n      swap1\n      pop\n        /* \"#utility.yul\":1612:1771   */\n      swap3\n      swap2\n      pop\n      pop\n      jump\t// out\n        /* \"#utility.yul\":1777:2023   */\n    tag_403:\n        /* \"#utility.yul\":1858:1859   */\n      0x00\n        /* \"#utility.yul\":1868:1981   */\n    tag_506:\n        /* \"#utility.yul\":1882:1888   */\n      dup4\n        /* \"#utility.yul\":1879:1880   */\n      dup2\n        /* \"#utility.yul\":1876:1889   */\n      lt\n        /* \"#utility.yul\":1868:1981   */\n      iszero\n      tag_508\n      jumpi\n        /* \"#utility.yul\":1967:1968   */\n      dup1\n        /* \"#utility.yul\":1962:1965   */\n      dup3\n        /* \"#utility.yul\":1958:1969   */\n      add\n        /* \"#utility.yul\":1952:1970   */\n      mload\n        /* \"#utility.yul\":1948:1949   */\n      dup2\n        /* \"#utility.yul\":1943:1946   */\n      dup5\n        /* \"#utility.yul\":1939:1950   */\n      add\n        /* \"#utility.yul\":1932:1971   */\n      mstore\n        /* \"#utility.yul\":1904:1906   */\n      0x20\n        /* \"#utility.yul\":1901:1902   */\n      dup2\n        /* \"#utility.yul\":1897:1907   */\n      add\n        /* \"#utility.yul\":1892:1907   */\n      swap1\n      pop\n        /* \"#utility.yul\":1868:1981   */\n      jump(tag_506)\n    tag_508:\n        /* \"#utility.yul\":2015:2016   */\n      0x00\n        /* \"#utility.yul\":2006:2012   */\n      dup5\n        /* \"#utility.yul\":2001:2004   */\n      dup5\n        /* \"#utility.yul\":1997:2013   */\n      add\n        /* \"#utility.yul\":1990:2017   */\n      mstore\n        /* \"#utility.yul\":1839:2023   */\n      pop\n        /* \"#utility.yul\":1777:2023   */\n      pop\n      pop\n      pop\n      jump\t// out\n        /* \"#utility.yul\":2029:2131   */\n    tag_404:\n        /* \"#utility.yul\":2070:2076   */\n      0x00\n        /* \"#utility.yul\":2121:2123   */\n      0x1f\n        /* \"#utility.yul\":2117:2124   */\n      not\n        /* \"#utility.yul\":2112:2114   */\n      0x1f\n        /* \"#utility.yul\":2105:2110   */\n      dup4\n        /* \"#utility.yul\":2101:2115   */\n      add\n        /* \"#utility.yul\":2097:2125   */\n      and\n        /* \"#utility.yul\":2087:2125   */\n      swap1\n      pop\n        /* \"#utility.yul\":2029:2131   */\n      swap2\n      swap1\n      pop\n      jump\t// out\n        /* \"#utility.yul\":2137:2494   */\n    tag_405:\n        /* \"#utility.yul\":2215:2218   */\n      0x00\n        /* \"#utility.yul\":2243:2282   */\n      tag_511\n        /* \"#utility.yul\":2276:2281   */\n      dup3\n        /* \"#utility.yul\":2243:2282   */\n      tag_401\n      jump\t// in\n    tag_511:\n        /* \"#utility.yul\":2298:2359   */\n      tag_512\n        /* \"#utility.yul\":2352:2358   */\n      dup2\n        /* \"#utility.yul\":2347:2350   */\n      dup6\n        /* \"#utility.yul\":2298:2359   */\n      tag_402\n      jump\t// in\n    tag_512:\n        /* \"#utility.yul\":2291:2359   */\n      swap4\n      pop\n        /* \"#utility.yul\":2368:2433   */\n      tag_513\n        /* \"#utility.yul\":2426:2432   */\n      dup2\n        /* \"#utility.yul\":2421:2424   */\n      dup6\n        /* \"#utility.yul\":2414:2418   */\n      0x20\n        /* \"#utility.yul\":2407:2412   */\n      dup7\n        /* \"#utility.yul\":2403:2419   */\n      add\n        /* \"#utility.yul\":2368:2433   */\n      tag_403\n      jump\t// in\n    tag_513:\n        /* \"#utility.yul\":2458:2487   */\n      tag_514\n        /* \"#utility.yul\":2480:2486   */\n      dup2\n        /* \"#utility.yul\":2458:2487   */\n      tag_404\n      jump\t// in\n    tag_514:\n        /* \"#utility.yul\":2453:2456   */\n      dup5\n        /* \"#utility.yul\":2449:2488   */\n      add\n        /* \"#utility.yul\":2442:2488   */\n      swap2\n      pop\n        /* \"#utility.yul\":2219:2494   */\n      pop\n        /* \"#utility.yul\":2137:2494   */\n      swap3\n      swap2\n      pop\n      pop\n      jump\t// out\n        /* \"#utility.yul\":2562:3481   */\n    tag_406:\n        /* \"#utility.yul\":2669:2672   */\n      0x00\n        /* \"#utility.yul\":2705:2709   */\n      0x60\n        /* \"#utility.yul\":2700:2703   */\n      dup4\n        /* \"#utility.yul\":2696:2710   */\n      add\n        /* \"#utility.yul\":2792:2796   */\n      0x00\n        /* \"#utility.yul\":2785:2790   */\n      dup4\n        /* \"#utility.yul\":2781:2797   */\n      add\n        /* \"#utility.yul\":2775:2798   */\n      mload\n        /* \"#utility.yul\":2845:2848   */\n      dup5\n        /* \"#utility.yul\":2839:2843   */\n      dup3\n        /* \"#utility.yul\":2835:2849   */\n      sub\n        /* \"#utility.yul\":2828:2832   */\n      0x00\n        /* \"#utility.yul\":2823:2826   */\n      dup7\n        /* \"#utility.yul\":2819:2833   */\n      add\n        /* \"#utility.yul\":2812:2850   */\n      mstore\n        /* \"#utility.yul\":2871:2944   */\n      tag_516\n        /* \"#utility.yul\":2939:2943   */\n      dup3\n        /* \"#utility.yul\":2925:2937   */\n      dup3\n        /* \"#utility.yul\":2871:2944   */\n      tag_405\n      jump\t// in\n    tag_516:\n        /* \"#utility.yul\":2863:2944   */\n      swap2\n      pop\n        /* \"#utility.yul\":2720:2955   */\n      pop\n        /* \"#utility.yul\":3040:3044   */\n      0x20\n        /* \"#utility.yul\":3033:3038   */\n      dup4\n        /* \"#utility.yul\":3029:3045   */\n      add\n        /* \"#utility.yul\":3023:3046   */\n      mload\n        /* \"#utility.yul\":3093:3096   */\n      dup5\n        /* \"#utility.yul\":3087:3091   */\n      dup3\n        /* \"#utility.yul\":3083:3097   */\n      sub\n        /* \"#utility.yul\":3076:3080   */\n      0x20\n        /* \"#utility.yul\":3071:3074   */\n      dup7\n        /* \"#utility.yul\":3067:3081   */\n      add\n        /* \"#utility.yul\":3060:3098   */\n      mstore\n        /* \"#utility.yul\":3119:3192   */\n      tag_517\n        /* \"#utility.yul\":3187:3191   */\n      dup3\n        /* \"#utility.yul\":3173:3185   */\n      dup3\n        /* \"#utility.yul\":3119:3192   */\n      tag_405\n      jump\t// in\n    tag_517:\n        /* \"#utility.yul\":3111:3192   */\n      swap2\n      pop\n        /* \"#utility.yul\":2965:3203   */\n      pop\n        /* \"#utility.yul\":3291:3295   */\n      0x40\n        /* \"#utility.yul\":3284:3289   */\n      dup4\n        /* \"#utility.yul\":3280:3296   */\n      add\n        /* \"#utility.yul\":3274:3297   */\n      mload\n        /* \"#utility.yul\":3344:3347   */\n      dup5\n        /* \"#utility.yul\":3338:3342   */\n      dup3\n        /* \"#utility.yul\":3334:3348   */\n      sub\n        /* \"#utility.yul\":3327:3331   */\n      0x40\n        /* \"#utility.yul\":3322:3325   */\n      dup7\n        /* \"#utility.yul\":3318:3332   */\n      add\n        /* \"#utility.yul\":3311:3349   */\n      mstore\n        /* \"#utility.yul\":3370:3443   */\n      tag_518\n        /* \"#utility.yul\":3438:3442   */\n      dup3\n        /* \"#utility.yul\":3424:3436   */\n      dup3\n        /* \"#utility.yul\":3370:3443   */\n      tag_405\n      jump\t// in\n    tag_518:\n        /* \"#utility.yul\":3362:3443   */\n      swap2\n      pop\n        /* \"#utility.yul\":3213:3454   */\n      pop\n        /* \"#utility.yul\":3471:3475   */\n      dup1\n        /* \"#utility.yul\":3464:3475   */\n      swap2\n      pop\n        /* \"#utility.yul\":2674:3481   */\n      pop\n        /* \"#utility.yul\":2562:3481   */\n      swap3\n      swap2\n      pop\n      pop\n      jump\t// out\n        /* \"#utility.yul\":3487:3595   */\n    tag_407:\n        /* \"#utility.yul\":3564:3588   */\n      tag_520\n        /* \"#utility.yul\":3582:3587   */\n      dup2\n        /* \"#utility.yul\":3564:3588   */\n      tag_394\n      jump\t// in\n    tag_520:\n        /* \"#utility.yul\":3559:3562   */\n      dup3\n        /* \"#utility.yul\":3552:3589   */\n      mstore\n        /* \"#utility.yul\":3487:3595   */\n      pop\n      pop\n      jump\t// out\n        /* \"#utility.yul\":3663:4695   */\n    tag_408:\n        /* \"#utility.yul\":3770:3773   */\n      0x00\n        /* \"#utility.yul\":3806:3810   */\n      0x80\n        /* \"#utility.yul\":3801:3804   */\n      dup4\n        /* \"#utility.yul\":3797:3811   */\n      add\n        /* \"#utility.yul\":3895:3899   */\n      0x00\n        /* \"#utility.yul\":3888:3893   */\n      dup4\n        /* \"#utility.yul\":3884:3900   */\n      add\n        /* \"#utility.yul\":3878:3901   */\n      mload\n        /* \"#utility.yul\":3914:3977   */\n      tag_522\n        /* \"#utility.yul\":3971:3975   */\n      0x00\n        /* \"#utility.yul\":3966:3969   */\n      dup7\n        /* \"#utility.yul\":3962:3976   */\n      add\n        /* \"#utility.yul\":3948:3960   */\n      dup3\n        /* \"#utility.yul\":3914:3977   */\n      tag_407\n      jump\t// in\n    tag_522:\n        /* \"#utility.yul\":3821:3987   */\n      pop\n        /* \"#utility.yul\":4071:4075   */\n      0x20\n        /* \"#utility.yul\":4064:4069   */\n      dup4\n        /* \"#utility.yul\":4060:4076   */\n      add\n        /* \"#utility.yul\":4054:4077   */\n      mload\n        /* \"#utility.yul\":4090:4153   */\n      tag_523\n        /* \"#utility.yul\":4147:4151   */\n      0x20\n        /* \"#utility.yul\":4142:4145   */\n      dup7\n        /* \"#utility.yul\":4138:4152   */\n      add\n        /* \"#utility.yul\":4124:4136   */\n      dup3\n        /* \"#utility.yul\":4090:4153   */\n      tag_407\n      jump\t// in\n    tag_523:\n        /* \"#utility.yul\":3997:4163   */\n      pop\n        /* \"#utility.yul\":4253:4257   */\n      0x40\n        /* \"#utility.yul\":4246:4251   */\n      dup4\n        /* \"#utility.yul\":4242:4258   */\n      add\n        /* \"#utility.yul\":4236:4259   */\n      mload\n        /* \"#utility.yul\":4306:4309   */\n      dup5\n        /* \"#utility.yul\":4300:4304   */\n      dup3\n        /* \"#utility.yul\":4296:4310   */\n      sub\n        /* \"#utility.yul\":4289:4293   */\n      0x40\n        /* \"#utility.yul\":4284:4287   */\n      dup7\n        /* \"#utility.yul\":4280:4294   */\n      add\n        /* \"#utility.yul\":4273:4311   */\n      mstore\n        /* \"#utility.yul\":4332:4405   */\n      tag_524\n        /* \"#utility.yul\":4400:4404   */\n      dup3\n        /* \"#utility.yul\":4386:4398   */\n      dup3\n        /* \"#utility.yul\":4332:4405   */\n      tag_405\n      jump\t// in\n    tag_524:\n        /* \"#utility.yul\":4324:4405   */\n      swap2\n      pop\n        /* \"#utility.yul\":4173:4416   */\n      pop\n        /* \"#utility.yul\":4505:4509   */\n      0x60\n        /* \"#utility.yul\":4498:4503   */\n      dup4\n        /* \"#utility.yul\":4494:4510   */\n      add\n        /* \"#utility.yul\":4488:4511   */\n      mload\n        /* \"#utility.yul\":4558:4561   */\n      dup5\n        /* \"#utility.yul\":4552:4556   */\n      dup3\n        /* \"#utility.yul\":4548:4562   */\n      sub\n        /* \"#utility.yul\":4541:4545   */\n      0x60\n        /* \"#utility.yul\":4536:4539   */\n      dup7\n        /* \"#utility.yul\":4532:4546   */\n      add\n        /* \"#utility.yul\":4525:4563   */\n      mstore\n        /* \"#utility.yul\":4584:4657   */\n      tag_525\n        /* \"#utility.yul\":4652:4656   */\n      dup3\n        /* \"#utility.yul\":4638:4650   */\n      dup3\n        /* \"#utility.yul\":4584:4657   */\n      tag_405\n      jump\t// in\n    tag_525:\n        /* \"#utility.yul\":4576:4657   */\n      swap2\n      pop\n        /* \"#utility.yul\":4426:4668   */\n      pop\n        /* \"#utility.yul\":4685:4689   */\n      dup1\n        /* \"#utility.yul\":4678:4689   */\n      swap2\n      pop\n        /* \"#utility.yul\":3775:4695   */\n      pop\n        /* \"#utility.yul\":3663:4695   */\n      swap3\n      swap2\n      pop\n      pop\n      jump\t// out\n        /* \"#utility.yul\":4769:5823   */\n    tag_409:\n        /* \"#utility.yul\":4882:4885   */\n      0x00\n        /* \"#utility.yul\":4918:4922   */\n      0x80\n        /* \"#utility.yul\":4913:4916   */\n      dup4\n        /* \"#utility.yul\":4909:4923   */\n      add\n        /* \"#utility.yul\":5011:5015   */\n      0x00\n        /* \"#utility.yul\":5004:5009   */\n      dup4\n        /* \"#utility.yul\":5000:5016   */\n      add\n        /* \"#utility.yul\":4994:5017   */\n      mload\n        /* \"#utility.yul\":5030:5093   */\n      tag_527\n        /* \"#utility.yul\":5087:5091   */\n      0x00\n        /* \"#utility.yul\":5082:5085   */\n      dup7\n        /* \"#utility.yul\":5078:5092   */\n      add\n        /* \"#utility.yul\":5064:5076   */\n      dup3\n        /* \"#utility.yul\":5030:5093   */\n      tag_407\n      jump\t// in\n    tag_527:\n        /* \"#utility.yul\":4933:5103   */\n      pop\n        /* \"#utility.yul\":5191:5195   */\n      0x20\n        /* \"#utility.yul\":5184:5189   */\n      dup4\n        /* \"#utility.yul\":5180:5196   */\n      add\n        /* \"#utility.yul\":5174:5197   */\n      mload\n        /* \"#utility.yul\":5210:5273   */\n      tag_528\n        /* \"#utility.yul\":5267:5271   */\n      0x20\n        /* \"#utility.yul\":5262:5265   */\n      dup7\n        /* \"#utility.yul\":5258:5272   */\n      add\n        /* \"#utility.yul\":5244:5256   */\n      dup3\n        /* \"#utility.yul\":5210:5273   */\n      tag_407\n      jump\t// in\n    tag_528:\n        /* \"#utility.yul\":5113:5283   */\n      pop\n        /* \"#utility.yul\":5377:5381   */\n      0x40\n        /* \"#utility.yul\":5370:5375   */\n      dup4\n        /* \"#utility.yul\":5366:5382   */\n      add\n        /* \"#utility.yul\":5360:5383   */\n      mload\n        /* \"#utility.yul\":5430:5433   */\n      dup5\n        /* \"#utility.yul\":5424:5428   */\n      dup3\n        /* \"#utility.yul\":5420:5434   */\n      sub\n        /* \"#utility.yul\":5413:5417   */\n      0x40\n        /* \"#utility.yul\":5408:5411   */\n      dup7\n        /* \"#utility.yul\":5404:5418   */\n      add\n        /* \"#utility.yul\":5397:5435   */\n      mstore\n        /* \"#utility.yul\":5456:5529   */\n      tag_529\n        /* \"#utility.yul\":5524:5528   */\n      dup3\n        /* \"#utility.yul\":5510:5522   */\n      dup3\n        /* \"#utility.yul\":5456:5529   */\n      tag_405\n      jump\t// in\n    tag_529:\n        /* \"#utility.yul\":5448:5529   */\n      swap2\n      pop\n        /* \"#utility.yul\":5293:5540   */\n      pop\n        /* \"#utility.yul\":5633:5637   */\n      0x60\n        /* \"#utility.yul\":5626:5631   */\n      dup4\n        /* \"#utility.yul\":5622:5638   */\n      add\n        /* \"#utility.yul\":5616:5639   */\n      mload\n        /* \"#utility.yul\":5686:5689   */\n      dup5\n        /* \"#utility.yul\":5680:5684   */\n      dup3\n        /* \"#utility.yul\":5676:5690   */\n      sub\n        /* \"#utility.yul\":5669:5673   */\n      0x60\n        /* \"#utility.yul\":5664:5667   */\n      dup7\n        /* \"#utility.yul\":5660:5674   */\n      add\n        /* \"#utility.yul\":5653:5691   */\n      mstore\n        /* \"#utility.yul\":5712:5785   */\n      tag_530\n        /* \"#utility.yul\":5780:5784   */\n      dup3\n        /* \"#utility.yul\":5766:5778   */\n      dup3\n        /* \"#utility.yul\":5712:5785   */\n      tag_405\n      jump\t// in\n    tag_530:\n        /* \"#utility.yul\":5704:5785   */\n      swap2\n      pop\n        /* \"#utility.yul\":5550:5796   */\n      pop\n        /* \"#utility.yul\":5813:5817   */\n      dup1\n        /* \"#utility.yul\":5806:5817   */\n      swap2\n      pop\n        /* \"#utility.yul\":4887:5823   */\n      pop\n        /* \"#utility.yul\":4769:5823   */\n      swap3\n      swap2\n      pop\n      pop\n      jump\t// out\n        /* \"#utility.yul\":5905:6436   */\n    tag_410:\n        /* \"#utility.yul\":6056:6060   */\n      0x40\n        /* \"#utility.yul\":6051:6054   */\n      dup3\n        /* \"#utility.yul\":6047:6061   */\n      add\n        /* \"#utility.yul\":6153:6157   */\n      0x00\n        /* \"#utility.yul\":6146:6151   */\n      dup3\n        /* \"#utility.yul\":6142:6158   */\n      add\n        /* \"#utility.yul\":6136:6159   */\n      mload\n        /* \"#utility.yul\":6172:6235   */\n      tag_532\n        /* \"#utility.yul\":6229:6233   */\n      0x00\n        /* \"#utility.yul\":6224:6227   */\n      dup6\n        /* \"#utility.yul\":6220:6234   */\n      add\n        /* \"#utility.yul\":6206:6218   */\n      dup3\n        /* \"#utility.yul\":6172:6235   */\n      tag_407\n      jump\t// in\n    tag_532:\n        /* \"#utility.yul\":6071:6245   */\n      pop\n        /* \"#utility.yul\":6337:6341   */\n      0x20\n        /* \"#utility.yul\":6330:6335   */\n      dup3\n        /* \"#utility.yul\":6326:6342   */\n      add\n        /* \"#utility.yul\":6320:6343   */\n      mload\n        /* \"#utility.yul\":6356:6419   */\n      tag_533\n        /* \"#utility.yul\":6413:6417   */\n      0x20\n        /* \"#utility.yul\":6408:6411   */\n      dup6\n        /* \"#utility.yul\":6404:6418   */\n      add\n        /* \"#utility.yul\":6390:6402   */\n      dup3\n        /* \"#utility.yul\":6356:6419   */\n      tag_407\n      jump\t// in\n    tag_533:\n        /* \"#utility.yul\":6255:6429   */\n      pop\n        /* \"#utility.yul\":6025:6436   */\n      pop\n        /* \"#utility.yul\":5905:6436   */\n      pop\n      pop\n      jump\t// out\n        /* \"#utility.yul\":6502:8747   */\n    tag_411:\n        /* \"#utility.yul\":6607:6610   */\n      0x00\n        /* \"#utility.yul\":6643:6649   */\n      0x0140\n        /* \"#utility.yul\":6638:6641   */\n      dup4\n        /* \"#utility.yul\":6634:6650   */\n      add\n        /* \"#utility.yul\":6733:6737   */\n      0x00\n        /* \"#utility.yul\":6726:6731   */\n      dup4\n        /* \"#utility.yul\":6722:6738   */\n      add\n        /* \"#utility.yul\":6716:6739   */\n      mload\n        /* \"#utility.yul\":6786:6789   */\n      dup5\n        /* \"#utility.yul\":6780:6784   */\n      dup3\n        /* \"#utility.yul\":6776:6790   */\n      sub\n        /* \"#utility.yul\":6769:6773   */\n      0x00\n        /* \"#utility.yul\":6764:6767   */\n      dup7\n        /* \"#utility.yul\":6760:6774   */\n      add\n        /* \"#utility.yul\":6753:6791   */\n      mstore\n        /* \"#utility.yul\":6812:6885   */\n      tag_535\n        /* \"#utility.yul\":6880:6884   */\n      dup3\n        /* \"#utility.yul\":6866:6878   */\n      dup3\n        /* \"#utility.yul\":6812:6885   */\n      tag_405\n      jump\t// in\n    tag_535:\n        /* \"#utility.yul\":6804:6885   */\n      swap2\n      pop\n        /* \"#utility.yul\":6660:6896   */\n      pop\n        /* \"#utility.yul\":6986:6990   */\n      0x20\n        /* \"#utility.yul\":6979:6984   */\n      dup4\n        /* \"#utility.yul\":6975:6991   */\n      add\n        /* \"#utility.yul\":6969:6992   */\n      mload\n        /* \"#utility.yul\":7005:7068   */\n      tag_536\n        /* \"#utility.yul\":7062:7066   */\n      0x20\n        /* \"#utility.yul\":7057:7060   */\n      dup7\n        /* \"#utility.yul\":7053:7067   */\n      add\n        /* \"#utility.yul\":7039:7051   */\n      dup3\n        /* \"#utility.yul\":7005:7068   */\n      tag_407\n      jump\t// in\n    tag_536:\n        /* \"#utility.yul\":6906:7078   */\n      pop\n        /* \"#utility.yul\":7162:7166   */\n      0x40\n        /* \"#utility.yul\":7155:7160   */\n      dup4\n        /* \"#utility.yul\":7151:7167   */\n      add\n        /* \"#utility.yul\":7145:7168   */\n      mload\n        /* \"#utility.yul\":7215:7218   */\n      dup5\n        /* \"#utility.yul\":7209:7213   */\n      dup3\n        /* \"#utility.yul\":7205:7219   */\n      sub\n        /* \"#utility.yul\":7198:7202   */\n      0x40\n        /* \"#utility.yul\":7193:7196   */\n      dup7\n        /* \"#utility.yul\":7189:7203   */\n      add\n        /* \"#utility.yul\":7182:7220   */\n      mstore\n        /* \"#utility.yul\":7241:7314   */\n      tag_537\n        /* \"#utility.yul\":7309:7313   */\n      dup3\n        /* \"#utility.yul\":7295:7307   */\n      dup3\n        /* \"#utility.yul\":7241:7314   */\n      tag_405\n      jump\t// in\n    tag_537:\n        /* \"#utility.yul\":7233:7314   */\n      swap2\n      pop\n        /* \"#utility.yul\":7088:7325   */\n      pop\n        /* \"#utility.yul\":7408:7412   */\n      0x60\n        /* \"#utility.yul\":7401:7406   */\n      dup4\n        /* \"#utility.yul\":7397:7413   */\n      add\n        /* \"#utility.yul\":7391:7414   */\n      mload\n        /* \"#utility.yul\":7461:7464   */\n      dup5\n        /* \"#utility.yul\":7455:7459   */\n      dup3\n        /* \"#utility.yul\":7451:7465   */\n      sub\n        /* \"#utility.yul\":7444:7448   */\n      0x60\n        /* \"#utility.yul\":7439:7442   */\n      dup7\n        /* \"#utility.yul\":7435:7449   */\n      add\n        /* \"#utility.yul\":7428:7466   */\n      mstore\n        /* \"#utility.yul\":7487:7560   */\n      tag_538\n        /* \"#utility.yul\":7555:7559   */\n      dup3\n        /* \"#utility.yul\":7541:7553   */\n      dup3\n        /* \"#utility.yul\":7487:7560   */\n      tag_405\n      jump\t// in\n    tag_538:\n        /* \"#utility.yul\":7479:7560   */\n      swap2\n      pop\n        /* \"#utility.yul\":7335:7571   */\n      pop\n        /* \"#utility.yul\":7656:7660   */\n      0x80\n        /* \"#utility.yul\":7649:7654   */\n      dup4\n        /* \"#utility.yul\":7645:7661   */\n      add\n        /* \"#utility.yul\":7639:7662   */\n      mload\n        /* \"#utility.yul\":7709:7712   */\n      dup5\n        /* \"#utility.yul\":7703:7707   */\n      dup3\n        /* \"#utility.yul\":7699:7713   */\n      sub\n        /* \"#utility.yul\":7692:7696   */\n      0x80\n        /* \"#utility.yul\":7687:7690   */\n      dup7\n        /* \"#utility.yul\":7683:7697   */\n      add\n        /* \"#utility.yul\":7676:7714   */\n      mstore\n        /* \"#utility.yul\":7735:7808   */\n      tag_539\n        /* \"#utility.yul\":7803:7807   */\n      dup3\n        /* \"#utility.yul\":7789:7801   */\n      dup3\n        /* \"#utility.yul\":7735:7808   */\n      tag_405\n      jump\t// in\n    tag_539:\n        /* \"#utility.yul\":7727:7808   */\n      swap2\n      pop\n        /* \"#utility.yul\":7581:7819   */\n      pop\n        /* \"#utility.yul\":7904:7908   */\n      0xa0\n        /* \"#utility.yul\":7897:7902   */\n      dup4\n        /* \"#utility.yul\":7893:7909   */\n      add\n        /* \"#utility.yul\":7887:7910   */\n      mload\n        /* \"#utility.yul\":7923:7986   */\n      tag_540\n        /* \"#utility.yul\":7980:7984   */\n      0xa0\n        /* \"#utility.yul\":7975:7978   */\n      dup7\n        /* \"#utility.yul\":7971:7985   */\n      add\n        /* \"#utility.yul\":7957:7969   */\n      dup3\n        /* \"#utility.yul\":7923:7986   */\n      tag_407\n      jump\t// in\n    tag_540:\n        /* \"#utility.yul\":7829:7996   */\n      pop\n        /* \"#utility.yul\":8087:8091   */\n      0xc0\n        /* \"#utility.yul\":8080:8085   */\n      dup4\n        /* \"#utility.yul\":8076:8092   */\n      add\n        /* \"#utility.yul\":8070:8093   */\n      mload\n        /* \"#utility.yul\":8106:8169   */\n      tag_541\n        /* \"#utility.yul\":8163:8167   */\n      0xc0\n        /* \"#utility.yul\":8158:8161   */\n      dup7\n        /* \"#utility.yul\":8154:8168   */\n      add\n        /* \"#utility.yul\":8140:8152   */\n      dup3\n        /* \"#utility.yul\":8106:8169   */\n      tag_407\n      jump\t// in\n    tag_541:\n        /* \"#utility.yul\":8006:8179   */\n      pop\n        /* \"#utility.yul\":8269:8273   */\n      0xe0\n        /* \"#utility.yul\":8262:8267   */\n      dup4\n        /* \"#utility.yul\":8258:8274   */\n      add\n        /* \"#utility.yul\":8252:8275   */\n      mload\n        /* \"#utility.yul\":8322:8325   */\n      dup5\n        /* \"#utility.yul\":8316:8320   */\n      dup3\n        /* \"#utility.yul\":8312:8326   */\n      sub\n        /* \"#utility.yul\":8305:8309   */\n      0xe0\n        /* \"#utility.yul\":8300:8303   */\n      dup7\n        /* \"#utility.yul\":8296:8310   */\n      add\n        /* \"#utility.yul\":8289:8327   */\n      mstore\n        /* \"#utility.yul\":8348:8455   */\n      tag_542\n        /* \"#utility.yul\":8450:8454   */\n      dup3\n        /* \"#utility.yul\":8436:8448   */\n      dup3\n        /* \"#utility.yul\":8348:8455   */\n      tag_409\n      jump\t// in\n    tag_542:\n        /* \"#utility.yul\":8340:8455   */\n      swap2\n      pop\n        /* \"#utility.yul\":8189:8466   */\n      pop\n        /* \"#utility.yul\":8560:8566   */\n      0x0100\n        /* \"#utility.yul\":8553:8558   */\n      dup4\n        /* \"#utility.yul\":8549:8567   */\n      add\n        /* \"#utility.yul\":8543:8568   */\n      mload\n        /* \"#utility.yul\":8581:8710   */\n      tag_543\n        /* \"#utility.yul\":8702:8708   */\n      0x0100\n        /* \"#utility.yul\":8697:8700   */\n      dup7\n        /* \"#utility.yul\":8693:8709   */\n      add\n        /* \"#utility.yul\":8679:8691   */\n      dup3\n        /* \"#utility.yul\":8581:8710   */\n      tag_410\n      jump\t// in\n    tag_543:\n        /* \"#utility.yul\":8476:8720   */\n      pop\n        /* \"#utility.yul\":8737:8741   */\n      dup1\n        /* \"#utility.yul\":8730:8741   */\n      swap2\n      pop\n        /* \"#utility.yul\":6612:8747   */\n      pop\n        /* \"#utility.yul\":6502:8747   */\n      swap3\n      swap2\n      pop\n      pop\n      jump\t// out\n        /* \"#utility.yul\":8811:10529   */\n    tag_412:\n        /* \"#utility.yul\":8926:8929   */\n      0x00\n        /* \"#utility.yul\":8962:8966   */\n      0xc0\n        /* \"#utility.yul\":8957:8960   */\n      dup4\n        /* \"#utility.yul\":8953:8967   */\n      add\n        /* \"#utility.yul\":9061:9065   */\n      0x00\n        /* \"#utility.yul\":9054:9059   */\n      dup4\n        /* \"#utility.yul\":9050:9066   */\n      add\n        /* \"#utility.yul\":9044:9067   */\n      mload\n        /* \"#utility.yul\":9114:9117   */\n      dup5\n        /* \"#utility.yul\":9108:9112   */\n      dup3\n        /* \"#utility.yul\":9104:9118   */\n      sub\n        /* \"#utility.yul\":9097:9101   */\n      0x00\n        /* \"#utility.yul\":9092:9095   */\n      dup7\n        /* \"#utility.yul\":9088:9102   */\n      add\n        /* \"#utility.yul\":9081:9119   */\n      mstore\n        /* \"#utility.yul\":9140:9241   */\n      tag_545\n        /* \"#utility.yul\":9236:9240   */\n      dup3\n        /* \"#utility.yul\":9222:9234   */\n      dup3\n        /* \"#utility.yul\":9140:9241   */\n      tag_406\n      jump\t// in\n    tag_545:\n        /* \"#utility.yul\":9132:9241   */\n      swap2\n      pop\n        /* \"#utility.yul\":8977:9252   */\n      pop\n        /* \"#utility.yul\":9345:9349   */\n      0x20\n        /* \"#utility.yul\":9338:9343   */\n      dup4\n        /* \"#utility.yul\":9334:9350   */\n      add\n        /* \"#utility.yul\":9328:9351   */\n      mload\n        /* \"#utility.yul\":9398:9401   */\n      dup5\n        /* \"#utility.yul\":9392:9396   */\n      dup3\n        /* \"#utility.yul\":9388:9402   */\n      sub\n        /* \"#utility.yul\":9381:9385   */\n      0x20\n        /* \"#utility.yul\":9376:9379   */\n      dup7\n        /* \"#utility.yul\":9372:9386   */\n      add\n        /* \"#utility.yul\":9365:9403   */\n      mstore\n        /* \"#utility.yul\":9424:9525   */\n      tag_546\n        /* \"#utility.yul\":9520:9524   */\n      dup3\n        /* \"#utility.yul\":9506:9518   */\n      dup3\n        /* \"#utility.yul\":9424:9525   */\n      tag_408\n      jump\t// in\n    tag_546:\n        /* \"#utility.yul\":9416:9525   */\n      swap2\n      pop\n        /* \"#utility.yul\":9262:9536   */\n      pop\n        /* \"#utility.yul\":9629:9633   */\n      0x40\n        /* \"#utility.yul\":9622:9627   */\n      dup4\n        /* \"#utility.yul\":9618:9634   */\n      add\n        /* \"#utility.yul\":9612:9635   */\n      mload\n        /* \"#utility.yul\":9682:9685   */\n      dup5\n        /* \"#utility.yul\":9676:9680   */\n      dup3\n        /* \"#utility.yul\":9672:9686   */\n      sub\n        /* \"#utility.yul\":9665:9669   */\n      0x40\n        /* \"#utility.yul\":9660:9663   */\n      dup7\n        /* \"#utility.yul\":9656:9670   */\n      add\n        /* \"#utility.yul\":9649:9687   */\n      mstore\n        /* \"#utility.yul\":9708:9781   */\n      tag_547\n        /* \"#utility.yul\":9776:9780   */\n      dup3\n        /* \"#utility.yul\":9762:9774   */\n      dup3\n        /* \"#utility.yul\":9708:9781   */\n      tag_405\n      jump\t// in\n    tag_547:\n        /* \"#utility.yul\":9700:9781   */\n      swap2\n      pop\n        /* \"#utility.yul\":9546:9792   */\n      pop\n        /* \"#utility.yul\":9883:9887   */\n      0x60\n        /* \"#utility.yul\":9876:9881   */\n      dup4\n        /* \"#utility.yul\":9872:9888   */\n      add\n        /* \"#utility.yul\":9866:9889   */\n      mload\n        /* \"#utility.yul\":9936:9939   */\n      dup5\n        /* \"#utility.yul\":9930:9934   */\n      dup3\n        /* \"#utility.yul\":9926:9940   */\n      sub\n        /* \"#utility.yul\":9919:9923   */\n      0x60\n        /* \"#utility.yul\":9914:9917   */\n      dup7\n        /* \"#utility.yul\":9910:9924   */\n      add\n        /* \"#utility.yul\":9903:9941   */\n      mstore\n        /* \"#utility.yul\":9962:10061   */\n      tag_548\n        /* \"#utility.yul\":10056:10060   */\n      dup3\n        /* \"#utility.yul\":10042:10054   */\n      dup3\n        /* \"#utility.yul\":9962:10061   */\n      tag_411\n      jump\t// in\n    tag_548:\n        /* \"#utility.yul\":9954:10061   */\n      swap2\n      pop\n        /* \"#utility.yul\":9802:10072   */\n      pop\n        /* \"#utility.yul\":10158:10162   */\n      0x80\n        /* \"#utility.yul\":10151:10156   */\n      dup4\n        /* \"#utility.yul\":10147:10163   */\n      add\n        /* \"#utility.yul\":10141:10164   */\n      mload\n        /* \"#utility.yul\":10177:10240   */\n      tag_549\n        /* \"#utility.yul\":10234:10238   */\n      0x80\n        /* \"#utility.yul\":10229:10232   */\n      dup7\n        /* \"#utility.yul\":10225:10239   */\n      add\n        /* \"#utility.yul\":10211:10223   */\n      dup3\n        /* \"#utility.yul\":10177:10240   */\n      tag_407\n      jump\t// in\n    tag_549:\n        /* \"#utility.yul\":10082:10250   */\n      pop\n        /* \"#utility.yul\":10339:10343   */\n      0xa0\n        /* \"#utility.yul\":10332:10337   */\n      dup4\n        /* \"#utility.yul\":10328:10344   */\n      add\n        /* \"#utility.yul\":10322:10345   */\n      mload\n        /* \"#utility.yul\":10392:10395   */\n      dup5\n        /* \"#utility.yul\":10386:10390   */\n      dup3\n        /* \"#utility.yul\":10382:10396   */\n      sub\n        /* \"#utility.yul\":10375:10379   */\n      0xa0\n        /* \"#utility.yul\":10370:10373   */\n      dup7\n        /* \"#utility.yul\":10366:10380   */\n      add\n        /* \"#utility.yul\":10359:10397   */\n      mstore\n        /* \"#utility.yul\":10418:10491   */\n      tag_550\n        /* \"#utility.yul\":10486:10490   */\n      dup3\n        /* \"#utility.yul\":10472:10484   */\n      dup3\n        /* \"#utility.yul\":10418:10491   */\n      tag_405\n      jump\t// in\n    tag_550:\n        /* \"#utility.yul\":10410:10491   */\n      swap2\n      pop\n        /* \"#utility.yul\":10260:10502   */\n      pop\n        /* \"#utility.yul\":10519:10523   */\n      dup1\n        /* \"#utility.yul\":10512:10523   */\n      swap2\n      pop\n        /* \"#utility.yul\":8931:10529   */\n      pop\n        /* \"#utility.yul\":8811:10529   */\n      swap3\n      swap2\n      pop\n      pop\n      jump\t// out\n        /* \"#utility.yul\":10611:11638   */\n    tag_413:\n        /* \"#utility.yul\":10744:10747   */\n      0x00\n        /* \"#utility.yul\":10780:10784   */\n      0x60\n        /* \"#utility.yul\":10775:10778   */\n      dup4\n        /* \"#utility.yul\":10771:10785   */\n      add\n        /* \"#utility.yul\":10879:10883   */\n      0x00\n        /* \"#utility.yul\":10872:10877   */\n      dup4\n        /* \"#utility.yul\":10868:10884   */\n      add\n        /* \"#utility.yul\":10862:10885   */\n      mload\n        /* \"#utility.yul\":10932:10935   */\n      dup5\n        /* \"#utility.yul\":10926:10930   */\n      dup3\n        /* \"#utility.yul\":10922:10936   */\n      sub\n        /* \"#utility.yul\":10915:10919   */\n      0x00\n        /* \"#utility.yul\":10910:10913   */\n      dup7\n        /* \"#utility.yul\":10906:10920   */\n      add\n        /* \"#utility.yul\":10899:10937   */\n      mstore\n        /* \"#utility.yul\":10958:11059   */\n      tag_552\n        /* \"#utility.yul\":11054:11058   */\n      dup3\n        /* \"#utility.yul\":11040:11052   */\n      dup3\n        /* \"#utility.yul\":10958:11059   */\n      tag_406\n      jump\t// in\n    tag_552:\n        /* \"#utility.yul\":10950:11059   */\n      swap2\n      pop\n        /* \"#utility.yul\":10795:11070   */\n      pop\n        /* \"#utility.yul\":11164:11168   */\n      0x20\n        /* \"#utility.yul\":11157:11162   */\n      dup4\n        /* \"#utility.yul\":11153:11169   */\n      add\n        /* \"#utility.yul\":11147:11170   */\n      mload\n        /* \"#utility.yul\":11217:11220   */\n      dup5\n        /* \"#utility.yul\":11211:11215   */\n      dup3\n        /* \"#utility.yul\":11207:11221   */\n      sub\n        /* \"#utility.yul\":11200:11204   */\n      0x20\n        /* \"#utility.yul\":11195:11198   */\n      dup7\n        /* \"#utility.yul\":11191:11205   */\n      add\n        /* \"#utility.yul\":11184:11222   */\n      mstore\n        /* \"#utility.yul\":11243:11344   */\n      tag_553\n        /* \"#utility.yul\":11339:11343   */\n      dup3\n        /* \"#utility.yul\":11325:11337   */\n      dup3\n        /* \"#utility.yul\":11243:11344   */\n      tag_408\n      jump\t// in\n    tag_553:\n        /* \"#utility.yul\":11235:11344   */\n      swap2\n      pop\n        /* \"#utility.yul\":11080:11355   */\n      pop\n        /* \"#utility.yul\":11448:11452   */\n      0x40\n        /* \"#utility.yul\":11441:11446   */\n      dup4\n        /* \"#utility.yul\":11437:11453   */\n      add\n        /* \"#utility.yul\":11431:11454   */\n      mload\n        /* \"#utility.yul\":11501:11504   */\n      dup5\n        /* \"#utility.yul\":11495:11499   */\n      dup3\n        /* \"#utility.yul\":11491:11505   */\n      sub\n        /* \"#utility.yul\":11484:11488   */\n      0x40\n        /* \"#utility.yul\":11479:11482   */\n      dup7\n        /* \"#utility.yul\":11475:11489   */\n      add\n        /* \"#utility.yul\":11468:11506   */\n      mstore\n        /* \"#utility.yul\":11527:11600   */\n      tag_554\n        /* \"#utility.yul\":11595:11599   */\n      dup3\n        /* \"#utility.yul\":11581:11593   */\n      dup3\n        /* \"#utility.yul\":11527:11600   */\n      tag_405\n      jump\t// in\n    tag_554:\n        /* \"#utility.yul\":11519:11600   */\n      swap2\n      pop\n        /* \"#utility.yul\":11365:11611   */\n      pop\n        /* \"#utility.yul\":11628:11632   */\n      dup1\n        /* \"#utility.yul\":11621:11632   */\n      swap2\n      pop\n        /* \"#utility.yul\":10749:11638   */\n      pop\n        /* \"#utility.yul\":10611:11638   */\n      swap3\n      swap2\n      pop\n      pop\n      jump\t// out\n        /* \"#utility.yul\":11644:11824   */\n    tag_189:\n        /* \"#utility.yul\":11692:11769   */\n      0x4e487b7100000000000000000000000000000000000000000000000000000000\n        /* \"#utility.yul\":11689:11690   */\n      0x00\n        /* \"#utility.yul\":11682:11770   */\n      mstore\n        /* \"#utility.yul\":11789:11793   */\n      0x21\n        /* \"#utility.yul\":11786:11787   */\n      0x04\n        /* \"#utility.yul\":11779:11794   */\n      mstore\n        /* \"#utility.yul\":11813:11817   */\n      0x24\n        /* \"#utility.yul\":11810:11811   */\n      0x00\n        /* \"#utility.yul\":11803:11818   */\n      revert\n        /* \"#utility.yul\":11830:11949   */\n    tag_414:\n        /* \"#utility.yul\":11917:11918   */\n      0x03\n        /* \"#utility.yul\":11910:11915   */\n      dup2\n        /* \"#utility.yul\":11907:11919   */\n      lt\n        /* \"#utility.yul\":11897:11943   */\n      tag_557\n      jumpi\n        /* \"#utility.yul\":11923:11941   */\n      tag_558\n      tag_189\n      jump\t// in\n    tag_558:\n        /* \"#utility.yul\":11897:11943   */\n    tag_557:\n        /* \"#utility.yul\":11830:11949   */\n      pop\n      jump\t// out\n        /* \"#utility.yul\":11955:12094   */\n    tag_415:\n        /* \"#utility.yul\":12006:12013   */\n      0x00\n        /* \"#utility.yul\":12035:12040   */\n      dup2\n        /* \"#utility.yul\":12024:12040   */\n      swap1\n      pop\n        /* \"#utility.yul\":12041:12088   */\n      tag_560\n        /* \"#utility.yul\":12082:12087   */\n      dup3\n        /* \"#utility.yul\":12041:12088   */\n      tag_414\n      jump\t// in\n    tag_560:\n        /* \"#utility.yul\":11955:12094   */\n      swap2\n      swap1\n      pop\n      jump\t// out\n        /* \"#utility.yul\":12100:12239   */\n    tag_416:\n        /* \"#utility.yul\":12162:12171   */\n      0x00\n        /* \"#utility.yul\":12195:12233   */\n      tag_562\n        /* \"#utility.yul\":12227:12232   */\n      dup3\n        /* \"#utility.yul\":12195:12233   */\n      tag_415\n      jump\t// in\n    tag_562:\n        /* \"#utility.yul\":12182:12233   */\n      swap1\n      pop\n        /* \"#utility.yul\":12100:12239   */\n      swap2\n      swap1\n      pop\n      jump\t// out\n        /* \"#utility.yul\":12245:12400   */\n    tag_417:\n        /* \"#utility.yul\":12344:12393   */\n      tag_564\n        /* \"#utility.yul\":12387:12392   */\n      dup2\n        /* \"#utility.yul\":12344:12393   */\n      tag_416\n      jump\t// in\n    tag_564:\n        /* \"#utility.yul\":12339:12342   */\n      dup3\n        /* \"#utility.yul\":12332:12394   */\n      mstore\n        /* \"#utility.yul\":12245:12400   */\n      pop\n      pop\n      jump\t// out\n        /* \"#utility.yul\":12406:12496   */\n    tag_418:\n        /* \"#utility.yul\":12440:12447   */\n      0x00\n        /* \"#utility.yul\":12483:12488   */\n      dup2\n        /* \"#utility.yul\":12476:12489   */\n      iszero\n        /* \"#utility.yul\":12469:12490   */\n      iszero\n        /* \"#utility.yul\":12458:12490   */\n      swap1\n      pop\n        /* \"#utility.yul\":12406:12496   */\n      swap2\n      swap1\n      pop\n      jump\t// out\n        /* \"#utility.yul\":12502:12611   */\n    tag_419:\n        /* \"#utility.yul\":12583:12604   */\n      tag_567\n        /* \"#utility.yul\":12598:12603   */\n      dup2\n        /* \"#utility.yul\":12583:12604   */\n      tag_418\n      jump\t// in\n    tag_567:\n        /* \"#utility.yul\":12578:12581   */\n      dup3\n        /* \"#utility.yul\":12571:12605   */\n      mstore\n        /* \"#utility.yul\":12502:12611   */\n      pop\n      pop\n      jump\t// out\n        /* \"#utility.yul\":12617:13936   */\n    tag_23:\n        /* \"#utility.yul\":13016:13020   */\n      0x00\n        /* \"#utility.yul\":13054:13057   */\n      0x0100\n        /* \"#utility.yul\":13043:13052   */\n      dup3\n        /* \"#utility.yul\":13039:13058   */\n      add\n        /* \"#utility.yul\":13031:13058   */\n      swap1\n      pop\n        /* \"#utility.yul\":13068:13139   */\n      tag_569\n        /* \"#utility.yul\":13136:13137   */\n      0x00\n        /* \"#utility.yul\":13125:13134   */\n      dup4\n        /* \"#utility.yul\":13121:13138   */\n      add\n        /* \"#utility.yul\":13112:13118   */\n      dup12\n        /* \"#utility.yul\":13068:13139   */\n      tag_397\n      jump\t// in\n    tag_569:\n        /* \"#utility.yul\":13149:13221   */\n      tag_570\n        /* \"#utility.yul\":13217:13219   */\n      0x20\n        /* \"#utility.yul\":13206:13215   */\n      dup4\n        /* \"#utility.yul\":13202:13220   */\n      add\n        /* \"#utility.yul\":13193:13199   */\n      dup11\n        /* \"#utility.yul\":13149:13221   */\n      tag_400\n      jump\t// in\n    tag_570:\n        /* \"#utility.yul\":13268:13277   */\n      dup2\n        /* \"#utility.yul\":13262:13266   */\n      dup2\n        /* \"#utility.yul\":13258:13278   */\n      sub\n        /* \"#utility.yul\":13253:13255   */\n      0x40\n        /* \"#utility.yul\":13242:13251   */\n      dup4\n        /* \"#utility.yul\":13238:13256   */\n      add\n        /* \"#utility.yul\":13231:13279   */\n      mstore\n        /* \"#utility.yul\":13296:13400   */\n      tag_571\n        /* \"#utility.yul\":13395:13399   */\n      dup2\n        /* \"#utility.yul\":13386:13392   */\n      dup10\n        /* \"#utility.yul\":13296:13400   */\n      tag_412\n      jump\t// in\n    tag_571:\n        /* \"#utility.yul\":13288:13400   */\n      swap1\n      pop\n        /* \"#utility.yul\":13410:13482   */\n      tag_572\n        /* \"#utility.yul\":13478:13480   */\n      0x60\n        /* \"#utility.yul\":13467:13476   */\n      dup4\n        /* \"#utility.yul\":13463:13481   */\n      add\n        /* \"#utility.yul\":13454:13460   */\n      dup9\n        /* \"#utility.yul\":13410:13482   */\n      tag_400\n      jump\t// in\n    tag_572:\n        /* \"#utility.yul\":13530:13539   */\n      dup2\n        /* \"#utility.yul\":13524:13528   */\n      dup2\n        /* \"#utility.yul\":13520:13540   */\n      sub\n        /* \"#utility.yul\":13514:13517   */\n      0x80\n        /* \"#utility.yul\":13503:13512   */\n      dup4\n        /* \"#utility.yul\":13499:13518   */\n      add\n        /* \"#utility.yul\":13492:13541   */\n      mstore\n        /* \"#utility.yul\":13558:13680   */\n      tag_573\n        /* \"#utility.yul\":13675:13679   */\n      dup2\n        /* \"#utility.yul\":13666:13672   */\n      dup8\n        /* \"#utility.yul\":13558:13680   */\n      tag_413\n      jump\t// in\n    tag_573:\n        /* \"#utility.yul\":13550:13680   */\n      swap1\n      pop\n        /* \"#utility.yul\":13690:13775   */\n      tag_574\n        /* \"#utility.yul\":13770:13773   */\n      0xa0\n        /* \"#utility.yul\":13759:13768   */\n      dup4\n        /* \"#utility.yul\":13755:13774   */\n      add\n        /* \"#utility.yul\":13746:13752   */\n      dup7\n        /* \"#utility.yul\":13690:13775   */\n      tag_417\n      jump\t// in\n    tag_574:\n        /* \"#utility.yul\":13785:13852   */\n      tag_575\n        /* \"#utility.yul\":13847:13850   */\n      0xc0\n        /* \"#utility.yul\":13836:13845   */\n      dup4\n        /* \"#utility.yul\":13832:13851   */\n      add\n        /* \"#utility.yul\":13823:13829   */\n      dup6\n        /* \"#utility.yul\":13785:13852   */\n      tag_419\n      jump\t// in\n    tag_575:\n        /* \"#utility.yul\":13862:13929   */\n      tag_576\n        /* \"#utility.yul\":13924:13927   */\n      0xe0\n        /* \"#utility.yul\":13913:13922   */\n      dup4\n        /* \"#utility.yul\":13909:13928   */\n      add\n        /* \"#utility.yul\":13900:13906   */\n      dup5\n        /* \"#utility.yul\":13862:13929   */\n      tag_419\n      jump\t// in\n    tag_576:\n        /* \"#utility.yul\":12617:13936   */\n      swap10\n      swap9\n      pop\n      pop\n      pop\n      pop\n      pop\n      pop\n      pop\n      pop\n      pop\n      jump\t// out\n        /* \"#utility.yul\":13942:14164   */\n    tag_29:\n        /* \"#utility.yul\":14035:14039   */\n      0x00\n        /* \"#utility.yul\":14073:14075   */\n      0x20\n        /* \"#utility.yul\":14062:14071   */\n      dup3\n        /* \"#utility.yul\":14058:14076   */\n      add\n        /* \"#utility.yul\":14050:14076   */\n      swap1\n      pop\n        /* \"#utility.yul\":14086:14157   */\n      tag_578\n        /* \"#utility.yul\":14154:14155   */\n      0x00\n        /* \"#utility.yul\":14143:14152   */\n      dup4\n        /* \"#utility.yul\":14139:14156   */\n      add\n        /* \"#utility.yul\":14130:14136   */\n      dup5\n        /* \"#utility.yul\":14086:14157   */\n      tag_397\n      jump\t// in\n    tag_578:\n        /* \"#utility.yul\":13942:14164   */\n      swap3\n      swap2\n      pop\n      pop\n      jump\t// out\n        /* \"#utility.yul\":14170:14287   */\n    tag_420:\n        /* \"#utility.yul\":14279:14280   */\n      0x00\n        /* \"#utility.yul\":14276:14277   */\n      dup1\n        /* \"#utility.yul\":14269:14281   */\n      revert\n        /* \"#utility.yul\":14293:14473   */\n    tag_219:\n        /* \"#utility.yul\":14341:14418   */\n      0x4e487b7100000000000000000000000000000000000000000000000000000000\n        /* \"#utility.yul\":14338:14339   */\n      0x00\n        /* \"#utility.yul\":14331:14419   */\n      mstore\n        /* \"#utility.yul\":14438:14442   */\n      0x41\n        /* \"#utility.yul\":14435:14436   */\n      0x04\n        /* \"#utility.yul\":14428:14443   */\n      mstore\n        /* \"#utility.yul\":14462:14466   */\n      0x24\n        /* \"#utility.yul\":14459:14460   */\n      0x00\n        /* \"#utility.yul\":14452:14467   */\n      revert\n        /* \"#utility.yul\":14479:14760   */\n    tag_421:\n        /* \"#utility.yul\":14562:14589   */\n      tag_582\n        /* \"#utility.yul\":14584:14588   */\n      dup3\n        /* \"#utility.yul\":14562:14589   */\n      tag_404\n      jump\t// in\n    tag_582:\n        /* \"#utility.yul\":14554:14560   */\n      dup2\n        /* \"#utility.yul\":14550:14590   */\n      add\n        /* \"#utility.yul\":14692:14698   */\n      dup2\n        /* \"#utility.yul\":14680:14690   */\n      dup2\n        /* \"#utility.yul\":14677:14699   */\n      lt\n        /* \"#utility.yul\":14656:14674   */\n      0xffffffffffffffff\n        /* \"#utility.yul\":14644:14654   */\n      dup3\n        /* \"#utility.yul\":14641:14675   */\n      gt\n        /* \"#utility.yul\":14638:14700   */\n      or\n        /* \"#utility.yul\":14635:14723   */\n      iszero\n      tag_583\n      jumpi\n        /* \"#utility.yul\":14703:14721   */\n      tag_584\n      tag_219\n      jump\t// in\n    tag_584:\n        /* \"#utility.yul\":14635:14723   */\n    tag_583:\n        /* \"#utility.yul\":14743:14753   */\n      dup1\n        /* \"#utility.yul\":14739:14741   */\n      0x40\n        /* \"#utility.yul\":14732:14754   */\n      mstore\n        /* \"#utility.yul\":14522:14760   */\n      pop\n        /* \"#utility.yul\":14479:14760   */\n      pop\n      pop\n      jump\t// out\n        /* \"#utility.yul\":14766:14895   */\n    tag_422:\n        /* \"#utility.yul\":14800:14806   */\n      0x00\n        /* \"#utility.yul\":14827:14847   */\n      tag_586\n      tag_391\n      jump\t// in\n    tag_586:\n        /* \"#utility.yul\":14817:14847   */\n      swap1\n      pop\n        /* \"#utility.yul\":14856:14889   */\n      tag_587\n        /* \"#utility.yul\":14884:14888   */\n      dup3\n        /* \"#utility.yul\":14876:14882   */\n      dup3\n        /* \"#utility.yul\":14856:14889   */\n      tag_421\n      jump\t// in\n    tag_587:\n        /* \"#utility.yul\":14766:14895   */\n      swap2\n      swap1\n      pop\n      jump\t// out\n        /* \"#utility.yul\":14901:15018   */\n    tag_423:\n        /* \"#utility.yul\":15010:15011   */\n      0x00\n        /* \"#utility.yul\":15007:15008   */\n      dup1\n        /* \"#utility.yul\":15000:15012   */\n      revert\n        /* \"#utility.yul\":15024:15141   */\n    tag_424:\n        /* \"#utility.yul\":15133:15134   */\n      0x00\n        /* \"#utility.yul\":15130:15131   */\n      dup1\n        /* \"#utility.yul\":15123:15135   */\n      revert\n        /* \"#utility.yul\":15147:15264   */\n    tag_425:\n        /* \"#utility.yul\":15256:15257   */\n      0x00\n        /* \"#utility.yul\":15253:15254   */\n      dup1\n        /* \"#utility.yul\":15246:15258   */\n      revert\n        /* \"#utility.yul\":15270:15578   */\n    tag_426:\n        /* \"#utility.yul\":15332:15336   */\n      0x00\n        /* \"#utility.yul\":15422:15440   */\n      0xffffffffffffffff\n        /* \"#utility.yul\":15414:15420   */\n      dup3\n        /* \"#utility.yul\":15411:15441   */\n      gt\n        /* \"#utility.yul\":15408:15464   */\n      iszero\n      tag_592\n      jumpi\n        /* \"#utility.yul\":15444:15462   */\n      tag_593\n      tag_219\n      jump\t// in\n    tag_593:\n        /* \"#utility.yul\":15408:15464   */\n    tag_592:\n        /* \"#utility.yul\":15482:15511   */\n      tag_594\n        /* \"#utility.yul\":15504:15510   */\n      dup3\n        /* \"#utility.yul\":15482:15511   */\n      tag_404\n      jump\t// in\n    tag_594:\n        /* \"#utility.yul\":15474:15511   */\n      swap1\n      pop\n        /* \"#utility.yul\":15566:15570   */\n      0x20\n        /* \"#utility.yul\":15560:15564   */\n      dup2\n        /* \"#utility.yul\":15556:15571   */\n      add\n        /* \"#utility.yul\":15548:15571   */\n      swap1\n      pop\n        /* \"#utility.yul\":15270:15578   */\n      swap2\n      swap1\n      pop\n      jump\t// out\n        /* \"#utility.yul\":15584:15730   */\n    tag_427:\n        /* \"#utility.yul\":15681:15687   */\n      dup3\n        /* \"#utility.yul\":15676:15679   */\n      dup2\n        /* \"#utility.yul\":15671:15674   */\n      dup4\n        /* \"#utility.yul\":15658:15688   */\n      calldatacopy\n        /* \"#utility.yul\":15722:15723   */\n      0x00\n        /* \"#utility.yul\":15713:15719   */\n      dup4\n        /* \"#utility.yul\":15708:15711   */\n      dup4\n        /* \"#utility.yul\":15704:15720   */\n      add\n        /* \"#utility.yul\":15697:15724   */\n      mstore\n        /* \"#utility.yul\":15584:15730   */\n      pop\n      pop\n      pop\n      jump\t// out\n        /* \"#utility.yul\":15736:16161   */\n    tag_428:\n        /* \"#utility.yul\":15814:15819   */\n      0x00\n        /* \"#utility.yul\":15839:15905   */\n      tag_597\n        /* \"#utility.yul\":15855:15904   */\n      tag_598\n        /* \"#utility.yul\":15897:15903   */\n      dup5\n        /* \"#utility.yul\":15855:15904   */\n      tag_426\n      jump\t// in\n    tag_598:\n        /* \"#utility.yul\":15839:15905   */\n      tag_422\n      jump\t// in\n    tag_597:\n        /* \"#utility.yul\":15830:15905   */\n      swap1\n      pop\n        /* \"#utility.yul\":15928:15934   */\n      dup3\n        /* \"#utility.yul\":15921:15926   */\n      dup2\n        /* \"#utility.yul\":15914:15935   */\n      mstore\n        /* \"#utility.yul\":15966:15970   */\n      0x20\n        /* \"#utility.yul\":15959:15964   */\n      dup2\n        /* \"#utility.yul\":15955:15971   */\n      add\n        /* \"#utility.yul\":16004:16007   */\n      dup5\n        /* \"#utility.yul\":15995:16001   */\n      dup5\n        /* \"#utility.yul\":15990:15993   */\n      dup5\n        /* \"#utility.yul\":15986:16002   */\n      add\n        /* \"#utility.yul\":15983:16008   */\n      gt\n        /* \"#utility.yul\":15980:16092   */\n      iszero\n      tag_599\n      jumpi\n        /* \"#utility.yul\":16011:16090   */\n      tag_600\n      tag_425\n      jump\t// in\n    tag_600:\n        /* \"#utility.yul\":15980:16092   */\n    tag_599:\n        /* \"#utility.yul\":16101:16155   */\n      tag_601\n        /* \"#utility.yul\":16148:16154   */\n      dup5\n        /* \"#utility.yul\":16143:16146   */\n      dup3\n        /* \"#utility.yul\":16138:16141   */\n      dup6\n        /* \"#utility.yul\":16101:16155   */\n      tag_427\n      jump\t// in\n    tag_601:\n        /* \"#utility.yul\":15820:16161   */\n      pop\n        /* \"#utility.yul\":15736:16161   */\n      swap4\n      swap3\n      pop\n      pop\n      pop\n      jump\t// out\n        /* \"#utility.yul\":16181:16521   */\n    tag_429:\n        /* \"#utility.yul\":16237:16242   */\n      0x00\n        /* \"#utility.yul\":16286:16289   */\n      dup3\n        /* \"#utility.yul\":16279:16283   */\n      0x1f\n        /* \"#utility.yul\":16271:16277   */\n      dup4\n        /* \"#utility.yul\":16267:16284   */\n      add\n        /* \"#utility.yul\":16263:16290   */\n      slt\n        /* \"#utility.yul\":16253:16375   */\n      tag_603\n      jumpi\n        /* \"#utility.yul\":16294:16373   */\n      tag_604\n      tag_424\n      jump\t// in\n    tag_604:\n        /* \"#utility.yul\":16253:16375   */\n    tag_603:\n        /* \"#utility.yul\":16411:16417   */\n      dup2\n        /* \"#utility.yul\":16398:16418   */\n      calldataload\n        /* \"#utility.yul\":16436:16515   */\n      tag_605\n        /* \"#utility.yul\":16511:16514   */\n      dup5\n        /* \"#utility.yul\":16503:16509   */\n      dup3\n        /* \"#utility.yul\":16496:16500   */\n      0x20\n        /* \"#utility.yul\":16488:16494   */\n      dup7\n        /* \"#utility.yul\":16484:16501   */\n      add\n        /* \"#utility.yul\":16436:16515   */\n      tag_428\n      jump\t// in\n    tag_605:\n        /* \"#utility.yul\":16427:16515   */\n      swap2\n      pop\n        /* \"#utility.yul\":16243:16521   */\n      pop\n        /* \"#utility.yul\":16181:16521   */\n      swap3\n      swap2\n      pop\n      pop\n      jump\t// out\n        /* \"#utility.yul\":16527:16643   */\n    tag_430:\n        /* \"#utility.yul\":16597:16618   */\n      tag_607\n        /* \"#utility.yul\":16612:16617   */\n      dup2\n        /* \"#utility.yul\":16597:16618   */\n      tag_418\n      jump\t// in\n    tag_607:\n        /* \"#utility.yul\":16590:16595   */\n      dup2\n        /* \"#utility.yul\":16587:16619   */\n      eq\n        /* \"#utility.yul\":16577:16637   */\n      tag_608\n      jumpi\n        /* \"#utility.yul\":16633:16634   */\n      0x00\n        /* \"#utility.yul\":16630:16631   */\n      dup1\n        /* \"#utility.yul\":16623:16635   */\n      revert\n        /* \"#utility.yul\":16577:16637   */\n    tag_608:\n        /* \"#utility.yul\":16527:16643   */\n      pop\n      jump\t// out\n        /* \"#utility.yul\":16649:16782   */\n    tag_431:\n        /* \"#utility.yul\":16692:16697   */\n      0x00\n        /* \"#utility.yul\":16730:16736   */\n      dup2\n        /* \"#utility.yul\":16717:16737   */\n      calldataload\n        /* \"#utility.yul\":16708:16737   */\n      swap1\n      pop\n        /* \"#utility.yul\":16746:16776   */\n      tag_610\n        /* \"#utility.yul\":16770:16775   */\n      dup2\n        /* \"#utility.yul\":16746:16776   */\n      tag_430\n      jump\t// in\n    tag_610:\n        /* \"#utility.yul\":16649:16782   */\n      swap3\n      swap2\n      pop\n      pop\n      jump\t// out\n        /* \"#utility.yul\":16825:17756   */\n    tag_432:\n        /* \"#utility.yul\":16903:16908   */\n      0x00\n        /* \"#utility.yul\":16947:16951   */\n      0x60\n        /* \"#utility.yul\":16935:16944   */\n      dup3\n        /* \"#utility.yul\":16930:16933   */\n      dup5\n        /* \"#utility.yul\":16926:16945   */\n      sub\n        /* \"#utility.yul\":16922:16952   */\n      slt\n        /* \"#utility.yul\":16919:17036   */\n      iszero\n      tag_612\n      jumpi\n        /* \"#utility.yul\":16955:17034   */\n      tag_613\n      tag_420\n      jump\t// in\n    tag_613:\n        /* \"#utility.yul\":16919:17036   */\n    tag_612:\n        /* \"#utility.yul\":17054:17075   */\n      tag_614\n        /* \"#utility.yul\":17070:17074   */\n      0x60\n        /* \"#utility.yul\":17054:17075   */\n      tag_422\n      jump\t// in\n    tag_614:\n        /* \"#utility.yul\":17045:17075   */\n      swap1\n      pop\n        /* \"#utility.yul\":17145:17146   */\n      0x00\n        /* \"#utility.yul\":17185:17234   */\n      tag_615\n        /* \"#utility.yul\":17230:17233   */\n      dup5\n        /* \"#utility.yul\":17221:17227   */\n      dup3\n        /* \"#utility.yul\":17210:17219   */\n      dup6\n        /* \"#utility.yul\":17206:17228   */\n      add\n        /* \"#utility.yul\":17185:17234   */\n      tag_396\n      jump\t// in\n    tag_615:\n        /* \"#utility.yul\":17178:17182   */\n      0x00\n        /* \"#utility.yul\":17171:17176   */\n      dup4\n        /* \"#utility.yul\":17167:17183   */\n      add\n        /* \"#utility.yul\":17160:17235   */\n      mstore\n        /* \"#utility.yul\":17085:17246   */\n      pop\n        /* \"#utility.yul\":17343:17345   */\n      0x20\n        /* \"#utility.yul\":17332:17341   */\n      dup3\n        /* \"#utility.yul\":17328:17346   */\n      add\n        /* \"#utility.yul\":17315:17347   */\n      calldataload\n        /* \"#utility.yul\":17374:17392   */\n      0xffffffffffffffff\n        /* \"#utility.yul\":17366:17372   */\n      dup2\n        /* \"#utility.yul\":17363:17393   */\n      gt\n        /* \"#utility.yul\":17360:17477   */\n      iszero\n      tag_616\n      jumpi\n        /* \"#utility.yul\":17396:17475   */\n      tag_617\n      tag_423\n      jump\t// in\n    tag_617:\n        /* \"#utility.yul\":17360:17477   */\n    tag_616:\n        /* \"#utility.yul\":17516:17575   */\n      tag_618\n        /* \"#utility.yul\":17571:17574   */\n      dup5\n        /* \"#utility.yul\":17562:17568   */\n      dup3\n        /* \"#utility.yul\":17551:17560   */\n      dup6\n        /* \"#utility.yul\":17547:17569   */\n      add\n        /* \"#utility.yul\":17516:17575   */\n      tag_429\n      jump\t// in\n    tag_618:\n        /* \"#utility.yul\":17509:17513   */\n      0x20\n        /* \"#utility.yul\":17502:17507   */\n      dup4\n        /* \"#utility.yul\":17498:17514   */\n      add\n        /* \"#utility.yul\":17491:17576   */\n      mstore\n        /* \"#utility.yul\":17256:17587   */\n      pop\n        /* \"#utility.yul\":17650:17652   */\n      0x40\n        /* \"#utility.yul\":17691:17737   */\n      tag_619\n        /* \"#utility.yul\":17733:17736   */\n      dup5\n        /* \"#utility.yul\":17724:17730   */\n      dup3\n        /* \"#utility.yul\":17713:17722   */\n      dup6\n        /* \"#utility.yul\":17709:17731   */\n      add\n        /* \"#utility.yul\":17691:17737   */\n      tag_431\n      jump\t// in\n    tag_619:\n        /* \"#utility.yul\":17684:17688   */\n      0x40\n        /* \"#utility.yul\":17677:17682   */\n      dup4\n        /* \"#utility.yul\":17673:17689   */\n      add\n        /* \"#utility.yul\":17666:17738   */\n      mstore\n        /* \"#utility.yul\":17597:17749   */\n      pop\n        /* \"#utility.yul\":16825:17756   */\n      swap3\n      swap2\n      pop\n      pop\n      jump\t// out\n        /* \"#utility.yul\":17762:18309   */\n    tag_33:\n        /* \"#utility.yul\":17850:17856   */\n      0x00\n        /* \"#utility.yul\":17899:17901   */\n      0x20\n        /* \"#utility.yul\":17887:17896   */\n      dup3\n        /* \"#utility.yul\":17878:17885   */\n      dup5\n        /* \"#utility.yul\":17874:17897   */\n      sub\n        /* \"#utility.yul\":17870:17902   */\n      slt\n        /* \"#utility.yul\":17867:17986   */\n      iszero\n      tag_621\n      jumpi\n        /* \"#utility.yul\":17905:17984   */\n      tag_622\n      tag_392\n      jump\t// in\n    tag_622:\n        /* \"#utility.yul\":17867:17986   */\n    tag_621:\n        /* \"#utility.yul\":18053:18054   */\n      0x00\n        /* \"#utility.yul\":18042:18051   */\n      dup3\n        /* \"#utility.yul\":18038:18055   */\n      add\n        /* \"#utility.yul\":18025:18056   */\n      calldataload\n        /* \"#utility.yul\":18083:18101   */\n      0xffffffffffffffff\n        /* \"#utility.yul\":18075:18081   */\n      dup2\n        /* \"#utility.yul\":18072:18102   */\n      gt\n        /* \"#utility.yul\":18069:18186   */\n      iszero\n      tag_623\n      jumpi\n        /* \"#utility.yul\":18105:18184   */\n      tag_624\n      tag_393\n      jump\t// in\n    tag_624:\n        /* \"#utility.yul\":18069:18186   */\n    tag_623:\n        /* \"#utility.yul\":18210:18292   */\n      tag_625\n        /* \"#utility.yul\":18284:18291   */\n      dup5\n        /* \"#utility.yul\":18275:18281   */\n      dup3\n        /* \"#utility.yul\":18264:18273   */\n      dup6\n        /* \"#utility.yul\":18260:18282   */\n      add\n        /* \"#utility.yul\":18210:18292   */\n      tag_432\n      jump\t// in\n    tag_625:\n        /* \"#utility.yul\":18200:18292   */\n      swap2\n      pop\n        /* \"#utility.yul\":17996:18302   */\n      pop\n        /* \"#utility.yul\":17762:18309   */\n      swap3\n      swap2\n      pop\n      pop\n      jump\t// out\n        /* \"#utility.yul\":18315:18783   */\n    tag_45:\n        /* \"#utility.yul\":18380:18386   */\n      0x00\n        /* \"#utility.yul\":18388:18394   */\n      dup1\n        /* \"#utility.yul\":18437:18439   */\n      0x40\n        /* \"#utility.yul\":18425:18434   */\n      dup4\n        /* \"#utility.yul\":18416:18423   */\n      dup6\n        /* \"#utility.yul\":18412:18435   */\n      sub\n        /* \"#utility.yul\":18408:18440   */\n      slt\n        /* \"#utility.yul\":18405:18524   */\n      iszero\n      tag_627\n      jumpi\n        /* \"#utility.yul\":18443:18522   */\n      tag_628\n      tag_392\n      jump\t// in\n    tag_628:\n        /* \"#utility.yul\":18405:18524   */\n    tag_627:\n        /* \"#utility.yul\":18563:18564   */\n      0x00\n        /* \"#utility.yul\":18588:18641   */\n      tag_629\n        /* \"#utility.yul\":18633:18640   */\n      dup6\n        /* \"#utility.yul\":18624:18630   */\n      dup3\n        /* \"#utility.yul\":18613:18622   */\n      dup7\n        /* \"#utility.yul\":18609:18631   */\n      add\n        /* \"#utility.yul\":18588:18641   */\n      tag_396\n      jump\t// in\n    tag_629:\n        /* \"#utility.yul\":18578:18641   */\n      swap3\n      pop\n        /* \"#utility.yul\":18534:18651   */\n      pop\n        /* \"#utility.yul\":18690:18692   */\n      0x20\n        /* \"#utility.yul\":18716:18766   */\n      tag_630\n        /* \"#utility.yul\":18758:18765   */\n      dup6\n        /* \"#utility.yul\":18749:18755   */\n      dup3\n        /* \"#utility.yul\":18738:18747   */\n      dup7\n        /* \"#utility.yul\":18734:18756   */\n      add\n        /* \"#utility.yul\":18716:18766   */\n      tag_431\n      jump\t// in\n    tag_630:\n        /* \"#utility.yul\":18706:18766   */\n      swap2\n      pop\n        /* \"#utility.yul\":18661:18776   */\n      pop\n        /* \"#utility.yul\":18315:18783   */\n      swap3\n      pop\n      swap3\n      swap1\n      pop\n      jump\t// out\n        /* \"#utility.yul\":18789:18926   */\n    tag_433:\n        /* \"#utility.yul\":18879:18885   */\n      0x00\n        /* \"#utility.yul\":18913:18918   */\n      dup2\n        /* \"#utility.yul\":18907:18919   */\n      mload\n        /* \"#utility.yul\":18897:18919   */\n      swap1\n      pop\n        /* \"#utility.yul\":18789:18926   */\n      swap2\n      swap1\n      pop\n      jump\t// out\n        /* \"#utility.yul\":18932:19139   */\n    tag_434:\n        /* \"#utility.yul\":19054:19065   */\n      0x00\n        /* \"#utility.yul\":19088:19094   */\n      dup3\n        /* \"#utility.yul\":19083:19086   */\n      dup3\n        /* \"#utility.yul\":19076:19095   */\n      mstore\n        /* \"#utility.yul\":19128:19132   */\n      0x20\n        /* \"#utility.yul\":19123:19126   */\n      dup3\n        /* \"#utility.yul\":19119:19133   */\n      add\n        /* \"#utility.yul\":19104:19133   */\n      swap1\n      pop\n        /* \"#utility.yul\":18932:19139   */\n      swap3\n      swap2\n      pop\n      pop\n      jump\t// out\n        /* \"#utility.yul\":19145:19300   */\n    tag_435:\n        /* \"#utility.yul\":19235:19239   */\n      0x00\n        /* \"#utility.yul\":19258:19261   */\n      dup2\n        /* \"#utility.yul\":19250:19261   */\n      swap1\n      pop\n        /* \"#utility.yul\":19288:19292   */\n      0x20\n        /* \"#utility.yul\":19283:19286   */\n      dup3\n        /* \"#utility.yul\":19279:19293   */\n      add\n        /* \"#utility.yul\":19271:19293   */\n      swap1\n      pop\n        /* \"#utility.yul\":19145:19300   */\n      swap2\n      swap1\n      pop\n      jump\t// out\n        /* \"#utility.yul\":19364:20677   */\n    tag_436:\n        /* \"#utility.yul\":19469:19472   */\n      0x00\n        /* \"#utility.yul\":19505:19509   */\n      0xc0\n        /* \"#utility.yul\":19500:19503   */\n      dup4\n        /* \"#utility.yul\":19496:19510   */\n      add\n        /* \"#utility.yul\":19592:19596   */\n      0x00\n        /* \"#utility.yul\":19585:19590   */\n      dup4\n        /* \"#utility.yul\":19581:19597   */\n      add\n        /* \"#utility.yul\":19575:19598   */\n      mload\n        /* \"#utility.yul\":19611:19674   */\n      tag_635\n        /* \"#utility.yul\":19668:19672   */\n      0x00\n        /* \"#utility.yul\":19663:19666   */\n      dup7\n        /* \"#utility.yul\":19659:19673   */\n      add\n        /* \"#utility.yul\":19645:19657   */\n      dup3\n        /* \"#utility.yul\":19611:19674   */\n      tag_407\n      jump\t// in\n    tag_635:\n        /* \"#utility.yul\":19520:19684   */\n      pop\n        /* \"#utility.yul\":19767:19771   */\n      0x20\n        /* \"#utility.yul\":19760:19765   */\n      dup4\n        /* \"#utility.yul\":19756:19772   */\n      add\n        /* \"#utility.yul\":19750:19773   */\n      mload\n        /* \"#utility.yul\":19820:19823   */\n      dup5\n        /* \"#utility.yul\":19814:19818   */\n      dup3\n        /* \"#utility.yul\":19810:19824   */\n      sub\n        /* \"#utility.yul\":19803:19807   */\n      0x20\n        /* \"#utility.yul\":19798:19801   */\n      dup7\n        /* \"#utility.yul\":19794:19808   */\n      add\n        /* \"#utility.yul\":19787:19825   */\n      mstore\n        /* \"#utility.yul\":19846:19919   */\n      tag_636\n        /* \"#utility.yul\":19914:19918   */\n      dup3\n        /* \"#utility.yul\":19900:19912   */\n      dup3\n        /* \"#utility.yul\":19846:19919   */\n      tag_405\n      jump\t// in\n    tag_636:\n        /* \"#utility.yul\":19838:19919   */\n      swap2\n      pop\n        /* \"#utility.yul\":19694:19930   */\n      pop\n        /* \"#utility.yul\":20020:20024   */\n      0x40\n        /* \"#utility.yul\":20013:20018   */\n      dup4\n        /* \"#utility.yul\":20009:20025   */\n      add\n        /* \"#utility.yul\":20003:20026   */\n      mload\n        /* \"#utility.yul\":20039:20102   */\n      tag_637\n        /* \"#utility.yul\":20096:20100   */\n      0x40\n        /* \"#utility.yul\":20091:20094   */\n      dup7\n        /* \"#utility.yul\":20087:20101   */\n      add\n        /* \"#utility.yul\":20073:20085   */\n      dup3\n        /* \"#utility.yul\":20039:20102   */\n      tag_407\n      jump\t// in\n    tag_637:\n        /* \"#utility.yul\":19940:20112   */\n      pop\n        /* \"#utility.yul\":20197:20201   */\n      0x60\n        /* \"#utility.yul\":20190:20195   */\n      dup4\n        /* \"#utility.yul\":20186:20202   */\n      add\n        /* \"#utility.yul\":20180:20203   */\n      mload\n        /* \"#utility.yul\":20216:20279   */\n      tag_638\n        /* \"#utility.yul\":20273:20277   */\n      0x60\n        /* \"#utility.yul\":20268:20271   */\n      dup7\n        /* \"#utility.yul\":20264:20278   */\n      add\n        /* \"#utility.yul\":20250:20262   */\n      dup3\n        /* \"#utility.yul\":20216:20279   */\n      tag_407\n      jump\t// in\n    tag_638:\n        /* \"#utility.yul\":20122:20289   */\n      pop\n        /* \"#utility.yul\":20380:20384   */\n      0x80\n        /* \"#utility.yul\":20373:20378   */\n      dup4\n        /* \"#utility.yul\":20369:20385   */\n      add\n        /* \"#utility.yul\":20363:20386   */\n      mload\n        /* \"#utility.yul\":20399:20462   */\n      tag_639\n        /* \"#utility.yul\":20456:20460   */\n      0x80\n        /* \"#utility.yul\":20451:20454   */\n      dup7\n        /* \"#utility.yul\":20447:20461   */\n      add\n        /* \"#utility.yul\":20433:20445   */\n      dup3\n        /* \"#utility.yul\":20399:20462   */\n      tag_407\n      jump\t// in\n    tag_639:\n        /* \"#utility.yul\":20299:20472   */\n      pop\n        /* \"#utility.yul\":20558:20562   */\n      0xa0\n        /* \"#utility.yul\":20551:20556   */\n      dup4\n        /* \"#utility.yul\":20547:20563   */\n      add\n        /* \"#utility.yul\":20541:20564   */\n      mload\n        /* \"#utility.yul\":20577:20640   */\n      tag_640\n        /* \"#utility.yul\":20634:20638   */\n      0xa0\n        /* \"#utility.yul\":20629:20632   */\n      dup7\n        /* \"#utility.yul\":20625:20639   */\n      add\n        /* \"#utility.yul\":20611:20623   */\n      dup3\n        /* \"#utility.yul\":20577:20640   */\n      tag_407\n      jump\t// in\n    tag_640:\n        /* \"#utility.yul\":20482:20650   */\n      pop\n        /* \"#utility.yul\":20667:20671   */\n      dup1\n        /* \"#utility.yul\":20660:20671   */\n      swap2\n      pop\n        /* \"#utility.yul\":19474:20677   */\n      pop\n        /* \"#utility.yul\":19364:20677   */\n      swap3\n      swap2\n      pop\n      pop\n      jump\t// out\n        /* \"#utility.yul\":20683:20931   */\n    tag_437:\n        /* \"#utility.yul\":20798:20808   */\n      0x00\n        /* \"#utility.yul\":20833:20925   */\n      tag_642\n        /* \"#utility.yul\":20921:20924   */\n      dup4\n        /* \"#utility.yul\":20913:20919   */\n      dup4\n        /* \"#utility.yul\":20833:20925   */\n      tag_436\n      jump\t// in\n    tag_642:\n        /* \"#utility.yul\":20819:20925   */\n      swap1\n      pop\n        /* \"#utility.yul\":20683:20931   */\n      swap3\n      swap2\n      pop\n      pop\n      jump\t// out\n        /* \"#utility.yul\":20937:21073   */\n    tag_438:\n        /* \"#utility.yul\":21030:21034   */\n      0x00\n        /* \"#utility.yul\":21062:21066   */\n      0x20\n        /* \"#utility.yul\":21057:21060   */\n      dup3\n        /* \"#utility.yul\":21053:21067   */\n      add\n        /* \"#utility.yul\":21045:21067   */\n      swap1\n      pop\n        /* \"#utility.yul\":20937:21073   */\n      swap2\n      swap1\n      pop\n      jump\t// out\n        /* \"#utility.yul\":21141:22236   */\n    tag_439:\n        /* \"#utility.yul\":21306:21309   */\n      0x00\n        /* \"#utility.yul\":21335:21412   */\n      tag_645\n        /* \"#utility.yul\":21406:21411   */\n      dup3\n        /* \"#utility.yul\":21335:21412   */\n      tag_433\n      jump\t// in\n    tag_645:\n        /* \"#utility.yul\":21428:21537   */\n      tag_646\n        /* \"#utility.yul\":21530:21536   */\n      dup2\n        /* \"#utility.yul\":21525:21528   */\n      dup6\n        /* \"#utility.yul\":21428:21537   */\n      tag_434\n      jump\t// in\n    tag_646:\n        /* \"#utility.yul\":21421:21537   */\n      swap4\n      pop\n        /* \"#utility.yul\":21563:21566   */\n      dup4\n        /* \"#utility.yul\":21608:21612   */\n      0x20\n        /* \"#utility.yul\":21600:21606   */\n      dup3\n        /* \"#utility.yul\":21596:21613   */\n      mul\n        /* \"#utility.yul\":21591:21594   */\n      dup6\n        /* \"#utility.yul\":21587:21614   */\n      add\n        /* \"#utility.yul\":21638:21717   */\n      tag_647\n        /* \"#utility.yul\":21711:21716   */\n      dup6\n        /* \"#utility.yul\":21638:21717   */\n      tag_435\n      jump\t// in\n    tag_647:\n        /* \"#utility.yul\":21740:21747   */\n      dup1\n        /* \"#utility.yul\":21771:21772   */\n      0x00\n        /* \"#utility.yul\":21756:22191   */\n    tag_648:\n        /* \"#utility.yul\":21781:21787   */\n      dup6\n        /* \"#utility.yul\":21778:21779   */\n      dup2\n        /* \"#utility.yul\":21775:21788   */\n      lt\n        /* \"#utility.yul\":21756:22191   */\n      iszero\n      tag_650\n      jumpi\n        /* \"#utility.yul\":21852:21861   */\n      dup5\n        /* \"#utility.yul\":21846:21850   */\n      dup5\n        /* \"#utility.yul\":21842:21862   */\n      sub\n        /* \"#utility.yul\":21837:21840   */\n      dup10\n        /* \"#utility.yul\":21830:21863   */\n      mstore\n        /* \"#utility.yul\":21903:21909   */\n      dup2\n        /* \"#utility.yul\":21897:21910   */\n      mload\n        /* \"#utility.yul\":21931:22041   */\n      tag_651\n        /* \"#utility.yul\":22036:22040   */\n      dup6\n        /* \"#utility.yul\":22021:22034   */\n      dup3\n        /* \"#utility.yul\":21931:22041   */\n      tag_437\n      jump\t// in\n    tag_651:\n        /* \"#utility.yul\":21923:22041   */\n      swap5\n      pop\n        /* \"#utility.yul\":22064:22147   */\n      tag_652\n        /* \"#utility.yul\":22140:22146   */\n      dup4\n        /* \"#utility.yul\":22064:22147   */\n      tag_438\n      jump\t// in\n    tag_652:\n        /* \"#utility.yul\":22054:22147   */\n      swap3\n      pop\n        /* \"#utility.yul\":22176:22180   */\n      0x20\n        /* \"#utility.yul\":22171:22174   */\n      dup11\n        /* \"#utility.yul\":22167:22181   */\n      add\n        /* \"#utility.yul\":22160:22181   */\n      swap10\n      pop\n        /* \"#utility.yul\":21816:22191   */\n      pop\n        /* \"#utility.yul\":21803:21804   */\n      0x01\n        /* \"#utility.yul\":21800:21801   */\n      dup2\n        /* \"#utility.yul\":21796:21805   */\n      add\n        /* \"#utility.yul\":21791:21805   */\n      swap1\n      pop\n        /* \"#utility.yul\":21756:22191   */\n      jump(tag_648)\n    tag_650:\n        /* \"#utility.yul\":21760:21774   */\n      pop\n        /* \"#utility.yul\":22207:22211   */\n      dup3\n        /* \"#utility.yul\":22200:22211   */\n      swap8\n      pop\n        /* \"#utility.yul\":22227:22230   */\n      dup8\n        /* \"#utility.yul\":22220:22230   */\n      swap6\n      pop\n        /* \"#utility.yul\":21311:22236   */\n      pop\n      pop\n      pop\n      pop\n      pop\n        /* \"#utility.yul\":21141:22236   */\n      swap3\n      swap2\n      pop\n      pop\n      jump\t// out\n        /* \"#utility.yul\":22242:22707   */\n    tag_56:\n        /* \"#utility.yul\":22431:22435   */\n      0x00\n        /* \"#utility.yul\":22469:22471   */\n      0x20\n        /* \"#utility.yul\":22458:22467   */\n      dup3\n        /* \"#utility.yul\":22454:22472   */\n      add\n        /* \"#utility.yul\":22446:22472   */\n      swap1\n      pop\n        /* \"#utility.yul\":22518:22527   */\n      dup2\n        /* \"#utility.yul\":22512:22516   */\n      dup2\n        /* \"#utility.yul\":22508:22528   */\n      sub\n        /* \"#utility.yul\":22504:22505   */\n      0x00\n        /* \"#utility.yul\":22493:22502   */\n      dup4\n        /* \"#utility.yul\":22489:22506   */\n      add\n        /* \"#utility.yul\":22482:22529   */\n      mstore\n        /* \"#utility.yul\":22546:22700   */\n      tag_654\n        /* \"#utility.yul\":22695:22699   */\n      dup2\n        /* \"#utility.yul\":22686:22692   */\n      dup5\n        /* \"#utility.yul\":22546:22700   */\n      tag_439\n      jump\t// in\n    tag_654:\n        /* \"#utility.yul\":22538:22700   */\n      swap1\n      pop\n        /* \"#utility.yul\":22242:22707   */\n      swap3\n      swap2\n      pop\n      pop\n      jump\t// out\n        /* \"#utility.yul\":22781:23684   */\n    tag_440:\n        /* \"#utility.yul\":22906:22909   */\n      0x00\n        /* \"#utility.yul\":22942:22946   */\n      0x60\n        /* \"#utility.yul\":22937:22940   */\n      dup4\n        /* \"#utility.yul\":22933:22947   */\n      add\n        /* \"#utility.yul\":23038:23042   */\n      0x00\n        /* \"#utility.yul\":23031:23036   */\n      dup4\n        /* \"#utility.yul\":23027:23043   */\n      add\n        /* \"#utility.yul\":23021:23044   */\n      mload\n        /* \"#utility.yul\":23091:23094   */\n      dup5\n        /* \"#utility.yul\":23085:23089   */\n      dup3\n        /* \"#utility.yul\":23081:23095   */\n      sub\n        /* \"#utility.yul\":23074:23078   */\n      0x00\n        /* \"#utility.yul\":23069:23072   */\n      dup7\n        /* \"#utility.yul\":23065:23079   */\n      add\n        /* \"#utility.yul\":23058:23096   */\n      mstore\n        /* \"#utility.yul\":23117:23216   */\n      tag_656\n        /* \"#utility.yul\":23211:23215   */\n      dup3\n        /* \"#utility.yul\":23197:23209   */\n      dup3\n        /* \"#utility.yul\":23117:23216   */\n      tag_411\n      jump\t// in\n    tag_656:\n        /* \"#utility.yul\":23109:23216   */\n      swap2\n      pop\n        /* \"#utility.yul\":22957:23227   */\n      pop\n        /* \"#utility.yul\":23313:23317   */\n      0x20\n        /* \"#utility.yul\":23306:23311   */\n      dup4\n        /* \"#utility.yul\":23302:23318   */\n      add\n        /* \"#utility.yul\":23296:23319   */\n      mload\n        /* \"#utility.yul\":23332:23395   */\n      tag_657\n        /* \"#utility.yul\":23389:23393   */\n      0x20\n        /* \"#utility.yul\":23384:23387   */\n      dup7\n        /* \"#utility.yul\":23380:23394   */\n      add\n        /* \"#utility.yul\":23366:23378   */\n      dup3\n        /* \"#utility.yul\":23332:23395   */\n      tag_407\n      jump\t// in\n    tag_657:\n        /* \"#utility.yul\":23237:23405   */\n      pop\n        /* \"#utility.yul\":23494:23498   */\n      0x40\n        /* \"#utility.yul\":23487:23492   */\n      dup4\n        /* \"#utility.yul\":23483:23499   */\n      add\n        /* \"#utility.yul\":23477:23500   */\n      mload\n        /* \"#utility.yul\":23547:23550   */\n      dup5\n        /* \"#utility.yul\":23541:23545   */\n      dup3\n        /* \"#utility.yul\":23537:23551   */\n      sub\n        /* \"#utility.yul\":23530:23534   */\n      0x40\n        /* \"#utility.yul\":23525:23528   */\n      dup7\n        /* \"#utility.yul\":23521:23535   */\n      add\n        /* \"#utility.yul\":23514:23552   */\n      mstore\n        /* \"#utility.yul\":23573:23646   */\n      tag_658\n        /* \"#utility.yul\":23641:23645   */\n      dup3\n        /* \"#utility.yul\":23627:23639   */\n      dup3\n        /* \"#utility.yul\":23573:23646   */\n      tag_405\n      jump\t// in\n    tag_658:\n        /* \"#utility.yul\":23565:23646   */\n      swap2\n      pop\n        /* \"#utility.yul\":23415:23657   */\n      pop\n        /* \"#utility.yul\":23674:23678   */\n      dup1\n        /* \"#utility.yul\":23667:23678   */\n      swap2\n      pop\n        /* \"#utility.yul\":22911:23684   */\n      pop\n        /* \"#utility.yul\":22781:23684   */\n      swap3\n      swap2\n      pop\n      pop\n      jump\t// out\n        /* \"#utility.yul\":23690:24075   */\n    tag_62:\n        /* \"#utility.yul\":23839:23843   */\n      0x00\n        /* \"#utility.yul\":23877:23879   */\n      0x20\n        /* \"#utility.yul\":23866:23875   */\n      dup3\n        /* \"#utility.yul\":23862:23880   */\n      add\n        /* \"#utility.yul\":23854:23880   */\n      swap1\n      pop\n        /* \"#utility.yul\":23926:23935   */\n      dup2\n        /* \"#utility.yul\":23920:23924   */\n      dup2\n        /* \"#utility.yul\":23916:23936   */\n      sub\n        /* \"#utility.yul\":23912:23913   */\n      0x00\n        /* \"#utility.yul\":23901:23910   */\n      dup4\n        /* \"#utility.yul\":23897:23914   */\n      add\n        /* \"#utility.yul\":23890:23937   */\n      mstore\n        /* \"#utility.yul\":23954:24068   */\n      tag_660\n        /* \"#utility.yul\":24063:24067   */\n      dup2\n        /* \"#utility.yul\":24054:24060   */\n      dup5\n        /* \"#utility.yul\":23954:24068   */\n      tag_440\n      jump\t// in\n    tag_660:\n        /* \"#utility.yul\":23946:24068   */\n      swap1\n      pop\n        /* \"#utility.yul\":23690:24075   */\n      swap3\n      swap2\n      pop\n      pop\n      jump\t// out\n        /* \"#utility.yul\":24081:24482   */\n    tag_68:\n        /* \"#utility.yul\":24238:24242   */\n      0x00\n        /* \"#utility.yul\":24276:24278   */\n      0x20\n        /* \"#utility.yul\":24265:24274   */\n      dup3\n        /* \"#utility.yul\":24261:24279   */\n      add\n        /* \"#utility.yul\":24253:24279   */\n      swap1\n      pop\n        /* \"#utility.yul\":24325:24334   */\n      dup2\n        /* \"#utility.yul\":24319:24323   */\n      dup2\n        /* \"#utility.yul\":24315:24335   */\n      sub\n        /* \"#utility.yul\":24311:24312   */\n      0x00\n        /* \"#utility.yul\":24300:24309   */\n      dup4\n        /* \"#utility.yul\":24296:24313   */\n      add\n        /* \"#utility.yul\":24289:24336   */\n      mstore\n        /* \"#utility.yul\":24353:24475   */\n      tag_662\n        /* \"#utility.yul\":24470:24474   */\n      dup2\n        /* \"#utility.yul\":24461:24467   */\n      dup5\n        /* \"#utility.yul\":24353:24475   */\n      tag_413\n      jump\t// in\n    tag_662:\n        /* \"#utility.yul\":24345:24475   */\n      swap1\n      pop\n        /* \"#utility.yul\":24081:24482   */\n      swap3\n      swap2\n      pop\n      pop\n      jump\t// out\n        /* \"#utility.yul\":24521:25774   */\n    tag_441:\n        /* \"#utility.yul\":24594:24599   */\n      0x00\n        /* \"#utility.yul\":24638:24642   */\n      0x60\n        /* \"#utility.yul\":24626:24635   */\n      dup3\n        /* \"#utility.yul\":24621:24624   */\n      dup5\n        /* \"#utility.yul\":24617:24636   */\n      sub\n        /* \"#utility.yul\":24613:24643   */\n      slt\n        /* \"#utility.yul\":24610:24727   */\n      iszero\n      tag_664\n      jumpi\n        /* \"#utility.yul\":24646:24725   */\n      tag_665\n      tag_420\n      jump\t// in\n    tag_665:\n        /* \"#utility.yul\":24610:24727   */\n    tag_664:\n        /* \"#utility.yul\":24745:24766   */\n      tag_666\n        /* \"#utility.yul\":24761:24765   */\n      0x60\n        /* \"#utility.yul\":24745:24766   */\n      tag_422\n      jump\t// in\n    tag_666:\n        /* \"#utility.yul\":24736:24766   */\n      swap1\n      pop\n        /* \"#utility.yul\":24853:24854   */\n      0x00\n        /* \"#utility.yul\":24842:24851   */\n      dup3\n        /* \"#utility.yul\":24838:24855   */\n      add\n        /* \"#utility.yul\":24825:24856   */\n      calldataload\n        /* \"#utility.yul\":24883:24901   */\n      0xffffffffffffffff\n        /* \"#utility.yul\":24875:24881   */\n      dup2\n        /* \"#utility.yul\":24872:24902   */\n      gt\n        /* \"#utility.yul\":24869:24986   */\n      iszero\n      tag_667\n      jumpi\n        /* \"#utility.yul\":24905:24984   */\n      tag_668\n      tag_423\n      jump\t// in\n    tag_668:\n        /* \"#utility.yul\":24869:24986   */\n    tag_667:\n        /* \"#utility.yul\":25025:25084   */\n      tag_669\n        /* \"#utility.yul\":25080:25083   */\n      dup5\n        /* \"#utility.yul\":25071:25077   */\n      dup3\n        /* \"#utility.yul\":25060:25069   */\n      dup6\n        /* \"#utility.yul\":25056:25078   */\n      add\n        /* \"#utility.yul\":25025:25084   */\n      tag_429\n      jump\t// in\n    tag_669:\n        /* \"#utility.yul\":25018:25022   */\n      0x00\n        /* \"#utility.yul\":25011:25016   */\n      dup4\n        /* \"#utility.yul\":25007:25023   */\n      add\n        /* \"#utility.yul\":25000:25085   */\n      mstore\n        /* \"#utility.yul\":24776:25096   */\n      pop\n        /* \"#utility.yul\":25186:25188   */\n      0x20\n        /* \"#utility.yul\":25175:25184   */\n      dup3\n        /* \"#utility.yul\":25171:25189   */\n      add\n        /* \"#utility.yul\":25158:25190   */\n      calldataload\n        /* \"#utility.yul\":25217:25235   */\n      0xffffffffffffffff\n        /* \"#utility.yul\":25209:25215   */\n      dup2\n        /* \"#utility.yul\":25206:25236   */\n      gt\n        /* \"#utility.yul\":25203:25320   */\n      iszero\n      tag_670\n      jumpi\n        /* \"#utility.yul\":25239:25318   */\n      tag_671\n      tag_423\n      jump\t// in\n    tag_671:\n        /* \"#utility.yul\":25203:25320   */\n    tag_670:\n        /* \"#utility.yul\":25359:25418   */\n      tag_672\n        /* \"#utility.yul\":25414:25417   */\n      dup5\n        /* \"#utility.yul\":25405:25411   */\n      dup3\n        /* \"#utility.yul\":25394:25403   */\n      dup6\n        /* \"#utility.yul\":25390:25412   */\n      add\n        /* \"#utility.yul\":25359:25418   */\n      tag_429\n      jump\t// in\n    tag_672:\n        /* \"#utility.yul\":25352:25356   */\n      0x20\n        /* \"#utility.yul\":25345:25350   */\n      dup4\n        /* \"#utility.yul\":25341:25357   */\n      add\n        /* \"#utility.yul\":25334:25419   */\n      mstore\n        /* \"#utility.yul\":25106:25430   */\n      pop\n        /* \"#utility.yul\":25523:25525   */\n      0x40\n        /* \"#utility.yul\":25512:25521   */\n      dup3\n        /* \"#utility.yul\":25508:25526   */\n      add\n        /* \"#utility.yul\":25495:25527   */\n      calldataload\n        /* \"#utility.yul\":25554:25572   */\n      0xffffffffffffffff\n        /* \"#utility.yul\":25546:25552   */\n      dup2\n        /* \"#utility.yul\":25543:25573   */\n      gt\n        /* \"#utility.yul\":25540:25657   */\n      iszero\n      tag_673\n      jumpi\n        /* \"#utility.yul\":25576:25655   */\n      tag_674\n      tag_423\n      jump\t// in\n    tag_674:\n        /* \"#utility.yul\":25540:25657   */\n    tag_673:\n        /* \"#utility.yul\":25696:25755   */\n      tag_675\n        /* \"#utility.yul\":25751:25754   */\n      dup5\n        /* \"#utility.yul\":25742:25748   */\n      dup3\n        /* \"#utility.yul\":25731:25740   */\n      dup6\n        /* \"#utility.yul\":25727:25749   */\n      add\n        /* \"#utility.yul\":25696:25755   */\n      tag_429\n      jump\t// in\n    tag_675:\n        /* \"#utility.yul\":25689:25693   */\n      0x40\n        /* \"#utility.yul\":25682:25687   */\n      dup4\n        /* \"#utility.yul\":25678:25694   */\n      add\n        /* \"#utility.yul\":25671:25756   */\n      mstore\n        /* \"#utility.yul\":25440:25767   */\n      pop\n        /* \"#utility.yul\":24521:25774   */\n      swap3\n      swap2\n      pop\n      pop\n      jump\t// out\n        /* \"#utility.yul\":25813:27067   */\n    tag_442:\n        /* \"#utility.yul\":25886:25891   */\n      0x00\n        /* \"#utility.yul\":25930:25934   */\n      0x80\n        /* \"#utility.yul\":25918:25927   */\n      dup3\n        /* \"#utility.yul\":25913:25916   */\n      dup5\n        /* \"#utility.yul\":25909:25928   */\n      sub\n        /* \"#utility.yul\":25905:25935   */\n      slt\n        /* \"#utility.yul\":25902:26019   */\n      iszero\n      tag_677\n      jumpi\n        /* \"#utility.yul\":25938:26017   */\n      tag_678\n      tag_420\n      jump\t// in\n    tag_678:\n        /* \"#utility.yul\":25902:26019   */\n    tag_677:\n        /* \"#utility.yul\":26037:26058   */\n      tag_679\n        /* \"#utility.yul\":26053:26057   */\n      0x80\n        /* \"#utility.yul\":26037:26058   */\n      tag_422\n      jump\t// in\n    tag_679:\n        /* \"#utility.yul\":26028:26058   */\n      swap1\n      pop\n        /* \"#utility.yul\":26119:26120   */\n      0x00\n        /* \"#utility.yul\":26159:26208   */\n      tag_680\n        /* \"#utility.yul\":26204:26207   */\n      dup5\n        /* \"#utility.yul\":26195:26201   */\n      dup3\n        /* \"#utility.yul\":26184:26193   */\n      dup6\n        /* \"#utility.yul\":26180:26202   */\n      add\n        /* \"#utility.yul\":26159:26208   */\n      tag_396\n      jump\t// in\n    tag_680:\n        /* \"#utility.yul\":26152:26156   */\n      0x00\n        /* \"#utility.yul\":26145:26150   */\n      dup4\n        /* \"#utility.yul\":26141:26157   */\n      add\n        /* \"#utility.yul\":26134:26209   */\n      mstore\n        /* \"#utility.yul\":26068:26220   */\n      pop\n        /* \"#utility.yul\":26281:26283   */\n      0x20\n        /* \"#utility.yul\":26322:26371   */\n      tag_681\n        /* \"#utility.yul\":26367:26370   */\n      dup5\n        /* \"#utility.yul\":26358:26364   */\n      dup3\n        /* \"#utility.yul\":26347:26356   */\n      dup6\n        /* \"#utility.yul\":26343:26365   */\n      add\n        /* \"#utility.yul\":26322:26371   */\n      tag_396\n      jump\t// in\n    tag_681:\n        /* \"#utility.yul\":26315:26319   */\n      0x20\n        /* \"#utility.yul\":26308:26313   */\n      dup4\n        /* \"#utility.yul\":26304:26320   */\n      add\n        /* \"#utility.yul\":26297:26372   */\n      mstore\n        /* \"#utility.yul\":26230:26383   */\n      pop\n        /* \"#utility.yul\":26478:26480   */\n      0x40\n        /* \"#utility.yul\":26467:26476   */\n      dup3\n        /* \"#utility.yul\":26463:26481   */\n      add\n        /* \"#utility.yul\":26450:26482   */\n      calldataload\n        /* \"#utility.yul\":26509:26527   */\n      0xffffffffffffffff\n        /* \"#utility.yul\":26501:26507   */\n      dup2\n        /* \"#utility.yul\":26498:26528   */\n      gt\n        /* \"#utility.yul\":26495:26612   */\n      iszero\n      tag_682\n      jumpi\n        /* \"#utility.yul\":26531:26610   */\n      tag_683\n      tag_423\n      jump\t// in\n    tag_683:\n        /* \"#utility.yul\":26495:26612   */\n    tag_682:\n        /* \"#utility.yul\":26651:26710   */\n      tag_684\n        /* \"#utility.yul\":26706:26709   */\n      dup5\n        /* \"#utility.yul\":26697:26703   */\n      dup3\n        /* \"#utility.yul\":26686:26695   */\n      dup6\n        /* \"#utility.yul\":26682:26704   */\n      add\n        /* \"#utility.yul\":26651:26710   */\n      tag_429\n      jump\t// in\n    tag_684:\n        /* \"#utility.yul\":26644:26648   */\n      0x40\n        /* \"#utility.yul\":26637:26642   */\n      dup4\n        /* \"#utility.yul\":26633:26649   */\n      add\n        /* \"#utility.yul\":26626:26711   */\n      mstore\n        /* \"#utility.yul\":26393:26722   */\n      pop\n        /* \"#utility.yul\":26816:26818   */\n      0x60\n        /* \"#utility.yul\":26805:26814   */\n      dup3\n        /* \"#utility.yul\":26801:26819   */\n      add\n        /* \"#utility.yul\":26788:26820   */\n      calldataload\n        /* \"#utility.yul\":26847:26865   */\n      0xffffffffffffffff\n        /* \"#utility.yul\":26839:26845   */\n      dup2\n        /* \"#utility.yul\":26836:26866   */\n      gt\n        /* \"#utility.yul\":26833:26950   */\n      iszero\n      tag_685\n      jumpi\n        /* \"#utility.yul\":26869:26948   */\n      tag_686\n      tag_423\n      jump\t// in\n    tag_686:\n        /* \"#utility.yul\":26833:26950   */\n    tag_685:\n        /* \"#utility.yul\":26989:27048   */\n      tag_687\n        /* \"#utility.yul\":27044:27047   */\n      dup5\n        /* \"#utility.yul\":27035:27041   */\n      dup3\n        /* \"#utility.yul\":27024:27033   */\n      dup6\n        /* \"#utility.yul\":27020:27042   */\n      add\n        /* \"#utility.yul\":26989:27048   */\n      tag_429\n      jump\t// in\n    tag_687:\n        /* \"#utility.yul\":26982:26986   */\n      0x60\n        /* \"#utility.yul\":26975:26980   */\n      dup4\n        /* \"#utility.yul\":26971:26987   */\n      add\n        /* \"#utility.yul\":26964:27049   */\n      mstore\n        /* \"#utility.yul\":26732:27060   */\n      pop\n        /* \"#utility.yul\":25813:27067   */\n      swap3\n      swap2\n      pop\n      pop\n      jump\t// out\n        /* \"#utility.yul\":27113:28428   */\n    tag_443:\n        /* \"#utility.yul\":27194:27199   */\n      0x00\n        /* \"#utility.yul\":27238:27242   */\n      0x60\n        /* \"#utility.yul\":27226:27235   */\n      dup3\n        /* \"#utility.yul\":27221:27224   */\n      dup5\n        /* \"#utility.yul\":27217:27236   */\n      sub\n        /* \"#utility.yul\":27213:27243   */\n      slt\n        /* \"#utility.yul\":27210:27327   */\n      iszero\n      tag_689\n      jumpi\n        /* \"#utility.yul\":27246:27325   */\n      tag_690\n      tag_420\n      jump\t// in\n    tag_690:\n        /* \"#utility.yul\":27210:27327   */\n    tag_689:\n        /* \"#utility.yul\":27345:27366   */\n      tag_691\n        /* \"#utility.yul\":27361:27365   */\n      0x60\n        /* \"#utility.yul\":27345:27366   */\n      tag_422\n      jump\t// in\n    tag_691:\n        /* \"#utility.yul\":27336:27366   */\n      swap1\n      pop\n        /* \"#utility.yul\":27465:27466   */\n      0x00\n        /* \"#utility.yul\":27454:27463   */\n      dup3\n        /* \"#utility.yul\":27450:27467   */\n      add\n        /* \"#utility.yul\":27437:27468   */\n      calldataload\n        /* \"#utility.yul\":27495:27513   */\n      0xffffffffffffffff\n        /* \"#utility.yul\":27487:27493   */\n      dup2\n        /* \"#utility.yul\":27484:27514   */\n      gt\n        /* \"#utility.yul\":27481:27598   */\n      iszero\n      tag_692\n      jumpi\n        /* \"#utility.yul\":27517:27596   */\n      tag_693\n      tag_423\n      jump\t// in\n    tag_693:\n        /* \"#utility.yul\":27481:27598   */\n    tag_692:\n        /* \"#utility.yul\":27637:27710   */\n      tag_694\n        /* \"#utility.yul\":27706:27709   */\n      dup5\n        /* \"#utility.yul\":27697:27703   */\n      dup3\n        /* \"#utility.yul\":27686:27695   */\n      dup6\n        /* \"#utility.yul\":27682:27704   */\n      add\n        /* \"#utility.yul\":27637:27710   */\n      tag_441\n      jump\t// in\n    tag_694:\n        /* \"#utility.yul\":27630:27634   */\n      0x00\n        /* \"#utility.yul\":27623:27628   */\n      dup4\n        /* \"#utility.yul\":27619:27635   */\n      add\n        /* \"#utility.yul\":27612:27711   */\n      mstore\n        /* \"#utility.yul\":27376:27722   */\n      pop\n        /* \"#utility.yul\":27821:27823   */\n      0x20\n        /* \"#utility.yul\":27810:27819   */\n      dup3\n        /* \"#utility.yul\":27806:27824   */\n      add\n        /* \"#utility.yul\":27793:27825   */\n      calldataload\n        /* \"#utility.yul\":27852:27870   */\n      0xffffffffffffffff\n        /* \"#utility.yul\":27844:27850   */\n      dup2\n        /* \"#utility.yul\":27841:27871   */\n      gt\n        /* \"#utility.yul\":27838:27955   */\n      iszero\n      tag_695\n      jumpi\n        /* \"#utility.yul\":27874:27953   */\n      tag_696\n      tag_423\n      jump\t// in\n    tag_696:\n        /* \"#utility.yul\":27838:27955   */\n    tag_695:\n        /* \"#utility.yul\":27994:28067   */\n      tag_697\n        /* \"#utility.yul\":28063:28066   */\n      dup5\n        /* \"#utility.yul\":28054:28060   */\n      dup3\n        /* \"#utility.yul\":28043:28052   */\n      dup6\n        /* \"#utility.yul\":28039:28061   */\n      add\n        /* \"#utility.yul\":27994:28067   */\n      tag_442\n      jump\t// in\n    tag_697:\n        /* \"#utility.yul\":27987:27991   */\n      0x20\n        /* \"#utility.yul\":27980:27985   */\n      dup4\n        /* \"#utility.yul\":27976:27992   */\n      add\n        /* \"#utility.yul\":27969:28068   */\n      mstore\n        /* \"#utility.yul\":27732:28079   */\n      pop\n        /* \"#utility.yul\":28177:28179   */\n      0x40\n        /* \"#utility.yul\":28166:28175   */\n      dup3\n        /* \"#utility.yul\":28162:28180   */\n      add\n        /* \"#utility.yul\":28149:28181   */\n      calldataload\n        /* \"#utility.yul\":28208:28226   */\n      0xffffffffffffffff\n        /* \"#utility.yul\":28200:28206   */\n      dup2\n        /* \"#utility.yul\":28197:28227   */\n      gt\n        /* \"#utility.yul\":28194:28311   */\n      iszero\n      tag_698\n      jumpi\n        /* \"#utility.yul\":28230:28309   */\n      tag_699\n      tag_423\n      jump\t// in\n    tag_699:\n        /* \"#utility.yul\":28194:28311   */\n    tag_698:\n        /* \"#utility.yul\":28350:28409   */\n      tag_700\n        /* \"#utility.yul\":28405:28408   */\n      dup5\n        /* \"#utility.yul\":28396:28402   */\n      dup3\n        /* \"#utility.yul\":28385:28394   */\n      dup6\n        /* \"#utility.yul\":28381:28403   */\n      add\n        /* \"#utility.yul\":28350:28409   */\n      tag_429\n      jump\t// in\n    tag_700:\n        /* \"#utility.yul\":28343:28347   */\n      0x40\n        /* \"#utility.yul\":28336:28341   */\n      dup4\n        /* \"#utility.yul\":28332:28348   */\n      add\n        /* \"#utility.yul\":28325:28410   */\n      mstore\n        /* \"#utility.yul\":28089:28421   */\n      pop\n        /* \"#utility.yul\":27113:28428   */\n      swap3\n      swap2\n      pop\n      pop\n      jump\t// out\n        /* \"#utility.yul\":28434:29132   */\n    tag_71:\n        /* \"#utility.yul\":28534:28540   */\n      0x00\n        /* \"#utility.yul\":28542:28548   */\n      dup1\n        /* \"#utility.yul\":28591:28593   */\n      0x40\n        /* \"#utility.yul\":28579:28588   */\n      dup4\n        /* \"#utility.yul\":28570:28577   */\n      dup6\n        /* \"#utility.yul\":28566:28589   */\n      sub\n        /* \"#utility.yul\":28562:28594   */\n      slt\n        /* \"#utility.yul\":28559:28678   */\n      iszero\n      tag_702\n      jumpi\n        /* \"#utility.yul\":28597:28676   */\n      tag_703\n      tag_392\n      jump\t// in\n    tag_703:\n        /* \"#utility.yul\":28559:28678   */\n    tag_702:\n        /* \"#utility.yul\":28717:28718   */\n      0x00\n        /* \"#utility.yul\":28742:28795   */\n      tag_704\n        /* \"#utility.yul\":28787:28794   */\n      dup6\n        /* \"#utility.yul\":28778:28784   */\n      dup3\n        /* \"#utility.yul\":28767:28776   */\n      dup7\n        /* \"#utility.yul\":28763:28785   */\n      add\n        /* \"#utility.yul\":28742:28795   */\n      tag_396\n      jump\t// in\n    tag_704:\n        /* \"#utility.yul\":28732:28795   */\n      swap3\n      pop\n        /* \"#utility.yul\":28688:28805   */\n      pop\n        /* \"#utility.yul\":28872:28874   */\n      0x20\n        /* \"#utility.yul\":28861:28870   */\n      dup4\n        /* \"#utility.yul\":28857:28875   */\n      add\n        /* \"#utility.yul\":28844:28876   */\n      calldataload\n        /* \"#utility.yul\":28903:28921   */\n      0xffffffffffffffff\n        /* \"#utility.yul\":28895:28901   */\n      dup2\n        /* \"#utility.yul\":28892:28922   */\n      gt\n        /* \"#utility.yul\":28889:29006   */\n      iszero\n      tag_705\n      jumpi\n        /* \"#utility.yul\":28925:29004   */\n      tag_706\n      tag_393\n      jump\t// in\n    tag_706:\n        /* \"#utility.yul\":28889:29006   */\n    tag_705:\n        /* \"#utility.yul\":29030:29115   */\n      tag_707\n        /* \"#utility.yul\":29107:29114   */\n      dup6\n        /* \"#utility.yul\":29098:29104   */\n      dup3\n        /* \"#utility.yul\":29087:29096   */\n      dup7\n        /* \"#utility.yul\":29083:29105   */\n      add\n        /* \"#utility.yul\":29030:29115   */\n      tag_443\n      jump\t// in\n    tag_707:\n        /* \"#utility.yul\":29020:29115   */\n      swap2\n      pop\n        /* \"#utility.yul\":28815:29125   */\n      pop\n        /* \"#utility.yul\":28434:29132   */\n      swap3\n      pop\n      swap3\n      swap1\n      pop\n      jump\t// out\n        /* \"#utility.yul\":29174:30447   */\n    tag_444:\n        /* \"#utility.yul\":29250:29255   */\n      0x00\n        /* \"#utility.yul\":29294:29298   */\n      0x80\n        /* \"#utility.yul\":29282:29291   */\n      dup3\n        /* \"#utility.yul\":29277:29280   */\n      dup5\n        /* \"#utility.yul\":29273:29292   */\n      sub\n        /* \"#utility.yul\":29269:29299   */\n      slt\n        /* \"#utility.yul\":29266:29383   */\n      iszero\n      tag_709\n      jumpi\n        /* \"#utility.yul\":29302:29381   */\n      tag_710\n      tag_420\n      jump\t// in\n    tag_710:\n        /* \"#utility.yul\":29266:29383   */\n    tag_709:\n        /* \"#utility.yul\":29401:29422   */\n      tag_711\n        /* \"#utility.yul\":29417:29421   */\n      0x80\n        /* \"#utility.yul\":29401:29422   */\n      tag_422\n      jump\t// in\n    tag_711:\n        /* \"#utility.yul\":29392:29422   */\n      swap1\n      pop\n        /* \"#utility.yul\":29487:29488   */\n      0x00\n        /* \"#utility.yul\":29527:29576   */\n      tag_712\n        /* \"#utility.yul\":29572:29575   */\n      dup5\n        /* \"#utility.yul\":29563:29569   */\n      dup3\n        /* \"#utility.yul\":29552:29561   */\n      dup6\n        /* \"#utility.yul\":29548:29570   */\n      add\n        /* \"#utility.yul\":29527:29576   */\n      tag_396\n      jump\t// in\n    tag_712:\n        /* \"#utility.yul\":29520:29524   */\n      0x00\n        /* \"#utility.yul\":29513:29518   */\n      dup4\n        /* \"#utility.yul\":29509:29525   */\n      add\n        /* \"#utility.yul\":29502:29577   */\n      mstore\n        /* \"#utility.yul\":29432:29588   */\n      pop\n        /* \"#utility.yul\":29653:29655   */\n      0x20\n        /* \"#utility.yul\":29694:29743   */\n      tag_713\n        /* \"#utility.yul\":29739:29742   */\n      dup5\n        /* \"#utility.yul\":29730:29736   */\n      dup3\n        /* \"#utility.yul\":29719:29728   */\n      dup6\n        /* \"#utility.yul\":29715:29737   */\n      add\n        /* \"#utility.yul\":29694:29743   */\n      tag_396\n      jump\t// in\n    tag_713:\n        /* \"#utility.yul\":29687:29691   */\n      0x20\n        /* \"#utility.yul\":29680:29685   */\n      dup4\n        /* \"#utility.yul\":29676:29692   */\n      add\n        /* \"#utility.yul\":29669:29744   */\n      mstore\n        /* \"#utility.yul\":29598:29755   */\n      pop\n        /* \"#utility.yul\":29854:29856   */\n      0x40\n        /* \"#utility.yul\":29843:29852   */\n      dup3\n        /* \"#utility.yul\":29839:29857   */\n      add\n        /* \"#utility.yul\":29826:29858   */\n      calldataload\n        /* \"#utility.yul\":29885:29903   */\n      0xffffffffffffffff\n        /* \"#utility.yul\":29877:29883   */\n      dup2\n        /* \"#utility.yul\":29874:29904   */\n      gt\n        /* \"#utility.yul\":29871:29988   */\n      iszero\n      tag_714\n      jumpi\n        /* \"#utility.yul\":29907:29986   */\n      tag_715\n      tag_423\n      jump\t// in\n    tag_715:\n        /* \"#utility.yul\":29871:29988   */\n    tag_714:\n        /* \"#utility.yul\":30027:30086   */\n      tag_716\n        /* \"#utility.yul\":30082:30085   */\n      dup5\n        /* \"#utility.yul\":30073:30079   */\n      dup3\n        /* \"#utility.yul\":30062:30071   */\n      dup6\n        /* \"#utility.yul\":30058:30080   */\n      add\n        /* \"#utility.yul\":30027:30086   */\n      tag_429\n      jump\t// in\n    tag_716:\n        /* \"#utility.yul\":30020:30024   */\n      0x40\n        /* \"#utility.yul\":30013:30018   */\n      dup4\n        /* \"#utility.yul\":30009:30025   */\n      add\n        /* \"#utility.yul\":30002:30087   */\n      mstore\n        /* \"#utility.yul\":29765:30098   */\n      pop\n        /* \"#utility.yul\":30196:30198   */\n      0x60\n        /* \"#utility.yul\":30185:30194   */\n      dup3\n        /* \"#utility.yul\":30181:30199   */\n      add\n        /* \"#utility.yul\":30168:30200   */\n      calldataload\n        /* \"#utility.yul\":30227:30245   */\n      0xffffffffffffffff\n        /* \"#utility.yul\":30219:30225   */\n      dup2\n        /* \"#utility.yul\":30216:30246   */\n      gt\n        /* \"#utility.yul\":30213:30330   */\n      iszero\n      tag_717\n      jumpi\n        /* \"#utility.yul\":30249:30328   */\n      tag_718\n      tag_423\n      jump\t// in\n    tag_718:\n        /* \"#utility.yul\":30213:30330   */\n    tag_717:\n        /* \"#utility.yul\":30369:30428   */\n      tag_719\n        /* \"#utility.yul\":30424:30427   */\n      dup5\n        /* \"#utility.yul\":30415:30421   */\n      dup3\n        /* \"#utility.yul\":30404:30413   */\n      dup6\n        /* \"#utility.yul\":30400:30422   */\n      add\n        /* \"#utility.yul\":30369:30428   */\n      tag_429\n      jump\t// in\n    tag_719:\n        /* \"#utility.yul\":30362:30366   */\n      0x60\n        /* \"#utility.yul\":30355:30360   */\n      dup4\n        /* \"#utility.yul\":30351:30367   */\n      add\n        /* \"#utility.yul\":30344:30429   */\n      mstore\n        /* \"#utility.yul\":30108:30440   */\n      pop\n        /* \"#utility.yul\":29174:30447   */\n      swap3\n      swap2\n      pop\n      pop\n      jump\t// out\n        /* \"#utility.yul\":30493:31094   */\n    tag_445:\n        /* \"#utility.yul\":30574:30579   */\n      0x00\n        /* \"#utility.yul\":30618:30622   */\n      0x40\n        /* \"#utility.yul\":30606:30615   */\n      dup3\n        /* \"#utility.yul\":30601:30604   */\n      dup5\n        /* \"#utility.yul\":30597:30616   */\n      sub\n        /* \"#utility.yul\":30593:30623   */\n      slt\n        /* \"#utility.yul\":30590:30707   */\n      iszero\n      tag_721\n      jumpi\n        /* \"#utility.yul\":30626:30705   */\n      tag_722\n      tag_420\n      jump\t// in\n    tag_722:\n        /* \"#utility.yul\":30590:30707   */\n    tag_721:\n        /* \"#utility.yul\":30725:30746   */\n      tag_723\n        /* \"#utility.yul\":30741:30745   */\n      0x40\n        /* \"#utility.yul\":30725:30746   */\n      tag_422\n      jump\t// in\n    tag_723:\n        /* \"#utility.yul\":30716:30746   */\n      swap1\n      pop\n        /* \"#utility.yul\":30815:30816   */\n      0x00\n        /* \"#utility.yul\":30855:30904   */\n      tag_724\n        /* \"#utility.yul\":30900:30903   */\n      dup5\n        /* \"#utility.yul\":30891:30897   */\n      dup3\n        /* \"#utility.yul\":30880:30889   */\n      dup6\n        /* \"#utility.yul\":30876:30898   */\n      add\n        /* \"#utility.yul\":30855:30904   */\n      tag_396\n      jump\t// in\n    tag_724:\n        /* \"#utility.yul\":30848:30852   */\n      0x00\n        /* \"#utility.yul\":30841:30846   */\n      dup4\n        /* \"#utility.yul\":30837:30853   */\n      add\n        /* \"#utility.yul\":30830:30905   */\n      mstore\n        /* \"#utility.yul\":30756:30916   */\n      pop\n        /* \"#utility.yul\":30985:30987   */\n      0x20\n        /* \"#utility.yul\":31026:31075   */\n      tag_725\n        /* \"#utility.yul\":31071:31074   */\n      dup5\n        /* \"#utility.yul\":31062:31068   */\n      dup3\n        /* \"#utility.yul\":31051:31060   */\n      dup6\n        /* \"#utility.yul\":31047:31069   */\n      add\n        /* \"#utility.yul\":31026:31075   */\n      tag_396\n      jump\t// in\n    tag_725:\n        /* \"#utility.yul\":31019:31023   */\n      0x20\n        /* \"#utility.yul\":31012:31017   */\n      dup4\n        /* \"#utility.yul\":31008:31024   */\n      add\n        /* \"#utility.yul\":31001:31076   */\n      mstore\n        /* \"#utility.yul\":30926:31087   */\n      pop\n        /* \"#utility.yul\":30493:31094   */\n      swap3\n      swap2\n      pop\n      pop\n      jump\t// out\n        /* \"#utility.yul\":31132:33788   */\n    tag_446:\n        /* \"#utility.yul\":31204:31209   */\n      0x00\n        /* \"#utility.yul\":31248:31254   */\n      0x0140\n        /* \"#utility.yul\":31236:31245   */\n      dup3\n        /* \"#utility.yul\":31231:31234   */\n      dup5\n        /* \"#utility.yul\":31227:31246   */\n      sub\n        /* \"#utility.yul\":31223:31255   */\n      slt\n        /* \"#utility.yul\":31220:31339   */\n      iszero\n      tag_727\n      jumpi\n        /* \"#utility.yul\":31258:31337   */\n      tag_728\n      tag_420\n      jump\t// in\n    tag_728:\n        /* \"#utility.yul\":31220:31339   */\n    tag_727:\n        /* \"#utility.yul\":31357:31380   */\n      tag_729\n        /* \"#utility.yul\":31373:31379   */\n      0x0120\n        /* \"#utility.yul\":31357:31380   */\n      tag_422\n      jump\t// in\n    tag_729:\n        /* \"#utility.yul\":31348:31380   */\n      swap1\n      pop\n        /* \"#utility.yul\":31468:31469   */\n      0x00\n        /* \"#utility.yul\":31457:31466   */\n      dup3\n        /* \"#utility.yul\":31453:31470   */\n      add\n        /* \"#utility.yul\":31440:31471   */\n      calldataload\n        /* \"#utility.yul\":31498:31516   */\n      0xffffffffffffffff\n        /* \"#utility.yul\":31490:31496   */\n      dup2\n        /* \"#utility.yul\":31487:31517   */\n      gt\n        /* \"#utility.yul\":31484:31601   */\n      iszero\n      tag_730\n      jumpi\n        /* \"#utility.yul\":31520:31599   */\n      tag_731\n      tag_423\n      jump\t// in\n    tag_731:\n        /* \"#utility.yul\":31484:31601   */\n    tag_730:\n        /* \"#utility.yul\":31640:31699   */\n      tag_732\n        /* \"#utility.yul\":31695:31698   */\n      dup5\n        /* \"#utility.yul\":31686:31692   */\n      dup3\n        /* \"#utility.yul\":31675:31684   */\n      dup6\n        /* \"#utility.yul\":31671:31693   */\n      add\n        /* \"#utility.yul\":31640:31699   */\n      tag_429\n      jump\t// in\n    tag_732:\n        /* \"#utility.yul\":31633:31637   */\n      0x00\n        /* \"#utility.yul\":31626:31631   */\n      dup4\n        /* \"#utility.yul\":31622:31638   */\n      add\n        /* \"#utility.yul\":31615:31700   */\n      mstore\n        /* \"#utility.yul\":31390:31711   */\n      pop\n        /* \"#utility.yul\":31778:31780   */\n      0x20\n        /* \"#utility.yul\":31819:31868   */\n      tag_733\n        /* \"#utility.yul\":31864:31867   */\n      dup5\n        /* \"#utility.yul\":31855:31861   */\n      dup3\n        /* \"#utility.yul\":31844:31853   */\n      dup6\n        /* \"#utility.yul\":31840:31862   */\n      add\n        /* \"#utility.yul\":31819:31868   */\n      tag_396\n      jump\t// in\n    tag_733:\n        /* \"#utility.yul\":31812:31816   */\n      0x20\n        /* \"#utility.yul\":31805:31810   */\n      dup4\n        /* \"#utility.yul\":31801:31817   */\n      add\n        /* \"#utility.yul\":31794:31869   */\n      mstore\n        /* \"#utility.yul\":31721:31880   */\n      pop\n        /* \"#utility.yul\":31969:31971   */\n      0x40\n        /* \"#utility.yul\":31958:31967   */\n      dup3\n        /* \"#utility.yul\":31954:31972   */\n      add\n        /* \"#utility.yul\":31941:31973   */\n      calldataload\n        /* \"#utility.yul\":32000:32018   */\n      0xffffffffffffffff\n        /* \"#utility.yul\":31992:31998   */\n      dup2\n        /* \"#utility.yul\":31989:32019   */\n      gt\n        /* \"#utility.yul\":31986:32103   */\n      iszero\n      tag_734\n      jumpi\n        /* \"#utility.yul\":32022:32101   */\n      tag_735\n      tag_423\n      jump\t// in\n    tag_735:\n        /* \"#utility.yul\":31986:32103   */\n    tag_734:\n        /* \"#utility.yul\":32142:32201   */\n      tag_736\n        /* \"#utility.yul\":32197:32200   */\n      dup5\n        /* \"#utility.yul\":32188:32194   */\n      dup3\n        /* \"#utility.yul\":32177:32186   */\n      dup6\n        /* \"#utility.yul\":32173:32195   */\n      add\n        /* \"#utility.yul\":32142:32201   */\n      tag_429\n      jump\t// in\n    tag_736:\n        /* \"#utility.yul\":32135:32139   */\n      0x40\n        /* \"#utility.yul\":32128:32133   */\n      dup4\n        /* \"#utility.yul\":32124:32140   */\n      add\n        /* \"#utility.yul\":32117:32202   */\n      mstore\n        /* \"#utility.yul\":31890:32213   */\n      pop\n        /* \"#utility.yul\":32301:32303   */\n      0x60\n        /* \"#utility.yul\":32290:32299   */\n      dup3\n        /* \"#utility.yul\":32286:32304   */\n      add\n        /* \"#utility.yul\":32273:32305   */\n      calldataload\n        /* \"#utility.yul\":32332:32350   */\n      0xffffffffffffffff\n        /* \"#utility.yul\":32324:32330   */\n      dup2\n        /* \"#utility.yul\":32321:32351   */\n      gt\n        /* \"#utility.yul\":32318:32435   */\n      iszero\n      tag_737\n      jumpi\n        /* \"#utility.yul\":32354:32433   */\n      tag_738\n      tag_423\n      jump\t// in\n    tag_738:\n        /* \"#utility.yul\":32318:32435   */\n    tag_737:\n        /* \"#utility.yul\":32474:32533   */\n      tag_739\n        /* \"#utility.yul\":32529:32532   */\n      dup5\n        /* \"#utility.yul\":32520:32526   */\n      dup3\n        /* \"#utility.yul\":32509:32518   */\n      dup6\n        /* \"#utility.yul\":32505:32527   */\n      add\n        /* \"#utility.yul\":32474:32533   */\n      tag_429\n      jump\t// in\n    tag_739:\n        /* \"#utility.yul\":32467:32471   */\n      0x60\n        /* \"#utility.yul\":32460:32465   */\n      dup4\n        /* \"#utility.yul\":32456:32472   */\n      add\n        /* \"#utility.yul\":32449:32534   */\n      mstore\n        /* \"#utility.yul\":32223:32545   */\n      pop\n        /* \"#utility.yul\":32635:32638   */\n      0x80\n        /* \"#utility.yul\":32624:32633   */\n      dup3\n        /* \"#utility.yul\":32620:32639   */\n      add\n        /* \"#utility.yul\":32607:32640   */\n      calldataload\n        /* \"#utility.yul\":32667:32685   */\n      0xffffffffffffffff\n        /* \"#utility.yul\":32659:32665   */\n      dup2\n        /* \"#utility.yul\":32656:32686   */\n      gt\n        /* \"#utility.yul\":32653:32770   */\n      iszero\n      tag_740\n      jumpi\n        /* \"#utility.yul\":32689:32768   */\n      tag_741\n      tag_423\n      jump\t// in\n    tag_741:\n        /* \"#utility.yul\":32653:32770   */\n    tag_740:\n        /* \"#utility.yul\":32809:32868   */\n      tag_742\n        /* \"#utility.yul\":32864:32867   */\n      dup5\n        /* \"#utility.yul\":32855:32861   */\n      dup3\n        /* \"#utility.yul\":32844:32853   */\n      dup6\n        /* \"#utility.yul\":32840:32862   */\n      add\n        /* \"#utility.yul\":32809:32868   */\n      tag_429\n      jump\t// in\n    tag_742:\n        /* \"#utility.yul\":32802:32806   */\n      0x80\n        /* \"#utility.yul\":32795:32800   */\n      dup4\n        /* \"#utility.yul\":32791:32807   */\n      add\n        /* \"#utility.yul\":32784:32869   */\n      mstore\n        /* \"#utility.yul\":32555:32880   */\n      pop\n        /* \"#utility.yul\":32942:32945   */\n      0xa0\n        /* \"#utility.yul\":32984:33033   */\n      tag_743\n        /* \"#utility.yul\":33029:33032   */\n      dup5\n        /* \"#utility.yul\":33020:33026   */\n      dup3\n        /* \"#utility.yul\":33009:33018   */\n      dup6\n        /* \"#utility.yul\":33005:33027   */\n      add\n        /* \"#utility.yul\":32984:33033   */\n      tag_396\n      jump\t// in\n    tag_743:\n        /* \"#utility.yul\":32977:32981   */\n      0xa0\n        /* \"#utility.yul\":32970:32975   */\n      dup4\n        /* \"#utility.yul\":32966:32982   */\n      add\n        /* \"#utility.yul\":32959:33034   */\n      mstore\n        /* \"#utility.yul\":32890:33045   */\n      pop\n        /* \"#utility.yul\":33113:33116   */\n      0xc0\n        /* \"#utility.yul\":33155:33204   */\n      tag_744\n        /* \"#utility.yul\":33200:33203   */\n      dup5\n        /* \"#utility.yul\":33191:33197   */\n      dup3\n        /* \"#utility.yul\":33180:33189   */\n      dup6\n        /* \"#utility.yul\":33176:33198   */\n      add\n        /* \"#utility.yul\":33155:33204   */\n      tag_396\n      jump\t// in\n    tag_744:\n        /* \"#utility.yul\":33148:33152   */\n      0xc0\n        /* \"#utility.yul\":33141:33146   */\n      dup4\n        /* \"#utility.yul\":33137:33153   */\n      add\n        /* \"#utility.yul\":33130:33205   */\n      mstore\n        /* \"#utility.yul\":33055:33216   */\n      pop\n        /* \"#utility.yul\":33311:33314   */\n      0xe0\n        /* \"#utility.yul\":33300:33309   */\n      dup3\n        /* \"#utility.yul\":33296:33315   */\n      add\n        /* \"#utility.yul\":33283:33316   */\n      calldataload\n        /* \"#utility.yul\":33343:33361   */\n      0xffffffffffffffff\n        /* \"#utility.yul\":33335:33341   */\n      dup2\n        /* \"#utility.yul\":33332:33362   */\n      gt\n        /* \"#utility.yul\":33329:33446   */\n      iszero\n      tag_745\n      jumpi\n        /* \"#utility.yul\":33365:33444   */\n      tag_746\n      tag_423\n      jump\t// in\n    tag_746:\n        /* \"#utility.yul\":33329:33446   */\n    tag_745:\n        /* \"#utility.yul\":33485:33561   */\n      tag_747\n        /* \"#utility.yul\":33557:33560   */\n      dup5\n        /* \"#utility.yul\":33548:33554   */\n      dup3\n        /* \"#utility.yul\":33537:33546   */\n      dup6\n        /* \"#utility.yul\":33533:33555   */\n      add\n        /* \"#utility.yul\":33485:33561   */\n      tag_444\n      jump\t// in\n    tag_747:\n        /* \"#utility.yul\":33478:33482   */\n      0xe0\n        /* \"#utility.yul\":33471:33476   */\n      dup4\n        /* \"#utility.yul\":33467:33483   */\n      add\n        /* \"#utility.yul\":33460:33562   */\n      mstore\n        /* \"#utility.yul\":33226:33573   */\n      pop\n        /* \"#utility.yul\":33644:33647   */\n      0x0100\n        /* \"#utility.yul\":33688:33769   */\n      tag_748\n        /* \"#utility.yul\":33765:33768   */\n      dup5\n        /* \"#utility.yul\":33756:33762   */\n      dup3\n        /* \"#utility.yul\":33745:33754   */\n      dup6\n        /* \"#utility.yul\":33741:33763   */\n      add\n        /* \"#utility.yul\":33688:33769   */\n      tag_445\n      jump\t// in\n    tag_748:\n        /* \"#utility.yul\":33679:33685   */\n      0x0100\n        /* \"#utility.yul\":33672:33677   */\n      dup4\n        /* \"#utility.yul\":33668:33686   */\n      add\n        /* \"#utility.yul\":33661:33770   */\n      mstore\n        /* \"#utility.yul\":33583:33781   */\n      pop\n        /* \"#utility.yul\":31132:33788   */\n      swap3\n      swap2\n      pop\n      pop\n      jump\t// out\n        /* \"#utility.yul\":33825:35988   */\n    tag_447:\n        /* \"#utility.yul\":33897:33902   */\n      0x00\n        /* \"#utility.yul\":33941:33945   */\n      0xc0\n        /* \"#utility.yul\":33929:33938   */\n      dup3\n        /* \"#utility.yul\":33924:33927   */\n      dup5\n        /* \"#utility.yul\":33920:33939   */\n      sub\n        /* \"#utility.yul\":33916:33946   */\n      slt\n        /* \"#utility.yul\":33913:34030   */\n      iszero\n      tag_750\n      jumpi\n        /* \"#utility.yul\":33949:34028   */\n      tag_751\n      tag_420\n      jump\t// in\n    tag_751:\n        /* \"#utility.yul\":33913:34030   */\n    tag_750:\n        /* \"#utility.yul\":34048:34069   */\n      tag_752\n        /* \"#utility.yul\":34064:34068   */\n      0xc0\n        /* \"#utility.yul\":34048:34069   */\n      tag_422\n      jump\t// in\n    tag_752:\n        /* \"#utility.yul\":34039:34069   */\n      swap1\n      pop\n        /* \"#utility.yul\":34168:34169   */\n      0x00\n        /* \"#utility.yul\":34157:34166   */\n      dup3\n        /* \"#utility.yul\":34153:34170   */\n      add\n        /* \"#utility.yul\":34140:34171   */\n      calldataload\n        /* \"#utility.yul\":34198:34216   */\n      0xffffffffffffffff\n        /* \"#utility.yul\":34190:34196   */\n      dup2\n        /* \"#utility.yul\":34187:34217   */\n      gt\n        /* \"#utility.yul\":34184:34301   */\n      iszero\n      tag_753\n      jumpi\n        /* \"#utility.yul\":34220:34299   */\n      tag_754\n      tag_423\n      jump\t// in\n    tag_754:\n        /* \"#utility.yul\":34184:34301   */\n    tag_753:\n        /* \"#utility.yul\":34340:34413   */\n      tag_755\n        /* \"#utility.yul\":34409:34412   */\n      dup5\n        /* \"#utility.yul\":34400:34406   */\n      dup3\n        /* \"#utility.yul\":34389:34398   */\n      dup6\n        /* \"#utility.yul\":34385:34407   */\n      add\n        /* \"#utility.yul\":34340:34413   */\n      tag_441\n      jump\t// in\n    tag_755:\n        /* \"#utility.yul\":34333:34337   */\n      0x00\n        /* \"#utility.yul\":34326:34331   */\n      dup4\n        /* \"#utility.yul\":34322:34338   */\n      add\n        /* \"#utility.yul\":34315:34414   */\n      mstore\n        /* \"#utility.yul\":34079:34425   */\n      pop\n        /* \"#utility.yul\":34523:34525   */\n      0x20\n        /* \"#utility.yul\":34512:34521   */\n      dup3\n        /* \"#utility.yul\":34508:34526   */\n      add\n        /* \"#utility.yul\":34495:34527   */\n      calldataload\n        /* \"#utility.yul\":34554:34572   */\n      0xffffffffffffffff\n        /* \"#utility.yul\":34546:34552   */\n      dup2\n        /* \"#utility.yul\":34543:34573   */\n      gt\n        /* \"#utility.yul\":34540:34657   */\n      iszero\n      tag_756\n      jumpi\n        /* \"#utility.yul\":34576:34655   */\n      tag_757\n      tag_423\n      jump\t// in\n    tag_757:\n        /* \"#utility.yul\":34540:34657   */\n    tag_756:\n        /* \"#utility.yul\":34696:34769   */\n      tag_758\n        /* \"#utility.yul\":34765:34768   */\n      dup5\n        /* \"#utility.yul\":34756:34762   */\n      dup3\n        /* \"#utility.yul\":34745:34754   */\n      dup6\n        /* \"#utility.yul\":34741:34763   */\n      add\n        /* \"#utility.yul\":34696:34769   */\n      tag_442\n      jump\t// in\n    tag_758:\n        /* \"#utility.yul\":34689:34693   */\n      0x20\n        /* \"#utility.yul\":34682:34687   */\n      dup4\n        /* \"#utility.yul\":34678:34694   */\n      add\n        /* \"#utility.yul\":34671:34770   */\n      mstore\n        /* \"#utility.yul\":34435:34781   */\n      pop\n        /* \"#utility.yul\":34879:34881   */\n      0x40\n        /* \"#utility.yul\":34868:34877   */\n      dup3\n        /* \"#utility.yul\":34864:34882   */\n      add\n        /* \"#utility.yul\":34851:34883   */\n      calldataload\n        /* \"#utility.yul\":34910:34928   */\n      0xffffffffffffffff\n        /* \"#utility.yul\":34902:34908   */\n      dup2\n        /* \"#utility.yul\":34899:34929   */\n      gt\n        /* \"#utility.yul\":34896:35013   */\n      iszero\n      tag_759\n      jumpi\n        /* \"#utility.yul\":34932:35011   */\n      tag_760\n      tag_423\n      jump\t// in\n    tag_760:\n        /* \"#utility.yul\":34896:35013   */\n    tag_759:\n        /* \"#utility.yul\":35052:35111   */\n      tag_761\n        /* \"#utility.yul\":35107:35110   */\n      dup5\n        /* \"#utility.yul\":35098:35104   */\n      dup3\n        /* \"#utility.yul\":35087:35096   */\n      dup6\n        /* \"#utility.yul\":35083:35105   */\n      add\n        /* \"#utility.yul\":35052:35111   */\n      tag_429\n      jump\t// in\n    tag_761:\n        /* \"#utility.yul\":35045:35049   */\n      0x40\n        /* \"#utility.yul\":35038:35043   */\n      dup4\n        /* \"#utility.yul\":35034:35050   */\n      add\n        /* \"#utility.yul\":35027:35112   */\n      mstore\n        /* \"#utility.yul\":34791:35123   */\n      pop\n        /* \"#utility.yul\":35219:35221   */\n      0x60\n        /* \"#utility.yul\":35208:35217   */\n      dup3\n        /* \"#utility.yul\":35204:35222   */\n      add\n        /* \"#utility.yul\":35191:35223   */\n      calldataload\n        /* \"#utility.yul\":35250:35268   */\n      0xffffffffffffffff\n        /* \"#utility.yul\":35242:35248   */\n      dup2\n        /* \"#utility.yul\":35239:35269   */\n      gt\n        /* \"#utility.yul\":35236:35353   */\n      iszero\n      tag_762\n      jumpi\n        /* \"#utility.yul\":35272:35351   */\n      tag_763\n      tag_423\n      jump\t// in\n    tag_763:\n        /* \"#utility.yul\":35236:35353   */\n    tag_762:\n        /* \"#utility.yul\":35392:35464   */\n      tag_764\n        /* \"#utility.yul\":35460:35463   */\n      dup5\n        /* \"#utility.yul\":35451:35457   */\n      dup3\n        /* \"#utility.yul\":35440:35449   */\n      dup6\n        /* \"#utility.yul\":35436:35458   */\n      add\n        /* \"#utility.yul\":35392:35464   */\n      tag_446\n      jump\t// in\n    tag_764:\n        /* \"#utility.yul\":35385:35389   */\n      0x60\n        /* \"#utility.yul\":35378:35383   */\n      dup4\n        /* \"#utility.yul\":35374:35390   */\n      add\n        /* \"#utility.yul\":35367:35465   */\n      mstore\n        /* \"#utility.yul\":35133:35476   */\n      pop\n        /* \"#utility.yul\":35539:35542   */\n      0x80\n        /* \"#utility.yul\":35581:35630   */\n      tag_765\n        /* \"#utility.yul\":35626:35629   */\n      dup5\n        /* \"#utility.yul\":35617:35623   */\n      dup3\n        /* \"#utility.yul\":35606:35615   */\n      dup6\n        /* \"#utility.yul\":35602:35624   */\n      add\n        /* \"#utility.yul\":35581:35630   */\n      tag_396\n      jump\t// in\n    tag_765:\n        /* \"#utility.yul\":35574:35578   */\n      0x80\n        /* \"#utility.yul\":35567:35572   */\n      dup4\n        /* \"#utility.yul\":35563:35579   */\n      add\n        /* \"#utility.yul\":35556:35631   */\n      mstore\n        /* \"#utility.yul\":35486:35642   */\n      pop\n        /* \"#utility.yul\":35736:35739   */\n      0xa0\n        /* \"#utility.yul\":35725:35734   */\n      dup3\n        /* \"#utility.yul\":35721:35740   */\n      add\n        /* \"#utility.yul\":35708:35741   */\n      calldataload\n        /* \"#utility.yul\":35768:35786   */\n      0xffffffffffffffff\n        /* \"#utility.yul\":35760:35766   */\n      dup2\n        /* \"#utility.yul\":35757:35787   */\n      gt\n        /* \"#utility.yul\":35754:35871   */\n      iszero\n      tag_766\n      jumpi\n        /* \"#utility.yul\":35790:35869   */\n      tag_767\n      tag_423\n      jump\t// in\n    tag_767:\n        /* \"#utility.yul\":35754:35871   */\n    tag_766:\n        /* \"#utility.yul\":35910:35969   */\n      tag_768\n        /* \"#utility.yul\":35965:35968   */\n      dup5\n        /* \"#utility.yul\":35956:35962   */\n      dup3\n        /* \"#utility.yul\":35945:35954   */\n      dup6\n        /* \"#utility.yul\":35941:35963   */\n      add\n        /* \"#utility.yul\":35910:35969   */\n      tag_429\n      jump\t// in\n    tag_768:\n        /* \"#utility.yul\":35903:35907   */\n      0xa0\n        /* \"#utility.yul\":35896:35901   */\n      dup4\n        /* \"#utility.yul\":35892:35908   */\n      add\n        /* \"#utility.yul\":35885:35970   */\n      mstore\n        /* \"#utility.yul\":35652:35981   */\n      pop\n        /* \"#utility.yul\":33825:35988   */\n      swap3\n      swap2\n      pop\n      pop\n      jump\t// out\n        /* \"#utility.yul\":35994:36529   */\n    tag_76:\n        /* \"#utility.yul\":36076:36082   */\n      0x00\n        /* \"#utility.yul\":36125:36127   */\n      0x20\n        /* \"#utility.yul\":36113:36122   */\n      dup3\n        /* \"#utility.yul\":36104:36111   */\n      dup5\n        /* \"#utility.yul\":36100:36123   */\n      sub\n        /* \"#utility.yul\":36096:36128   */\n      slt\n        /* \"#utility.yul\":36093:36212   */\n      iszero\n      tag_770\n      jumpi\n        /* \"#utility.yul\":36131:36210   */\n      tag_771\n      tag_392\n      jump\t// in\n    tag_771:\n        /* \"#utility.yul\":36093:36212   */\n    tag_770:\n        /* \"#utility.yul\":36279:36280   */\n      0x00\n        /* \"#utility.yul\":36268:36277   */\n      dup3\n        /* \"#utility.yul\":36264:36281   */\n      add\n        /* \"#utility.yul\":36251:36282   */\n      calldataload\n        /* \"#utility.yul\":36309:36327   */\n      0xffffffffffffffff\n        /* \"#utility.yul\":36301:36307   */\n      dup2\n        /* \"#utility.yul\":36298:36328   */\n      gt\n        /* \"#utility.yul\":36295:36412   */\n      iszero\n      tag_772\n      jumpi\n        /* \"#utility.yul\":36331:36410   */\n      tag_773\n      tag_393\n      jump\t// in\n    tag_773:\n        /* \"#utility.yul\":36295:36412   */\n    tag_772:\n        /* \"#utility.yul\":36436:36512   */\n      tag_774\n        /* \"#utility.yul\":36504:36511   */\n      dup5\n        /* \"#utility.yul\":36495:36501   */\n      dup3\n        /* \"#utility.yul\":36484:36493   */\n      dup6\n        /* \"#utility.yul\":36480:36502   */\n      add\n        /* \"#utility.yul\":36436:36512   */\n      tag_447\n      jump\t// in\n    tag_774:\n        /* \"#utility.yul\":36426:36512   */\n      swap2\n      pop\n        /* \"#utility.yul\":36222:36522   */\n      pop\n        /* \"#utility.yul\":35994:36529   */\n      swap3\n      swap2\n      pop\n      pop\n      jump\t// out\n        /* \"#utility.yul\":36535:36715   */\n    tag_448:\n        /* \"#utility.yul\":36583:36660   */\n      0x4e487b7100000000000000000000000000000000000000000000000000000000\n        /* \"#utility.yul\":36580:36581   */\n      0x00\n        /* \"#utility.yul\":36573:36661   */\n      mstore\n        /* \"#utility.yul\":36680:36684   */\n      0x22\n        /* \"#utility.yul\":36677:36678   */\n      0x04\n        /* \"#utility.yul\":36670:36685   */\n      mstore\n        /* \"#utility.yul\":36704:36708   */\n      0x24\n        /* \"#utility.yul\":36701:36702   */\n      0x00\n        /* \"#utility.yul\":36694:36709   */\n      revert\n        /* \"#utility.yul\":36721:37041   */\n    tag_83:\n        /* \"#utility.yul\":36765:36771   */\n      0x00\n        /* \"#utility.yul\":36802:36803   */\n      0x02\n        /* \"#utility.yul\":36796:36800   */\n      dup3\n        /* \"#utility.yul\":36792:36804   */\n      div\n        /* \"#utility.yul\":36782:36804   */\n      swap1\n      pop\n        /* \"#utility.yul\":36849:36850   */\n      0x01\n        /* \"#utility.yul\":36843:36847   */\n      dup3\n        /* \"#utility.yul\":36839:36851   */\n      and\n        /* \"#utility.yul\":36870:36888   */\n      dup1\n        /* \"#utility.yul\":36860:36941   */\n      tag_777\n      jumpi\n        /* \"#utility.yul\":36926:36930   */\n      0x7f\n        /* \"#utility.yul\":36918:36924   */\n      dup3\n        /* \"#utility.yul\":36914:36931   */\n      and\n        /* \"#utility.yul\":36904:36931   */\n      swap2\n      pop\n        /* \"#utility.yul\":36860:36941   */\n    tag_777:\n        /* \"#utility.yul\":36988:36990   */\n      0x20\n        /* \"#utility.yul\":36980:36986   */\n      dup3\n        /* \"#utility.yul\":36977:36991   */\n      lt\n        /* \"#utility.yul\":36957:36975   */\n      dup2\n        /* \"#utility.yul\":36954:36992   */\n      sub\n        /* \"#utility.yul\":36951:37035   */\n      tag_778\n      jumpi\n        /* \"#utility.yul\":37007:37025   */\n      tag_779\n      tag_448\n      jump\t// in\n    tag_779:\n        /* \"#utility.yul\":36951:37035   */\n    tag_778:\n        /* \"#utility.yul\":36772:37041   */\n      pop\n        /* \"#utility.yul\":36721:37041   */\n      swap2\n      swap1\n      pop\n      jump\t// out\n        /* \"#utility.yul\":37047:37216   */\n    tag_449:\n        /* \"#utility.yul\":37131:37142   */\n      0x00\n        /* \"#utility.yul\":37165:37171   */\n      dup3\n        /* \"#utility.yul\":37160:37163   */\n      dup3\n        /* \"#utility.yul\":37153:37172   */\n      mstore\n        /* \"#utility.yul\":37205:37209   */\n      0x20\n        /* \"#utility.yul\":37200:37203   */\n      dup3\n        /* \"#utility.yul\":37196:37210   */\n      add\n        /* \"#utility.yul\":37181:37210   */\n      swap1\n      pop\n        /* \"#utility.yul\":37047:37216   */\n      swap3\n      swap2\n      pop\n      pop\n      jump\t// out\n        /* \"#utility.yul\":37222:37444   */\n    tag_450:\n        /* \"#utility.yul\":37362:37396   */\n      0x596f75277265206e6f7420616e206f776e6572206f6620746869732061647665\n        /* \"#utility.yul\":37358:37359   */\n      0x00\n        /* \"#utility.yul\":37350:37356   */\n      dup3\n        /* \"#utility.yul\":37346:37360   */\n      add\n        /* \"#utility.yul\":37339:37397   */\n      mstore\n        /* \"#utility.yul\":37431:37436   */\n      0x72742e0000000000000000000000000000000000000000000000000000000000\n        /* \"#utility.yul\":37426:37428   */\n      0x20\n        /* \"#utility.yul\":37418:37424   */\n      dup3\n        /* \"#utility.yul\":37414:37429   */\n      add\n        /* \"#utility.yul\":37407:37437   */\n      mstore\n        /* \"#utility.yul\":37222:37444   */\n      pop\n      jump\t// out\n        /* \"#utility.yul\":37450:37816   */\n    tag_451:\n        /* \"#utility.yul\":37592:37595   */\n      0x00\n        /* \"#utility.yul\":37613:37680   */\n      tag_783\n        /* \"#utility.yul\":37677:37679   */\n      0x23\n        /* \"#utility.yul\":37672:37675   */\n      dup4\n        /* \"#utility.yul\":37613:37680   */\n      tag_449\n      jump\t// in\n    tag_783:\n        /* \"#utility.yul\":37606:37680   */\n      swap2\n      pop\n        /* \"#utility.yul\":37689:37782   */\n      tag_784\n        /* \"#utility.yul\":37778:37781   */\n      dup3\n        /* \"#utility.yul\":37689:37782   */\n      tag_450\n      jump\t// in\n    tag_784:\n        /* \"#utility.yul\":37807:37809   */\n      0x40\n        /* \"#utility.yul\":37802:37805   */\n      dup3\n        /* \"#utility.yul\":37798:37810   */\n      add\n        /* \"#utility.yul\":37791:37810   */\n      swap1\n      pop\n        /* \"#utility.yul\":37450:37816   */\n      swap2\n      swap1\n      pop\n      jump\t// out\n        /* \"#utility.yul\":37822:38241   */\n    tag_186:\n        /* \"#utility.yul\":37988:37992   */\n      0x00\n        /* \"#utility.yul\":38026:38028   */\n      0x20\n        /* \"#utility.yul\":38015:38024   */\n      dup3\n        /* \"#utility.yul\":38011:38029   */\n      add\n        /* \"#utility.yul\":38003:38029   */\n      swap1\n      pop\n        /* \"#utility.yul\":38075:38084   */\n      dup2\n        /* \"#utility.yul\":38069:38073   */\n      dup2\n        /* \"#utility.yul\":38065:38085   */\n      sub\n        /* \"#utility.yul\":38061:38062   */\n      0x00\n        /* \"#utility.yul\":38050:38059   */\n      dup4\n        /* \"#utility.yul\":38046:38063   */\n      add\n        /* \"#utility.yul\":38039:38086   */\n      mstore\n        /* \"#utility.yul\":38103:38234   */\n      tag_786\n        /* \"#utility.yul\":38229:38233   */\n      dup2\n        /* \"#utility.yul\":38103:38234   */\n      tag_451\n      jump\t// in\n    tag_786:\n        /* \"#utility.yul\":38095:38234   */\n      swap1\n      pop\n        /* \"#utility.yul\":37822:38241   */\n      swap2\n      swap1\n      pop\n      jump\t// out\n        /* \"#utility.yul\":38247:38427   */\n    tag_452:\n        /* \"#utility.yul\":38295:38372   */\n      0x4e487b7100000000000000000000000000000000000000000000000000000000\n        /* \"#utility.yul\":38292:38293   */\n      0x00\n        /* \"#utility.yul\":38285:38373   */\n      mstore\n        /* \"#utility.yul\":38392:38396   */\n      0x11\n        /* \"#utility.yul\":38389:38390   */\n      0x04\n        /* \"#utility.yul\":38382:38397   */\n      mstore\n        /* \"#utility.yul\":38416:38420   */\n      0x24\n        /* \"#utility.yul\":38413:38414   */\n      0x00\n        /* \"#utility.yul\":38406:38421   */\n      revert\n        /* \"#utility.yul\":38433:38624   */\n    tag_204:\n        /* \"#utility.yul\":38473:38476   */\n      0x00\n        /* \"#utility.yul\":38492:38512   */\n      tag_789\n        /* \"#utility.yul\":38510:38511   */\n      dup3\n        /* \"#utility.yul\":38492:38512   */\n      tag_394\n      jump\t// in\n    tag_789:\n        /* \"#utility.yul\":38487:38512   */\n      swap2\n      pop\n        /* \"#utility.yul\":38526:38546   */\n      tag_790\n        /* \"#utility.yul\":38544:38545   */\n      dup4\n        /* \"#utility.yul\":38526:38546   */\n      tag_394\n      jump\t// in\n    tag_790:\n        /* \"#utility.yul\":38521:38546   */\n      swap3\n      pop\n        /* \"#utility.yul\":38569:38570   */\n      dup3\n        /* \"#utility.yul\":38566:38567   */\n      dup3\n        /* \"#utility.yul\":38562:38571   */\n      add\n        /* \"#utility.yul\":38555:38571   */\n      swap1\n      pop\n        /* \"#utility.yul\":38590:38593   */\n      dup1\n        /* \"#utility.yul\":38587:38588   */\n      dup3\n        /* \"#utility.yul\":38584:38594   */\n      gt\n        /* \"#utility.yul\":38581:38617   */\n      iszero\n      tag_791\n      jumpi\n        /* \"#utility.yul\":38597:38615   */\n      tag_792\n      tag_452\n      jump\t// in\n    tag_792:\n        /* \"#utility.yul\":38581:38617   */\n    tag_791:\n        /* \"#utility.yul\":38433:38624   */\n      swap3\n      swap2\n      pop\n      pop\n      jump\t// out\n        /* \"#utility.yul\":38630:38863   */\n    tag_216:\n        /* \"#utility.yul\":38669:38672   */\n      0x00\n        /* \"#utility.yul\":38692:38716   */\n      tag_794\n        /* \"#utility.yul\":38710:38715   */\n      dup3\n        /* \"#utility.yul\":38692:38716   */\n      tag_394\n      jump\t// in\n    tag_794:\n        /* \"#utility.yul\":38683:38716   */\n      swap2\n      pop\n        /* \"#utility.yul\":38738:38804   */\n      0xffffffffffffffffffffffffffffffffffffffffffffffffffffffffffffffff\n        /* \"#utility.yul\":38731:38736   */\n      dup3\n        /* \"#utility.yul\":38728:38805   */\n      sub\n        /* \"#utility.yul\":38725:38828   */\n      tag_795\n      jumpi\n        /* \"#utility.yul\":38808:38826   */\n      tag_796\n      tag_452\n      jump\t// in\n    tag_796:\n        /* \"#utility.yul\":38725:38828   */\n    tag_795:\n        /* \"#utility.yul\":38855:38856   */\n      0x01\n        /* \"#utility.yul\":38848:38853   */\n      dup3\n        /* \"#utility.yul\":38844:38857   */\n      add\n        /* \"#utility.yul\":38837:38857   */\n      swap1\n      pop\n        /* \"#utility.yul\":38630:38863   */\n      swap2\n      swap1\n      pop\n      jump\t// out\n        /* \"#utility.yul\":38869:39049   */\n    tag_234:\n        /* \"#utility.yul\":38917:38994   */\n      0x4e487b7100000000000000000000000000000000000000000000000000000000\n        /* \"#utility.yul\":38914:38915   */\n      0x00\n        /* \"#utility.yul\":38907:38995   */\n      mstore\n        /* \"#utility.yul\":39014:39018   */\n      0x32\n        /* \"#utility.yul\":39011:39012   */\n      0x04\n        /* \"#utility.yul\":39004:39019   */\n      mstore\n        /* \"#utility.yul\":39038:39042   */\n      0x24\n        /* \"#utility.yul\":39035:39036   */\n      0x00\n        /* \"#utility.yul\":39028:39043   */\n      revert\n        /* \"#utility.yul\":39055:39234   */\n    tag_453:\n        /* \"#utility.yul\":39195:39226   */\n      0x596f7527726520746865206f776e6572206f6620746865206465616c2e000000\n        /* \"#utility.yul\":39191:39192   */\n      0x00\n        /* \"#utility.yul\":39183:39189   */\n      dup3\n        /* \"#utility.yul\":39179:39193   */\n      add\n        /* \"#utility.yul\":39172:39227   */\n      mstore\n        /* \"#utility.yul\":39055:39234   */\n      pop\n      jump\t// out\n        /* \"#utility.yul\":39240:39606   */\n    tag_454:\n        /* \"#utility.yul\":39382:39385   */\n      0x00\n        /* \"#utility.yul\":39403:39470   */\n      tag_800\n        /* \"#utility.yul\":39467:39469   */\n      0x1d\n        /* \"#utility.yul\":39462:39465   */\n      dup4\n        /* \"#utility.yul\":39403:39470   */\n      tag_449\n      jump\t// in\n    tag_800:\n        /* \"#utility.yul\":39396:39470   */\n      swap2\n      pop\n        /* \"#utility.yul\":39479:39572   */\n      tag_801\n        /* \"#utility.yul\":39568:39571   */\n      dup3\n        /* \"#utility.yul\":39479:39572   */\n      tag_453\n      jump\t// in\n    tag_801:\n        /* \"#utility.yul\":39597:39599   */\n      0x20\n        /* \"#utility.yul\":39592:39595   */\n      dup3\n        /* \"#utility.yul\":39588:39600   */\n      add\n        /* \"#utility.yul\":39581:39600   */\n      swap1\n      pop\n        /* \"#utility.yul\":39240:39606   */\n      swap2\n      swap1\n      pop\n      jump\t// out\n        /* \"#utility.yul\":39612:40031   */\n    tag_327:\n        /* \"#utility.yul\":39778:39782   */\n      0x00\n        /* \"#utility.yul\":39816:39818   */\n      0x20\n        /* \"#utility.yul\":39805:39814   */\n      dup3\n        /* \"#utility.yul\":39801:39819   */\n      add\n        /* \"#utility.yul\":39793:39819   */\n      swap1\n      pop\n        /* \"#utility.yul\":39865:39874   */\n      dup2\n        /* \"#utility.yul\":39859:39863   */\n      dup2\n        /* \"#utility.yul\":39855:39875   */\n      sub\n        /* \"#utility.yul\":39851:39852   */\n      0x00\n        /* \"#utility.yul\":39840:39849   */\n      dup4\n        /* \"#utility.yul\":39836:39853   */\n      add\n        /* \"#utility.yul\":39829:39876   */\n      mstore\n        /* \"#utility.yul\":39893:40024   */\n      tag_803\n        /* \"#utility.yul\":40019:40023   */\n      dup2\n        /* \"#utility.yul\":39893:40024   */\n      tag_454\n      jump\t// in\n    tag_803:\n        /* \"#utility.yul\":39885:40024   */\n      swap1\n      pop\n        /* \"#utility.yul\":39612:40031   */\n      swap2\n      swap1\n      pop\n      jump\t// out\n        /* \"#utility.yul\":40037:40269   */\n    tag_455:\n        /* \"#utility.yul\":40177:40211   */\n      0x54686973206465616c20697320616c726561647920696e2070726f636573732e\n        /* \"#utility.yul\":40173:40174   */\n      0x00\n        /* \"#utility.yul\":40165:40171   */\n      dup3\n        /* \"#utility.yul\":40161:40175   */\n      add\n        /* \"#utility.yul\":40154:40212   */\n      mstore\n        /* \"#utility.yul\":40246:40261   */\n      0x2052656c6f616420706167652e00000000000000000000000000000000000000\n        /* \"#utility.yul\":40241:40243   */\n      0x20\n        /* \"#utility.yul\":40233:40239   */\n      dup3\n        /* \"#utility.yul\":40229:40244   */\n      add\n        /* \"#utility.yul\":40222:40262   */\n      mstore\n        /* \"#utility.yul\":40037:40269   */\n      pop\n      jump\t// out\n        /* \"#utility.yul\":40275:40641   */\n    tag_456:\n        /* \"#utility.yul\":40417:40420   */\n      0x00\n        /* \"#utility.yul\":40438:40505   */\n      tag_806\n        /* \"#utility.yul\":40502:40504   */\n      0x2d\n        /* \"#utility.yul\":40497:40500   */\n      dup4\n        /* \"#utility.yul\":40438:40505   */\n      tag_449\n      jump\t// in\n    tag_806:\n        /* \"#utility.yul\":40431:40505   */\n      swap2\n      pop\n        /* \"#utility.yul\":40514:40607   */\n      tag_807\n        /* \"#utility.yul\":40603:40606   */\n      dup3\n        /* \"#utility.yul\":40514:40607   */\n      tag_455\n      jump\t// in\n    tag_807:\n        /* \"#utility.yul\":40632:40634   */\n      0x40\n        /* \"#utility.yul\":40627:40630   */\n      dup3\n        /* \"#utility.yul\":40623:40635   */\n      add\n        /* \"#utility.yul\":40616:40635   */\n      swap1\n      pop\n        /* \"#utility.yul\":40275:40641   */\n      swap2\n      swap1\n      pop\n      jump\t// out\n        /* \"#utility.yul\":40647:41066   */\n    tag_334:\n        /* \"#utility.yul\":40813:40817   */\n      0x00\n        /* \"#utility.yul\":40851:40853   */\n      0x20\n        /* \"#utility.yul\":40840:40849   */\n      dup3\n        /* \"#utility.yul\":40836:40854   */\n      add\n        /* \"#utility.yul\":40828:40854   */\n      swap1\n      pop\n        /* \"#utility.yul\":40900:40909   */\n      dup2\n        /* \"#utility.yul\":40894:40898   */\n      dup2\n        /* \"#utility.yul\":40890:40910   */\n      sub\n        /* \"#utility.yul\":40886:40887   */\n      0x00\n        /* \"#utility.yul\":40875:40884   */\n      dup4\n        /* \"#utility.yul\":40871:40888   */\n      add\n        /* \"#utility.yul\":40864:40911   */\n      mstore\n        /* \"#utility.yul\":40928:41059   */\n      tag_809\n        /* \"#utility.yul\":41054:41058   */\n      dup2\n        /* \"#utility.yul\":40928:41059   */\n      tag_456\n      jump\t// in\n    tag_809:\n        /* \"#utility.yul\":40920:41059   */\n      swap1\n      pop\n        /* \"#utility.yul\":40647:41066   */\n      swap2\n      swap1\n      pop\n      jump\t// out\n        /* \"#utility.yul\":41072:41250   */\n    tag_457:\n        /* \"#utility.yul\":41212:41242   */\n      0x4e6f7420656e6f756768206d6f6e657920746f20616371756972652e00000000\n        /* \"#utility.yul\":41208:41209   */\n      0x00\n        /* \"#utility.yul\":41200:41206   */\n      dup3\n        /* \"#utility.yul\":41196:41210   */\n      add\n        /* \"#utility.yul\":41189:41243   */\n      mstore\n        /* \"#utility.yul\":41072:41250   */\n      pop\n      jump\t// out\n        /* \"#utility.yul\":41256:41622   */\n    tag_458:\n        /* \"#utility.yul\":41398:41401   */\n      0x00\n        /* \"#utility.yul\":41419:41486   */\n      tag_812\n        /* \"#utility.yul\":41483:41485   */\n      0x1c\n        /* \"#utility.yul\":41478:41481   */\n      dup4\n        /* \"#utility.yul\":41419:41486   */\n      tag_449\n      jump\t// in\n    tag_812:\n        /* \"#utility.yul\":41412:41486   */\n      swap2\n      pop\n        /* \"#utility.yul\":41495:41588   */\n      tag_813\n        /* \"#utility.yul\":41584:41587   */\n      dup3\n        /* \"#utility.yul\":41495:41588   */\n      tag_457\n      jump\t// in\n    tag_813:\n        /* \"#utility.yul\":41613:41615   */\n      0x20\n        /* \"#utility.yul\":41608:41611   */\n      dup3\n        /* \"#utility.yul\":41604:41616   */\n      add\n        /* \"#utility.yul\":41597:41616   */\n      swap1\n      pop\n        /* \"#utility.yul\":41256:41622   */\n      swap2\n      swap1\n      pop\n      jump\t// out\n        /* \"#utility.yul\":41628:42047   */\n    tag_338:\n        /* \"#utility.yul\":41794:41798   */\n      0x00\n        /* \"#utility.yul\":41832:41834   */\n      0x20\n        /* \"#utility.yul\":41821:41830   */\n      dup3\n        /* \"#utility.yul\":41817:41835   */\n      add\n        /* \"#utility.yul\":41809:41835   */\n      swap1\n      pop\n        /* \"#utility.yul\":41881:41890   */\n      dup2\n        /* \"#utility.yul\":41875:41879   */\n      dup2\n        /* \"#utility.yul\":41871:41891   */\n      sub\n        /* \"#utility.yul\":41867:41868   */\n      0x00\n        /* \"#utility.yul\":41856:41865   */\n      dup4\n        /* \"#utility.yul\":41852:41869   */\n      add\n        /* \"#utility.yul\":41845:41892   */\n      mstore\n        /* \"#utility.yul\":41909:42040   */\n      tag_815\n        /* \"#utility.yul\":42035:42039   */\n      dup2\n        /* \"#utility.yul\":41909:42040   */\n      tag_458\n      jump\t// in\n    tag_815:\n        /* \"#utility.yul\":41901:42040   */\n      swap1\n      pop\n        /* \"#utility.yul\":41628:42047   */\n      swap2\n      swap1\n      pop\n      jump\t// out\n        /* \"#utility.yul\":42053:42194   */\n    tag_459:\n        /* \"#utility.yul\":42102:42106   */\n      0x00\n        /* \"#utility.yul\":42125:42128   */\n      dup2\n        /* \"#utility.yul\":42117:42128   */\n      swap1\n      pop\n        /* \"#utility.yul\":42148:42151   */\n      dup2\n        /* \"#utility.yul\":42145:42146   */\n      0x00\n        /* \"#utility.yul\":42138:42152   */\n      mstore\n        /* \"#utility.yul\":42182:42186   */\n      0x20\n        /* \"#utility.yul\":42179:42180   */\n      0x00\n        /* \"#utility.yul\":42169:42187   */\n      keccak256\n        /* \"#utility.yul\":42161:42187   */\n      swap1\n      pop\n        /* \"#utility.yul\":42053:42194   */\n      swap2\n      swap1\n      pop\n      jump\t// out\n        /* \"#utility.yul\":42200:42293   */\n    tag_460:\n        /* \"#utility.yul\":42237:42243   */\n      0x00\n        /* \"#utility.yul\":42284:42286   */\n      0x20\n        /* \"#utility.yul\":42279:42281   */\n      0x1f\n        /* \"#utility.yul\":42272:42277   */\n      dup4\n        /* \"#utility.yul\":42268:42282   */\n      add\n        /* \"#utility.yul\":42264:42287   */\n      div\n        /* \"#utility.yul\":42254:42287   */\n      swap1\n      pop\n        /* \"#utility.yul\":42200:42293   */\n      swap2\n      swap1\n      pop\n      jump\t// out\n        /* \"#utility.yul\":42299:42406   */\n    tag_461:\n        /* \"#utility.yul\":42343:42351   */\n      0x00\n        /* \"#utility.yul\":42393:42398   */\n      dup3\n        /* \"#utility.yul\":42387:42391   */\n      dup3\n        /* \"#utility.yul\":42383:42399   */\n      shl\n        /* \"#utility.yul\":42362:42399   */\n      swap1\n      pop\n        /* \"#utility.yul\":42299:42406   */\n      swap3\n      swap2\n      pop\n      pop\n      jump\t// out\n        /* \"#utility.yul\":42412:42805   */\n    tag_462:\n        /* \"#utility.yul\":42481:42487   */\n      0x00\n        /* \"#utility.yul\":42531:42532   */\n      0x08\n        /* \"#utility.yul\":42519:42529   */\n      dup4\n        /* \"#utility.yul\":42515:42533   */\n      mul\n        /* \"#utility.yul\":42554:42651   */\n      tag_820\n        /* \"#utility.yul\":42584:42650   */\n      0xffffffffffffffffffffffffffffffffffffffffffffffffffffffffffffffff\n        /* \"#utility.yul\":42573:42582   */\n      dup3\n        /* \"#utility.yul\":42554:42651   */\n      tag_461\n      jump\t// in\n    tag_820:\n        /* \"#utility.yul\":42672:42711   */\n      tag_821\n        /* \"#utility.yul\":42702:42710   */\n      dup7\n        /* \"#utility.yul\":42691:42700   */\n      dup4\n        /* \"#utility.yul\":42672:42711   */\n      tag_461\n      jump\t// in\n    tag_821:\n        /* \"#utility.yul\":42660:42711   */\n      swap6\n      pop\n        /* \"#utility.yul\":42744:42748   */\n      dup1\n        /* \"#utility.yul\":42740:42749   */\n      not\n        /* \"#utility.yul\":42733:42738   */\n      dup5\n        /* \"#utility.yul\":42729:42750   */\n      and\n        /* \"#utility.yul\":42720:42750   */\n      swap4\n      pop\n        /* \"#utility.yul\":42793:42797   */\n      dup1\n        /* \"#utility.yul\":42783:42791   */\n      dup7\n        /* \"#utility.yul\":42779:42798   */\n      and\n        /* \"#utility.yul\":42772:42777   */\n      dup5\n        /* \"#utility.yul\":42769:42799   */\n      or\n        /* \"#utility.yul\":42759:42799   */\n      swap3\n      pop\n        /* \"#utility.yul\":42488:42805   */\n      pop\n      pop\n        /* \"#utility.yul\":42412:42805   */\n      swap4\n      swap3\n      pop\n      pop\n      pop\n      jump\t// out\n        /* \"#utility.yul\":42811:42871   */\n    tag_463:\n        /* \"#utility.yul\":42839:42842   */\n      0x00\n        /* \"#utility.yul\":42860:42865   */\n      dup2\n        /* \"#utility.yul\":42853:42865   */\n      swap1\n      pop\n        /* \"#utility.yul\":42811:42871   */\n      swap2\n      swap1\n      pop\n      jump\t// out\n        /* \"#utility.yul\":42877:43019   */\n    tag_464:\n        /* \"#utility.yul\":42927:42936   */\n      0x00\n        /* \"#utility.yul\":42960:43013   */\n      tag_824\n        /* \"#utility.yul\":42978:43012   */\n      tag_825\n        /* \"#utility.yul\":42987:43011   */\n      tag_826\n        /* \"#utility.yul\":43005:43010   */\n      dup5\n        /* \"#utility.yul\":42987:43011   */\n      tag_394\n      jump\t// in\n    tag_826:\n        /* \"#utility.yul\":42978:43012   */\n      tag_463\n      jump\t// in\n    tag_825:\n        /* \"#utility.yul\":42960:43013   */\n      tag_394\n      jump\t// in\n    tag_824:\n        /* \"#utility.yul\":42947:43013   */\n      swap1\n      pop\n        /* \"#utility.yul\":42877:43019   */\n      swap2\n      swap1\n      pop\n      jump\t// out\n        /* \"#utility.yul\":43025:43100   */\n    tag_465:\n        /* \"#utility.yul\":43068:43071   */\n      0x00\n        /* \"#utility.yul\":43089:43094   */\n      dup2\n        /* \"#utility.yul\":43082:43094   */\n      swap1\n      pop\n        /* \"#utility.yul\":43025:43100   */\n      swap2\n      swap1\n      pop\n      jump\t// out\n        /* \"#utility.yul\":43106:43375   */\n    tag_466:\n        /* \"#utility.yul\":43216:43255   */\n      tag_829\n        /* \"#utility.yul\":43247:43254   */\n      dup4\n        /* \"#utility.yul\":43216:43255   */\n      tag_464\n      jump\t// in\n    tag_829:\n        /* \"#utility.yul\":43277:43368   */\n      tag_830\n        /* \"#utility.yul\":43326:43367   */\n      tag_831\n        /* \"#utility.yul\":43350:43366   */\n      dup3\n        /* \"#utility.yul\":43326:43367   */\n      tag_465\n      jump\t// in\n    tag_831:\n        /* \"#utility.yul\":43318:43324   */\n      dup5\n        /* \"#utility.yul\":43311:43315   */\n      dup5\n        /* \"#utility.yul\":43305:43316   */\n      sload\n        /* \"#utility.yul\":43277:43368   */\n      tag_462\n      jump\t// in\n    tag_830:\n        /* \"#utility.yul\":43271:43275   */\n      dup3\n        /* \"#utility.yul\":43264:43369   */\n      sstore\n        /* \"#utility.yul\":43182:43375   */\n      pop\n        /* \"#utility.yul\":43106:43375   */\n      pop\n      pop\n      pop\n      jump\t// out\n        /* \"#utility.yul\":43381:43454   */\n    tag_467:\n        /* \"#utility.yul\":43426:43429   */\n      0x00\n        /* \"#utility.yul\":43381:43454   */\n      swap1\n      jump\t// out\n        /* \"#utility.yul\":43460:43649   */\n    tag_468:\n        /* \"#utility.yul\":43537:43569   */\n      tag_834\n      tag_467\n      jump\t// in\n    tag_834:\n        /* \"#utility.yul\":43578:43643   */\n      tag_835\n        /* \"#utility.yul\":43636:43642   */\n      dup2\n        /* \"#utility.yul\":43628:43634   */\n      dup5\n        /* \"#utility.yul\":43622:43626   */\n      dup5\n        /* \"#utility.yul\":43578:43643   */\n      tag_466\n      jump\t// in\n    tag_835:\n        /* \"#utility.yul\":43513:43649   */\n      pop\n        /* \"#utility.yul\":43460:43649   */\n      pop\n      pop\n      jump\t// out\n        /* \"#utility.yul\":43655:43841   */\n    tag_469:\n        /* \"#utility.yul\":43715:43835   */\n    tag_837:\n        /* \"#utility.yul\":43732:43735   */\n      dup2\n        /* \"#utility.yul\":43725:43730   */\n      dup2\n        /* \"#utility.yul\":43722:43736   */\n      lt\n        /* \"#utility.yul\":43715:43835   */\n      iszero\n      tag_839\n      jumpi\n        /* \"#utility.yul\":43786:43825   */\n      tag_840\n        /* \"#utility.yul\":43823:43824   */\n      0x00\n        /* \"#utility.yul\":43816:43821   */\n      dup3\n        /* \"#utility.yul\":43786:43825   */\n      tag_468\n      jump\t// in\n    tag_840:\n        /* \"#utility.yul\":43759:43760   */\n      0x01\n        /* \"#utility.yul\":43752:43757   */\n      dup2\n        /* \"#utility.yul\":43748:43761   */\n      add\n        /* \"#utility.yul\":43739:43761   */\n      swap1\n      pop\n        /* \"#utility.yul\":43715:43835   */\n      jump(tag_837)\n    tag_839:\n        /* \"#utility.yul\":43655:43841   */\n      pop\n      pop\n      jump\t// out\n        /* \"#utility.yul\":43847:44390   */\n    tag_470:\n        /* \"#utility.yul\":43948:43950   */\n      0x1f\n        /* \"#utility.yul\":43943:43946   */\n      dup3\n        /* \"#utility.yul\":43940:43951   */\n      gt\n        /* \"#utility.yul\":43937:44383   */\n      iszero\n      tag_842\n      jumpi\n        /* \"#utility.yul\":43982:44020   */\n      tag_843\n        /* \"#utility.yul\":44014:44019   */\n      dup2\n        /* \"#utility.yul\":43982:44020   */\n      tag_459\n      jump\t// in\n    tag_843:\n        /* \"#utility.yul\":44066:44095   */\n      tag_844\n        /* \"#utility.yul\":44084:44094   */\n      dup5\n        /* \"#utility.yul\":44066:44095   */\n      tag_460\n      jump\t// in\n    tag_844:\n        /* \"#utility.yul\":44056:44064   */\n      dup2\n        /* \"#utility.yul\":44052:44096   */\n      add\n        /* \"#utility.yul\":44249:44251   */\n      0x20\n        /* \"#utility.yul\":44237:44247   */\n      dup6\n        /* \"#utility.yul\":44234:44252   */\n      lt\n        /* \"#utility.yul\":44231:44280   */\n      iszero\n      tag_845\n      jumpi\n        /* \"#utility.yul\":44270:44278   */\n      dup2\n        /* \"#utility.yul\":44255:44278   */\n      swap1\n      pop\n        /* \"#utility.yul\":44231:44280   */\n    tag_845:\n        /* \"#utility.yul\":44293:44373   */\n      tag_846\n        /* \"#utility.yul\":44349:44371   */\n      tag_847\n        /* \"#utility.yul\":44367:44370   */\n      dup6\n        /* \"#utility.yul\":44349:44371   */\n      tag_460\n      jump\t// in\n    tag_847:\n        /* \"#utility.yul\":44339:44347   */\n      dup4\n        /* \"#utility.yul\":44335:44372   */\n      add\n        /* \"#utility.yul\":44322:44333   */\n      dup3\n        /* \"#utility.yul\":44293:44373   */\n      tag_469\n      jump\t// in\n    tag_846:\n        /* \"#utility.yul\":43952:44383   */\n      pop\n      pop\n        /* \"#utility.yul\":43937:44383   */\n    tag_842:\n        /* \"#utility.yul\":43847:44390   */\n      pop\n      pop\n      pop\n      jump\t// out\n        /* \"#utility.yul\":44396:44513   */\n    tag_471:\n        /* \"#utility.yul\":44450:44458   */\n      0x00\n        /* \"#utility.yul\":44500:44505   */\n      dup3\n        /* \"#utility.yul\":44494:44498   */\n      dup3\n        /* \"#utility.yul\":44490:44506   */\n      shr\n        /* \"#utility.yul\":44469:44506   */\n      swap1\n      pop\n        /* \"#utility.yul\":44396:44513   */\n      swap3\n      swap2\n      pop\n      pop\n      jump\t// out\n        /* \"#utility.yul\":44519:44688   */\n    tag_472:\n        /* \"#utility.yul\":44563:44569   */\n      0x00\n        /* \"#utility.yul\":44596:44647   */\n      tag_850\n        /* \"#utility.yul\":44644:44645   */\n      0x00\n        /* \"#utility.yul\":44640:44646   */\n      not\n        /* \"#utility.yul\":44632:44637   */\n      dup5\n        /* \"#utility.yul\":44629:44630   */\n      0x08\n        /* \"#utility.yul\":44625:44638   */\n      mul\n        /* \"#utility.yul\":44596:44647   */\n      tag_471\n      jump\t// in\n    tag_850:\n        /* \"#utility.yul\":44592:44648   */\n      not\n        /* \"#utility.yul\":44677:44681   */\n      dup1\n        /* \"#utility.yul\":44671:44675   */\n      dup4\n        /* \"#utility.yul\":44667:44682   */\n      and\n        /* \"#utility.yul\":44657:44682   */\n      swap2\n      pop\n        /* \"#utility.yul\":44570:44688   */\n      pop\n        /* \"#utility.yul\":44519:44688   */\n      swap3\n      swap2\n      pop\n      pop\n      jump\t// out\n        /* \"#utility.yul\":44693:44988   */\n    tag_473:\n        /* \"#utility.yul\":44769:44773   */\n      0x00\n        /* \"#utility.yul\":44915:44944   */\n      tag_852\n        /* \"#utility.yul\":44940:44943   */\n      dup4\n        /* \"#utility.yul\":44934:44938   */\n      dup4\n        /* \"#utility.yul\":44915:44944   */\n      tag_472\n      jump\t// in\n    tag_852:\n        /* \"#utility.yul\":44907:44944   */\n      swap2\n      pop\n        /* \"#utility.yul\":44977:44980   */\n      dup3\n        /* \"#utility.yul\":44974:44975   */\n      0x02\n        /* \"#utility.yul\":44970:44981   */\n      mul\n        /* \"#utility.yul\":44964:44968   */\n      dup3\n        /* \"#utility.yul\":44961:44982   */\n      or\n        /* \"#utility.yul\":44953:44982   */\n      swap1\n      pop\n        /* \"#utility.yul\":44693:44988   */\n      swap3\n      swap2\n      pop\n      pop\n      jump\t// out\n        /* \"#utility.yul\":44993:46388   */\n    tag_340:\n        /* \"#utility.yul\":45110:45147   */\n      tag_854\n        /* \"#utility.yul\":45143:45146   */\n      dup3\n        /* \"#utility.yul\":45110:45147   */\n      tag_401\n      jump\t// in\n    tag_854:\n        /* \"#utility.yul\":45212:45230   */\n      0xffffffffffffffff\n        /* \"#utility.yul\":45204:45210   */\n      dup2\n        /* \"#utility.yul\":45201:45231   */\n      gt\n        /* \"#utility.yul\":45198:45254   */\n      iszero\n      tag_855\n      jumpi\n        /* \"#utility.yul\":45234:45252   */\n      tag_856\n      tag_219\n      jump\t// in\n    tag_856:\n        /* \"#utility.yul\":45198:45254   */\n    tag_855:\n        /* \"#utility.yul\":45278:45316   */\n      tag_857\n        /* \"#utility.yul\":45310:45314   */\n      dup3\n        /* \"#utility.yul\":45304:45315   */\n      sload\n        /* \"#utility.yul\":45278:45316   */\n      tag_83\n      jump\t// in\n    tag_857:\n        /* \"#utility.yul\":45363:45430   */\n      tag_858\n        /* \"#utility.yul\":45423:45429   */\n      dup3\n        /* \"#utility.yul\":45415:45421   */\n      dup3\n        /* \"#utility.yul\":45409:45413   */\n      dup6\n        /* \"#utility.yul\":45363:45430   */\n      tag_470\n      jump\t// in\n    tag_858:\n        /* \"#utility.yul\":45457:45458   */\n      0x00\n        /* \"#utility.yul\":45481:45485   */\n      0x20\n        /* \"#utility.yul\":45468:45485   */\n      swap1\n      pop\n        /* \"#utility.yul\":45513:45515   */\n      0x1f\n        /* \"#utility.yul\":45505:45511   */\n      dup4\n        /* \"#utility.yul\":45502:45516   */\n      gt\n        /* \"#utility.yul\":45530:45531   */\n      0x01\n        /* \"#utility.yul\":45525:46143   */\n      dup2\n      eq\n      tag_860\n      jumpi\n        /* \"#utility.yul\":46187:46188   */\n      0x00\n        /* \"#utility.yul\":46204:46210   */\n      dup5\n        /* \"#utility.yul\":46201:46278   */\n      iszero\n      tag_861\n      jumpi\n        /* \"#utility.yul\":46253:46262   */\n      dup3\n        /* \"#utility.yul\":46248:46251   */\n      dup8\n        /* \"#utility.yul\":46244:46263   */\n      add\n        /* \"#utility.yul\":46238:46264   */\n      mload\n        /* \"#utility.yul\":46229:46264   */\n      swap1\n      pop\n        /* \"#utility.yul\":46201:46278   */\n    tag_861:\n        /* \"#utility.yul\":46304:46371   */\n      tag_862\n        /* \"#utility.yul\":46364:46370   */\n      dup6\n        /* \"#utility.yul\":46357:46362   */\n      dup3\n        /* \"#utility.yul\":46304:46371   */\n      tag_473\n      jump\t// in\n    tag_862:\n        /* \"#utility.yul\":46298:46302   */\n      dup7\n        /* \"#utility.yul\":46291:46372   */\n      sstore\n        /* \"#utility.yul\":46160:46382   */\n      pop\n        /* \"#utility.yul\":45495:46382   */\n      jump(tag_859)\n        /* \"#utility.yul\":45525:46143   */\n    tag_860:\n        /* \"#utility.yul\":45577:45581   */\n      0x1f\n        /* \"#utility.yul\":45573:45582   */\n      not\n        /* \"#utility.yul\":45565:45571   */\n      dup5\n        /* \"#utility.yul\":45561:45583   */\n      and\n        /* \"#utility.yul\":45611:45648   */\n      tag_863\n        /* \"#utility.yul\":45643:45647   */\n      dup7\n        /* \"#utility.yul\":45611:45648   */\n      tag_459\n      jump\t// in\n    tag_863:\n        /* \"#utility.yul\":45670:45671   */\n      0x00\n        /* \"#utility.yul\":45684:45892   */\n    tag_864:\n        /* \"#utility.yul\":45698:45705   */\n      dup3\n        /* \"#utility.yul\":45695:45696   */\n      dup2\n        /* \"#utility.yul\":45692:45706   */\n      lt\n        /* \"#utility.yul\":45684:45892   */\n      iszero\n      tag_866\n      jumpi\n        /* \"#utility.yul\":45777:45786   */\n      dup5\n        /* \"#utility.yul\":45772:45775   */\n      dup10\n        /* \"#utility.yul\":45768:45787   */\n      add\n        /* \"#utility.yul\":45762:45788   */\n      mload\n        /* \"#utility.yul\":45754:45760   */\n      dup3\n        /* \"#utility.yul\":45747:45789   */\n      sstore\n        /* \"#utility.yul\":45828:45829   */\n      0x01\n        /* \"#utility.yul\":45820:45826   */\n      dup3\n        /* \"#utility.yul\":45816:45830   */\n      add\n        /* \"#utility.yul\":45806:45830   */\n      swap2\n      pop\n        /* \"#utility.yul\":45875:45877   */\n      0x20\n        /* \"#utility.yul\":45864:45873   */\n      dup6\n        /* \"#utility.yul\":45860:45878   */\n      add\n        /* \"#utility.yul\":45847:45878   */\n      swap5\n      pop\n        /* \"#utility.yul\":45721:45725   */\n      0x20\n        /* \"#utility.yul\":45718:45719   */\n      dup2\n        /* \"#utility.yul\":45714:45726   */\n      add\n        /* \"#utility.yul\":45709:45726   */\n      swap1\n      pop\n        /* \"#utility.yul\":45684:45892   */\n      jump(tag_864)\n    tag_866:\n        /* \"#utility.yul\":45920:45926   */\n      dup7\n        /* \"#utility.yul\":45911:45918   */\n      dup4\n        /* \"#utility.yul\":45908:45927   */\n      lt\n        /* \"#utility.yul\":45905:46084   */\n      iszero\n      tag_867\n      jumpi\n        /* \"#utility.yul\":45978:45987   */\n      dup5\n        /* \"#utility.yul\":45973:45976   */\n      dup10\n        /* \"#utility.yul\":45969:45988   */\n      add\n        /* \"#utility.yul\":45963:45989   */\n      mload\n        /* \"#utility.yul\":46021:46069   */\n      tag_868\n        /* \"#utility.yul\":46063:46067   */\n      0x1f\n        /* \"#utility.yul\":46055:46061   */\n      dup10\n        /* \"#utility.yul\":46051:46068   */\n      and\n        /* \"#utility.yul\":46040:46049   */\n      dup3\n        /* \"#utility.yul\":46021:46069   */\n      tag_472\n      jump\t// in\n    tag_868:\n        /* \"#utility.yul\":46013:46019   */\n      dup4\n        /* \"#utility.yul\":46006:46070   */\n      sstore\n        /* \"#utility.yul\":45928:46084   */\n      pop\n        /* \"#utility.yul\":45905:46084   */\n    tag_867:\n        /* \"#utility.yul\":46130:46131   */\n      0x01\n        /* \"#utility.yul\":46126:46127   */\n      0x02\n        /* \"#utility.yul\":46118:46124   */\n      dup9\n        /* \"#utility.yul\":46114:46128   */\n      mul\n        /* \"#utility.yul\":46110:46132   */\n      add\n        /* \"#utility.yul\":46104:46108   */\n      dup9\n        /* \"#utility.yul\":46097:46133   */\n      sstore\n        /* \"#utility.yul\":45532:46143   */\n      pop\n      pop\n      pop\n        /* \"#utility.yul\":45495:46382   */\n    tag_859:\n      pop\n        /* \"#utility.yul\":45085:46388   */\n      pop\n      pop\n      pop\n        /* \"#utility.yul\":44993:46388   */\n      pop\n      pop\n      jump\t// out\n        /* \"#utility.yul\":46394:46804   */\n    tag_369:\n        /* \"#utility.yul\":46434:46441   */\n      0x00\n        /* \"#utility.yul\":46457:46477   */\n      tag_870\n        /* \"#utility.yul\":46475:46476   */\n      dup3\n        /* \"#utility.yul\":46457:46477   */\n      tag_394\n      jump\t// in\n    tag_870:\n        /* \"#utility.yul\":46452:46477   */\n      swap2\n      pop\n        /* \"#utility.yul\":46491:46511   */\n      tag_871\n        /* \"#utility.yul\":46509:46510   */\n      dup4\n        /* \"#utility.yul\":46491:46511   */\n      tag_394\n      jump\t// in\n    tag_871:\n        /* \"#utility.yul\":46486:46511   */\n      swap3\n      pop\n        /* \"#utility.yul\":46546:46547   */\n      dup3\n        /* \"#utility.yul\":46543:46544   */\n      dup3\n        /* \"#utility.yul\":46539:46548   */\n      mul\n        /* \"#utility.yul\":46568:46598   */\n      tag_872\n        /* \"#utility.yul\":46586:46597   */\n      dup2\n        /* \"#utility.yul\":46568:46598   */\n      tag_394\n      jump\t// in\n    tag_872:\n        /* \"#utility.yul\":46557:46598   */\n      swap2\n      pop\n        /* \"#utility.yul\":46747:46748   */\n      dup3\n        /* \"#utility.yul\":46738:46745   */\n      dup3\n        /* \"#utility.yul\":46734:46749   */\n      div\n        /* \"#utility.yul\":46731:46732   */\n      dup5\n        /* \"#utility.yul\":46728:46750   */\n      eq\n        /* \"#utility.yul\":46708:46709   */\n      dup4\n        /* \"#utility.yul\":46701:46710   */\n      iszero\n        /* \"#utility.yul\":46681:46764   */\n      or\n        /* \"#utility.yul\":46658:46797   */\n      tag_873\n      jumpi\n        /* \"#utility.yul\":46777:46795   */\n      tag_874\n      tag_452\n      jump\t// in\n    tag_874:\n        /* \"#utility.yul\":46658:46797   */\n    tag_873:\n        /* \"#utility.yul\":46442:46804   */\n      pop\n        /* \"#utility.yul\":46394:46804   */\n      swap3\n      swap2\n      pop\n      pop\n      jump\t// out\n        /* \"#utility.yul\":46810:46990   */\n    tag_474:\n        /* \"#utility.yul\":46858:46935   */\n      0x4e487b7100000000000000000000000000000000000000000000000000000000\n        /* \"#utility.yul\":46855:46856   */\n      0x00\n        /* \"#utility.yul\":46848:46936   */\n      mstore\n        /* \"#utility.yul\":46955:46959   */\n      0x12\n        /* \"#utility.yul\":46952:46953   */\n      0x04\n        /* \"#utility.yul\":46945:46960   */\n      mstore\n        /* \"#utility.yul\":46979:46983   */\n      0x24\n        /* \"#utility.yul\":46976:46977   */\n      0x00\n        /* \"#utility.yul\":46969:46984   */\n      revert\n        /* \"#utility.yul\":46996:47181   */\n    tag_371:\n        /* \"#utility.yul\":47036:47037   */\n      0x00\n        /* \"#utility.yul\":47053:47073   */\n      tag_877\n        /* \"#utility.yul\":47071:47072   */\n      dup3\n        /* \"#utility.yul\":47053:47073   */\n      tag_394\n      jump\t// in\n    tag_877:\n        /* \"#utility.yul\":47048:47073   */\n      swap2\n      pop\n        /* \"#utility.yul\":47087:47107   */\n      tag_878\n        /* \"#utility.yul\":47105:47106   */\n      dup4\n        /* \"#utility.yul\":47087:47107   */\n      tag_394\n      jump\t// in\n    tag_878:\n        /* \"#utility.yul\":47082:47107   */\n      swap3\n      pop\n        /* \"#utility.yul\":47126:47127   */\n      dup3\n        /* \"#utility.yul\":47116:47151   */\n      tag_879\n      jumpi\n        /* \"#utility.yul\":47131:47149   */\n      tag_880\n      tag_474\n      jump\t// in\n    tag_880:\n        /* \"#utility.yul\":47116:47151   */\n    tag_879:\n        /* \"#utility.yul\":47173:47174   */\n      dup3\n        /* \"#utility.yul\":47170:47171   */\n      dup3\n        /* \"#utility.yul\":47166:47175   */\n      div\n        /* \"#utility.yul\":47161:47175   */\n      swap1\n      pop\n        /* \"#utility.yul\":46996:47181   */\n      swap3\n      swap2\n      pop\n      pop\n      jump\t// out\n        /* \"#utility.yul\":47187:47292   */\n    tag_475:\n        /* \"#utility.yul\":47223:47230   */\n      0x00\n        /* \"#utility.yul\":47263:47285   */\n      0xffffffffffffffffffff\n        /* \"#utility.yul\":47256:47261   */\n      dup3\n        /* \"#utility.yul\":47252:47286   */\n      and\n        /* \"#utility.yul\":47241:47286   */\n      swap1\n      pop\n        /* \"#utility.yul\":47187:47292   */\n      swap2\n      swap1\n      pop\n      jump\t// out\n        /* \"#utility.yul\":47298:47418   */\n    tag_476:\n        /* \"#utility.yul\":47370:47393   */\n      tag_883\n        /* \"#utility.yul\":47387:47392   */\n      dup2\n        /* \"#utility.yul\":47370:47393   */\n      tag_475\n      jump\t// in\n    tag_883:\n        /* \"#utility.yul\":47363:47368   */\n      dup2\n        /* \"#utility.yul\":47360:47394   */\n      eq\n        /* \"#utility.yul\":47350:47412   */\n      tag_884\n      jumpi\n        /* \"#utility.yul\":47408:47409   */\n      0x00\n        /* \"#utility.yul\":47405:47406   */\n      dup1\n        /* \"#utility.yul\":47398:47410   */\n      revert\n        /* \"#utility.yul\":47350:47412   */\n    tag_884:\n        /* \"#utility.yul\":47298:47418   */\n      pop\n      jump\t// out\n        /* \"#utility.yul\":47424:47565   */\n    tag_477:\n        /* \"#utility.yul\":47480:47485   */\n      0x00\n        /* \"#utility.yul\":47511:47517   */\n      dup2\n        /* \"#utility.yul\":47505:47518   */\n      mload\n        /* \"#utility.yul\":47496:47518   */\n      swap1\n      pop\n        /* \"#utility.yul\":47527:47559   */\n      tag_886\n        /* \"#utility.yul\":47553:47558   */\n      dup2\n        /* \"#utility.yul\":47527:47559   */\n      tag_476\n      jump\t// in\n    tag_886:\n        /* \"#utility.yul\":47424:47565   */\n      swap3\n      swap2\n      pop\n      pop\n      jump\t// out\n        /* \"#utility.yul\":47571:47647   */\n    tag_478:\n        /* \"#utility.yul\":47607:47614   */\n      0x00\n        /* \"#utility.yul\":47636:47641   */\n      dup2\n        /* \"#utility.yul\":47625:47641   */\n      swap1\n      pop\n        /* \"#utility.yul\":47571:47647   */\n      swap2\n      swap1\n      pop\n      jump\t// out\n        /* \"#utility.yul\":47653:47773   */\n    tag_479:\n        /* \"#utility.yul\":47725:47748   */\n      tag_889\n        /* \"#utility.yul\":47742:47747   */\n      dup2\n        /* \"#utility.yul\":47725:47748   */\n      tag_478\n      jump\t// in\n    tag_889:\n        /* \"#utility.yul\":47718:47723   */\n      dup2\n        /* \"#utility.yul\":47715:47749   */\n      eq\n        /* \"#utility.yul\":47705:47767   */\n      tag_890\n      jumpi\n        /* \"#utility.yul\":47763:47764   */\n      0x00\n        /* \"#utility.yul\":47760:47761   */\n      dup1\n        /* \"#utility.yul\":47753:47765   */\n      revert\n        /* \"#utility.yul\":47705:47767   */\n    tag_890:\n        /* \"#utility.yul\":47653:47773   */\n      pop\n      jump\t// out\n        /* \"#utility.yul\":47779:47920   */\n    tag_480:\n        /* \"#utility.yul\":47835:47840   */\n      0x00\n        /* \"#utility.yul\":47866:47872   */\n      dup2\n        /* \"#utility.yul\":47860:47873   */\n      mload\n        /* \"#utility.yul\":47851:47873   */\n      swap1\n      pop\n        /* \"#utility.yul\":47882:47914   */\n      tag_892\n        /* \"#utility.yul\":47908:47913   */\n      dup2\n        /* \"#utility.yul\":47882:47914   */\n      tag_479\n      jump\t// in\n    tag_892:\n        /* \"#utility.yul\":47779:47920   */\n      swap3\n      swap2\n      pop\n      pop\n      jump\t// out\n        /* \"#utility.yul\":47926:48069   */\n    tag_481:\n        /* \"#utility.yul\":47983:47988   */\n      0x00\n        /* \"#utility.yul\":48014:48020   */\n      dup2\n        /* \"#utility.yul\":48008:48021   */\n      mload\n        /* \"#utility.yul\":47999:48021   */\n      swap1\n      pop\n        /* \"#utility.yul\":48030:48063   */\n      tag_894\n        /* \"#utility.yul\":48057:48062   */\n      dup2\n        /* \"#utility.yul\":48030:48063   */\n      tag_395\n      jump\t// in\n    tag_894:\n        /* \"#utility.yul\":47926:48069   */\n      swap3\n      swap2\n      pop\n      pop\n      jump\t// out\n        /* \"#utility.yul\":48075:49046   */\n    tag_378:\n        /* \"#utility.yul\":48178:48184   */\n      0x00\n        /* \"#utility.yul\":48186:48192   */\n      dup1\n        /* \"#utility.yul\":48194:48200   */\n      0x00\n        /* \"#utility.yul\":48202:48208   */\n      dup1\n        /* \"#utility.yul\":48210:48216   */\n      0x00\n        /* \"#utility.yul\":48259:48262   */\n      0xa0\n        /* \"#utility.yul\":48247:48256   */\n      dup7\n        /* \"#utility.yul\":48238:48245   */\n      dup9\n        /* \"#utility.yul\":48234:48257   */\n      sub\n        /* \"#utility.yul\":48230:48263   */\n      slt\n        /* \"#utility.yul\":48227:48347   */\n      iszero\n      tag_896\n      jumpi\n        /* \"#utility.yul\":48266:48345   */\n      tag_897\n      tag_392\n      jump\t// in\n    tag_897:\n        /* \"#utility.yul\":48227:48347   */\n    tag_896:\n        /* \"#utility.yul\":48386:48387   */\n      0x00\n        /* \"#utility.yul\":48411:48474   */\n      tag_898\n        /* \"#utility.yul\":48466:48473   */\n      dup9\n        /* \"#utility.yul\":48457:48463   */\n      dup3\n        /* \"#utility.yul\":48446:48455   */\n      dup10\n        /* \"#utility.yul\":48442:48464   */\n      add\n        /* \"#utility.yul\":48411:48474   */\n      tag_477\n      jump\t// in\n    tag_898:\n        /* \"#utility.yul\":48401:48474   */\n      swap6\n      pop\n        /* \"#utility.yul\":48357:48484   */\n      pop\n        /* \"#utility.yul\":48523:48525   */\n      0x20\n        /* \"#utility.yul\":48549:48612   */\n      tag_899\n        /* \"#utility.yul\":48604:48611   */\n      dup9\n        /* \"#utility.yul\":48595:48601   */\n      dup3\n        /* \"#utility.yul\":48584:48593   */\n      dup10\n        /* \"#utility.yul\":48580:48602   */\n      add\n        /* \"#utility.yul\":48549:48612   */\n      tag_480\n      jump\t// in\n    tag_899:\n        /* \"#utility.yul\":48539:48612   */\n      swap5\n      pop\n        /* \"#utility.yul\":48494:48622   */\n      pop\n        /* \"#utility.yul\":48661:48663   */\n      0x40\n        /* \"#utility.yul\":48687:48751   */\n      tag_900\n        /* \"#utility.yul\":48743:48750   */\n      dup9\n        /* \"#utility.yul\":48734:48740   */\n      dup3\n        /* \"#utility.yul\":48723:48732   */\n      dup10\n        /* \"#utility.yul\":48719:48741   */\n      add\n        /* \"#utility.yul\":48687:48751   */\n      tag_481\n      jump\t// in\n    tag_900:\n        /* \"#utility.yul\":48677:48751   */\n      swap4\n      pop\n        /* \"#utility.yul\":48632:48761   */\n      pop\n        /* \"#utility.yul\":48800:48802   */\n      0x60\n        /* \"#utility.yul\":48826:48890   */\n      tag_901\n        /* \"#utility.yul\":48882:48889   */\n      dup9\n        /* \"#utility.yul\":48873:48879   */\n      dup3\n        /* \"#utility.yul\":48862:48871   */\n      dup10\n        /* \"#utility.yul\":48858:48880   */\n      add\n        /* \"#utility.yul\":48826:48890   */\n      tag_481\n      jump\t// in\n    tag_901:\n        /* \"#utility.yul\":48816:48890   */\n      swap3\n      pop\n        /* \"#utility.yul\":48771:48900   */\n      pop\n        /* \"#utility.yul\":48939:48942   */\n      0x80\n        /* \"#utility.yul\":48966:49029   */\n      tag_902\n        /* \"#utility.yul\":49021:49028   */\n      dup9\n        /* \"#utility.yul\":49012:49018   */\n      dup3\n        /* \"#utility.yul\":49001:49010   */\n      dup10\n        /* \"#utility.yul\":48997:49019   */\n      add\n        /* \"#utility.yul\":48966:49029   */\n      tag_477\n      jump\t// in\n    tag_902:\n        /* \"#utility.yul\":48956:49029   */\n      swap2\n      pop\n        /* \"#utility.yul\":48910:49039   */\n      pop\n        /* \"#utility.yul\":48075:49046   */\n      swap3\n      swap6\n      pop\n      swap3\n      swap6\n      swap1\n      swap4\n      pop\n      jump\t// out\n        /* \"#utility.yul\":49052:49608   */\n    tag_380:\n        /* \"#utility.yul\":49091:49098   */\n      0x00\n        /* \"#utility.yul\":49114:49133   */\n      tag_904\n        /* \"#utility.yul\":49131:49132   */\n      dup3\n        /* \"#utility.yul\":49114:49133   */\n      tag_478\n      jump\t// in\n    tag_904:\n        /* \"#utility.yul\":49109:49133   */\n      swap2\n      pop\n        /* \"#utility.yul\":49147:49166   */\n      tag_905\n        /* \"#utility.yul\":49164:49165   */\n      dup4\n        /* \"#utility.yul\":49147:49166   */\n      tag_478\n      jump\t// in\n    tag_905:\n        /* \"#utility.yul\":49142:49166   */\n      swap3\n      pop\n        /* \"#utility.yul\":49201:49202   */\n      dup3\n        /* \"#utility.yul\":49198:49199   */\n      dup3\n        /* \"#utility.yul\":49194:49203   */\n      mul\n        /* \"#utility.yul\":49223:49252   */\n      tag_906\n        /* \"#utility.yul\":49240:49251   */\n      dup2\n        /* \"#utility.yul\":49223:49252   */\n      tag_478\n      jump\t// in\n    tag_906:\n        /* \"#utility.yul\":49212:49252   */\n      swap2\n      pop\n        /* \"#utility.yul\":49310:49376   */\n      0x8000000000000000000000000000000000000000000000000000000000000000\n        /* \"#utility.yul\":49307:49308   */\n      dup5\n        /* \"#utility.yul\":49304:49377   */\n      eq\n        /* \"#utility.yul\":49300:49301   */\n      0x00\n        /* \"#utility.yul\":49297:49298   */\n      dup5\n        /* \"#utility.yul\":49293:49302   */\n      slt\n        /* \"#utility.yul\":49289:49378   */\n      and\n        /* \"#utility.yul\":49286:49401   */\n      iszero\n      tag_907\n      jumpi\n        /* \"#utility.yul\":49381:49399   */\n      tag_908\n      tag_452\n      jump\t// in\n    tag_908:\n        /* \"#utility.yul\":49286:49401   */\n    tag_907:\n        /* \"#utility.yul\":49551:49552   */\n      dup3\n        /* \"#utility.yul\":49542:49549   */\n      dup3\n        /* \"#utility.yul\":49537:49553   */\n      sdiv\n        /* \"#utility.yul\":49534:49535   */\n      dup5\n        /* \"#utility.yul\":49531:49554   */\n      eq\n        /* \"#utility.yul\":49511:49512   */\n      dup4\n        /* \"#utility.yul\":49504:49513   */\n      iszero\n        /* \"#utility.yul\":49484:49568   */\n      or\n        /* \"#utility.yul\":49461:49601   */\n      tag_909\n      jumpi\n        /* \"#utility.yul\":49581:49599   */\n      tag_910\n      tag_452\n      jump\t// in\n    tag_910:\n        /* \"#utility.yul\":49461:49601   */\n    tag_909:\n        /* \"#utility.yul\":49099:49608   */\n      pop\n        /* \"#utility.yul\":49052:49608   */\n      swap3\n      swap2\n      pop\n      pop\n      jump\t// out\n\n    auxdata: 0xa2646970667358221220461ded86b6181f12b7137f13982fc8c6806ecb2ffe4a0df38b3c3abbc7c2b7b364736f6c63430008120033\n}\n",
				"bytecode": {
					"linkReferences": {},
					"object": "6080604052600060015534801561001557600080fd5b50613fcb806100256000396000f3fe6080604052600436106100c25760003560e01c806363a242a61161007f578063afda593311610059578063afda59331461027f578063c31e3a0a146102bc578063c91a5172146102d8578063dd12d0b914610301576100c2565b806363a242a6146101da5780636d618d0f146102175780637a8b9fb414610242576100c2565b806303988f84146100c75780630c37d69b1461010b5780631f801c0e146101485780632888783e14610171578063329e1ed2146101885780634a99b536146101b1575b600080fd5b3480156100d357600080fd5b506100ee60048036038101906100e9919061273b565b61032c565b604051610102989796959493929190612c2e565b60405180910390f35b34801561011757600080fd5b50610132600480360381019061012d919061273b565b610fca565b60405161013f9190612cba565b60405180910390f35b34801561015457600080fd5b5061016f600480360381019061016a9190612ec0565b610fdc565b005b34801561017d57600080fd5b50610186610fdf565b005b34801561019457600080fd5b506101af60048036038101906101aa919061273b565b610fe1565b005b3480156101bd57600080fd5b506101d860048036038101906101d39190612f09565b6110c5565b005b3480156101e657600080fd5b5061020160048036038101906101fc919061273b565b6112ae565b60405161020e9190612cba565b60405180910390f35b34801561022357600080fd5b5061022c6112c4565b6040516102399190613094565b60405180910390f35b34801561024e57600080fd5b506102696004803603810190610264919061273b565b61161e565b604051610276919061310d565b60405180910390f35b34801561028b57600080fd5b506102a660048036038101906102a1919061273b565b611b08565b6040516102b3919061312f565b60405180910390f35b6102d660048036038101906102d19190613371565b611edf565b005b3480156102e457600080fd5b506102ff60048036038101906102fa9190613765565b6121cb565b005b34801561030d57600080fd5b50610316612470565b6040516103239190612cba565b60405180910390f35b60006020528060005260406000206000915090508060000154908060010160009054906101000a900473ffffffffffffffffffffffffffffffffffffffff1690806002016040518060c00160405290816000820160405180606001604052908160008201805461039b906137dd565b80601f01602080910402602001604051908101604052809291908181526020018280546103c7906137dd565b80156104145780601f106103e957610100808354040283529160200191610414565b820191906000526020600020905b8154815290600101906020018083116103f757829003601f168201915b5050505050815260200160018201805461042d906137dd565b80601f0160208091040260200160405190810160405280929190818152602001828054610459906137dd565b80156104a65780601f1061047b576101008083540402835291602001916104a6565b820191906000526020600020905b81548152906001019060200180831161048957829003601f168201915b505050505081526020016002820180546104bf906137dd565b80601f01602080910402602001604051908101604052809291908181526020018280546104eb906137dd565b80156105385780601f1061050d57610100808354040283529160200191610538565b820191906000526020600020905b81548152906001019060200180831161051b57829003601f168201915b5050505050815250508152602001600382016040518060800160405290816000820154815260200160018201548152602001600282018054610579906137dd565b80601f01602080910402602001604051908101604052809291908181526020018280546105a5906137dd565b80156105f25780601f106105c7576101008083540402835291602001916105f2565b820191906000526020600020905b8154815290600101906020018083116105d557829003601f168201915b5050505050815260200160038201805461060b906137dd565b80601f0160208091040260200160405190810160405280929190818152602001828054610637906137dd565b80156106845780601f1061065957610100808354040283529160200191610684565b820191906000526020600020905b81548152906001019060200180831161066757829003601f168201915b50505050508152505081526020016007820180546106a1906137dd565b80601f01602080910402602001604051908101604052809291908181526020018280546106cd906137dd565b801561071a5780601f106106ef5761010080835404028352916020019161071a565b820191906000526020600020905b8154815290600101906020018083116106fd57829003601f168201915b505050505081526020016008820160405180610120016040529081600082018054610744906137dd565b80601f0160208091040260200160405190810160405280929190818152602001828054610770906137dd565b80156107bd5780601f10610792576101008083540402835291602001916107bd565b820191906000526020600020905b8154815290600101906020018083116107a057829003601f168201915b50505050508152602001600182015481526020016002820180546107e0906137dd565b80601f016020809104026020016040519081016040528092919081815260200182805461080c906137dd565b80156108595780601f1061082e57610100808354040283529160200191610859565b820191906000526020600020905b81548152906001019060200180831161083c57829003601f168201915b50505050508152602001600382018054610872906137dd565b80601f016020809104026020016040519081016040528092919081815260200182805461089e906137dd565b80156108eb5780601f106108c0576101008083540402835291602001916108eb565b820191906000526020600020905b8154815290600101906020018083116108ce57829003601f168201915b50505050508152602001600482018054610904906137dd565b80601f0160208091040260200160405190810160405280929190818152602001828054610930906137dd565b801561097d5780601f106109525761010080835404028352916020019161097d565b820191906000526020600020905b81548152906001019060200180831161096057829003601f168201915b5050505050815260200160058201548152602001600682015481526020016007820160405180608001604052908160008201548152602001600182015481526020016002820180546109ce906137dd565b80601f01602080910402602001604051908101604052809291908181526020018280546109fa906137dd565b8015610a475780601f10610a1c57610100808354040283529160200191610a47565b820191906000526020600020905b815481529060010190602001808311610a2a57829003601f168201915b50505050508152602001600382018054610a60906137dd565b80601f0160208091040260200160405190810160405280929190818152602001828054610a8c906137dd565b8015610ad95780601f10610aae57610100808354040283529160200191610ad9565b820191906000526020600020905b815481529060010190602001808311610abc57829003601f168201915b5050505050815250508152602001600b82016040518060400160405290816000820154815260200160018201548152505081525050815260200160158201548152602001601682018054610b2c906137dd565b80601f0160208091040260200160405190810160405280929190818152602001828054610b58906137dd565b8015610ba55780601f10610b7a57610100808354040283529160200191610ba5565b820191906000526020600020905b815481529060010190602001808311610b8857829003601f168201915b505050505081525050908060190160009054906101000a900473ffffffffffffffffffffffffffffffffffffffff169080601a0160405180606001604052908160008201604051806060016040529081600082018054610c04906137dd565b80601f0160208091040260200160405190810160405280929190818152602001828054610c30906137dd565b8015610c7d5780601f10610c5257610100808354040283529160200191610c7d565b820191906000526020600020905b815481529060010190602001808311610c6057829003601f168201915b50505050508152602001600182018054610c96906137dd565b80601f0160208091040260200160405190810160405280929190818152602001828054610cc2906137dd565b8015610d0f5780601f10610ce457610100808354040283529160200191610d0f565b820191906000526020600020905b815481529060010190602001808311610cf257829003601f168201915b50505050508152602001600282018054610d28906137dd565b80601f0160208091040260200160405190810160405280929190818152602001828054610d54906137dd565b8015610da15780601f10610d7657610100808354040283529160200191610da1565b820191906000526020600020905b815481529060010190602001808311610d8457829003601f168201915b5050505050815250508152602001600382016040518060800160405290816000820154815260200160018201548152602001600282018054610de2906137dd565b80601f0160208091040260200160405190810160405280929190818152602001828054610e0e906137dd565b8015610e5b5780601f10610e3057610100808354040283529160200191610e5b565b820191906000526020600020905b815481529060010190602001808311610e3e57829003601f168201915b50505050508152602001600382018054610e74906137dd565b80601f0160208091040260200160405190810160405280929190818152602001828054610ea0906137dd565b8015610eed5780601f10610ec257610100808354040283529160200191610eed565b820191906000526020600020905b815481529060010190602001808311610ed057829003601f168201915b5050505050815250508152602001600782018054610f0a906137dd565b80601f0160208091040260200160405190810160405280929190818152602001828054610f36906137dd565b8015610f835780601f10610f5857610100808354040283529160200191610f83565b820191906000526020600020905b815481529060010190602001808311610f6657829003601f168201915b505050505081525050908060220160009054906101000a900460ff16908060220160019054906101000a900460ff16908060220160029054906101000a900460ff16905088565b6000610fd582612476565b9050919050565b50565b565b3373ffffffffffffffffffffffffffffffffffffffff1660008083815260200190815260200160002060010160009054906101000a900473ffffffffffffffffffffffffffffffffffffffff1673ffffffffffffffffffffffffffffffffffffffff1614611084576040517f08c379a000000000000000000000000000000000000000000000000000000000815260040161107b90613891565b60405180910390fd5b600260008083815260200190815260200160002060220160006101000a81548160ff021916908360028111156110bd576110bc612b9c565b5b021790555050565b6000806000848152602001908152602001600020905081801561113757508060010160009054906101000a900473ffffffffffffffffffffffffffffffffffffffff1673ffffffffffffffffffffffffffffffffffffffff163373ffffffffffffffffffffffffffffffffffffffff16145b1561115e5760018160220160016101000a81548160ff0219169083151502179055506111df565b811580156111bb57508060190160009054906101000a900473ffffffffffffffffffffffffffffffffffffffff1673ffffffffffffffffffffffffffffffffffffffff163373ffffffffffffffffffffffffffffffffffffffff16145b156111de5760018160220160026101000a81548160ff0219169083151502179055505b5b8060220160019054906101000a900460ff16801561120b57508060220160029054906101000a900460ff165b156112a9578060010160009054906101000a900473ffffffffffffffffffffffffffffffffffffffff1673ffffffffffffffffffffffffffffffffffffffff166108fc479081150290604051600060405180830381858888f1935050505015801561127a573d6000803e3d6000fd5b5060028160220160006101000a81548160ff021916908360028111156112a3576112a2612b9c565b5b02179055505b505050565b60006064826112bd91906138e0565b9050919050565b60606000805b60015481101561134557600060028111156112e8576112e7612b9c565b5b60008083815260200190815260200160002060220160009054906101000a900460ff16600281111561131d5761131c612b9c565b5b036113325760018261132f91906138e0565b91505b808061133d90613914565b9150506112ca565b5060008167ffffffffffffffff81111561136257611361612cda565b5b60405190808252806020026020018201604052801561139b57816020015b611388612584565b8152602001906001900390816113805790505b5090506000805b60015481101561161457600060028111156113c0576113bf612b9c565b5b60008083815260200190815260200160002060220160009054906101000a900460ff1660028111156113f5576113f4612b9c565b5b0361160157600080828152602001908152602001600020600001548383815181106114235761142261395c565b5b602002602001015160000181815250506000808281526020019081526020016000206002016008016000018054611459906137dd565b80601f0160208091040260200160405190810160405280929190818152602001828054611485906137dd565b80156114d25780601f106114a7576101008083540402835291602001916114d2565b820191906000526020600020905b8154815290600101906020018083116114b557829003601f168201915b50505050508383815181106114ea576114e961395c565b5b602002602001015160200181905250600080828152602001908152602001600020600201600801600101548383815181106115285761152761395c565b5b60200260200101516040018181525050600080828152602001908152602001600020600201600801600501548383815181106115675761156661395c565b5b60200260200101516060018181525050600080828152602001908152602001600020600201600801600601548383815181106115a6576115a561395c565b5b60200260200101516080018181525050600080828152602001908152602001600020600201601501548383815181106115e2576115e161395c565b5b602002602001015160a001818152505081806115fd90613914565b9250505b808061160c90613914565b9150506113a2565b5081935050505090565b6116266125ba565b61162e6125ba565b60008084815260200190815260200160002060020160080160405180610120016040529081600082018054611662906137dd565b80601f016020809104026020016040519081016040528092919081815260200182805461168e906137dd565b80156116db5780601f106116b0576101008083540402835291602001916116db565b820191906000526020600020905b8154815290600101906020018083116116be57829003601f168201915b50505050508152602001600182015481526020016002820180546116fe906137dd565b80601f016020809104026020016040519081016040528092919081815260200182805461172a906137dd565b80156117775780601f1061174c57610100808354040283529160200191611777565b820191906000526020600020905b81548152906001019060200180831161175a57829003601f168201915b50505050508152602001600382018054611790906137dd565b80601f01602080910402602001604051908101604052809291908181526020018280546117bc906137dd565b80156118095780601f106117de57610100808354040283529160200191611809565b820191906000526020600020905b8154815290600101906020018083116117ec57829003601f168201915b50505050508152602001600482018054611822906137dd565b80601f016020809104026020016040519081016040528092919081815260200182805461184e906137dd565b801561189b5780601f106118705761010080835404028352916020019161189b565b820191906000526020600020905b81548152906001019060200180831161187e57829003601f168201915b5050505050815260200160058201548152602001600682015481526020016007820160405180608001604052908160008201548152602001600182015481526020016002820180546118ec906137dd565b80601f0160208091040260200160405190810160405280929190818152602001828054611918906137dd565b80156119655780601f1061193a57610100808354040283529160200191611965565b820191906000526020600020905b81548152906001019060200180831161194857829003601f168201915b5050505050815260200160038201805461197e906137dd565b80601f01602080910402602001604051908101604052809291908181526020018280546119aa906137dd565b80156119f75780601f106119cc576101008083540402835291602001916119f7565b820191906000526020600020905b8154815290600101906020018083116119da57829003601f168201915b5050505050815250508152602001600b820160405180604001604052908160008201548152602001600182015481525050815250508160000181905250600080848152602001908152602001600020600201601501548160200181815250506000808481526020019081526020016000206002016016018054611a79906137dd565b80601f0160208091040260200160405190810160405280929190818152602001828054611aa5906137dd565b8015611af25780601f10611ac757610100808354040283529160200191611af2565b820191906000526020600020905b815481529060010190602001808311611ad557829003601f168201915b5050505050816040018190525080915050919050565b611b106125e1565b600080838152602001908152602001600020601a0160405180606001604052908160008201604051806060016040529081600082018054611b50906137dd565b80601f0160208091040260200160405190810160405280929190818152602001828054611b7c906137dd565b8015611bc95780601f10611b9e57610100808354040283529160200191611bc9565b820191906000526020600020905b815481529060010190602001808311611bac57829003601f168201915b50505050508152602001600182018054611be2906137dd565b80601f0160208091040260200160405190810160405280929190818152602001828054611c0e906137dd565b8015611c5b5780601f10611c3057610100808354040283529160200191611c5b565b820191906000526020600020905b815481529060010190602001808311611c3e57829003601f168201915b50505050508152602001600282018054611c74906137dd565b80601f0160208091040260200160405190810160405280929190818152602001828054611ca0906137dd565b8015611ced5780601f10611cc257610100808354040283529160200191611ced565b820191906000526020600020905b815481529060010190602001808311611cd057829003601f168201915b5050505050815250508152602001600382016040518060800160405290816000820154815260200160018201548152602001600282018054611d2e906137dd565b80601f0160208091040260200160405190810160405280929190818152602001828054611d5a906137dd565b8015611da75780601f10611d7c57610100808354040283529160200191611da7565b820191906000526020600020905b815481529060010190602001808311611d8a57829003601f168201915b50505050508152602001600382018054611dc0906137dd565b80601f0160208091040260200160405190810160405280929190818152602001828054611dec906137dd565b8015611e395780601f10611e0e57610100808354040283529160200191611e39565b820191906000526020600020905b815481529060010190602001808311611e1c57829003601f168201915b5050505050815250508152602001600782018054611e56906137dd565b80601f0160208091040260200160405190810160405280929190818152602001828054611e82906137dd565b8015611ecf5780601f10611ea457610100808354040283529160200191611ecf565b820191906000526020600020905b815481529060010190602001808311611eb257829003601f168201915b5050505050815250509050919050565b3373ffffffffffffffffffffffffffffffffffffffff1660008084815260200190815260200160002060010160009054906101000a900473ffffffffffffffffffffffffffffffffffffffff1673ffffffffffffffffffffffffffffffffffffffff1603611f82576040517f08c379a0000000000000000000000000000000000000000000000000000000008152600401611f79906139d7565b60405180910390fd5b60006002811115611f9657611f95612b9c565b5b60008084815260200190815260200160002060220160009054906101000a900460ff166002811115611fcb57611fca612b9c565b5b1461200b576040517f08c379a000000000000000000000000000000000000000000000000000000000815260040161200290613a69565b60405180910390fd5b3461202d60008085815260200190815260200160002060020160150154612476565b111561206e576040517f08c379a000000000000000000000000000000000000000000000000000000000815260040161206590613ad5565b60405180910390fd5b3360008084815260200190815260200160002060190160006101000a81548173ffffffffffffffffffffffffffffffffffffffff021916908373ffffffffffffffffffffffffffffffffffffffff16021790555080600080848152602001908152602001600020601a0160008201518160000160008201518160000190816120f69190613ca1565b50602082015181600101908161210c9190613ca1565b5060408201518160020190816121229190613ca1565b505050602082015181600301600082015181600001556020820151816001015560408201518160020190816121579190613ca1565b50606082015181600301908161216d9190613ca1565b50505060408201518160070190816121859190613ca1565b50905050600160008084815260200190815260200160002060220160006101000a81548160ff021916908360028111156121c2576121c1612b9c565b5b02179055505050565b600154600080600154815260200190815260200160002060000181905550806000806001548152602001908152602001600020600201600082015181600001600082015181600001908161221f9190613ca1565b5060208201518160010190816122359190613ca1565b50604082015181600201908161224b9190613ca1565b505050602082015181600301600082015181600001556020820151816001015560408201518160020190816122809190613ca1565b5060608201518160030190816122969190613ca1565b50505060408201518160070190816122ae9190613ca1565b5060608201518160080160008201518160000190816122cd9190613ca1565b506020820151816001015560408201518160020190816122ed9190613ca1565b5060608201518160030190816123039190613ca1565b5060808201518160040190816123199190613ca1565b5060a0820151816005015560c0820151816006015560e082015181600701600082015181600001556020820151816001015560408201518160020190816123609190613ca1565b5060608201518160030190816123769190613ca1565b50505061010082015181600b016000820151816000015560208201518160010155505050506080820151816015015560a08201518160160190816123ba9190613ca1565b5090505033600080600154815260200190815260200160002060010160006101000a81548173ffffffffffffffffffffffffffffffffffffffff021916908373ffffffffffffffffffffffffffffffffffffffff1602179055506000806000600154815260200190815260200160002060220160006101000a81548160ff0219169083600281111561244f5761244e612b9c565b5b0217905550600180600082825461246691906138e0565b9250508190555050565b60015481565b6000806124816124db565b90506000604d9050600081670de0b6b3a7640000866124a09190613d73565b6124aa9190613de4565b9050600083670de0b6b3a7640000836124c39190613d73565b6124cd9190613de4565b905080945050505050919050565b60008073694aa1769357215de4fac081bf1f309adc325306905060008173ffffffffffffffffffffffffffffffffffffffff1663feaf968c6040518163ffffffff1660e01b815260040160a060405180830381865afa158015612542573d6000803e3d6000fd5b505050506040513d601f19601f820116820180604052508101906125669190613ea2565b5050509150506402540be4008161257d9190613f1d565b9250505090565b6040518060c001604052806000815260200160608152602001600081526020016000815260200160008152602001600081525090565b60405180606001604052806125cd61260e565b815260200160008152602001606081525090565b60405180606001604052806125f4612666565b8152602001612601612687565b8152602001606081525090565b604051806101200160405280606081526020016000815260200160608152602001606081526020016060815260200160008152602001600081526020016126536126af565b81526020016126606126d7565b81525090565b60405180606001604052806060815260200160608152602001606081525090565b6040518060800160405280600081526020016000815260200160608152602001606081525090565b6040518060800160405280600081526020016000815260200160608152602001606081525090565b604051806040016040528060008152602001600081525090565b6000604051905090565b600080fd5b600080fd5b6000819050919050565b61271881612705565b811461272357600080fd5b50565b6000813590506127358161270f565b92915050565b600060208284031215612751576127506126fb565b5b600061275f84828501612726565b91505092915050565b61277181612705565b82525050565b600073ffffffffffffffffffffffffffffffffffffffff82169050919050565b60006127a282612777565b9050919050565b6127b281612797565b82525050565b600081519050919050565b600082825260208201905092915050565b60005b838110156127f25780820151818401526020810190506127d7565b60008484015250505050565b6000601f19601f8301169050919050565b600061281a826127b8565b61282481856127c3565b93506128348185602086016127d4565b61283d816127fe565b840191505092915050565b60006060830160008301518482036000860152612865828261280f565b9150506020830151848203602086015261287f828261280f565b91505060408301518482036040860152612899828261280f565b9150508091505092915050565b6128af81612705565b82525050565b60006080830160008301516128cd60008601826128a6565b5060208301516128e060208601826128a6565b50604083015184820360408601526128f8828261280f565b91505060608301518482036060860152612912828261280f565b9150508091505092915050565b600060808301600083015161293760008601826128a6565b50602083015161294a60208601826128a6565b5060408301518482036040860152612962828261280f565b9150506060830151848203606086015261297c828261280f565b9150508091505092915050565b60408201600082015161299f60008501826128a6565b5060208201516129b260208501826128a6565b50505050565b60006101408301600083015184820360008601526129d6828261280f565b91505060208301516129eb60208601826128a6565b5060408301518482036040860152612a03828261280f565b91505060608301518482036060860152612a1d828261280f565b91505060808301518482036080860152612a37828261280f565b91505060a0830151612a4c60a08601826128a6565b5060c0830151612a5f60c08601826128a6565b5060e083015184820360e0860152612a77828261291f565b915050610100830151612a8e610100860182612989565b508091505092915050565b600060c0830160008301518482036000860152612ab68282612848565b91505060208301518482036020860152612ad082826128b5565b91505060408301518482036040860152612aea828261280f565b91505060608301518482036060860152612b0482826129b8565b9150506080830151612b1960808601826128a6565b5060a083015184820360a0860152612b31828261280f565b9150508091505092915050565b60006060830160008301518482036000860152612b5b8282612848565b91505060208301518482036020860152612b7582826128b5565b91505060408301518482036040860152612b8f828261280f565b9150508091505092915050565b7f4e487b7100000000000000000000000000000000000000000000000000000000600052602160045260246000fd5b60038110612bdc57612bdb612b9c565b5b50565b6000819050612bed82612bcb565b919050565b6000612bfd82612bdf565b9050919050565b612c0d81612bf2565b82525050565b60008115159050919050565b612c2881612c13565b82525050565b600061010082019050612c44600083018b612768565b612c51602083018a6127a9565b8181036040830152612c638189612a99565b9050612c7260608301886127a9565b8181036080830152612c848187612b3e565b9050612c9360a0830186612c04565b612ca060c0830185612c1f565b612cad60e0830184612c1f565b9998505050505050505050565b6000602082019050612ccf6000830184612768565b92915050565b600080fd5b7f4e487b7100000000000000000000000000000000000000000000000000000000600052604160045260246000fd5b612d12826127fe565b810181811067ffffffffffffffff82111715612d3157612d30612cda565b5b80604052505050565b6000612d446126f1565b9050612d508282612d09565b919050565b600080fd5b600080fd5b600080fd5b600067ffffffffffffffff821115612d7f57612d7e612cda565b5b612d88826127fe565b9050602081019050919050565b82818337600083830152505050565b6000612db7612db284612d64565b612d3a565b905082815260208101848484011115612dd357612dd2612d5f565b5b612dde848285612d95565b509392505050565b600082601f830112612dfb57612dfa612d5a565b5b8135612e0b848260208601612da4565b91505092915050565b612e1d81612c13565b8114612e2857600080fd5b50565b600081359050612e3a81612e14565b92915050565b600060608284031215612e5657612e55612cd5565b5b612e606060612d3a565b90506000612e7084828501612726565b600083015250602082013567ffffffffffffffff811115612e9457612e93612d55565b5b612ea084828501612de6565b6020830152506040612eb484828501612e2b565b60408301525092915050565b600060208284031215612ed657612ed56126fb565b5b600082013567ffffffffffffffff811115612ef457612ef3612700565b5b612f0084828501612e40565b91505092915050565b60008060408385031215612f2057612f1f6126fb565b5b6000612f2e85828601612726565b9250506020612f3f85828601612e2b565b9150509250929050565b600081519050919050565b600082825260208201905092915050565b6000819050602082019050919050565b600060c083016000830151612f8d60008601826128a6565b5060208301518482036020860152612fa5828261280f565b9150506040830151612fba60408601826128a6565b506060830151612fcd60608601826128a6565b506080830151612fe060808601826128a6565b5060a0830151612ff360a08601826128a6565b508091505092915050565b600061300a8383612f75565b905092915050565b6000602082019050919050565b600061302a82612f49565b6130348185612f54565b93508360208202850161304685612f65565b8060005b8581101561308257848403895281516130638582612ffe565b945061306e83613012565b925060208a0199505060018101905061304a565b50829750879550505050505092915050565b600060208201905081810360008301526130ae818461301f565b905092915050565b600060608301600083015184820360008601526130d382826129b8565b91505060208301516130e860208601826128a6565b5060408301518482036040860152613100828261280f565b9150508091505092915050565b6000602082019050818103600083015261312781846130b6565b905092915050565b600060208201905081810360008301526131498184612b3e565b905092915050565b60006060828403121561316757613166612cd5565b5b6131716060612d3a565b9050600082013567ffffffffffffffff81111561319157613190612d55565b5b61319d84828501612de6565b600083015250602082013567ffffffffffffffff8111156131c1576131c0612d55565b5b6131cd84828501612de6565b602083015250604082013567ffffffffffffffff8111156131f1576131f0612d55565b5b6131fd84828501612de6565b60408301525092915050565b60006080828403121561321f5761321e612cd5565b5b6132296080612d3a565b9050600061323984828501612726565b600083015250602061324d84828501612726565b602083015250604082013567ffffffffffffffff81111561327157613270612d55565b5b61327d84828501612de6565b604083015250606082013567ffffffffffffffff8111156132a1576132a0612d55565b5b6132ad84828501612de6565b60608301525092915050565b6000606082840312156132cf576132ce612cd5565b5b6132d96060612d3a565b9050600082013567ffffffffffffffff8111156132f9576132f8612d55565b5b61330584828501613151565b600083015250602082013567ffffffffffffffff81111561332957613328612d55565b5b61333584828501613209565b602083015250604082013567ffffffffffffffff81111561335957613358612d55565b5b61336584828501612de6565b60408301525092915050565b60008060408385031215613388576133876126fb565b5b600061339685828601612726565b925050602083013567ffffffffffffffff8111156133b7576133b6612700565b5b6133c3858286016132b9565b9150509250929050565b6000608082840312156133e3576133e2612cd5565b5b6133ed6080612d3a565b905060006133fd84828501612726565b600083015250602061341184828501612726565b602083015250604082013567ffffffffffffffff81111561343557613434612d55565b5b61344184828501612de6565b604083015250606082013567ffffffffffffffff81111561346557613464612d55565b5b61347184828501612de6565b60608301525092915050565b60006040828403121561349357613492612cd5565b5b61349d6040612d3a565b905060006134ad84828501612726565b60008301525060206134c184828501612726565b60208301525092915050565b600061014082840312156134e4576134e3612cd5565b5b6134ef610120612d3a565b9050600082013567ffffffffffffffff81111561350f5761350e612d55565b5b61351b84828501612de6565b600083015250602061352f84828501612726565b602083015250604082013567ffffffffffffffff81111561355357613552612d55565b5b61355f84828501612de6565b604083015250606082013567ffffffffffffffff81111561358357613582612d55565b5b61358f84828501612de6565b606083015250608082013567ffffffffffffffff8111156135b3576135b2612d55565b5b6135bf84828501612de6565b60808301525060a06135d384828501612726565b60a08301525060c06135e784828501612726565b60c08301525060e082013567ffffffffffffffff81111561360b5761360a612d55565b5b613617848285016133cd565b60e08301525061010061362c8482850161347d565b6101008301525092915050565b600060c0828403121561364f5761364e612cd5565b5b61365960c0612d3a565b9050600082013567ffffffffffffffff81111561367957613678612d55565b5b61368584828501613151565b600083015250602082013567ffffffffffffffff8111156136a9576136a8612d55565b5b6136b584828501613209565b602083015250604082013567ffffffffffffffff8111156136d9576136d8612d55565b5b6136e584828501612de6565b604083015250606082013567ffffffffffffffff81111561370957613708612d55565b5b613715848285016134cd565b606083015250608061372984828501612726565b60808301525060a082013567ffffffffffffffff81111561374d5761374c612d55565b5b61375984828501612de6565b60a08301525092915050565b60006020828403121561377b5761377a6126fb565b5b600082013567ffffffffffffffff81111561379957613798612700565b5b6137a584828501613639565b91505092915050565b7f4e487b7100000000000000000000000000000000000000000000000000000000600052602260045260246000fd5b600060028204905060018216806137f557607f821691505b602082108103613808576138076137ae565b5b50919050565b600082825260208201905092915050565b7f596f75277265206e6f7420616e206f776e6572206f662074686973206164766560008201527f72742e0000000000000000000000000000000000000000000000000000000000602082015250565b600061387b60238361380e565b91506138868261381f565b604082019050919050565b600060208201905081810360008301526138aa8161386e565b9050919050565b7f4e487b7100000000000000000000000000000000000000000000000000000000600052601160045260246000fd5b60006138eb82612705565b91506138f683612705565b925082820190508082111561390e5761390d6138b1565b5b92915050565b600061391f82612705565b91507fffffffffffffffffffffffffffffffffffffffffffffffffffffffffffffffff8203613951576139506138b1565b5b600182019050919050565b7f4e487b7100000000000000000000000000000000000000000000000000000000600052603260045260246000fd5b7f596f7527726520746865206f776e6572206f6620746865206465616c2e000000600082015250565b60006139c1601d8361380e565b91506139cc8261398b565b602082019050919050565b600060208201905081810360008301526139f0816139b4565b9050919050565b7f54686973206465616c20697320616c726561647920696e2070726f636573732e60008201527f2052656c6f616420706167652e00000000000000000000000000000000000000602082015250565b6000613a53602d8361380e565b9150613a5e826139f7565b604082019050919050565b60006020820190508181036000830152613a8281613a46565b9050919050565b7f4e6f7420656e6f756768206d6f6e657920746f20616371756972652e00000000600082015250565b6000613abf601c8361380e565b9150613aca82613a89565b602082019050919050565b60006020820190508181036000830152613aee81613ab2565b9050919050565b60008190508160005260206000209050919050565b60006020601f8301049050919050565b600082821b905092915050565b600060088302613b577fffffffffffffffffffffffffffffffffffffffffffffffffffffffffffffffff82613b1a565b613b618683613b1a565b95508019841693508086168417925050509392505050565b6000819050919050565b6000613b9e613b99613b9484612705565b613b79565b612705565b9050919050565b6000819050919050565b613bb883613b83565b613bcc613bc482613ba5565b848454613b27565b825550505050565b600090565b613be1613bd4565b613bec818484613baf565b505050565b5b81811015613c1057613c05600082613bd9565b600181019050613bf2565b5050565b601f821115613c5557613c2681613af5565b613c2f84613b0a565b81016020851015613c3e578190505b613c52613c4a85613b0a565b830182613bf1565b50505b505050565b600082821c905092915050565b6000613c7860001984600802613c5a565b1980831691505092915050565b6000613c918383613c67565b9150826002028217905092915050565b613caa826127b8565b67ffffffffffffffff811115613cc357613cc2612cda565b5b613ccd82546137dd565b613cd8828285613c14565b600060209050601f831160018114613d0b5760008415613cf9578287015190505b613d038582613c85565b865550613d6b565b601f198416613d1986613af5565b60005b82811015613d4157848901518255600182019150602085019450602081019050613d1c565b86831015613d5e5784890151613d5a601f891682613c67565b8355505b6001600288020188555050505b505050505050565b6000613d7e82612705565b9150613d8983612705565b9250828202613d9781612705565b91508282048414831517613dae57613dad6138b1565b5b5092915050565b7f4e487b7100000000000000000000000000000000000000000000000000000000600052601260045260246000fd5b6000613def82612705565b9150613dfa83612705565b925082613e0a57613e09613db5565b5b828204905092915050565b600069ffffffffffffffffffff82169050919050565b613e3481613e15565b8114613e3f57600080fd5b50565b600081519050613e5181613e2b565b92915050565b6000819050919050565b613e6a81613e57565b8114613e7557600080fd5b50565b600081519050613e8781613e61565b92915050565b600081519050613e9c8161270f565b92915050565b600080600080600060a08688031215613ebe57613ebd6126fb565b5b6000613ecc88828901613e42565b9550506020613edd88828901613e78565b9450506040613eee88828901613e8d565b9350506060613eff88828901613e8d565b9250506080613f1088828901613e42565b9150509295509295909350565b6000613f2882613e57565b9150613f3383613e57565b9250828202613f4181613e57565b91507f80000000000000000000000000000000000000000000000000000000000000008414600084121615613f7957613f786138b1565b5b8282058414831517613f8e57613f8d6138b1565b5b509291505056fea2646970667358221220461ded86b6181f12b7137f13982fc8c6806ecb2ffe4a0df38b3c3abbc7c2b7b364736f6c63430008120033",
					"opcodes": "PUSH1 0x80 PUSH1 0x40 MSTORE PUSH1 0x0 PUSH1 0x1 SSTORE CALLVALUE DUP1 ISZERO PUSH2 0x15 JUMPI PUSH1 0x0 DUP1 REVERT JUMPDEST POP PUSH2 0x3FCB DUP1 PUSH2 0x25 PUSH1 0x0 CODECOPY PUSH1 0x0 RETURN INVALID PUSH1 0x80 PUSH1 0x40 MSTORE PUSH1 0x4 CALLDATASIZE LT PUSH2 0xC2 JUMPI PUSH1 0x0 CALLDATALOAD PUSH1 0xE0 SHR DUP1 PUSH4 0x63A242A6 GT PUSH2 0x7F JUMPI DUP1 PUSH4 0xAFDA5933 GT PUSH2 0x59 JUMPI DUP1 PUSH4 0xAFDA5933 EQ PUSH2 0x27F JUMPI DUP1 PUSH4 0xC31E3A0A EQ PUSH2 0x2BC JUMPI DUP1 PUSH4 0xC91A5172 EQ PUSH2 0x2D8 JUMPI DUP1 PUSH4 0xDD12D0B9 EQ PUSH2 0x301 JUMPI PUSH2 0xC2 JUMP JUMPDEST DUP1 PUSH4 0x63A242A6 EQ PUSH2 0x1DA JUMPI DUP1 PUSH4 0x6D618D0F EQ PUSH2 0x217 JUMPI DUP1 PUSH4 0x7A8B9FB4 EQ PUSH2 0x242 JUMPI PUSH2 0xC2 JUMP JUMPDEST DUP1 PUSH4 0x3988F84 EQ PUSH2 0xC7 JUMPI DUP1 PUSH4 0xC37D69B EQ PUSH2 0x10B JUMPI DUP1 PUSH4 0x1F801C0E EQ PUSH2 0x148 JUMPI DUP1 PUSH4 0x2888783E EQ PUSH2 0x171 JUMPI DUP1 PUSH4 0x329E1ED2 EQ PUSH2 0x188 JUMPI DUP1 PUSH4 0x4A99B536 EQ PUSH2 0x1B1 JUMPI JUMPDEST PUSH1 0x0 DUP1 REVERT JUMPDEST CALLVALUE DUP1 ISZERO PUSH2 0xD3 JUMPI PUSH1 0x0 DUP1 REVERT JUMPDEST POP PUSH2 0xEE PUSH1 0x4 DUP1 CALLDATASIZE SUB DUP2 ADD SWAP1 PUSH2 0xE9 SWAP2 SWAP1 PUSH2 0x273B JUMP JUMPDEST PUSH2 0x32C JUMP JUMPDEST PUSH1 0x40 MLOAD PUSH2 0x102 SWAP9 SWAP8 SWAP7 SWAP6 SWAP5 SWAP4 SWAP3 SWAP2 SWAP1 PUSH2 0x2C2E JUMP JUMPDEST PUSH1 0x40 MLOAD DUP1 SWAP2 SUB SWAP1 RETURN JUMPDEST CALLVALUE DUP1 ISZERO PUSH2 0x117 JUMPI PUSH1 0x0 DUP1 REVERT JUMPDEST POP PUSH2 0x132 PUSH1 0x4 DUP1 CALLDATASIZE SUB DUP2 ADD SWAP1 PUSH2 0x12D SWAP2 SWAP1 PUSH2 0x273B JUMP JUMPDEST PUSH2 0xFCA JUMP JUMPDEST PUSH1 0x40 MLOAD PUSH2 0x13F SWAP2 SWAP1 PUSH2 0x2CBA JUMP JUMPDEST PUSH1 0x40 MLOAD DUP1 SWAP2 SUB SWAP1 RETURN JUMPDEST CALLVALUE DUP1 ISZERO PUSH2 0x154 JUMPI PUSH1 0x0 DUP1 REVERT JUMPDEST POP PUSH2 0x16F PUSH1 0x4 DUP1 CALLDATASIZE SUB DUP2 ADD SWAP1 PUSH2 0x16A SWAP2 SWAP1 PUSH2 0x2EC0 JUMP JUMPDEST PUSH2 0xFDC JUMP JUMPDEST STOP JUMPDEST CALLVALUE DUP1 ISZERO PUSH2 0x17D JUMPI PUSH1 0x0 DUP1 REVERT JUMPDEST POP PUSH2 0x186 PUSH2 0xFDF JUMP JUMPDEST STOP JUMPDEST CALLVALUE DUP1 ISZERO PUSH2 0x194 JUMPI PUSH1 0x0 DUP1 REVERT JUMPDEST POP PUSH2 0x1AF PUSH1 0x4 DUP1 CALLDATASIZE SUB DUP2 ADD SWAP1 PUSH2 0x1AA SWAP2 SWAP1 PUSH2 0x273B JUMP JUMPDEST PUSH2 0xFE1 JUMP JUMPDEST STOP JUMPDEST CALLVALUE DUP1 ISZERO PUSH2 0x1BD JUMPI PUSH1 0x0 DUP1 REVERT JUMPDEST POP PUSH2 0x1D8 PUSH1 0x4 DUP1 CALLDATASIZE SUB DUP2 ADD SWAP1 PUSH2 0x1D3 SWAP2 SWAP1 PUSH2 0x2F09 JUMP JUMPDEST PUSH2 0x10C5 JUMP JUMPDEST STOP JUMPDEST CALLVALUE DUP1 ISZERO PUSH2 0x1E6 JUMPI PUSH1 0x0 DUP1 REVERT JUMPDEST POP PUSH2 0x201 PUSH1 0x4 DUP1 CALLDATASIZE SUB DUP2 ADD SWAP1 PUSH2 0x1FC SWAP2 SWAP1 PUSH2 0x273B JUMP JUMPDEST PUSH2 0x12AE JUMP JUMPDEST PUSH1 0x40 MLOAD PUSH2 0x20E SWAP2 SWAP1 PUSH2 0x2CBA JUMP JUMPDEST PUSH1 0x40 MLOAD DUP1 SWAP2 SUB SWAP1 RETURN JUMPDEST CALLVALUE DUP1 ISZERO PUSH2 0x223 JUMPI PUSH1 0x0 DUP1 REVERT JUMPDEST POP PUSH2 0x22C PUSH2 0x12C4 JUMP JUMPDEST PUSH1 0x40 MLOAD PUSH2 0x239 SWAP2 SWAP1 PUSH2 0x3094 JUMP JUMPDEST PUSH1 0x40 MLOAD DUP1 SWAP2 SUB SWAP1 RETURN JUMPDEST CALLVALUE DUP1 ISZERO PUSH2 0x24E JUMPI PUSH1 0x0 DUP1 REVERT JUMPDEST POP PUSH2 0x269 PUSH1 0x4 DUP1 CALLDATASIZE SUB DUP2 ADD SWAP1 PUSH2 0x264 SWAP2 SWAP1 PUSH2 0x273B JUMP JUMPDEST PUSH2 0x161E JUMP JUMPDEST PUSH1 0x40 MLOAD PUSH2 0x276 SWAP2 SWAP1 PUSH2 0x310D JUMP JUMPDEST PUSH1 0x40 MLOAD DUP1 SWAP2 SUB SWAP1 RETURN JUMPDEST CALLVALUE DUP1 ISZERO PUSH2 0x28B JUMPI PUSH1 0x0 DUP1 REVERT JUMPDEST POP PUSH2 0x2A6 PUSH1 0x4 DUP1 CALLDATASIZE SUB DUP2 ADD SWAP1 PUSH2 0x2A1 SWAP2 SWAP1 PUSH2 0x273B JUMP JUMPDEST PUSH2 0x1B08 JUMP JUMPDEST PUSH1 0x40 MLOAD PUSH2 0x2B3 SWAP2 SWAP1 PUSH2 0x312F JUMP JUMPDEST PUSH1 0x40 MLOAD DUP1 SWAP2 SUB SWAP1 RETURN JUMPDEST PUSH2 0x2D6 PUSH1 0x4 DUP1 CALLDATASIZE SUB DUP2 ADD SWAP1 PUSH2 0x2D1 SWAP2 SWAP1 PUSH2 0x3371 JUMP JUMPDEST PUSH2 0x1EDF JUMP JUMPDEST STOP JUMPDEST CALLVALUE DUP1 ISZERO PUSH2 0x2E4 JUMPI PUSH1 0x0 DUP1 REVERT JUMPDEST POP PUSH2 0x2FF PUSH1 0x4 DUP1 CALLDATASIZE SUB DUP2 ADD SWAP1 PUSH2 0x2FA SWAP2 SWAP1 PUSH2 0x3765 JUMP JUMPDEST PUSH2 0x21CB JUMP JUMPDEST STOP JUMPDEST CALLVALUE DUP1 ISZERO PUSH2 0x30D JUMPI PUSH1 0x0 DUP1 REVERT JUMPDEST POP PUSH2 0x316 PUSH2 0x2470 JUMP JUMPDEST PUSH1 0x40 MLOAD PUSH2 0x323 SWAP2 SWAP1 PUSH2 0x2CBA JUMP JUMPDEST PUSH1 0x40 MLOAD DUP1 SWAP2 SUB SWAP1 RETURN JUMPDEST PUSH1 0x0 PUSH1 0x20 MSTORE DUP1 PUSH1 0x0 MSTORE PUSH1 0x40 PUSH1 0x0 KECCAK256 PUSH1 0x0 SWAP2 POP SWAP1 POP DUP1 PUSH1 0x0 ADD SLOAD SWAP1 DUP1 PUSH1 0x1 ADD PUSH1 0x0 SWAP1 SLOAD SWAP1 PUSH2 0x100 EXP SWAP1 DIV PUSH20 0xFFFFFFFFFFFFFFFFFFFFFFFFFFFFFFFFFFFFFFFF AND SWAP1 DUP1 PUSH1 0x2 ADD PUSH1 0x40 MLOAD DUP1 PUSH1 0xC0 ADD PUSH1 0x40 MSTORE SWAP1 DUP2 PUSH1 0x0 DUP3 ADD PUSH1 0x40 MLOAD DUP1 PUSH1 0x60 ADD PUSH1 0x40 MSTORE SWAP1 DUP2 PUSH1 0x0 DUP3 ADD DUP1 SLOAD PUSH2 0x39B SWAP1 PUSH2 0x37DD JUMP JUMPDEST DUP1 PUSH1 0x1F ADD PUSH1 0x20 DUP1 SWAP2 DIV MUL PUSH1 0x20 ADD PUSH1 0x40 MLOAD SWAP1 DUP2 ADD PUSH1 0x40 MSTORE DUP1 SWAP3 SWAP2 SWAP1 DUP2 DUP2 MSTORE PUSH1 0x20 ADD DUP3 DUP1 SLOAD PUSH2 0x3C7 SWAP1 PUSH2 0x37DD JUMP JUMPDEST DUP1 ISZERO PUSH2 0x414 JUMPI DUP1 PUSH1 0x1F LT PUSH2 0x3E9 JUMPI PUSH2 0x100 DUP1 DUP4 SLOAD DIV MUL DUP4 MSTORE SWAP2 PUSH1 0x20 ADD SWAP2 PUSH2 0x414 JUMP JUMPDEST DUP3 ADD SWAP2 SWAP1 PUSH1 0x0 MSTORE PUSH1 0x20 PUSH1 0x0 KECCAK256 SWAP1 JUMPDEST DUP2 SLOAD DUP2 MSTORE SWAP1 PUSH1 0x1 ADD SWAP1 PUSH1 0x20 ADD DUP1 DUP4 GT PUSH2 0x3F7 JUMPI DUP3 SWAP1 SUB PUSH1 0x1F AND DUP3 ADD SWAP2 JUMPDEST POP POP POP POP POP DUP2 MSTORE PUSH1 0x20 ADD PUSH1 0x1 DUP3 ADD DUP1 SLOAD PUSH2 0x42D SWAP1 PUSH2 0x37DD JUMP JUMPDEST DUP1 PUSH1 0x1F ADD PUSH1 0x20 DUP1 SWAP2 DIV MUL PUSH1 0x20 ADD PUSH1 0x40 MLOAD SWAP1 DUP2 ADD PUSH1 0x40 MSTORE DUP1 SWAP3 SWAP2 SWAP1 DUP2 DUP2 MSTORE PUSH1 0x20 ADD DUP3 DUP1 SLOAD PUSH2 0x459 SWAP1 PUSH2 0x37DD JUMP JUMPDEST DUP1 ISZERO PUSH2 0x4A6 JUMPI DUP1 PUSH1 0x1F LT PUSH2 0x47B JUMPI PUSH2 0x100 DUP1 DUP4 SLOAD DIV MUL DUP4 MSTORE SWAP2 PUSH1 0x20 ADD SWAP2 PUSH2 0x4A6 JUMP JUMPDEST DUP3 ADD SWAP2 SWAP1 PUSH1 0x0 MSTORE PUSH1 0x20 PUSH1 0x0 KECCAK256 SWAP1 JUMPDEST DUP2 SLOAD DUP2 MSTORE SWAP1 PUSH1 0x1 ADD SWAP1 PUSH1 0x20 ADD DUP1 DUP4 GT PUSH2 0x489 JUMPI DUP3 SWAP1 SUB PUSH1 0x1F AND DUP3 ADD SWAP2 JUMPDEST POP POP POP POP POP DUP2 MSTORE PUSH1 0x20 ADD PUSH1 0x2 DUP3 ADD DUP1 SLOAD PUSH2 0x4BF SWAP1 PUSH2 0x37DD JUMP JUMPDEST DUP1 PUSH1 0x1F ADD PUSH1 0x20 DUP1 SWAP2 DIV MUL PUSH1 0x20 ADD PUSH1 0x40 MLOAD SWAP1 DUP2 ADD PUSH1 0x40 MSTORE DUP1 SWAP3 SWAP2 SWAP1 DUP2 DUP2 MSTORE PUSH1 0x20 ADD DUP3 DUP1 SLOAD PUSH2 0x4EB SWAP1 PUSH2 0x37DD JUMP JUMPDEST DUP1 ISZERO PUSH2 0x538 JUMPI DUP1 PUSH1 0x1F LT PUSH2 0x50D JUMPI PUSH2 0x100 DUP1 DUP4 SLOAD DIV MUL DUP4 MSTORE SWAP2 PUSH1 0x20 ADD SWAP2 PUSH2 0x538 JUMP JUMPDEST DUP3 ADD SWAP2 SWAP1 PUSH1 0x0 MSTORE PUSH1 0x20 PUSH1 0x0 KECCAK256 SWAP1 JUMPDEST DUP2 SLOAD DUP2 MSTORE SWAP1 PUSH1 0x1 ADD SWAP1 PUSH1 0x20 ADD DUP1 DUP4 GT PUSH2 0x51B JUMPI DUP3 SWAP1 SUB PUSH1 0x1F AND DUP3 ADD SWAP2 JUMPDEST POP POP POP POP POP DUP2 MSTORE POP POP DUP2 MSTORE PUSH1 0x20 ADD PUSH1 0x3 DUP3 ADD PUSH1 0x40 MLOAD DUP1 PUSH1 0x80 ADD PUSH1 0x40 MSTORE SWAP1 DUP2 PUSH1 0x0 DUP3 ADD SLOAD DUP2 MSTORE PUSH1 0x20 ADD PUSH1 0x1 DUP3 ADD SLOAD DUP2 MSTORE PUSH1 0x20 ADD PUSH1 0x2 DUP3 ADD DUP1 SLOAD PUSH2 0x579 SWAP1 PUSH2 0x37DD JUMP JUMPDEST DUP1 PUSH1 0x1F ADD PUSH1 0x20 DUP1 SWAP2 DIV MUL PUSH1 0x20 ADD PUSH1 0x40 MLOAD SWAP1 DUP2 ADD PUSH1 0x40 MSTORE DUP1 SWAP3 SWAP2 SWAP1 DUP2 DUP2 MSTORE PUSH1 0x20 ADD DUP3 DUP1 SLOAD PUSH2 0x5A5 SWAP1 PUSH2 0x37DD JUMP JUMPDEST DUP1 ISZERO PUSH2 0x5F2 JUMPI DUP1 PUSH1 0x1F LT PUSH2 0x5C7 JUMPI PUSH2 0x100 DUP1 DUP4 SLOAD DIV MUL DUP4 MSTORE SWAP2 PUSH1 0x20 ADD SWAP2 PUSH2 0x5F2 JUMP JUMPDEST DUP3 ADD SWAP2 SWAP1 PUSH1 0x0 MSTORE PUSH1 0x20 PUSH1 0x0 KECCAK256 SWAP1 JUMPDEST DUP2 SLOAD DUP2 MSTORE SWAP1 PUSH1 0x1 ADD SWAP1 PUSH1 0x20 ADD DUP1 DUP4 GT PUSH2 0x5D5 JUMPI DUP3 SWAP1 SUB PUSH1 0x1F AND DUP3 ADD SWAP2 JUMPDEST POP POP POP POP POP DUP2 MSTORE PUSH1 0x20 ADD PUSH1 0x3 DUP3 ADD DUP1 SLOAD PUSH2 0x60B SWAP1 PUSH2 0x37DD JUMP JUMPDEST DUP1 PUSH1 0x1F ADD PUSH1 0x20 DUP1 SWAP2 DIV MUL PUSH1 0x20 ADD PUSH1 0x40 MLOAD SWAP1 DUP2 ADD PUSH1 0x40 MSTORE DUP1 SWAP3 SWAP2 SWAP1 DUP2 DUP2 MSTORE PUSH1 0x20 ADD DUP3 DUP1 SLOAD PUSH2 0x637 SWAP1 PUSH2 0x37DD JUMP JUMPDEST DUP1 ISZERO PUSH2 0x684 JUMPI DUP1 PUSH1 0x1F LT PUSH2 0x659 JUMPI PUSH2 0x100 DUP1 DUP4 SLOAD DIV MUL DUP4 MSTORE SWAP2 PUSH1 0x20 ADD SWAP2 PUSH2 0x684 JUMP JUMPDEST DUP3 ADD SWAP2 SWAP1 PUSH1 0x0 MSTORE PUSH1 0x20 PUSH1 0x0 KECCAK256 SWAP1 JUMPDEST DUP2 SLOAD DUP2 MSTORE SWAP1 PUSH1 0x1 ADD SWAP1 PUSH1 0x20 ADD DUP1 DUP4 GT PUSH2 0x667 JUMPI DUP3 SWAP1 SUB PUSH1 0x1F AND DUP3 ADD SWAP2 JUMPDEST POP POP POP POP POP DUP2 MSTORE POP POP DUP2 MSTORE PUSH1 0x20 ADD PUSH1 0x7 DUP3 ADD DUP1 SLOAD PUSH2 0x6A1 SWAP1 PUSH2 0x37DD JUMP JUMPDEST DUP1 PUSH1 0x1F ADD PUSH1 0x20 DUP1 SWAP2 DIV MUL PUSH1 0x20 ADD PUSH1 0x40 MLOAD SWAP1 DUP2 ADD PUSH1 0x40 MSTORE DUP1 SWAP3 SWAP2 SWAP1 DUP2 DUP2 MSTORE PUSH1 0x20 ADD DUP3 DUP1 SLOAD PUSH2 0x6CD SWAP1 PUSH2 0x37DD JUMP JUMPDEST DUP1 ISZERO PUSH2 0x71A JUMPI DUP1 PUSH1 0x1F LT PUSH2 0x6EF JUMPI PUSH2 0x100 DUP1 DUP4 SLOAD DIV MUL DUP4 MSTORE SWAP2 PUSH1 0x20 ADD SWAP2 PUSH2 0x71A JUMP JUMPDEST DUP3 ADD SWAP2 SWAP1 PUSH1 0x0 MSTORE PUSH1 0x20 PUSH1 0x0 KECCAK256 SWAP1 JUMPDEST DUP2 SLOAD DUP2 MSTORE SWAP1 PUSH1 0x1 ADD SWAP1 PUSH1 0x20 ADD DUP1 DUP4 GT PUSH2 0x6FD JUMPI DUP3 SWAP1 SUB PUSH1 0x1F AND DUP3 ADD SWAP2 JUMPDEST POP POP POP POP POP DUP2 MSTORE PUSH1 0x20 ADD PUSH1 0x8 DUP3 ADD PUSH1 0x40 MLOAD DUP1 PUSH2 0x120 ADD PUSH1 0x40 MSTORE SWAP1 DUP2 PUSH1 0x0 DUP3 ADD DUP1 SLOAD PUSH2 0x744 SWAP1 PUSH2 0x37DD JUMP JUMPDEST DUP1 PUSH1 0x1F ADD PUSH1 0x20 DUP1 SWAP2 DIV MUL PUSH1 0x20 ADD PUSH1 0x40 MLOAD SWAP1 DUP2 ADD PUSH1 0x40 MSTORE DUP1 SWAP3 SWAP2 SWAP1 DUP2 DUP2 MSTORE PUSH1 0x20 ADD DUP3 DUP1 SLOAD PUSH2 0x770 SWAP1 PUSH2 0x37DD JUMP JUMPDEST DUP1 ISZERO PUSH2 0x7BD JUMPI DUP1 PUSH1 0x1F LT PUSH2 0x792 JUMPI PUSH2 0x100 DUP1 DUP4 SLOAD DIV MUL DUP4 MSTORE SWAP2 PUSH1 0x20 ADD SWAP2 PUSH2 0x7BD JUMP JUMPDEST DUP3 ADD SWAP2 SWAP1 PUSH1 0x0 MSTORE PUSH1 0x20 PUSH1 0x0 KECCAK256 SWAP1 JUMPDEST DUP2 SLOAD DUP2 MSTORE SWAP1 PUSH1 0x1 ADD SWAP1 PUSH1 0x20 ADD DUP1 DUP4 GT PUSH2 0x7A0 JUMPI DUP3 SWAP1 SUB PUSH1 0x1F AND DUP3 ADD SWAP2 JUMPDEST POP POP POP POP POP DUP2 MSTORE PUSH1 0x20 ADD PUSH1 0x1 DUP3 ADD SLOAD DUP2 MSTORE PUSH1 0x20 ADD PUSH1 0x2 DUP3 ADD DUP1 SLOAD PUSH2 0x7E0 SWAP1 PUSH2 0x37DD JUMP JUMPDEST DUP1 PUSH1 0x1F ADD PUSH1 0x20 DUP1 SWAP2 DIV MUL PUSH1 0x20 ADD PUSH1 0x40 MLOAD SWAP1 DUP2 ADD PUSH1 0x40 MSTORE DUP1 SWAP3 SWAP2 SWAP1 DUP2 DUP2 MSTORE PUSH1 0x20 ADD DUP3 DUP1 SLOAD PUSH2 0x80C SWAP1 PUSH2 0x37DD JUMP JUMPDEST DUP1 ISZERO PUSH2 0x859 JUMPI DUP1 PUSH1 0x1F LT PUSH2 0x82E JUMPI PUSH2 0x100 DUP1 DUP4 SLOAD DIV MUL DUP4 MSTORE SWAP2 PUSH1 0x20 ADD SWAP2 PUSH2 0x859 JUMP JUMPDEST DUP3 ADD SWAP2 SWAP1 PUSH1 0x0 MSTORE PUSH1 0x20 PUSH1 0x0 KECCAK256 SWAP1 JUMPDEST DUP2 SLOAD DUP2 MSTORE SWAP1 PUSH1 0x1 ADD SWAP1 PUSH1 0x20 ADD DUP1 DUP4 GT PUSH2 0x83C JUMPI DUP3 SWAP1 SUB PUSH1 0x1F AND DUP3 ADD SWAP2 JUMPDEST POP POP POP POP POP DUP2 MSTORE PUSH1 0x20 ADD PUSH1 0x3 DUP3 ADD DUP1 SLOAD PUSH2 0x872 SWAP1 PUSH2 0x37DD JUMP JUMPDEST DUP1 PUSH1 0x1F ADD PUSH1 0x20 DUP1 SWAP2 DIV MUL PUSH1 0x20 ADD PUSH1 0x40 MLOAD SWAP1 DUP2 ADD PUSH1 0x40 MSTORE DUP1 SWAP3 SWAP2 SWAP1 DUP2 DUP2 MSTORE PUSH1 0x20 ADD DUP3 DUP1 SLOAD PUSH2 0x89E SWAP1 PUSH2 0x37DD JUMP JUMPDEST DUP1 ISZERO PUSH2 0x8EB JUMPI DUP1 PUSH1 0x1F LT PUSH2 0x8C0 JUMPI PUSH2 0x100 DUP1 DUP4 SLOAD DIV MUL DUP4 MSTORE SWAP2 PUSH1 0x20 ADD SWAP2 PUSH2 0x8EB JUMP JUMPDEST DUP3 ADD SWAP2 SWAP1 PUSH1 0x0 MSTORE PUSH1 0x20 PUSH1 0x0 KECCAK256 SWAP1 JUMPDEST DUP2 SLOAD DUP2 MSTORE SWAP1 PUSH1 0x1 ADD SWAP1 PUSH1 0x20 ADD DUP1 DUP4 GT PUSH2 0x8CE JUMPI DUP3 SWAP1 SUB PUSH1 0x1F AND DUP3 ADD SWAP2 JUMPDEST POP POP POP POP POP DUP2 MSTORE PUSH1 0x20 ADD PUSH1 0x4 DUP3 ADD DUP1 SLOAD PUSH2 0x904 SWAP1 PUSH2 0x37DD JUMP JUMPDEST DUP1 PUSH1 0x1F ADD PUSH1 0x20 DUP1 SWAP2 DIV MUL PUSH1 0x20 ADD PUSH1 0x40 MLOAD SWAP1 DUP2 ADD PUSH1 0x40 MSTORE DUP1 SWAP3 SWAP2 SWAP1 DUP2 DUP2 MSTORE PUSH1 0x20 ADD DUP3 DUP1 SLOAD PUSH2 0x930 SWAP1 PUSH2 0x37DD JUMP JUMPDEST DUP1 ISZERO PUSH2 0x97D JUMPI DUP1 PUSH1 0x1F LT PUSH2 0x952 JUMPI PUSH2 0x100 DUP1 DUP4 SLOAD DIV MUL DUP4 MSTORE SWAP2 PUSH1 0x20 ADD SWAP2 PUSH2 0x97D JUMP JUMPDEST DUP3 ADD SWAP2 SWAP1 PUSH1 0x0 MSTORE PUSH1 0x20 PUSH1 0x0 KECCAK256 SWAP1 JUMPDEST DUP2 SLOAD DUP2 MSTORE SWAP1 PUSH1 0x1 ADD SWAP1 PUSH1 0x20 ADD DUP1 DUP4 GT PUSH2 0x960 JUMPI DUP3 SWAP1 SUB PUSH1 0x1F AND DUP3 ADD SWAP2 JUMPDEST POP POP POP POP POP DUP2 MSTORE PUSH1 0x20 ADD PUSH1 0x5 DUP3 ADD SLOAD DUP2 MSTORE PUSH1 0x20 ADD PUSH1 0x6 DUP3 ADD SLOAD DUP2 MSTORE PUSH1 0x20 ADD PUSH1 0x7 DUP3 ADD PUSH1 0x40 MLOAD DUP1 PUSH1 0x80 ADD PUSH1 0x40 MSTORE SWAP1 DUP2 PUSH1 0x0 DUP3 ADD SLOAD DUP2 MSTORE PUSH1 0x20 ADD PUSH1 0x1 DUP3 ADD SLOAD DUP2 MSTORE PUSH1 0x20 ADD PUSH1 0x2 DUP3 ADD DUP1 SLOAD PUSH2 0x9CE SWAP1 PUSH2 0x37DD JUMP JUMPDEST DUP1 PUSH1 0x1F ADD PUSH1 0x20 DUP1 SWAP2 DIV MUL PUSH1 0x20 ADD PUSH1 0x40 MLOAD SWAP1 DUP2 ADD PUSH1 0x40 MSTORE DUP1 SWAP3 SWAP2 SWAP1 DUP2 DUP2 MSTORE PUSH1 0x20 ADD DUP3 DUP1 SLOAD PUSH2 0x9FA SWAP1 PUSH2 0x37DD JUMP JUMPDEST DUP1 ISZERO PUSH2 0xA47 JUMPI DUP1 PUSH1 0x1F LT PUSH2 0xA1C JUMPI PUSH2 0x100 DUP1 DUP4 SLOAD DIV MUL DUP4 MSTORE SWAP2 PUSH1 0x20 ADD SWAP2 PUSH2 0xA47 JUMP JUMPDEST DUP3 ADD SWAP2 SWAP1 PUSH1 0x0 MSTORE PUSH1 0x20 PUSH1 0x0 KECCAK256 SWAP1 JUMPDEST DUP2 SLOAD DUP2 MSTORE SWAP1 PUSH1 0x1 ADD SWAP1 PUSH1 0x20 ADD DUP1 DUP4 GT PUSH2 0xA2A JUMPI DUP3 SWAP1 SUB PUSH1 0x1F AND DUP3 ADD SWAP2 JUMPDEST POP POP POP POP POP DUP2 MSTORE PUSH1 0x20 ADD PUSH1 0x3 DUP3 ADD DUP1 SLOAD PUSH2 0xA60 SWAP1 PUSH2 0x37DD JUMP JUMPDEST DUP1 PUSH1 0x1F ADD PUSH1 0x20 DUP1 SWAP2 DIV MUL PUSH1 0x20 ADD PUSH1 0x40 MLOAD SWAP1 DUP2 ADD PUSH1 0x40 MSTORE DUP1 SWAP3 SWAP2 SWAP1 DUP2 DUP2 MSTORE PUSH1 0x20 ADD DUP3 DUP1 SLOAD PUSH2 0xA8C SWAP1 PUSH2 0x37DD JUMP JUMPDEST DUP1 ISZERO PUSH2 0xAD9 JUMPI DUP1 PUSH1 0x1F LT PUSH2 0xAAE JUMPI PUSH2 0x100 DUP1 DUP4 SLOAD DIV MUL DUP4 MSTORE SWAP2 PUSH1 0x20 ADD SWAP2 PUSH2 0xAD9 JUMP JUMPDEST DUP3 ADD SWAP2 SWAP1 PUSH1 0x0 MSTORE PUSH1 0x20 PUSH1 0x0 KECCAK256 SWAP1 JUMPDEST DUP2 SLOAD DUP2 MSTORE SWAP1 PUSH1 0x1 ADD SWAP1 PUSH1 0x20 ADD DUP1 DUP4 GT PUSH2 0xABC JUMPI DUP3 SWAP1 SUB PUSH1 0x1F AND DUP3 ADD SWAP2 JUMPDEST POP POP POP POP POP DUP2 MSTORE POP POP DUP2 MSTORE PUSH1 0x20 ADD PUSH1 0xB DUP3 ADD PUSH1 0x40 MLOAD DUP1 PUSH1 0x40 ADD PUSH1 0x40 MSTORE SWAP1 DUP2 PUSH1 0x0 DUP3 ADD SLOAD DUP2 MSTORE PUSH1 0x20 ADD PUSH1 0x1 DUP3 ADD SLOAD DUP2 MSTORE POP POP DUP2 MSTORE POP POP DUP2 MSTORE PUSH1 0x20 ADD PUSH1 0x15 DUP3 ADD SLOAD DUP2 MSTORE PUSH1 0x20 ADD PUSH1 0x16 DUP3 ADD DUP1 SLOAD PUSH2 0xB2C SWAP1 PUSH2 0x37DD JUMP JUMPDEST DUP1 PUSH1 0x1F ADD PUSH1 0x20 DUP1 SWAP2 DIV MUL PUSH1 0x20 ADD PUSH1 0x40 MLOAD SWAP1 DUP2 ADD PUSH1 0x40 MSTORE DUP1 SWAP3 SWAP2 SWAP1 DUP2 DUP2 MSTORE PUSH1 0x20 ADD DUP3 DUP1 SLOAD PUSH2 0xB58 SWAP1 PUSH2 0x37DD JUMP JUMPDEST DUP1 ISZERO PUSH2 0xBA5 JUMPI DUP1 PUSH1 0x1F LT PUSH2 0xB7A JUMPI PUSH2 0x100 DUP1 DUP4 SLOAD DIV MUL DUP4 MSTORE SWAP2 PUSH1 0x20 ADD SWAP2 PUSH2 0xBA5 JUMP JUMPDEST DUP3 ADD SWAP2 SWAP1 PUSH1 0x0 MSTORE PUSH1 0x20 PUSH1 0x0 KECCAK256 SWAP1 JUMPDEST DUP2 SLOAD DUP2 MSTORE SWAP1 PUSH1 0x1 ADD SWAP1 PUSH1 0x20 ADD DUP1 DUP4 GT PUSH2 0xB88 JUMPI DUP3 SWAP1 SUB PUSH1 0x1F AND DUP3 ADD SWAP2 JUMPDEST POP POP POP POP POP DUP2 MSTORE POP POP SWAP1 DUP1 PUSH1 0x19 ADD PUSH1 0x0 SWAP1 SLOAD SWAP1 PUSH2 0x100 EXP SWAP1 DIV PUSH20 0xFFFFFFFFFFFFFFFFFFFFFFFFFFFFFFFFFFFFFFFF AND SWAP1 DUP1 PUSH1 0x1A ADD PUSH1 0x40 MLOAD DUP1 PUSH1 0x60 ADD PUSH1 0x40 MSTORE SWAP1 DUP2 PUSH1 0x0 DUP3 ADD PUSH1 0x40 MLOAD DUP1 PUSH1 0x60 ADD PUSH1 0x40 MSTORE SWAP1 DUP2 PUSH1 0x0 DUP3 ADD DUP1 SLOAD PUSH2 0xC04 SWAP1 PUSH2 0x37DD JUMP JUMPDEST DUP1 PUSH1 0x1F ADD PUSH1 0x20 DUP1 SWAP2 DIV MUL PUSH1 0x20 ADD PUSH1 0x40 MLOAD SWAP1 DUP2 ADD PUSH1 0x40 MSTORE DUP1 SWAP3 SWAP2 SWAP1 DUP2 DUP2 MSTORE PUSH1 0x20 ADD DUP3 DUP1 SLOAD PUSH2 0xC30 SWAP1 PUSH2 0x37DD JUMP JUMPDEST DUP1 ISZERO PUSH2 0xC7D JUMPI DUP1 PUSH1 0x1F LT PUSH2 0xC52 JUMPI PUSH2 0x100 DUP1 DUP4 SLOAD DIV MUL DUP4 MSTORE SWAP2 PUSH1 0x20 ADD SWAP2 PUSH2 0xC7D JUMP JUMPDEST DUP3 ADD SWAP2 SWAP1 PUSH1 0x0 MSTORE PUSH1 0x20 PUSH1 0x0 KECCAK256 SWAP1 JUMPDEST DUP2 SLOAD DUP2 MSTORE SWAP1 PUSH1 0x1 ADD SWAP1 PUSH1 0x20 ADD DUP1 DUP4 GT PUSH2 0xC60 JUMPI DUP3 SWAP1 SUB PUSH1 0x1F AND DUP3 ADD SWAP2 JUMPDEST POP POP POP POP POP DUP2 MSTORE PUSH1 0x20 ADD PUSH1 0x1 DUP3 ADD DUP1 SLOAD PUSH2 0xC96 SWAP1 PUSH2 0x37DD JUMP JUMPDEST DUP1 PUSH1 0x1F ADD PUSH1 0x20 DUP1 SWAP2 DIV MUL PUSH1 0x20 ADD PUSH1 0x40 MLOAD SWAP1 DUP2 ADD PUSH1 0x40 MSTORE DUP1 SWAP3 SWAP2 SWAP1 DUP2 DUP2 MSTORE PUSH1 0x20 ADD DUP3 DUP1 SLOAD PUSH2 0xCC2 SWAP1 PUSH2 0x37DD JUMP JUMPDEST DUP1 ISZERO PUSH2 0xD0F JUMPI DUP1 PUSH1 0x1F LT PUSH2 0xCE4 JUMPI PUSH2 0x100 DUP1 DUP4 SLOAD DIV MUL DUP4 MSTORE SWAP2 PUSH1 0x20 ADD SWAP2 PUSH2 0xD0F JUMP JUMPDEST DUP3 ADD SWAP2 SWAP1 PUSH1 0x0 MSTORE PUSH1 0x20 PUSH1 0x0 KECCAK256 SWAP1 JUMPDEST DUP2 SLOAD DUP2 MSTORE SWAP1 PUSH1 0x1 ADD SWAP1 PUSH1 0x20 ADD DUP1 DUP4 GT PUSH2 0xCF2 JUMPI DUP3 SWAP1 SUB PUSH1 0x1F AND DUP3 ADD SWAP2 JUMPDEST POP POP POP POP POP DUP2 MSTORE PUSH1 0x20 ADD PUSH1 0x2 DUP3 ADD DUP1 SLOAD PUSH2 0xD28 SWAP1 PUSH2 0x37DD JUMP JUMPDEST DUP1 PUSH1 0x1F ADD PUSH1 0x20 DUP1 SWAP2 DIV MUL PUSH1 0x20 ADD PUSH1 0x40 MLOAD SWAP1 DUP2 ADD PUSH1 0x40 MSTORE DUP1 SWAP3 SWAP2 SWAP1 DUP2 DUP2 MSTORE PUSH1 0x20 ADD DUP3 DUP1 SLOAD PUSH2 0xD54 SWAP1 PUSH2 0x37DD JUMP JUMPDEST DUP1 ISZERO PUSH2 0xDA1 JUMPI DUP1 PUSH1 0x1F LT PUSH2 0xD76 JUMPI PUSH2 0x100 DUP1 DUP4 SLOAD DIV MUL DUP4 MSTORE SWAP2 PUSH1 0x20 ADD SWAP2 PUSH2 0xDA1 JUMP JUMPDEST DUP3 ADD SWAP2 SWAP1 PUSH1 0x0 MSTORE PUSH1 0x20 PUSH1 0x0 KECCAK256 SWAP1 JUMPDEST DUP2 SLOAD DUP2 MSTORE SWAP1 PUSH1 0x1 ADD SWAP1 PUSH1 0x20 ADD DUP1 DUP4 GT PUSH2 0xD84 JUMPI DUP3 SWAP1 SUB PUSH1 0x1F AND DUP3 ADD SWAP2 JUMPDEST POP POP POP POP POP DUP2 MSTORE POP POP DUP2 MSTORE PUSH1 0x20 ADD PUSH1 0x3 DUP3 ADD PUSH1 0x40 MLOAD DUP1 PUSH1 0x80 ADD PUSH1 0x40 MSTORE SWAP1 DUP2 PUSH1 0x0 DUP3 ADD SLOAD DUP2 MSTORE PUSH1 0x20 ADD PUSH1 0x1 DUP3 ADD SLOAD DUP2 MSTORE PUSH1 0x20 ADD PUSH1 0x2 DUP3 ADD DUP1 SLOAD PUSH2 0xDE2 SWAP1 PUSH2 0x37DD JUMP JUMPDEST DUP1 PUSH1 0x1F ADD PUSH1 0x20 DUP1 SWAP2 DIV MUL PUSH1 0x20 ADD PUSH1 0x40 MLOAD SWAP1 DUP2 ADD PUSH1 0x40 MSTORE DUP1 SWAP3 SWAP2 SWAP1 DUP2 DUP2 MSTORE PUSH1 0x20 ADD DUP3 DUP1 SLOAD PUSH2 0xE0E SWAP1 PUSH2 0x37DD JUMP JUMPDEST DUP1 ISZERO PUSH2 0xE5B JUMPI DUP1 PUSH1 0x1F LT PUSH2 0xE30 JUMPI PUSH2 0x100 DUP1 DUP4 SLOAD DIV MUL DUP4 MSTORE SWAP2 PUSH1 0x20 ADD SWAP2 PUSH2 0xE5B JUMP JUMPDEST DUP3 ADD SWAP2 SWAP1 PUSH1 0x0 MSTORE PUSH1 0x20 PUSH1 0x0 KECCAK256 SWAP1 JUMPDEST DUP2 SLOAD DUP2 MSTORE SWAP1 PUSH1 0x1 ADD SWAP1 PUSH1 0x20 ADD DUP1 DUP4 GT PUSH2 0xE3E JUMPI DUP3 SWAP1 SUB PUSH1 0x1F AND DUP3 ADD SWAP2 JUMPDEST POP POP POP POP POP DUP2 MSTORE PUSH1 0x20 ADD PUSH1 0x3 DUP3 ADD DUP1 SLOAD PUSH2 0xE74 SWAP1 PUSH2 0x37DD JUMP JUMPDEST DUP1 PUSH1 0x1F ADD PUSH1 0x20 DUP1 SWAP2 DIV MUL PUSH1 0x20 ADD PUSH1 0x40 MLOAD SWAP1 DUP2 ADD PUSH1 0x40 MSTORE DUP1 SWAP3 SWAP2 SWAP1 DUP2 DUP2 MSTORE PUSH1 0x20 ADD DUP3 DUP1 SLOAD PUSH2 0xEA0 SWAP1 PUSH2 0x37DD JUMP JUMPDEST DUP1 ISZERO PUSH2 0xEED JUMPI DUP1 PUSH1 0x1F LT PUSH2 0xEC2 JUMPI PUSH2 0x100 DUP1 DUP4 SLOAD DIV MUL DUP4 MSTORE SWAP2 PUSH1 0x20 ADD SWAP2 PUSH2 0xEED JUMP JUMPDEST DUP3 ADD SWAP2 SWAP1 PUSH1 0x0 MSTORE PUSH1 0x20 PUSH1 0x0 KECCAK256 SWAP1 JUMPDEST DUP2 SLOAD DUP2 MSTORE SWAP1 PUSH1 0x1 ADD SWAP1 PUSH1 0x20 ADD DUP1 DUP4 GT PUSH2 0xED0 JUMPI DUP3 SWAP1 SUB PUSH1 0x1F AND DUP3 ADD SWAP2 JUMPDEST POP POP POP POP POP DUP2 MSTORE POP POP DUP2 MSTORE PUSH1 0x20 ADD PUSH1 0x7 DUP3 ADD DUP1 SLOAD PUSH2 0xF0A SWAP1 PUSH2 0x37DD JUMP JUMPDEST DUP1 PUSH1 0x1F ADD PUSH1 0x20 DUP1 SWAP2 DIV MUL PUSH1 0x20 ADD PUSH1 0x40 MLOAD SWAP1 DUP2 ADD PUSH1 0x40 MSTORE DUP1 SWAP3 SWAP2 SWAP1 DUP2 DUP2 MSTORE PUSH1 0x20 ADD DUP3 DUP1 SLOAD PUSH2 0xF36 SWAP1 PUSH2 0x37DD JUMP JUMPDEST DUP1 ISZERO PUSH2 0xF83 JUMPI DUP1 PUSH1 0x1F LT PUSH2 0xF58 JUMPI PUSH2 0x100 DUP1 DUP4 SLOAD DIV MUL DUP4 MSTORE SWAP2 PUSH1 0x20 ADD SWAP2 PUSH2 0xF83 JUMP JUMPDEST DUP3 ADD SWAP2 SWAP1 PUSH1 0x0 MSTORE PUSH1 0x20 PUSH1 0x0 KECCAK256 SWAP1 JUMPDEST DUP2 SLOAD DUP2 MSTORE SWAP1 PUSH1 0x1 ADD SWAP1 PUSH1 0x20 ADD DUP1 DUP4 GT PUSH2 0xF66 JUMPI DUP3 SWAP1 SUB PUSH1 0x1F AND DUP3 ADD SWAP2 JUMPDEST POP POP POP POP POP DUP2 MSTORE POP POP SWAP1 DUP1 PUSH1 0x22 ADD PUSH1 0x0 SWAP1 SLOAD SWAP1 PUSH2 0x100 EXP SWAP1 DIV PUSH1 0xFF AND SWAP1 DUP1 PUSH1 0x22 ADD PUSH1 0x1 SWAP1 SLOAD SWAP1 PUSH2 0x100 EXP SWAP1 DIV PUSH1 0xFF AND SWAP1 DUP1 PUSH1 0x22 ADD PUSH1 0x2 SWAP1 SLOAD SWAP1 PUSH2 0x100 EXP SWAP1 DIV PUSH1 0xFF AND SWAP1 POP DUP9 JUMP JUMPDEST PUSH1 0x0 PUSH2 0xFD5 DUP3 PUSH2 0x2476 JUMP JUMPDEST SWAP1 POP SWAP2 SWAP1 POP JUMP JUMPDEST POP JUMP JUMPDEST JUMP JUMPDEST CALLER PUSH20 0xFFFFFFFFFFFFFFFFFFFFFFFFFFFFFFFFFFFFFFFF AND PUSH1 0x0 DUP1 DUP4 DUP2 MSTORE PUSH1 0x20 ADD SWAP1 DUP2 MSTORE PUSH1 0x20 ADD PUSH1 0x0 KECCAK256 PUSH1 0x1 ADD PUSH1 0x0 SWAP1 SLOAD SWAP1 PUSH2 0x100 EXP SWAP1 DIV PUSH20 0xFFFFFFFFFFFFFFFFFFFFFFFFFFFFFFFFFFFFFFFF AND PUSH20 0xFFFFFFFFFFFFFFFFFFFFFFFFFFFFFFFFFFFFFFFF AND EQ PUSH2 0x1084 JUMPI PUSH1 0x40 MLOAD PUSH32 0x8C379A000000000000000000000000000000000000000000000000000000000 DUP2 MSTORE PUSH1 0x4 ADD PUSH2 0x107B SWAP1 PUSH2 0x3891 JUMP JUMPDEST PUSH1 0x40 MLOAD DUP1 SWAP2 SUB SWAP1 REVERT JUMPDEST PUSH1 0x2 PUSH1 0x0 DUP1 DUP4 DUP2 MSTORE PUSH1 0x20 ADD SWAP1 DUP2 MSTORE PUSH1 0x20 ADD PUSH1 0x0 KECCAK256 PUSH1 0x22 ADD PUSH1 0x0 PUSH2 0x100 EXP DUP2 SLOAD DUP2 PUSH1 0xFF MUL NOT AND SWAP1 DUP4 PUSH1 0x2 DUP2 GT ISZERO PUSH2 0x10BD JUMPI PUSH2 0x10BC PUSH2 0x2B9C JUMP JUMPDEST JUMPDEST MUL OR SWAP1 SSTORE POP POP JUMP JUMPDEST PUSH1 0x0 DUP1 PUSH1 0x0 DUP5 DUP2 MSTORE PUSH1 0x20 ADD SWAP1 DUP2 MSTORE PUSH1 0x20 ADD PUSH1 0x0 KECCAK256 SWAP1 POP DUP2 DUP1 ISZERO PUSH2 0x1137 JUMPI POP DUP1 PUSH1 0x1 ADD PUSH1 0x0 SWAP1 SLOAD SWAP1 PUSH2 0x100 EXP SWAP1 DIV PUSH20 0xFFFFFFFFFFFFFFFFFFFFFFFFFFFFFFFFFFFFFFFF AND PUSH20 0xFFFFFFFFFFFFFFFFFFFFFFFFFFFFFFFFFFFFFFFF AND CALLER PUSH20 0xFFFFFFFFFFFFFFFFFFFFFFFFFFFFFFFFFFFFFFFF AND EQ JUMPDEST ISZERO PUSH2 0x115E JUMPI PUSH1 0x1 DUP2 PUSH1 0x22 ADD PUSH1 0x1 PUSH2 0x100 EXP DUP2 SLOAD DUP2 PUSH1 0xFF MUL NOT AND SWAP1 DUP4 ISZERO ISZERO MUL OR SWAP1 SSTORE POP PUSH2 0x11DF JUMP JUMPDEST DUP2 ISZERO DUP1 ISZERO PUSH2 0x11BB JUMPI POP DUP1 PUSH1 0x19 ADD PUSH1 0x0 SWAP1 SLOAD SWAP1 PUSH2 0x100 EXP SWAP1 DIV PUSH20 0xFFFFFFFFFFFFFFFFFFFFFFFFFFFFFFFFFFFFFFFF AND PUSH20 0xFFFFFFFFFFFFFFFFFFFFFFFFFFFFFFFFFFFFFFFF AND CALLER PUSH20 0xFFFFFFFFFFFFFFFFFFFFFFFFFFFFFFFFFFFFFFFF AND EQ JUMPDEST ISZERO PUSH2 0x11DE JUMPI PUSH1 0x1 DUP2 PUSH1 0x22 ADD PUSH1 0x2 PUSH2 0x100 EXP DUP2 SLOAD DUP2 PUSH1 0xFF MUL NOT AND SWAP1 DUP4 ISZERO ISZERO MUL OR SWAP1 SSTORE POP JUMPDEST JUMPDEST DUP1 PUSH1 0x22 ADD PUSH1 0x1 SWAP1 SLOAD SWAP1 PUSH2 0x100 EXP SWAP1 DIV PUSH1 0xFF AND DUP1 ISZERO PUSH2 0x120B JUMPI POP DUP1 PUSH1 0x22 ADD PUSH1 0x2 SWAP1 SLOAD SWAP1 PUSH2 0x100 EXP SWAP1 DIV PUSH1 0xFF AND JUMPDEST ISZERO PUSH2 0x12A9 JUMPI DUP1 PUSH1 0x1 ADD PUSH1 0x0 SWAP1 SLOAD SWAP1 PUSH2 0x100 EXP SWAP1 DIV PUSH20 0xFFFFFFFFFFFFFFFFFFFFFFFFFFFFFFFFFFFFFFFF AND PUSH20 0xFFFFFFFFFFFFFFFFFFFFFFFFFFFFFFFFFFFFFFFF AND PUSH2 0x8FC SELFBALANCE SWAP1 DUP2 ISZERO MUL SWAP1 PUSH1 0x40 MLOAD PUSH1 0x0 PUSH1 0x40 MLOAD DUP1 DUP4 SUB DUP2 DUP6 DUP9 DUP9 CALL SWAP4 POP POP POP POP ISZERO DUP1 ISZERO PUSH2 0x127A JUMPI RETURNDATASIZE PUSH1 0x0 DUP1 RETURNDATACOPY RETURNDATASIZE PUSH1 0x0 REVERT JUMPDEST POP PUSH1 0x2 DUP2 PUSH1 0x22 ADD PUSH1 0x0 PUSH2 0x100 EXP DUP2 SLOAD DUP2 PUSH1 0xFF MUL NOT AND SWAP1 DUP4 PUSH1 0x2 DUP2 GT ISZERO PUSH2 0x12A3 JUMPI PUSH2 0x12A2 PUSH2 0x2B9C JUMP JUMPDEST JUMPDEST MUL OR SWAP1 SSTORE POP JUMPDEST POP POP POP JUMP JUMPDEST PUSH1 0x0 PUSH1 0x64 DUP3 PUSH2 0x12BD SWAP2 SWAP1 PUSH2 0x38E0 JUMP JUMPDEST SWAP1 POP SWAP2 SWAP1 POP JUMP JUMPDEST PUSH1 0x60 PUSH1 0x0 DUP1 JUMPDEST PUSH1 0x1 SLOAD DUP2 LT ISZERO PUSH2 0x1345 JUMPI PUSH1 0x0 PUSH1 0x2 DUP2 GT ISZERO PUSH2 0x12E8 JUMPI PUSH2 0x12E7 PUSH2 0x2B9C JUMP JUMPDEST JUMPDEST PUSH1 0x0 DUP1 DUP4 DUP2 MSTORE PUSH1 0x20 ADD SWAP1 DUP2 MSTORE PUSH1 0x20 ADD PUSH1 0x0 KECCAK256 PUSH1 0x22 ADD PUSH1 0x0 SWAP1 SLOAD SWAP1 PUSH2 0x100 EXP SWAP1 DIV PUSH1 0xFF AND PUSH1 0x2 DUP2 GT ISZERO PUSH2 0x131D JUMPI PUSH2 0x131C PUSH2 0x2B9C JUMP JUMPDEST JUMPDEST SUB PUSH2 0x1332 JUMPI PUSH1 0x1 DUP3 PUSH2 0x132F SWAP2 SWAP1 PUSH2 0x38E0 JUMP JUMPDEST SWAP2 POP JUMPDEST DUP1 DUP1 PUSH2 0x133D SWAP1 PUSH2 0x3914 JUMP JUMPDEST SWAP2 POP POP PUSH2 0x12CA JUMP JUMPDEST POP PUSH1 0x0 DUP2 PUSH8 0xFFFFFFFFFFFFFFFF DUP2 GT ISZERO PUSH2 0x1362 JUMPI PUSH2 0x1361 PUSH2 0x2CDA JUMP JUMPDEST JUMPDEST PUSH1 0x40 MLOAD SWAP1 DUP1 DUP3 MSTORE DUP1 PUSH1 0x20 MUL PUSH1 0x20 ADD DUP3 ADD PUSH1 0x40 MSTORE DUP1 ISZERO PUSH2 0x139B JUMPI DUP2 PUSH1 0x20 ADD JUMPDEST PUSH2 0x1388 PUSH2 0x2584 JUMP JUMPDEST DUP2 MSTORE PUSH1 0x20 ADD SWAP1 PUSH1 0x1 SWAP1 SUB SWAP1 DUP2 PUSH2 0x1380 JUMPI SWAP1 POP JUMPDEST POP SWAP1 POP PUSH1 0x0 DUP1 JUMPDEST PUSH1 0x1 SLOAD DUP2 LT ISZERO PUSH2 0x1614 JUMPI PUSH1 0x0 PUSH1 0x2 DUP2 GT ISZERO PUSH2 0x13C0 JUMPI PUSH2 0x13BF PUSH2 0x2B9C JUMP JUMPDEST JUMPDEST PUSH1 0x0 DUP1 DUP4 DUP2 MSTORE PUSH1 0x20 ADD SWAP1 DUP2 MSTORE PUSH1 0x20 ADD PUSH1 0x0 KECCAK256 PUSH1 0x22 ADD PUSH1 0x0 SWAP1 SLOAD SWAP1 PUSH2 0x100 EXP SWAP1 DIV PUSH1 0xFF AND PUSH1 0x2 DUP2 GT ISZERO PUSH2 0x13F5 JUMPI PUSH2 0x13F4 PUSH2 0x2B9C JUMP JUMPDEST JUMPDEST SUB PUSH2 0x1601 JUMPI PUSH1 0x0 DUP1 DUP3 DUP2 MSTORE PUSH1 0x20 ADD SWAP1 DUP2 MSTORE PUSH1 0x20 ADD PUSH1 0x0 KECCAK256 PUSH1 0x0 ADD SLOAD DUP4 DUP4 DUP2 MLOAD DUP2 LT PUSH2 0x1423 JUMPI PUSH2 0x1422 PUSH2 0x395C JUMP JUMPDEST JUMPDEST PUSH1 0x20 MUL PUSH1 0x20 ADD ADD MLOAD PUSH1 0x0 ADD DUP2 DUP2 MSTORE POP POP PUSH1 0x0 DUP1 DUP3 DUP2 MSTORE PUSH1 0x20 ADD SWAP1 DUP2 MSTORE PUSH1 0x20 ADD PUSH1 0x0 KECCAK256 PUSH1 0x2 ADD PUSH1 0x8 ADD PUSH1 0x0 ADD DUP1 SLOAD PUSH2 0x1459 SWAP1 PUSH2 0x37DD JUMP JUMPDEST DUP1 PUSH1 0x1F ADD PUSH1 0x20 DUP1 SWAP2 DIV MUL PUSH1 0x20 ADD PUSH1 0x40 MLOAD SWAP1 DUP2 ADD PUSH1 0x40 MSTORE DUP1 SWAP3 SWAP2 SWAP1 DUP2 DUP2 MSTORE PUSH1 0x20 ADD DUP3 DUP1 SLOAD PUSH2 0x1485 SWAP1 PUSH2 0x37DD JUMP JUMPDEST DUP1 ISZERO PUSH2 0x14D2 JUMPI DUP1 PUSH1 0x1F LT PUSH2 0x14A7 JUMPI PUSH2 0x100 DUP1 DUP4 SLOAD DIV MUL DUP4 MSTORE SWAP2 PUSH1 0x20 ADD SWAP2 PUSH2 0x14D2 JUMP JUMPDEST DUP3 ADD SWAP2 SWAP1 PUSH1 0x0 MSTORE PUSH1 0x20 PUSH1 0x0 KECCAK256 SWAP1 JUMPDEST DUP2 SLOAD DUP2 MSTORE SWAP1 PUSH1 0x1 ADD SWAP1 PUSH1 0x20 ADD DUP1 DUP4 GT PUSH2 0x14B5 JUMPI DUP3 SWAP1 SUB PUSH1 0x1F AND DUP3 ADD SWAP2 JUMPDEST POP POP POP POP POP DUP4 DUP4 DUP2 MLOAD DUP2 LT PUSH2 0x14EA JUMPI PUSH2 0x14E9 PUSH2 0x395C JUMP JUMPDEST JUMPDEST PUSH1 0x20 MUL PUSH1 0x20 ADD ADD MLOAD PUSH1 0x20 ADD DUP2 SWAP1 MSTORE POP PUSH1 0x0 DUP1 DUP3 DUP2 MSTORE PUSH1 0x20 ADD SWAP1 DUP2 MSTORE PUSH1 0x20 ADD PUSH1 0x0 KECCAK256 PUSH1 0x2 ADD PUSH1 0x8 ADD PUSH1 0x1 ADD SLOAD DUP4 DUP4 DUP2 MLOAD DUP2 LT PUSH2 0x1528 JUMPI PUSH2 0x1527 PUSH2 0x395C JUMP JUMPDEST JUMPDEST PUSH1 0x20 MUL PUSH1 0x20 ADD ADD MLOAD PUSH1 0x40 ADD DUP2 DUP2 MSTORE POP POP PUSH1 0x0 DUP1 DUP3 DUP2 MSTORE PUSH1 0x20 ADD SWAP1 DUP2 MSTORE PUSH1 0x20 ADD PUSH1 0x0 KECCAK256 PUSH1 0x2 ADD PUSH1 0x8 ADD PUSH1 0x5 ADD SLOAD DUP4 DUP4 DUP2 MLOAD DUP2 LT PUSH2 0x1567 JUMPI PUSH2 0x1566 PUSH2 0x395C JUMP JUMPDEST JUMPDEST PUSH1 0x20 MUL PUSH1 0x20 ADD ADD MLOAD PUSH1 0x60 ADD DUP2 DUP2 MSTORE POP POP PUSH1 0x0 DUP1 DUP3 DUP2 MSTORE PUSH1 0x20 ADD SWAP1 DUP2 MSTORE PUSH1 0x20 ADD PUSH1 0x0 KECCAK256 PUSH1 0x2 ADD PUSH1 0x8 ADD PUSH1 0x6 ADD SLOAD DUP4 DUP4 DUP2 MLOAD DUP2 LT PUSH2 0x15A6 JUMPI PUSH2 0x15A5 PUSH2 0x395C JUMP JUMPDEST JUMPDEST PUSH1 0x20 MUL PUSH1 0x20 ADD ADD MLOAD PUSH1 0x80 ADD DUP2 DUP2 MSTORE POP POP PUSH1 0x0 DUP1 DUP3 DUP2 MSTORE PUSH1 0x20 ADD SWAP1 DUP2 MSTORE PUSH1 0x20 ADD PUSH1 0x0 KECCAK256 PUSH1 0x2 ADD PUSH1 0x15 ADD SLOAD DUP4 DUP4 DUP2 MLOAD DUP2 LT PUSH2 0x15E2 JUMPI PUSH2 0x15E1 PUSH2 0x395C JUMP JUMPDEST JUMPDEST PUSH1 0x20 MUL PUSH1 0x20 ADD ADD MLOAD PUSH1 0xA0 ADD DUP2 DUP2 MSTORE POP POP DUP2 DUP1 PUSH2 0x15FD SWAP1 PUSH2 0x3914 JUMP JUMPDEST SWAP3 POP POP JUMPDEST DUP1 DUP1 PUSH2 0x160C SWAP1 PUSH2 0x3914 JUMP JUMPDEST SWAP2 POP POP PUSH2 0x13A2 JUMP JUMPDEST POP DUP2 SWAP4 POP POP POP POP SWAP1 JUMP JUMPDEST PUSH2 0x1626 PUSH2 0x25BA JUMP JUMPDEST PUSH2 0x162E PUSH2 0x25BA JUMP JUMPDEST PUSH1 0x0 DUP1 DUP5 DUP2 MSTORE PUSH1 0x20 ADD SWAP1 DUP2 MSTORE PUSH1 0x20 ADD PUSH1 0x0 KECCAK256 PUSH1 0x2 ADD PUSH1 0x8 ADD PUSH1 0x40 MLOAD DUP1 PUSH2 0x120 ADD PUSH1 0x40 MSTORE SWAP1 DUP2 PUSH1 0x0 DUP3 ADD DUP1 SLOAD PUSH2 0x1662 SWAP1 PUSH2 0x37DD JUMP JUMPDEST DUP1 PUSH1 0x1F ADD PUSH1 0x20 DUP1 SWAP2 DIV MUL PUSH1 0x20 ADD PUSH1 0x40 MLOAD SWAP1 DUP2 ADD PUSH1 0x40 MSTORE DUP1 SWAP3 SWAP2 SWAP1 DUP2 DUP2 MSTORE PUSH1 0x20 ADD DUP3 DUP1 SLOAD PUSH2 0x168E SWAP1 PUSH2 0x37DD JUMP JUMPDEST DUP1 ISZERO PUSH2 0x16DB JUMPI DUP1 PUSH1 0x1F LT PUSH2 0x16B0 JUMPI PUSH2 0x100 DUP1 DUP4 SLOAD DIV MUL DUP4 MSTORE SWAP2 PUSH1 0x20 ADD SWAP2 PUSH2 0x16DB JUMP JUMPDEST DUP3 ADD SWAP2 SWAP1 PUSH1 0x0 MSTORE PUSH1 0x20 PUSH1 0x0 KECCAK256 SWAP1 JUMPDEST DUP2 SLOAD DUP2 MSTORE SWAP1 PUSH1 0x1 ADD SWAP1 PUSH1 0x20 ADD DUP1 DUP4 GT PUSH2 0x16BE JUMPI DUP3 SWAP1 SUB PUSH1 0x1F AND DUP3 ADD SWAP2 JUMPDEST POP POP POP POP POP DUP2 MSTORE PUSH1 0x20 ADD PUSH1 0x1 DUP3 ADD SLOAD DUP2 MSTORE PUSH1 0x20 ADD PUSH1 0x2 DUP3 ADD DUP1 SLOAD PUSH2 0x16FE SWAP1 PUSH2 0x37DD JUMP JUMPDEST DUP1 PUSH1 0x1F ADD PUSH1 0x20 DUP1 SWAP2 DIV MUL PUSH1 0x20 ADD PUSH1 0x40 MLOAD SWAP1 DUP2 ADD PUSH1 0x40 MSTORE DUP1 SWAP3 SWAP2 SWAP1 DUP2 DUP2 MSTORE PUSH1 0x20 ADD DUP3 DUP1 SLOAD PUSH2 0x172A SWAP1 PUSH2 0x37DD JUMP JUMPDEST DUP1 ISZERO PUSH2 0x1777 JUMPI DUP1 PUSH1 0x1F LT PUSH2 0x174C JUMPI PUSH2 0x100 DUP1 DUP4 SLOAD DIV MUL DUP4 MSTORE SWAP2 PUSH1 0x20 ADD SWAP2 PUSH2 0x1777 JUMP JUMPDEST DUP3 ADD SWAP2 SWAP1 PUSH1 0x0 MSTORE PUSH1 0x20 PUSH1 0x0 KECCAK256 SWAP1 JUMPDEST DUP2 SLOAD DUP2 MSTORE SWAP1 PUSH1 0x1 ADD SWAP1 PUSH1 0x20 ADD DUP1 DUP4 GT PUSH2 0x175A JUMPI DUP3 SWAP1 SUB PUSH1 0x1F AND DUP3 ADD SWAP2 JUMPDEST POP POP POP POP POP DUP2 MSTORE PUSH1 0x20 ADD PUSH1 0x3 DUP3 ADD DUP1 SLOAD PUSH2 0x1790 SWAP1 PUSH2 0x37DD JUMP JUMPDEST DUP1 PUSH1 0x1F ADD PUSH1 0x20 DUP1 SWAP2 DIV MUL PUSH1 0x20 ADD PUSH1 0x40 MLOAD SWAP1 DUP2 ADD PUSH1 0x40 MSTORE DUP1 SWAP3 SWAP2 SWAP1 DUP2 DUP2 MSTORE PUSH1 0x20 ADD DUP3 DUP1 SLOAD PUSH2 0x17BC SWAP1 PUSH2 0x37DD JUMP JUMPDEST DUP1 ISZERO PUSH2 0x1809 JUMPI DUP1 PUSH1 0x1F LT PUSH2 0x17DE JUMPI PUSH2 0x100 DUP1 DUP4 SLOAD DIV MUL DUP4 MSTORE SWAP2 PUSH1 0x20 ADD SWAP2 PUSH2 0x1809 JUMP JUMPDEST DUP3 ADD SWAP2 SWAP1 PUSH1 0x0 MSTORE PUSH1 0x20 PUSH1 0x0 KECCAK256 SWAP1 JUMPDEST DUP2 SLOAD DUP2 MSTORE SWAP1 PUSH1 0x1 ADD SWAP1 PUSH1 0x20 ADD DUP1 DUP4 GT PUSH2 0x17EC JUMPI DUP3 SWAP1 SUB PUSH1 0x1F AND DUP3 ADD SWAP2 JUMPDEST POP POP POP POP POP DUP2 MSTORE PUSH1 0x20 ADD PUSH1 0x4 DUP3 ADD DUP1 SLOAD PUSH2 0x1822 SWAP1 PUSH2 0x37DD JUMP JUMPDEST DUP1 PUSH1 0x1F ADD PUSH1 0x20 DUP1 SWAP2 DIV MUL PUSH1 0x20 ADD PUSH1 0x40 MLOAD SWAP1 DUP2 ADD PUSH1 0x40 MSTORE DUP1 SWAP3 SWAP2 SWAP1 DUP2 DUP2 MSTORE PUSH1 0x20 ADD DUP3 DUP1 SLOAD PUSH2 0x184E SWAP1 PUSH2 0x37DD JUMP JUMPDEST DUP1 ISZERO PUSH2 0x189B JUMPI DUP1 PUSH1 0x1F LT PUSH2 0x1870 JUMPI PUSH2 0x100 DUP1 DUP4 SLOAD DIV MUL DUP4 MSTORE SWAP2 PUSH1 0x20 ADD SWAP2 PUSH2 0x189B JUMP JUMPDEST DUP3 ADD SWAP2 SWAP1 PUSH1 0x0 MSTORE PUSH1 0x20 PUSH1 0x0 KECCAK256 SWAP1 JUMPDEST DUP2 SLOAD DUP2 MSTORE SWAP1 PUSH1 0x1 ADD SWAP1 PUSH1 0x20 ADD DUP1 DUP4 GT PUSH2 0x187E JUMPI DUP3 SWAP1 SUB PUSH1 0x1F AND DUP3 ADD SWAP2 JUMPDEST POP POP POP POP POP DUP2 MSTORE PUSH1 0x20 ADD PUSH1 0x5 DUP3 ADD SLOAD DUP2 MSTORE PUSH1 0x20 ADD PUSH1 0x6 DUP3 ADD SLOAD DUP2 MSTORE PUSH1 0x20 ADD PUSH1 0x7 DUP3 ADD PUSH1 0x40 MLOAD DUP1 PUSH1 0x80 ADD PUSH1 0x40 MSTORE SWAP1 DUP2 PUSH1 0x0 DUP3 ADD SLOAD DUP2 MSTORE PUSH1 0x20 ADD PUSH1 0x1 DUP3 ADD SLOAD DUP2 MSTORE PUSH1 0x20 ADD PUSH1 0x2 DUP3 ADD DUP1 SLOAD PUSH2 0x18EC SWAP1 PUSH2 0x37DD JUMP JUMPDEST DUP1 PUSH1 0x1F ADD PUSH1 0x20 DUP1 SWAP2 DIV MUL PUSH1 0x20 ADD PUSH1 0x40 MLOAD SWAP1 DUP2 ADD PUSH1 0x40 MSTORE DUP1 SWAP3 SWAP2 SWAP1 DUP2 DUP2 MSTORE PUSH1 0x20 ADD DUP3 DUP1 SLOAD PUSH2 0x1918 SWAP1 PUSH2 0x37DD JUMP JUMPDEST DUP1 ISZERO PUSH2 0x1965 JUMPI DUP1 PUSH1 0x1F LT PUSH2 0x193A JUMPI PUSH2 0x100 DUP1 DUP4 SLOAD DIV MUL DUP4 MSTORE SWAP2 PUSH1 0x20 ADD SWAP2 PUSH2 0x1965 JUMP JUMPDEST DUP3 ADD SWAP2 SWAP1 PUSH1 0x0 MSTORE PUSH1 0x20 PUSH1 0x0 KECCAK256 SWAP1 JUMPDEST DUP2 SLOAD DUP2 MSTORE SWAP1 PUSH1 0x1 ADD SWAP1 PUSH1 0x20 ADD DUP1 DUP4 GT PUSH2 0x1948 JUMPI DUP3 SWAP1 SUB PUSH1 0x1F AND DUP3 ADD SWAP2 JUMPDEST POP POP POP POP POP DUP2 MSTORE PUSH1 0x20 ADD PUSH1 0x3 DUP3 ADD DUP1 SLOAD PUSH2 0x197E SWAP1 PUSH2 0x37DD JUMP JUMPDEST DUP1 PUSH1 0x1F ADD PUSH1 0x20 DUP1 SWAP2 DIV MUL PUSH1 0x20 ADD PUSH1 0x40 MLOAD SWAP1 DUP2 ADD PUSH1 0x40 MSTORE DUP1 SWAP3 SWAP2 SWAP1 DUP2 DUP2 MSTORE PUSH1 0x20 ADD DUP3 DUP1 SLOAD PUSH2 0x19AA SWAP1 PUSH2 0x37DD JUMP JUMPDEST DUP1 ISZERO PUSH2 0x19F7 JUMPI DUP1 PUSH1 0x1F LT PUSH2 0x19CC JUMPI PUSH2 0x100 DUP1 DUP4 SLOAD DIV MUL DUP4 MSTORE SWAP2 PUSH1 0x20 ADD SWAP2 PUSH2 0x19F7 JUMP JUMPDEST DUP3 ADD SWAP2 SWAP1 PUSH1 0x0 MSTORE PUSH1 0x20 PUSH1 0x0 KECCAK256 SWAP1 JUMPDEST DUP2 SLOAD DUP2 MSTORE SWAP1 PUSH1 0x1 ADD SWAP1 PUSH1 0x20 ADD DUP1 DUP4 GT PUSH2 0x19DA JUMPI DUP3 SWAP1 SUB PUSH1 0x1F AND DUP3 ADD SWAP2 JUMPDEST POP POP POP POP POP DUP2 MSTORE POP POP DUP2 MSTORE PUSH1 0x20 ADD PUSH1 0xB DUP3 ADD PUSH1 0x40 MLOAD DUP1 PUSH1 0x40 ADD PUSH1 0x40 MSTORE SWAP1 DUP2 PUSH1 0x0 DUP3 ADD SLOAD DUP2 MSTORE PUSH1 0x20 ADD PUSH1 0x1 DUP3 ADD SLOAD DUP2 MSTORE POP POP DUP2 MSTORE POP POP DUP2 PUSH1 0x0 ADD DUP2 SWAP1 MSTORE POP PUSH1 0x0 DUP1 DUP5 DUP2 MSTORE PUSH1 0x20 ADD SWAP1 DUP2 MSTORE PUSH1 0x20 ADD PUSH1 0x0 KECCAK256 PUSH1 0x2 ADD PUSH1 0x15 ADD SLOAD DUP2 PUSH1 0x20 ADD DUP2 DUP2 MSTORE POP POP PUSH1 0x0 DUP1 DUP5 DUP2 MSTORE PUSH1 0x20 ADD SWAP1 DUP2 MSTORE PUSH1 0x20 ADD PUSH1 0x0 KECCAK256 PUSH1 0x2 ADD PUSH1 0x16 ADD DUP1 SLOAD PUSH2 0x1A79 SWAP1 PUSH2 0x37DD JUMP JUMPDEST DUP1 PUSH1 0x1F ADD PUSH1 0x20 DUP1 SWAP2 DIV MUL PUSH1 0x20 ADD PUSH1 0x40 MLOAD SWAP1 DUP2 ADD PUSH1 0x40 MSTORE DUP1 SWAP3 SWAP2 SWAP1 DUP2 DUP2 MSTORE PUSH1 0x20 ADD DUP3 DUP1 SLOAD PUSH2 0x1AA5 SWAP1 PUSH2 0x37DD JUMP JUMPDEST DUP1 ISZERO PUSH2 0x1AF2 JUMPI DUP1 PUSH1 0x1F LT PUSH2 0x1AC7 JUMPI PUSH2 0x100 DUP1 DUP4 SLOAD DIV MUL DUP4 MSTORE SWAP2 PUSH1 0x20 ADD SWAP2 PUSH2 0x1AF2 JUMP JUMPDEST DUP3 ADD SWAP2 SWAP1 PUSH1 0x0 MSTORE PUSH1 0x20 PUSH1 0x0 KECCAK256 SWAP1 JUMPDEST DUP2 SLOAD DUP2 MSTORE SWAP1 PUSH1 0x1 ADD SWAP1 PUSH1 0x20 ADD DUP1 DUP4 GT PUSH2 0x1AD5 JUMPI DUP3 SWAP1 SUB PUSH1 0x1F AND DUP3 ADD SWAP2 JUMPDEST POP POP POP POP POP DUP2 PUSH1 0x40 ADD DUP2 SWAP1 MSTORE POP DUP1 SWAP2 POP POP SWAP2 SWAP1 POP JUMP JUMPDEST PUSH2 0x1B10 PUSH2 0x25E1 JUMP JUMPDEST PUSH1 0x0 DUP1 DUP4 DUP2 MSTORE PUSH1 0x20 ADD SWAP1 DUP2 MSTORE PUSH1 0x20 ADD PUSH1 0x0 KECCAK256 PUSH1 0x1A ADD PUSH1 0x40 MLOAD DUP1 PUSH1 0x60 ADD PUSH1 0x40 MSTORE SWAP1 DUP2 PUSH1 0x0 DUP3 ADD PUSH1 0x40 MLOAD DUP1 PUSH1 0x60 ADD PUSH1 0x40 MSTORE SWAP1 DUP2 PUSH1 0x0 DUP3 ADD DUP1 SLOAD PUSH2 0x1B50 SWAP1 PUSH2 0x37DD JUMP JUMPDEST DUP1 PUSH1 0x1F ADD PUSH1 0x20 DUP1 SWAP2 DIV MUL PUSH1 0x20 ADD PUSH1 0x40 MLOAD SWAP1 DUP2 ADD PUSH1 0x40 MSTORE DUP1 SWAP3 SWAP2 SWAP1 DUP2 DUP2 MSTORE PUSH1 0x20 ADD DUP3 DUP1 SLOAD PUSH2 0x1B7C SWAP1 PUSH2 0x37DD JUMP JUMPDEST DUP1 ISZERO PUSH2 0x1BC9 JUMPI DUP1 PUSH1 0x1F LT PUSH2 0x1B9E JUMPI PUSH2 0x100 DUP1 DUP4 SLOAD DIV MUL DUP4 MSTORE SWAP2 PUSH1 0x20 ADD SWAP2 PUSH2 0x1BC9 JUMP JUMPDEST DUP3 ADD SWAP2 SWAP1 PUSH1 0x0 MSTORE PUSH1 0x20 PUSH1 0x0 KECCAK256 SWAP1 JUMPDEST DUP2 SLOAD DUP2 MSTORE SWAP1 PUSH1 0x1 ADD SWAP1 PUSH1 0x20 ADD DUP1 DUP4 GT PUSH2 0x1BAC JUMPI DUP3 SWAP1 SUB PUSH1 0x1F AND DUP3 ADD SWAP2 JUMPDEST POP POP POP POP POP DUP2 MSTORE PUSH1 0x20 ADD PUSH1 0x1 DUP3 ADD DUP1 SLOAD PUSH2 0x1BE2 SWAP1 PUSH2 0x37DD JUMP JUMPDEST DUP1 PUSH1 0x1F ADD PUSH1 0x20 DUP1 SWAP2 DIV MUL PUSH1 0x20 ADD PUSH1 0x40 MLOAD SWAP1 DUP2 ADD PUSH1 0x40 MSTORE DUP1 SWAP3 SWAP2 SWAP1 DUP2 DUP2 MSTORE PUSH1 0x20 ADD DUP3 DUP1 SLOAD PUSH2 0x1C0E SWAP1 PUSH2 0x37DD JUMP JUMPDEST DUP1 ISZERO PUSH2 0x1C5B JUMPI DUP1 PUSH1 0x1F LT PUSH2 0x1C30 JUMPI PUSH2 0x100 DUP1 DUP4 SLOAD DIV MUL DUP4 MSTORE SWAP2 PUSH1 0x20 ADD SWAP2 PUSH2 0x1C5B JUMP JUMPDEST DUP3 ADD SWAP2 SWAP1 PUSH1 0x0 MSTORE PUSH1 0x20 PUSH1 0x0 KECCAK256 SWAP1 JUMPDEST DUP2 SLOAD DUP2 MSTORE SWAP1 PUSH1 0x1 ADD SWAP1 PUSH1 0x20 ADD DUP1 DUP4 GT PUSH2 0x1C3E JUMPI DUP3 SWAP1 SUB PUSH1 0x1F AND DUP3 ADD SWAP2 JUMPDEST POP POP POP POP POP DUP2 MSTORE PUSH1 0x20 ADD PUSH1 0x2 DUP3 ADD DUP1 SLOAD PUSH2 0x1C74 SWAP1 PUSH2 0x37DD JUMP JUMPDEST DUP1 PUSH1 0x1F ADD PUSH1 0x20 DUP1 SWAP2 DIV MUL PUSH1 0x20 ADD PUSH1 0x40 MLOAD SWAP1 DUP2 ADD PUSH1 0x40 MSTORE DUP1 SWAP3 SWAP2 SWAP1 DUP2 DUP2 MSTORE PUSH1 0x20 ADD DUP3 DUP1 SLOAD PUSH2 0x1CA0 SWAP1 PUSH2 0x37DD JUMP JUMPDEST DUP1 ISZERO PUSH2 0x1CED JUMPI DUP1 PUSH1 0x1F LT PUSH2 0x1CC2 JUMPI PUSH2 0x100 DUP1 DUP4 SLOAD DIV MUL DUP4 MSTORE SWAP2 PUSH1 0x20 ADD SWAP2 PUSH2 0x1CED JUMP JUMPDEST DUP3 ADD SWAP2 SWAP1 PUSH1 0x0 MSTORE PUSH1 0x20 PUSH1 0x0 KECCAK256 SWAP1 JUMPDEST DUP2 SLOAD DUP2 MSTORE SWAP1 PUSH1 0x1 ADD SWAP1 PUSH1 0x20 ADD DUP1 DUP4 GT PUSH2 0x1CD0 JUMPI DUP3 SWAP1 SUB PUSH1 0x1F AND DUP3 ADD SWAP2 JUMPDEST POP POP POP POP POP DUP2 MSTORE POP POP DUP2 MSTORE PUSH1 0x20 ADD PUSH1 0x3 DUP3 ADD PUSH1 0x40 MLOAD DUP1 PUSH1 0x80 ADD PUSH1 0x40 MSTORE SWAP1 DUP2 PUSH1 0x0 DUP3 ADD SLOAD DUP2 MSTORE PUSH1 0x20 ADD PUSH1 0x1 DUP3 ADD SLOAD DUP2 MSTORE PUSH1 0x20 ADD PUSH1 0x2 DUP3 ADD DUP1 SLOAD PUSH2 0x1D2E SWAP1 PUSH2 0x37DD JUMP JUMPDEST DUP1 PUSH1 0x1F ADD PUSH1 0x20 DUP1 SWAP2 DIV MUL PUSH1 0x20 ADD PUSH1 0x40 MLOAD SWAP1 DUP2 ADD PUSH1 0x40 MSTORE DUP1 SWAP3 SWAP2 SWAP1 DUP2 DUP2 MSTORE PUSH1 0x20 ADD DUP3 DUP1 SLOAD PUSH2 0x1D5A SWAP1 PUSH2 0x37DD JUMP JUMPDEST DUP1 ISZERO PUSH2 0x1DA7 JUMPI DUP1 PUSH1 0x1F LT PUSH2 0x1D7C JUMPI PUSH2 0x100 DUP1 DUP4 SLOAD DIV MUL DUP4 MSTORE SWAP2 PUSH1 0x20 ADD SWAP2 PUSH2 0x1DA7 JUMP JUMPDEST DUP3 ADD SWAP2 SWAP1 PUSH1 0x0 MSTORE PUSH1 0x20 PUSH1 0x0 KECCAK256 SWAP1 JUMPDEST DUP2 SLOAD DUP2 MSTORE SWAP1 PUSH1 0x1 ADD SWAP1 PUSH1 0x20 ADD DUP1 DUP4 GT PUSH2 0x1D8A JUMPI DUP3 SWAP1 SUB PUSH1 0x1F AND DUP3 ADD SWAP2 JUMPDEST POP POP POP POP POP DUP2 MSTORE PUSH1 0x20 ADD PUSH1 0x3 DUP3 ADD DUP1 SLOAD PUSH2 0x1DC0 SWAP1 PUSH2 0x37DD JUMP JUMPDEST DUP1 PUSH1 0x1F ADD PUSH1 0x20 DUP1 SWAP2 DIV MUL PUSH1 0x20 ADD PUSH1 0x40 MLOAD SWAP1 DUP2 ADD PUSH1 0x40 MSTORE DUP1 SWAP3 SWAP2 SWAP1 DUP2 DUP2 MSTORE PUSH1 0x20 ADD DUP3 DUP1 SLOAD PUSH2 0x1DEC SWAP1 PUSH2 0x37DD JUMP JUMPDEST DUP1 ISZERO PUSH2 0x1E39 JUMPI DUP1 PUSH1 0x1F LT PUSH2 0x1E0E JUMPI PUSH2 0x100 DUP1 DUP4 SLOAD DIV MUL DUP4 MSTORE SWAP2 PUSH1 0x20 ADD SWAP2 PUSH2 0x1E39 JUMP JUMPDEST DUP3 ADD SWAP2 SWAP1 PUSH1 0x0 MSTORE PUSH1 0x20 PUSH1 0x0 KECCAK256 SWAP1 JUMPDEST DUP2 SLOAD DUP2 MSTORE SWAP1 PUSH1 0x1 ADD SWAP1 PUSH1 0x20 ADD DUP1 DUP4 GT PUSH2 0x1E1C JUMPI DUP3 SWAP1 SUB PUSH1 0x1F AND DUP3 ADD SWAP2 JUMPDEST POP POP POP POP POP DUP2 MSTORE POP POP DUP2 MSTORE PUSH1 0x20 ADD PUSH1 0x7 DUP3 ADD DUP1 SLOAD PUSH2 0x1E56 SWAP1 PUSH2 0x37DD JUMP JUMPDEST DUP1 PUSH1 0x1F ADD PUSH1 0x20 DUP1 SWAP2 DIV MUL PUSH1 0x20 ADD PUSH1 0x40 MLOAD SWAP1 DUP2 ADD PUSH1 0x40 MSTORE DUP1 SWAP3 SWAP2 SWAP1 DUP2 DUP2 MSTORE PUSH1 0x20 ADD DUP3 DUP1 SLOAD PUSH2 0x1E82 SWAP1 PUSH2 0x37DD JUMP JUMPDEST DUP1 ISZERO PUSH2 0x1ECF JUMPI DUP1 PUSH1 0x1F LT PUSH2 0x1EA4 JUMPI PUSH2 0x100 DUP1 DUP4 SLOAD DIV MUL DUP4 MSTORE SWAP2 PUSH1 0x20 ADD SWAP2 PUSH2 0x1ECF JUMP JUMPDEST DUP3 ADD SWAP2 SWAP1 PUSH1 0x0 MSTORE PUSH1 0x20 PUSH1 0x0 KECCAK256 SWAP1 JUMPDEST DUP2 SLOAD DUP2 MSTORE SWAP1 PUSH1 0x1 ADD SWAP1 PUSH1 0x20 ADD DUP1 DUP4 GT PUSH2 0x1EB2 JUMPI DUP3 SWAP1 SUB PUSH1 0x1F AND DUP3 ADD SWAP2 JUMPDEST POP POP POP POP POP DUP2 MSTORE POP POP SWAP1 POP SWAP2 SWAP1 POP JUMP JUMPDEST CALLER PUSH20 0xFFFFFFFFFFFFFFFFFFFFFFFFFFFFFFFFFFFFFFFF AND PUSH1 0x0 DUP1 DUP5 DUP2 MSTORE PUSH1 0x20 ADD SWAP1 DUP2 MSTORE PUSH1 0x20 ADD PUSH1 0x0 KECCAK256 PUSH1 0x1 ADD PUSH1 0x0 SWAP1 SLOAD SWAP1 PUSH2 0x100 EXP SWAP1 DIV PUSH20 0xFFFFFFFFFFFFFFFFFFFFFFFFFFFFFFFFFFFFFFFF AND PUSH20 0xFFFFFFFFFFFFFFFFFFFFFFFFFFFFFFFFFFFFFFFF AND SUB PUSH2 0x1F82 JUMPI PUSH1 0x40 MLOAD PUSH32 0x8C379A000000000000000000000000000000000000000000000000000000000 DUP2 MSTORE PUSH1 0x4 ADD PUSH2 0x1F79 SWAP1 PUSH2 0x39D7 JUMP JUMPDEST PUSH1 0x40 MLOAD DUP1 SWAP2 SUB SWAP1 REVERT JUMPDEST PUSH1 0x0 PUSH1 0x2 DUP2 GT ISZERO PUSH2 0x1F96 JUMPI PUSH2 0x1F95 PUSH2 0x2B9C JUMP JUMPDEST JUMPDEST PUSH1 0x0 DUP1 DUP5 DUP2 MSTORE PUSH1 0x20 ADD SWAP1 DUP2 MSTORE PUSH1 0x20 ADD PUSH1 0x0 KECCAK256 PUSH1 0x22 ADD PUSH1 0x0 SWAP1 SLOAD SWAP1 PUSH2 0x100 EXP SWAP1 DIV PUSH1 0xFF AND PUSH1 0x2 DUP2 GT ISZERO PUSH2 0x1FCB JUMPI PUSH2 0x1FCA PUSH2 0x2B9C JUMP JUMPDEST JUMPDEST EQ PUSH2 0x200B JUMPI PUSH1 0x40 MLOAD PUSH32 0x8C379A000000000000000000000000000000000000000000000000000000000 DUP2 MSTORE PUSH1 0x4 ADD PUSH2 0x2002 SWAP1 PUSH2 0x3A69 JUMP JUMPDEST PUSH1 0x40 MLOAD DUP1 SWAP2 SUB SWAP1 REVERT JUMPDEST CALLVALUE PUSH2 0x202D PUSH1 0x0 DUP1 DUP6 DUP2 MSTORE PUSH1 0x20 ADD SWAP1 DUP2 MSTORE PUSH1 0x20 ADD PUSH1 0x0 KECCAK256 PUSH1 0x2 ADD PUSH1 0x15 ADD SLOAD PUSH2 0x2476 JUMP JUMPDEST GT ISZERO PUSH2 0x206E JUMPI PUSH1 0x40 MLOAD PUSH32 0x8C379A000000000000000000000000000000000000000000000000000000000 DUP2 MSTORE PUSH1 0x4 ADD PUSH2 0x2065 SWAP1 PUSH2 0x3AD5 JUMP JUMPDEST PUSH1 0x40 MLOAD DUP1 SWAP2 SUB SWAP1 REVERT JUMPDEST CALLER PUSH1 0x0 DUP1 DUP5 DUP2 MSTORE PUSH1 0x20 ADD SWAP1 DUP2 MSTORE PUSH1 0x20 ADD PUSH1 0x0 KECCAK256 PUSH1 0x19 ADD PUSH1 0x0 PUSH2 0x100 EXP DUP2 SLOAD DUP2 PUSH20 0xFFFFFFFFFFFFFFFFFFFFFFFFFFFFFFFFFFFFFFFF MUL NOT AND SWAP1 DUP4 PUSH20 0xFFFFFFFFFFFFFFFFFFFFFFFFFFFFFFFFFFFFFFFF AND MUL OR SWAP1 SSTORE POP DUP1 PUSH1 0x0 DUP1 DUP5 DUP2 MSTORE PUSH1 0x20 ADD SWAP1 DUP2 MSTORE PUSH1 0x20 ADD PUSH1 0x0 KECCAK256 PUSH1 0x1A ADD PUSH1 0x0 DUP3 ADD MLOAD DUP2 PUSH1 0x0 ADD PUSH1 0x0 DUP3 ADD MLOAD DUP2 PUSH1 0x0 ADD SWAP1 DUP2 PUSH2 0x20F6 SWAP2 SWAP1 PUSH2 0x3CA1 JUMP JUMPDEST POP PUSH1 0x20 DUP3 ADD MLOAD DUP2 PUSH1 0x1 ADD SWAP1 DUP2 PUSH2 0x210C SWAP2 SWAP1 PUSH2 0x3CA1 JUMP JUMPDEST POP PUSH1 0x40 DUP3 ADD MLOAD DUP2 PUSH1 0x2 ADD SWAP1 DUP2 PUSH2 0x2122 SWAP2 SWAP1 PUSH2 0x3CA1 JUMP JUMPDEST POP POP POP PUSH1 0x20 DUP3 ADD MLOAD DUP2 PUSH1 0x3 ADD PUSH1 0x0 DUP3 ADD MLOAD DUP2 PUSH1 0x0 ADD SSTORE PUSH1 0x20 DUP3 ADD MLOAD DUP2 PUSH1 0x1 ADD SSTORE PUSH1 0x40 DUP3 ADD MLOAD DUP2 PUSH1 0x2 ADD SWAP1 DUP2 PUSH2 0x2157 SWAP2 SWAP1 PUSH2 0x3CA1 JUMP JUMPDEST POP PUSH1 0x60 DUP3 ADD MLOAD DUP2 PUSH1 0x3 ADD SWAP1 DUP2 PUSH2 0x216D SWAP2 SWAP1 PUSH2 0x3CA1 JUMP JUMPDEST POP POP POP PUSH1 0x40 DUP3 ADD MLOAD DUP2 PUSH1 0x7 ADD SWAP1 DUP2 PUSH2 0x2185 SWAP2 SWAP1 PUSH2 0x3CA1 JUMP JUMPDEST POP SWAP1 POP POP PUSH1 0x1 PUSH1 0x0 DUP1 DUP5 DUP2 MSTORE PUSH1 0x20 ADD SWAP1 DUP2 MSTORE PUSH1 0x20 ADD PUSH1 0x0 KECCAK256 PUSH1 0x22 ADD PUSH1 0x0 PUSH2 0x100 EXP DUP2 SLOAD DUP2 PUSH1 0xFF MUL NOT AND SWAP1 DUP4 PUSH1 0x2 DUP2 GT ISZERO PUSH2 0x21C2 JUMPI PUSH2 0x21C1 PUSH2 0x2B9C JUMP JUMPDEST JUMPDEST MUL OR SWAP1 SSTORE POP POP POP JUMP JUMPDEST PUSH1 0x1 SLOAD PUSH1 0x0 DUP1 PUSH1 0x1 SLOAD DUP2 MSTORE PUSH1 0x20 ADD SWAP1 DUP2 MSTORE PUSH1 0x20 ADD PUSH1 0x0 KECCAK256 PUSH1 0x0 ADD DUP2 SWAP1 SSTORE POP DUP1 PUSH1 0x0 DUP1 PUSH1 0x1 SLOAD DUP2 MSTORE PUSH1 0x20 ADD SWAP1 DUP2 MSTORE PUSH1 0x20 ADD PUSH1 0x0 KECCAK256 PUSH1 0x2 ADD PUSH1 0x0 DUP3 ADD MLOAD DUP2 PUSH1 0x0 ADD PUSH1 0x0 DUP3 ADD MLOAD DUP2 PUSH1 0x0 ADD SWAP1 DUP2 PUSH2 0x221F SWAP2 SWAP1 PUSH2 0x3CA1 JUMP JUMPDEST POP PUSH1 0x20 DUP3 ADD MLOAD DUP2 PUSH1 0x1 ADD SWAP1 DUP2 PUSH2 0x2235 SWAP2 SWAP1 PUSH2 0x3CA1 JUMP JUMPDEST POP PUSH1 0x40 DUP3 ADD MLOAD DUP2 PUSH1 0x2 ADD SWAP1 DUP2 PUSH2 0x224B SWAP2 SWAP1 PUSH2 0x3CA1 JUMP JUMPDEST POP POP POP PUSH1 0x20 DUP3 ADD MLOAD DUP2 PUSH1 0x3 ADD PUSH1 0x0 DUP3 ADD MLOAD DUP2 PUSH1 0x0 ADD SSTORE PUSH1 0x20 DUP3 ADD MLOAD DUP2 PUSH1 0x1 ADD SSTORE PUSH1 0x40 DUP3 ADD MLOAD DUP2 PUSH1 0x2 ADD SWAP1 DUP2 PUSH2 0x2280 SWAP2 SWAP1 PUSH2 0x3CA1 JUMP JUMPDEST POP PUSH1 0x60 DUP3 ADD MLOAD DUP2 PUSH1 0x3 ADD SWAP1 DUP2 PUSH2 0x2296 SWAP2 SWAP1 PUSH2 0x3CA1 JUMP JUMPDEST POP POP POP PUSH1 0x40 DUP3 ADD MLOAD DUP2 PUSH1 0x7 ADD SWAP1 DUP2 PUSH2 0x22AE SWAP2 SWAP1 PUSH2 0x3CA1 JUMP JUMPDEST POP PUSH1 0x60 DUP3 ADD MLOAD DUP2 PUSH1 0x8 ADD PUSH1 0x0 DUP3 ADD MLOAD DUP2 PUSH1 0x0 ADD SWAP1 DUP2 PUSH2 0x22CD SWAP2 SWAP1 PUSH2 0x3CA1 JUMP JUMPDEST POP PUSH1 0x20 DUP3 ADD MLOAD DUP2 PUSH1 0x1 ADD SSTORE PUSH1 0x40 DUP3 ADD MLOAD DUP2 PUSH1 0x2 ADD SWAP1 DUP2 PUSH2 0x22ED SWAP2 SWAP1 PUSH2 0x3CA1 JUMP JUMPDEST POP PUSH1 0x60 DUP3 ADD MLOAD DUP2 PUSH1 0x3 ADD SWAP1 DUP2 PUSH2 0x2303 SWAP2 SWAP1 PUSH2 0x3CA1 JUMP JUMPDEST POP PUSH1 0x80 DUP3 ADD MLOAD DUP2 PUSH1 0x4 ADD SWAP1 DUP2 PUSH2 0x2319 SWAP2 SWAP1 PUSH2 0x3CA1 JUMP JUMPDEST POP PUSH1 0xA0 DUP3 ADD MLOAD DUP2 PUSH1 0x5 ADD SSTORE PUSH1 0xC0 DUP3 ADD MLOAD DUP2 PUSH1 0x6 ADD SSTORE PUSH1 0xE0 DUP3 ADD MLOAD DUP2 PUSH1 0x7 ADD PUSH1 0x0 DUP3 ADD MLOAD DUP2 PUSH1 0x0 ADD SSTORE PUSH1 0x20 DUP3 ADD MLOAD DUP2 PUSH1 0x1 ADD SSTORE PUSH1 0x40 DUP3 ADD MLOAD DUP2 PUSH1 0x2 ADD SWAP1 DUP2 PUSH2 0x2360 SWAP2 SWAP1 PUSH2 0x3CA1 JUMP JUMPDEST POP PUSH1 0x60 DUP3 ADD MLOAD DUP2 PUSH1 0x3 ADD SWAP1 DUP2 PUSH2 0x2376 SWAP2 SWAP1 PUSH2 0x3CA1 JUMP JUMPDEST POP POP POP PUSH2 0x100 DUP3 ADD MLOAD DUP2 PUSH1 0xB ADD PUSH1 0x0 DUP3 ADD MLOAD DUP2 PUSH1 0x0 ADD SSTORE PUSH1 0x20 DUP3 ADD MLOAD DUP2 PUSH1 0x1 ADD SSTORE POP POP POP POP PUSH1 0x80 DUP3 ADD MLOAD DUP2 PUSH1 0x15 ADD SSTORE PUSH1 0xA0 DUP3 ADD MLOAD DUP2 PUSH1 0x16 ADD SWAP1 DUP2 PUSH2 0x23BA SWAP2 SWAP1 PUSH2 0x3CA1 JUMP JUMPDEST POP SWAP1 POP POP CALLER PUSH1 0x0 DUP1 PUSH1 0x1 SLOAD DUP2 MSTORE PUSH1 0x20 ADD SWAP1 DUP2 MSTORE PUSH1 0x20 ADD PUSH1 0x0 KECCAK256 PUSH1 0x1 ADD PUSH1 0x0 PUSH2 0x100 EXP DUP2 SLOAD DUP2 PUSH20 0xFFFFFFFFFFFFFFFFFFFFFFFFFFFFFFFFFFFFFFFF MUL NOT AND SWAP1 DUP4 PUSH20 0xFFFFFFFFFFFFFFFFFFFFFFFFFFFFFFFFFFFFFFFF AND MUL OR SWAP1 SSTORE POP PUSH1 0x0 DUP1 PUSH1 0x0 PUSH1 0x1 SLOAD DUP2 MSTORE PUSH1 0x20 ADD SWAP1 DUP2 MSTORE PUSH1 0x20 ADD PUSH1 0x0 KECCAK256 PUSH1 0x22 ADD PUSH1 0x0 PUSH2 0x100 EXP DUP2 SLOAD DUP2 PUSH1 0xFF MUL NOT AND SWAP1 DUP4 PUSH1 0x2 DUP2 GT ISZERO PUSH2 0x244F JUMPI PUSH2 0x244E PUSH2 0x2B9C JUMP JUMPDEST JUMPDEST MUL OR SWAP1 SSTORE POP PUSH1 0x1 DUP1 PUSH1 0x0 DUP3 DUP3 SLOAD PUSH2 0x2466 SWAP2 SWAP1 PUSH2 0x38E0 JUMP JUMPDEST SWAP3 POP POP DUP2 SWAP1 SSTORE POP POP JUMP JUMPDEST PUSH1 0x1 SLOAD DUP2 JUMP JUMPDEST PUSH1 0x0 DUP1 PUSH2 0x2481 PUSH2 0x24DB JUMP JUMPDEST SWAP1 POP PUSH1 0x0 PUSH1 0x4D SWAP1 POP PUSH1 0x0 DUP2 PUSH8 0xDE0B6B3A7640000 DUP7 PUSH2 0x24A0 SWAP2 SWAP1 PUSH2 0x3D73 JUMP JUMPDEST PUSH2 0x24AA SWAP2 SWAP1 PUSH2 0x3DE4 JUMP JUMPDEST SWAP1 POP PUSH1 0x0 DUP4 PUSH8 0xDE0B6B3A7640000 DUP4 PUSH2 0x24C3 SWAP2 SWAP1 PUSH2 0x3D73 JUMP JUMPDEST PUSH2 0x24CD SWAP2 SWAP1 PUSH2 0x3DE4 JUMP JUMPDEST SWAP1 POP DUP1 SWAP5 POP POP POP POP POP SWAP2 SWAP1 POP JUMP JUMPDEST PUSH1 0x0 DUP1 PUSH20 0x694AA1769357215DE4FAC081BF1F309ADC325306 SWAP1 POP PUSH1 0x0 DUP2 PUSH20 0xFFFFFFFFFFFFFFFFFFFFFFFFFFFFFFFFFFFFFFFF AND PUSH4 0xFEAF968C PUSH1 0x40 MLOAD DUP2 PUSH4 0xFFFFFFFF AND PUSH1 0xE0 SHL DUP2 MSTORE PUSH1 0x4 ADD PUSH1 0xA0 PUSH1 0x40 MLOAD DUP1 DUP4 SUB DUP2 DUP7 GAS STATICCALL ISZERO DUP1 ISZERO PUSH2 0x2542 JUMPI RETURNDATASIZE PUSH1 0x0 DUP1 RETURNDATACOPY RETURNDATASIZE PUSH1 0x0 REVERT JUMPDEST POP POP POP POP PUSH1 0x40 MLOAD RETURNDATASIZE PUSH1 0x1F NOT PUSH1 0x1F DUP3 ADD AND DUP3 ADD DUP1 PUSH1 0x40 MSTORE POP DUP2 ADD SWAP1 PUSH2 0x2566 SWAP2 SWAP1 PUSH2 0x3EA2 JUMP JUMPDEST POP POP POP SWAP2 POP POP PUSH5 0x2540BE400 DUP2 PUSH2 0x257D SWAP2 SWAP1 PUSH2 0x3F1D JUMP JUMPDEST SWAP3 POP POP POP SWAP1 JUMP JUMPDEST PUSH1 0x40 MLOAD DUP1 PUSH1 0xC0 ADD PUSH1 0x40 MSTORE DUP1 PUSH1 0x0 DUP2 MSTORE PUSH1 0x20 ADD PUSH1 0x60 DUP2 MSTORE PUSH1 0x20 ADD PUSH1 0x0 DUP2 MSTORE PUSH1 0x20 ADD PUSH1 0x0 DUP2 MSTORE PUSH1 0x20 ADD PUSH1 0x0 DUP2 MSTORE PUSH1 0x20 ADD PUSH1 0x0 DUP2 MSTORE POP SWAP1 JUMP JUMPDEST PUSH1 0x40 MLOAD DUP1 PUSH1 0x60 ADD PUSH1 0x40 MSTORE DUP1 PUSH2 0x25CD PUSH2 0x260E JUMP JUMPDEST DUP2 MSTORE PUSH1 0x20 ADD PUSH1 0x0 DUP2 MSTORE PUSH1 0x20 ADD PUSH1 0x60 DUP2 MSTORE POP SWAP1 JUMP JUMPDEST PUSH1 0x40 MLOAD DUP1 PUSH1 0x60 ADD PUSH1 0x40 MSTORE DUP1 PUSH2 0x25F4 PUSH2 0x2666 JUMP JUMPDEST DUP2 MSTORE PUSH1 0x20 ADD PUSH2 0x2601 PUSH2 0x2687 JUMP JUMPDEST DUP2 MSTORE PUSH1 0x20 ADD PUSH1 0x60 DUP2 MSTORE POP SWAP1 JUMP JUMPDEST PUSH1 0x40 MLOAD DUP1 PUSH2 0x120 ADD PUSH1 0x40 MSTORE DUP1 PUSH1 0x60 DUP2 MSTORE PUSH1 0x20 ADD PUSH1 0x0 DUP2 MSTORE PUSH1 0x20 ADD PUSH1 0x60 DUP2 MSTORE PUSH1 0x20 ADD PUSH1 0x60 DUP2 MSTORE PUSH1 0x20 ADD PUSH1 0x60 DUP2 MSTORE PUSH1 0x20 ADD PUSH1 0x0 DUP2 MSTORE PUSH1 0x20 ADD PUSH1 0x0 DUP2 MSTORE PUSH1 0x20 ADD PUSH2 0x2653 PUSH2 0x26AF JUMP JUMPDEST DUP2 MSTORE PUSH1 0x20 ADD PUSH2 0x2660 PUSH2 0x26D7 JUMP JUMPDEST DUP2 MSTORE POP SWAP1 JUMP JUMPDEST PUSH1 0x40 MLOAD DUP1 PUSH1 0x60 ADD PUSH1 0x40 MSTORE DUP1 PUSH1 0x60 DUP2 MSTORE PUSH1 0x20 ADD PUSH1 0x60 DUP2 MSTORE PUSH1 0x20 ADD PUSH1 0x60 DUP2 MSTORE POP SWAP1 JUMP JUMPDEST PUSH1 0x40 MLOAD DUP1 PUSH1 0x80 ADD PUSH1 0x40 MSTORE DUP1 PUSH1 0x0 DUP2 MSTORE PUSH1 0x20 ADD PUSH1 0x0 DUP2 MSTORE PUSH1 0x20 ADD PUSH1 0x60 DUP2 MSTORE PUSH1 0x20 ADD PUSH1 0x60 DUP2 MSTORE POP SWAP1 JUMP JUMPDEST PUSH1 0x40 MLOAD DUP1 PUSH1 0x80 ADD PUSH1 0x40 MSTORE DUP1 PUSH1 0x0 DUP2 MSTORE PUSH1 0x20 ADD PUSH1 0x0 DUP2 MSTORE PUSH1 0x20 ADD PUSH1 0x60 DUP2 MSTORE PUSH1 0x20 ADD PUSH1 0x60 DUP2 MSTORE POP SWAP1 JUMP JUMPDEST PUSH1 0x40 MLOAD DUP1 PUSH1 0x40 ADD PUSH1 0x40 MSTORE DUP1 PUSH1 0x0 DUP2 MSTORE PUSH1 0x20 ADD PUSH1 0x0 DUP2 MSTORE POP SWAP1 JUMP JUMPDEST PUSH1 0x0 PUSH1 0x40 MLOAD SWAP1 POP SWAP1 JUMP JUMPDEST PUSH1 0x0 DUP1 REVERT JUMPDEST PUSH1 0x0 DUP1 REVERT JUMPDEST PUSH1 0x0 DUP2 SWAP1 POP SWAP2 SWAP1 POP JUMP JUMPDEST PUSH2 0x2718 DUP2 PUSH2 0x2705 JUMP JUMPDEST DUP2 EQ PUSH2 0x2723 JUMPI PUSH1 0x0 DUP1 REVERT JUMPDEST POP JUMP JUMPDEST PUSH1 0x0 DUP2 CALLDATALOAD SWAP1 POP PUSH2 0x2735 DUP2 PUSH2 0x270F JUMP JUMPDEST SWAP3 SWAP2 POP POP JUMP JUMPDEST PUSH1 0x0 PUSH1 0x20 DUP3 DUP5 SUB SLT ISZERO PUSH2 0x2751 JUMPI PUSH2 0x2750 PUSH2 0x26FB JUMP JUMPDEST JUMPDEST PUSH1 0x0 PUSH2 0x275F DUP5 DUP3 DUP6 ADD PUSH2 0x2726 JUMP JUMPDEST SWAP2 POP POP SWAP3 SWAP2 POP POP JUMP JUMPDEST PUSH2 0x2771 DUP2 PUSH2 0x2705 JUMP JUMPDEST DUP3 MSTORE POP POP JUMP JUMPDEST PUSH1 0x0 PUSH20 0xFFFFFFFFFFFFFFFFFFFFFFFFFFFFFFFFFFFFFFFF DUP3 AND SWAP1 POP SWAP2 SWAP1 POP JUMP JUMPDEST PUSH1 0x0 PUSH2 0x27A2 DUP3 PUSH2 0x2777 JUMP JUMPDEST SWAP1 POP SWAP2 SWAP1 POP JUMP JUMPDEST PUSH2 0x27B2 DUP2 PUSH2 0x2797 JUMP JUMPDEST DUP3 MSTORE POP POP JUMP JUMPDEST PUSH1 0x0 DUP2 MLOAD SWAP1 POP SWAP2 SWAP1 POP JUMP JUMPDEST PUSH1 0x0 DUP3 DUP3 MSTORE PUSH1 0x20 DUP3 ADD SWAP1 POP SWAP3 SWAP2 POP POP JUMP JUMPDEST PUSH1 0x0 JUMPDEST DUP4 DUP2 LT ISZERO PUSH2 0x27F2 JUMPI DUP1 DUP3 ADD MLOAD DUP2 DUP5 ADD MSTORE PUSH1 0x20 DUP2 ADD SWAP1 POP PUSH2 0x27D7 JUMP JUMPDEST PUSH1 0x0 DUP5 DUP5 ADD MSTORE POP POP POP POP JUMP JUMPDEST PUSH1 0x0 PUSH1 0x1F NOT PUSH1 0x1F DUP4 ADD AND SWAP1 POP SWAP2 SWAP1 POP JUMP JUMPDEST PUSH1 0x0 PUSH2 0x281A DUP3 PUSH2 0x27B8 JUMP JUMPDEST PUSH2 0x2824 DUP2 DUP6 PUSH2 0x27C3 JUMP JUMPDEST SWAP4 POP PUSH2 0x2834 DUP2 DUP6 PUSH1 0x20 DUP7 ADD PUSH2 0x27D4 JUMP JUMPDEST PUSH2 0x283D DUP2 PUSH2 0x27FE JUMP JUMPDEST DUP5 ADD SWAP2 POP POP SWAP3 SWAP2 POP POP JUMP JUMPDEST PUSH1 0x0 PUSH1 0x60 DUP4 ADD PUSH1 0x0 DUP4 ADD MLOAD DUP5 DUP3 SUB PUSH1 0x0 DUP7 ADD MSTORE PUSH2 0x2865 DUP3 DUP3 PUSH2 0x280F JUMP JUMPDEST SWAP2 POP POP PUSH1 0x20 DUP4 ADD MLOAD DUP5 DUP3 SUB PUSH1 0x20 DUP7 ADD MSTORE PUSH2 0x287F DUP3 DUP3 PUSH2 0x280F JUMP JUMPDEST SWAP2 POP POP PUSH1 0x40 DUP4 ADD MLOAD DUP5 DUP3 SUB PUSH1 0x40 DUP7 ADD MSTORE PUSH2 0x2899 DUP3 DUP3 PUSH2 0x280F JUMP JUMPDEST SWAP2 POP POP DUP1 SWAP2 POP POP SWAP3 SWAP2 POP POP JUMP JUMPDEST PUSH2 0x28AF DUP2 PUSH2 0x2705 JUMP JUMPDEST DUP3 MSTORE POP POP JUMP JUMPDEST PUSH1 0x0 PUSH1 0x80 DUP4 ADD PUSH1 0x0 DUP4 ADD MLOAD PUSH2 0x28CD PUSH1 0x0 DUP7 ADD DUP3 PUSH2 0x28A6 JUMP JUMPDEST POP PUSH1 0x20 DUP4 ADD MLOAD PUSH2 0x28E0 PUSH1 0x20 DUP7 ADD DUP3 PUSH2 0x28A6 JUMP JUMPDEST POP PUSH1 0x40 DUP4 ADD MLOAD DUP5 DUP3 SUB PUSH1 0x40 DUP7 ADD MSTORE PUSH2 0x28F8 DUP3 DUP3 PUSH2 0x280F JUMP JUMPDEST SWAP2 POP POP PUSH1 0x60 DUP4 ADD MLOAD DUP5 DUP3 SUB PUSH1 0x60 DUP7 ADD MSTORE PUSH2 0x2912 DUP3 DUP3 PUSH2 0x280F JUMP JUMPDEST SWAP2 POP POP DUP1 SWAP2 POP POP SWAP3 SWAP2 POP POP JUMP JUMPDEST PUSH1 0x0 PUSH1 0x80 DUP4 ADD PUSH1 0x0 DUP4 ADD MLOAD PUSH2 0x2937 PUSH1 0x0 DUP7 ADD DUP3 PUSH2 0x28A6 JUMP JUMPDEST POP PUSH1 0x20 DUP4 ADD MLOAD PUSH2 0x294A PUSH1 0x20 DUP7 ADD DUP3 PUSH2 0x28A6 JUMP JUMPDEST POP PUSH1 0x40 DUP4 ADD MLOAD DUP5 DUP3 SUB PUSH1 0x40 DUP7 ADD MSTORE PUSH2 0x2962 DUP3 DUP3 PUSH2 0x280F JUMP JUMPDEST SWAP2 POP POP PUSH1 0x60 DUP4 ADD MLOAD DUP5 DUP3 SUB PUSH1 0x60 DUP7 ADD MSTORE PUSH2 0x297C DUP3 DUP3 PUSH2 0x280F JUMP JUMPDEST SWAP2 POP POP DUP1 SWAP2 POP POP SWAP3 SWAP2 POP POP JUMP JUMPDEST PUSH1 0x40 DUP3 ADD PUSH1 0x0 DUP3 ADD MLOAD PUSH2 0x299F PUSH1 0x0 DUP6 ADD DUP3 PUSH2 0x28A6 JUMP JUMPDEST POP PUSH1 0x20 DUP3 ADD MLOAD PUSH2 0x29B2 PUSH1 0x20 DUP6 ADD DUP3 PUSH2 0x28A6 JUMP JUMPDEST POP POP POP POP JUMP JUMPDEST PUSH1 0x0 PUSH2 0x140 DUP4 ADD PUSH1 0x0 DUP4 ADD MLOAD DUP5 DUP3 SUB PUSH1 0x0 DUP7 ADD MSTORE PUSH2 0x29D6 DUP3 DUP3 PUSH2 0x280F JUMP JUMPDEST SWAP2 POP POP PUSH1 0x20 DUP4 ADD MLOAD PUSH2 0x29EB PUSH1 0x20 DUP7 ADD DUP3 PUSH2 0x28A6 JUMP JUMPDEST POP PUSH1 0x40 DUP4 ADD MLOAD DUP5 DUP3 SUB PUSH1 0x40 DUP7 ADD MSTORE PUSH2 0x2A03 DUP3 DUP3 PUSH2 0x280F JUMP JUMPDEST SWAP2 POP POP PUSH1 0x60 DUP4 ADD MLOAD DUP5 DUP3 SUB PUSH1 0x60 DUP7 ADD MSTORE PUSH2 0x2A1D DUP3 DUP3 PUSH2 0x280F JUMP JUMPDEST SWAP2 POP POP PUSH1 0x80 DUP4 ADD MLOAD DUP5 DUP3 SUB PUSH1 0x80 DUP7 ADD MSTORE PUSH2 0x2A37 DUP3 DUP3 PUSH2 0x280F JUMP JUMPDEST SWAP2 POP POP PUSH1 0xA0 DUP4 ADD MLOAD PUSH2 0x2A4C PUSH1 0xA0 DUP7 ADD DUP3 PUSH2 0x28A6 JUMP JUMPDEST POP PUSH1 0xC0 DUP4 ADD MLOAD PUSH2 0x2A5F PUSH1 0xC0 DUP7 ADD DUP3 PUSH2 0x28A6 JUMP JUMPDEST POP PUSH1 0xE0 DUP4 ADD MLOAD DUP5 DUP3 SUB PUSH1 0xE0 DUP7 ADD MSTORE PUSH2 0x2A77 DUP3 DUP3 PUSH2 0x291F JUMP JUMPDEST SWAP2 POP POP PUSH2 0x100 DUP4 ADD MLOAD PUSH2 0x2A8E PUSH2 0x100 DUP7 ADD DUP3 PUSH2 0x2989 JUMP JUMPDEST POP DUP1 SWAP2 POP POP SWAP3 SWAP2 POP POP JUMP JUMPDEST PUSH1 0x0 PUSH1 0xC0 DUP4 ADD PUSH1 0x0 DUP4 ADD MLOAD DUP5 DUP3 SUB PUSH1 0x0 DUP7 ADD MSTORE PUSH2 0x2AB6 DUP3 DUP3 PUSH2 0x2848 JUMP JUMPDEST SWAP2 POP POP PUSH1 0x20 DUP4 ADD MLOAD DUP5 DUP3 SUB PUSH1 0x20 DUP7 ADD MSTORE PUSH2 0x2AD0 DUP3 DUP3 PUSH2 0x28B5 JUMP JUMPDEST SWAP2 POP POP PUSH1 0x40 DUP4 ADD MLOAD DUP5 DUP3 SUB PUSH1 0x40 DUP7 ADD MSTORE PUSH2 0x2AEA DUP3 DUP3 PUSH2 0x280F JUMP JUMPDEST SWAP2 POP POP PUSH1 0x60 DUP4 ADD MLOAD DUP5 DUP3 SUB PUSH1 0x60 DUP7 ADD MSTORE PUSH2 0x2B04 DUP3 DUP3 PUSH2 0x29B8 JUMP JUMPDEST SWAP2 POP POP PUSH1 0x80 DUP4 ADD MLOAD PUSH2 0x2B19 PUSH1 0x80 DUP7 ADD DUP3 PUSH2 0x28A6 JUMP JUMPDEST POP PUSH1 0xA0 DUP4 ADD MLOAD DUP5 DUP3 SUB PUSH1 0xA0 DUP7 ADD MSTORE PUSH2 0x2B31 DUP3 DUP3 PUSH2 0x280F JUMP JUMPDEST SWAP2 POP POP DUP1 SWAP2 POP POP SWAP3 SWAP2 POP POP JUMP JUMPDEST PUSH1 0x0 PUSH1 0x60 DUP4 ADD PUSH1 0x0 DUP4 ADD MLOAD DUP5 DUP3 SUB PUSH1 0x0 DUP7 ADD MSTORE PUSH2 0x2B5B DUP3 DUP3 PUSH2 0x2848 JUMP JUMPDEST SWAP2 POP POP PUSH1 0x20 DUP4 ADD MLOAD DUP5 DUP3 SUB PUSH1 0x20 DUP7 ADD MSTORE PUSH2 0x2B75 DUP3 DUP3 PUSH2 0x28B5 JUMP JUMPDEST SWAP2 POP POP PUSH1 0x40 DUP4 ADD MLOAD DUP5 DUP3 SUB PUSH1 0x40 DUP7 ADD MSTORE PUSH2 0x2B8F DUP3 DUP3 PUSH2 0x280F JUMP JUMPDEST SWAP2 POP POP DUP1 SWAP2 POP POP SWAP3 SWAP2 POP POP JUMP JUMPDEST PUSH32 0x4E487B7100000000000000000000000000000000000000000000000000000000 PUSH1 0x0 MSTORE PUSH1 0x21 PUSH1 0x4 MSTORE PUSH1 0x24 PUSH1 0x0 REVERT JUMPDEST PUSH1 0x3 DUP2 LT PUSH2 0x2BDC JUMPI PUSH2 0x2BDB PUSH2 0x2B9C JUMP JUMPDEST JUMPDEST POP JUMP JUMPDEST PUSH1 0x0 DUP2 SWAP1 POP PUSH2 0x2BED DUP3 PUSH2 0x2BCB JUMP JUMPDEST SWAP2 SWAP1 POP JUMP JUMPDEST PUSH1 0x0 PUSH2 0x2BFD DUP3 PUSH2 0x2BDF JUMP JUMPDEST SWAP1 POP SWAP2 SWAP1 POP JUMP JUMPDEST PUSH2 0x2C0D DUP2 PUSH2 0x2BF2 JUMP JUMPDEST DUP3 MSTORE POP POP JUMP JUMPDEST PUSH1 0x0 DUP2 ISZERO ISZERO SWAP1 POP SWAP2 SWAP1 POP JUMP JUMPDEST PUSH2 0x2C28 DUP2 PUSH2 0x2C13 JUMP JUMPDEST DUP3 MSTORE POP POP JUMP JUMPDEST PUSH1 0x0 PUSH2 0x100 DUP3 ADD SWAP1 POP PUSH2 0x2C44 PUSH1 0x0 DUP4 ADD DUP12 PUSH2 0x2768 JUMP JUMPDEST PUSH2 0x2C51 PUSH1 0x20 DUP4 ADD DUP11 PUSH2 0x27A9 JUMP JUMPDEST DUP2 DUP2 SUB PUSH1 0x40 DUP4 ADD MSTORE PUSH2 0x2C63 DUP2 DUP10 PUSH2 0x2A99 JUMP JUMPDEST SWAP1 POP PUSH2 0x2C72 PUSH1 0x60 DUP4 ADD DUP9 PUSH2 0x27A9 JUMP JUMPDEST DUP2 DUP2 SUB PUSH1 0x80 DUP4 ADD MSTORE PUSH2 0x2C84 DUP2 DUP8 PUSH2 0x2B3E JUMP JUMPDEST SWAP1 POP PUSH2 0x2C93 PUSH1 0xA0 DUP4 ADD DUP7 PUSH2 0x2C04 JUMP JUMPDEST PUSH2 0x2CA0 PUSH1 0xC0 DUP4 ADD DUP6 PUSH2 0x2C1F JUMP JUMPDEST PUSH2 0x2CAD PUSH1 0xE0 DUP4 ADD DUP5 PUSH2 0x2C1F JUMP JUMPDEST SWAP10 SWAP9 POP POP POP POP POP POP POP POP POP JUMP JUMPDEST PUSH1 0x0 PUSH1 0x20 DUP3 ADD SWAP1 POP PUSH2 0x2CCF PUSH1 0x0 DUP4 ADD DUP5 PUSH2 0x2768 JUMP JUMPDEST SWAP3 SWAP2 POP POP JUMP JUMPDEST PUSH1 0x0 DUP1 REVERT JUMPDEST PUSH32 0x4E487B7100000000000000000000000000000000000000000000000000000000 PUSH1 0x0 MSTORE PUSH1 0x41 PUSH1 0x4 MSTORE PUSH1 0x24 PUSH1 0x0 REVERT JUMPDEST PUSH2 0x2D12 DUP3 PUSH2 0x27FE JUMP JUMPDEST DUP2 ADD DUP2 DUP2 LT PUSH8 0xFFFFFFFFFFFFFFFF DUP3 GT OR ISZERO PUSH2 0x2D31 JUMPI PUSH2 0x2D30 PUSH2 0x2CDA JUMP JUMPDEST JUMPDEST DUP1 PUSH1 0x40 MSTORE POP POP POP JUMP JUMPDEST PUSH1 0x0 PUSH2 0x2D44 PUSH2 0x26F1 JUMP JUMPDEST SWAP1 POP PUSH2 0x2D50 DUP3 DUP3 PUSH2 0x2D09 JUMP JUMPDEST SWAP2 SWAP1 POP JUMP JUMPDEST PUSH1 0x0 DUP1 REVERT JUMPDEST PUSH1 0x0 DUP1 REVERT JUMPDEST PUSH1 0x0 DUP1 REVERT JUMPDEST PUSH1 0x0 PUSH8 0xFFFFFFFFFFFFFFFF DUP3 GT ISZERO PUSH2 0x2D7F JUMPI PUSH2 0x2D7E PUSH2 0x2CDA JUMP JUMPDEST JUMPDEST PUSH2 0x2D88 DUP3 PUSH2 0x27FE JUMP JUMPDEST SWAP1 POP PUSH1 0x20 DUP2 ADD SWAP1 POP SWAP2 SWAP1 POP JUMP JUMPDEST DUP3 DUP2 DUP4 CALLDATACOPY PUSH1 0x0 DUP4 DUP4 ADD MSTORE POP POP POP JUMP JUMPDEST PUSH1 0x0 PUSH2 0x2DB7 PUSH2 0x2DB2 DUP5 PUSH2 0x2D64 JUMP JUMPDEST PUSH2 0x2D3A JUMP JUMPDEST SWAP1 POP DUP3 DUP2 MSTORE PUSH1 0x20 DUP2 ADD DUP5 DUP5 DUP5 ADD GT ISZERO PUSH2 0x2DD3 JUMPI PUSH2 0x2DD2 PUSH2 0x2D5F JUMP JUMPDEST JUMPDEST PUSH2 0x2DDE DUP5 DUP3 DUP6 PUSH2 0x2D95 JUMP JUMPDEST POP SWAP4 SWAP3 POP POP POP JUMP JUMPDEST PUSH1 0x0 DUP3 PUSH1 0x1F DUP4 ADD SLT PUSH2 0x2DFB JUMPI PUSH2 0x2DFA PUSH2 0x2D5A JUMP JUMPDEST JUMPDEST DUP2 CALLDATALOAD PUSH2 0x2E0B DUP5 DUP3 PUSH1 0x20 DUP7 ADD PUSH2 0x2DA4 JUMP JUMPDEST SWAP2 POP POP SWAP3 SWAP2 POP POP JUMP JUMPDEST PUSH2 0x2E1D DUP2 PUSH2 0x2C13 JUMP JUMPDEST DUP2 EQ PUSH2 0x2E28 JUMPI PUSH1 0x0 DUP1 REVERT JUMPDEST POP JUMP JUMPDEST PUSH1 0x0 DUP2 CALLDATALOAD SWAP1 POP PUSH2 0x2E3A DUP2 PUSH2 0x2E14 JUMP JUMPDEST SWAP3 SWAP2 POP POP JUMP JUMPDEST PUSH1 0x0 PUSH1 0x60 DUP3 DUP5 SUB SLT ISZERO PUSH2 0x2E56 JUMPI PUSH2 0x2E55 PUSH2 0x2CD5 JUMP JUMPDEST JUMPDEST PUSH2 0x2E60 PUSH1 0x60 PUSH2 0x2D3A JUMP JUMPDEST SWAP1 POP PUSH1 0x0 PUSH2 0x2E70 DUP5 DUP3 DUP6 ADD PUSH2 0x2726 JUMP JUMPDEST PUSH1 0x0 DUP4 ADD MSTORE POP PUSH1 0x20 DUP3 ADD CALLDATALOAD PUSH8 0xFFFFFFFFFFFFFFFF DUP2 GT ISZERO PUSH2 0x2E94 JUMPI PUSH2 0x2E93 PUSH2 0x2D55 JUMP JUMPDEST JUMPDEST PUSH2 0x2EA0 DUP5 DUP3 DUP6 ADD PUSH2 0x2DE6 JUMP JUMPDEST PUSH1 0x20 DUP4 ADD MSTORE POP PUSH1 0x40 PUSH2 0x2EB4 DUP5 DUP3 DUP6 ADD PUSH2 0x2E2B JUMP JUMPDEST PUSH1 0x40 DUP4 ADD MSTORE POP SWAP3 SWAP2 POP POP JUMP JUMPDEST PUSH1 0x0 PUSH1 0x20 DUP3 DUP5 SUB SLT ISZERO PUSH2 0x2ED6 JUMPI PUSH2 0x2ED5 PUSH2 0x26FB JUMP JUMPDEST JUMPDEST PUSH1 0x0 DUP3 ADD CALLDATALOAD PUSH8 0xFFFFFFFFFFFFFFFF DUP2 GT ISZERO PUSH2 0x2EF4 JUMPI PUSH2 0x2EF3 PUSH2 0x2700 JUMP JUMPDEST JUMPDEST PUSH2 0x2F00 DUP5 DUP3 DUP6 ADD PUSH2 0x2E40 JUMP JUMPDEST SWAP2 POP POP SWAP3 SWAP2 POP POP JUMP JUMPDEST PUSH1 0x0 DUP1 PUSH1 0x40 DUP4 DUP6 SUB SLT ISZERO PUSH2 0x2F20 JUMPI PUSH2 0x2F1F PUSH2 0x26FB JUMP JUMPDEST JUMPDEST PUSH1 0x0 PUSH2 0x2F2E DUP6 DUP3 DUP7 ADD PUSH2 0x2726 JUMP JUMPDEST SWAP3 POP POP PUSH1 0x20 PUSH2 0x2F3F DUP6 DUP3 DUP7 ADD PUSH2 0x2E2B JUMP JUMPDEST SWAP2 POP POP SWAP3 POP SWAP3 SWAP1 POP JUMP JUMPDEST PUSH1 0x0 DUP2 MLOAD SWAP1 POP SWAP2 SWAP1 POP JUMP JUMPDEST PUSH1 0x0 DUP3 DUP3 MSTORE PUSH1 0x20 DUP3 ADD SWAP1 POP SWAP3 SWAP2 POP POP JUMP JUMPDEST PUSH1 0x0 DUP2 SWAP1 POP PUSH1 0x20 DUP3 ADD SWAP1 POP SWAP2 SWAP1 POP JUMP JUMPDEST PUSH1 0x0 PUSH1 0xC0 DUP4 ADD PUSH1 0x0 DUP4 ADD MLOAD PUSH2 0x2F8D PUSH1 0x0 DUP7 ADD DUP3 PUSH2 0x28A6 JUMP JUMPDEST POP PUSH1 0x20 DUP4 ADD MLOAD DUP5 DUP3 SUB PUSH1 0x20 DUP7 ADD MSTORE PUSH2 0x2FA5 DUP3 DUP3 PUSH2 0x280F JUMP JUMPDEST SWAP2 POP POP PUSH1 0x40 DUP4 ADD MLOAD PUSH2 0x2FBA PUSH1 0x40 DUP7 ADD DUP3 PUSH2 0x28A6 JUMP JUMPDEST POP PUSH1 0x60 DUP4 ADD MLOAD PUSH2 0x2FCD PUSH1 0x60 DUP7 ADD DUP3 PUSH2 0x28A6 JUMP JUMPDEST POP PUSH1 0x80 DUP4 ADD MLOAD PUSH2 0x2FE0 PUSH1 0x80 DUP7 ADD DUP3 PUSH2 0x28A6 JUMP JUMPDEST POP PUSH1 0xA0 DUP4 ADD MLOAD PUSH2 0x2FF3 PUSH1 0xA0 DUP7 ADD DUP3 PUSH2 0x28A6 JUMP JUMPDEST POP DUP1 SWAP2 POP POP SWAP3 SWAP2 POP POP JUMP JUMPDEST PUSH1 0x0 PUSH2 0x300A DUP4 DUP4 PUSH2 0x2F75 JUMP JUMPDEST SWAP1 POP SWAP3 SWAP2 POP POP JUMP JUMPDEST PUSH1 0x0 PUSH1 0x20 DUP3 ADD SWAP1 POP SWAP2 SWAP1 POP JUMP JUMPDEST PUSH1 0x0 PUSH2 0x302A DUP3 PUSH2 0x2F49 JUMP JUMPDEST PUSH2 0x3034 DUP2 DUP6 PUSH2 0x2F54 JUMP JUMPDEST SWAP4 POP DUP4 PUSH1 0x20 DUP3 MUL DUP6 ADD PUSH2 0x3046 DUP6 PUSH2 0x2F65 JUMP JUMPDEST DUP1 PUSH1 0x0 JUMPDEST DUP6 DUP2 LT ISZERO PUSH2 0x3082 JUMPI DUP5 DUP5 SUB DUP10 MSTORE DUP2 MLOAD PUSH2 0x3063 DUP6 DUP3 PUSH2 0x2FFE JUMP JUMPDEST SWAP5 POP PUSH2 0x306E DUP4 PUSH2 0x3012 JUMP JUMPDEST SWAP3 POP PUSH1 0x20 DUP11 ADD SWAP10 POP POP PUSH1 0x1 DUP2 ADD SWAP1 POP PUSH2 0x304A JUMP JUMPDEST POP DUP3 SWAP8 POP DUP8 SWAP6 POP POP POP POP POP POP SWAP3 SWAP2 POP POP JUMP JUMPDEST PUSH1 0x0 PUSH1 0x20 DUP3 ADD SWAP1 POP DUP2 DUP2 SUB PUSH1 0x0 DUP4 ADD MSTORE PUSH2 0x30AE DUP2 DUP5 PUSH2 0x301F JUMP JUMPDEST SWAP1 POP SWAP3 SWAP2 POP POP JUMP JUMPDEST PUSH1 0x0 PUSH1 0x60 DUP4 ADD PUSH1 0x0 DUP4 ADD MLOAD DUP5 DUP3 SUB PUSH1 0x0 DUP7 ADD MSTORE PUSH2 0x30D3 DUP3 DUP3 PUSH2 0x29B8 JUMP JUMPDEST SWAP2 POP POP PUSH1 0x20 DUP4 ADD MLOAD PUSH2 0x30E8 PUSH1 0x20 DUP7 ADD DUP3 PUSH2 0x28A6 JUMP JUMPDEST POP PUSH1 0x40 DUP4 ADD MLOAD DUP5 DUP3 SUB PUSH1 0x40 DUP7 ADD MSTORE PUSH2 0x3100 DUP3 DUP3 PUSH2 0x280F JUMP JUMPDEST SWAP2 POP POP DUP1 SWAP2 POP POP SWAP3 SWAP2 POP POP JUMP JUMPDEST PUSH1 0x0 PUSH1 0x20 DUP3 ADD SWAP1 POP DUP2 DUP2 SUB PUSH1 0x0 DUP4 ADD MSTORE PUSH2 0x3127 DUP2 DUP5 PUSH2 0x30B6 JUMP JUMPDEST SWAP1 POP SWAP3 SWAP2 POP POP JUMP JUMPDEST PUSH1 0x0 PUSH1 0x20 DUP3 ADD SWAP1 POP DUP2 DUP2 SUB PUSH1 0x0 DUP4 ADD MSTORE PUSH2 0x3149 DUP2 DUP5 PUSH2 0x2B3E JUMP JUMPDEST SWAP1 POP SWAP3 SWAP2 POP POP JUMP JUMPDEST PUSH1 0x0 PUSH1 0x60 DUP3 DUP5 SUB SLT ISZERO PUSH2 0x3167 JUMPI PUSH2 0x3166 PUSH2 0x2CD5 JUMP JUMPDEST JUMPDEST PUSH2 0x3171 PUSH1 0x60 PUSH2 0x2D3A JUMP JUMPDEST SWAP1 POP PUSH1 0x0 DUP3 ADD CALLDATALOAD PUSH8 0xFFFFFFFFFFFFFFFF DUP2 GT ISZERO PUSH2 0x3191 JUMPI PUSH2 0x3190 PUSH2 0x2D55 JUMP JUMPDEST JUMPDEST PUSH2 0x319D DUP5 DUP3 DUP6 ADD PUSH2 0x2DE6 JUMP JUMPDEST PUSH1 0x0 DUP4 ADD MSTORE POP PUSH1 0x20 DUP3 ADD CALLDATALOAD PUSH8 0xFFFFFFFFFFFFFFFF DUP2 GT ISZERO PUSH2 0x31C1 JUMPI PUSH2 0x31C0 PUSH2 0x2D55 JUMP JUMPDEST JUMPDEST PUSH2 0x31CD DUP5 DUP3 DUP6 ADD PUSH2 0x2DE6 JUMP JUMPDEST PUSH1 0x20 DUP4 ADD MSTORE POP PUSH1 0x40 DUP3 ADD CALLDATALOAD PUSH8 0xFFFFFFFFFFFFFFFF DUP2 GT ISZERO PUSH2 0x31F1 JUMPI PUSH2 0x31F0 PUSH2 0x2D55 JUMP JUMPDEST JUMPDEST PUSH2 0x31FD DUP5 DUP3 DUP6 ADD PUSH2 0x2DE6 JUMP JUMPDEST PUSH1 0x40 DUP4 ADD MSTORE POP SWAP3 SWAP2 POP POP JUMP JUMPDEST PUSH1 0x0 PUSH1 0x80 DUP3 DUP5 SUB SLT ISZERO PUSH2 0x321F JUMPI PUSH2 0x321E PUSH2 0x2CD5 JUMP JUMPDEST JUMPDEST PUSH2 0x3229 PUSH1 0x80 PUSH2 0x2D3A JUMP JUMPDEST SWAP1 POP PUSH1 0x0 PUSH2 0x3239 DUP5 DUP3 DUP6 ADD PUSH2 0x2726 JUMP JUMPDEST PUSH1 0x0 DUP4 ADD MSTORE POP PUSH1 0x20 PUSH2 0x324D DUP5 DUP3 DUP6 ADD PUSH2 0x2726 JUMP JUMPDEST PUSH1 0x20 DUP4 ADD MSTORE POP PUSH1 0x40 DUP3 ADD CALLDATALOAD PUSH8 0xFFFFFFFFFFFFFFFF DUP2 GT ISZERO PUSH2 0x3271 JUMPI PUSH2 0x3270 PUSH2 0x2D55 JUMP JUMPDEST JUMPDEST PUSH2 0x327D DUP5 DUP3 DUP6 ADD PUSH2 0x2DE6 JUMP JUMPDEST PUSH1 0x40 DUP4 ADD MSTORE POP PUSH1 0x60 DUP3 ADD CALLDATALOAD PUSH8 0xFFFFFFFFFFFFFFFF DUP2 GT ISZERO PUSH2 0x32A1 JUMPI PUSH2 0x32A0 PUSH2 0x2D55 JUMP JUMPDEST JUMPDEST PUSH2 0x32AD DUP5 DUP3 DUP6 ADD PUSH2 0x2DE6 JUMP JUMPDEST PUSH1 0x60 DUP4 ADD MSTORE POP SWAP3 SWAP2 POP POP JUMP JUMPDEST PUSH1 0x0 PUSH1 0x60 DUP3 DUP5 SUB SLT ISZERO PUSH2 0x32CF JUMPI PUSH2 0x32CE PUSH2 0x2CD5 JUMP JUMPDEST JUMPDEST PUSH2 0x32D9 PUSH1 0x60 PUSH2 0x2D3A JUMP JUMPDEST SWAP1 POP PUSH1 0x0 DUP3 ADD CALLDATALOAD PUSH8 0xFFFFFFFFFFFFFFFF DUP2 GT ISZERO PUSH2 0x32F9 JUMPI PUSH2 0x32F8 PUSH2 0x2D55 JUMP JUMPDEST JUMPDEST PUSH2 0x3305 DUP5 DUP3 DUP6 ADD PUSH2 0x3151 JUMP JUMPDEST PUSH1 0x0 DUP4 ADD MSTORE POP PUSH1 0x20 DUP3 ADD CALLDATALOAD PUSH8 0xFFFFFFFFFFFFFFFF DUP2 GT ISZERO PUSH2 0x3329 JUMPI PUSH2 0x3328 PUSH2 0x2D55 JUMP JUMPDEST JUMPDEST PUSH2 0x3335 DUP5 DUP3 DUP6 ADD PUSH2 0x3209 JUMP JUMPDEST PUSH1 0x20 DUP4 ADD MSTORE POP PUSH1 0x40 DUP3 ADD CALLDATALOAD PUSH8 0xFFFFFFFFFFFFFFFF DUP2 GT ISZERO PUSH2 0x3359 JUMPI PUSH2 0x3358 PUSH2 0x2D55 JUMP JUMPDEST JUMPDEST PUSH2 0x3365 DUP5 DUP3 DUP6 ADD PUSH2 0x2DE6 JUMP JUMPDEST PUSH1 0x40 DUP4 ADD MSTORE POP SWAP3 SWAP2 POP POP JUMP JUMPDEST PUSH1 0x0 DUP1 PUSH1 0x40 DUP4 DUP6 SUB SLT ISZERO PUSH2 0x3388 JUMPI PUSH2 0x3387 PUSH2 0x26FB JUMP JUMPDEST JUMPDEST PUSH1 0x0 PUSH2 0x3396 DUP6 DUP3 DUP7 ADD PUSH2 0x2726 JUMP JUMPDEST SWAP3 POP POP PUSH1 0x20 DUP4 ADD CALLDATALOAD PUSH8 0xFFFFFFFFFFFFFFFF DUP2 GT ISZERO PUSH2 0x33B7 JUMPI PUSH2 0x33B6 PUSH2 0x2700 JUMP JUMPDEST JUMPDEST PUSH2 0x33C3 DUP6 DUP3 DUP7 ADD PUSH2 0x32B9 JUMP JUMPDEST SWAP2 POP POP SWAP3 POP SWAP3 SWAP1 POP JUMP JUMPDEST PUSH1 0x0 PUSH1 0x80 DUP3 DUP5 SUB SLT ISZERO PUSH2 0x33E3 JUMPI PUSH2 0x33E2 PUSH2 0x2CD5 JUMP JUMPDEST JUMPDEST PUSH2 0x33ED PUSH1 0x80 PUSH2 0x2D3A JUMP JUMPDEST SWAP1 POP PUSH1 0x0 PUSH2 0x33FD DUP5 DUP3 DUP6 ADD PUSH2 0x2726 JUMP JUMPDEST PUSH1 0x0 DUP4 ADD MSTORE POP PUSH1 0x20 PUSH2 0x3411 DUP5 DUP3 DUP6 ADD PUSH2 0x2726 JUMP JUMPDEST PUSH1 0x20 DUP4 ADD MSTORE POP PUSH1 0x40 DUP3 ADD CALLDATALOAD PUSH8 0xFFFFFFFFFFFFFFFF DUP2 GT ISZERO PUSH2 0x3435 JUMPI PUSH2 0x3434 PUSH2 0x2D55 JUMP JUMPDEST JUMPDEST PUSH2 0x3441 DUP5 DUP3 DUP6 ADD PUSH2 0x2DE6 JUMP JUMPDEST PUSH1 0x40 DUP4 ADD MSTORE POP PUSH1 0x60 DUP3 ADD CALLDATALOAD PUSH8 0xFFFFFFFFFFFFFFFF DUP2 GT ISZERO PUSH2 0x3465 JUMPI PUSH2 0x3464 PUSH2 0x2D55 JUMP JUMPDEST JUMPDEST PUSH2 0x3471 DUP5 DUP3 DUP6 ADD PUSH2 0x2DE6 JUMP JUMPDEST PUSH1 0x60 DUP4 ADD MSTORE POP SWAP3 SWAP2 POP POP JUMP JUMPDEST PUSH1 0x0 PUSH1 0x40 DUP3 DUP5 SUB SLT ISZERO PUSH2 0x3493 JUMPI PUSH2 0x3492 PUSH2 0x2CD5 JUMP JUMPDEST JUMPDEST PUSH2 0x349D PUSH1 0x40 PUSH2 0x2D3A JUMP JUMPDEST SWAP1 POP PUSH1 0x0 PUSH2 0x34AD DUP5 DUP3 DUP6 ADD PUSH2 0x2726 JUMP JUMPDEST PUSH1 0x0 DUP4 ADD MSTORE POP PUSH1 0x20 PUSH2 0x34C1 DUP5 DUP3 DUP6 ADD PUSH2 0x2726 JUMP JUMPDEST PUSH1 0x20 DUP4 ADD MSTORE POP SWAP3 SWAP2 POP POP JUMP JUMPDEST PUSH1 0x0 PUSH2 0x140 DUP3 DUP5 SUB SLT ISZERO PUSH2 0x34E4 JUMPI PUSH2 0x34E3 PUSH2 0x2CD5 JUMP JUMPDEST JUMPDEST PUSH2 0x34EF PUSH2 0x120 PUSH2 0x2D3A JUMP JUMPDEST SWAP1 POP PUSH1 0x0 DUP3 ADD CALLDATALOAD PUSH8 0xFFFFFFFFFFFFFFFF DUP2 GT ISZERO PUSH2 0x350F JUMPI PUSH2 0x350E PUSH2 0x2D55 JUMP JUMPDEST JUMPDEST PUSH2 0x351B DUP5 DUP3 DUP6 ADD PUSH2 0x2DE6 JUMP JUMPDEST PUSH1 0x0 DUP4 ADD MSTORE POP PUSH1 0x20 PUSH2 0x352F DUP5 DUP3 DUP6 ADD PUSH2 0x2726 JUMP JUMPDEST PUSH1 0x20 DUP4 ADD MSTORE POP PUSH1 0x40 DUP3 ADD CALLDATALOAD PUSH8 0xFFFFFFFFFFFFFFFF DUP2 GT ISZERO PUSH2 0x3553 JUMPI PUSH2 0x3552 PUSH2 0x2D55 JUMP JUMPDEST JUMPDEST PUSH2 0x355F DUP5 DUP3 DUP6 ADD PUSH2 0x2DE6 JUMP JUMPDEST PUSH1 0x40 DUP4 ADD MSTORE POP PUSH1 0x60 DUP3 ADD CALLDATALOAD PUSH8 0xFFFFFFFFFFFFFFFF DUP2 GT ISZERO PUSH2 0x3583 JUMPI PUSH2 0x3582 PUSH2 0x2D55 JUMP JUMPDEST JUMPDEST PUSH2 0x358F DUP5 DUP3 DUP6 ADD PUSH2 0x2DE6 JUMP JUMPDEST PUSH1 0x60 DUP4 ADD MSTORE POP PUSH1 0x80 DUP3 ADD CALLDATALOAD PUSH8 0xFFFFFFFFFFFFFFFF DUP2 GT ISZERO PUSH2 0x35B3 JUMPI PUSH2 0x35B2 PUSH2 0x2D55 JUMP JUMPDEST JUMPDEST PUSH2 0x35BF DUP5 DUP3 DUP6 ADD PUSH2 0x2DE6 JUMP JUMPDEST PUSH1 0x80 DUP4 ADD MSTORE POP PUSH1 0xA0 PUSH2 0x35D3 DUP5 DUP3 DUP6 ADD PUSH2 0x2726 JUMP JUMPDEST PUSH1 0xA0 DUP4 ADD MSTORE POP PUSH1 0xC0 PUSH2 0x35E7 DUP5 DUP3 DUP6 ADD PUSH2 0x2726 JUMP JUMPDEST PUSH1 0xC0 DUP4 ADD MSTORE POP PUSH1 0xE0 DUP3 ADD CALLDATALOAD PUSH8 0xFFFFFFFFFFFFFFFF DUP2 GT ISZERO PUSH2 0x360B JUMPI PUSH2 0x360A PUSH2 0x2D55 JUMP JUMPDEST JUMPDEST PUSH2 0x3617 DUP5 DUP3 DUP6 ADD PUSH2 0x33CD JUMP JUMPDEST PUSH1 0xE0 DUP4 ADD MSTORE POP PUSH2 0x100 PUSH2 0x362C DUP5 DUP3 DUP6 ADD PUSH2 0x347D JUMP JUMPDEST PUSH2 0x100 DUP4 ADD MSTORE POP SWAP3 SWAP2 POP POP JUMP JUMPDEST PUSH1 0x0 PUSH1 0xC0 DUP3 DUP5 SUB SLT ISZERO PUSH2 0x364F JUMPI PUSH2 0x364E PUSH2 0x2CD5 JUMP JUMPDEST JUMPDEST PUSH2 0x3659 PUSH1 0xC0 PUSH2 0x2D3A JUMP JUMPDEST SWAP1 POP PUSH1 0x0 DUP3 ADD CALLDATALOAD PUSH8 0xFFFFFFFFFFFFFFFF DUP2 GT ISZERO PUSH2 0x3679 JUMPI PUSH2 0x3678 PUSH2 0x2D55 JUMP JUMPDEST JUMPDEST PUSH2 0x3685 DUP5 DUP3 DUP6 ADD PUSH2 0x3151 JUMP JUMPDEST PUSH1 0x0 DUP4 ADD MSTORE POP PUSH1 0x20 DUP3 ADD CALLDATALOAD PUSH8 0xFFFFFFFFFFFFFFFF DUP2 GT ISZERO PUSH2 0x36A9 JUMPI PUSH2 0x36A8 PUSH2 0x2D55 JUMP JUMPDEST JUMPDEST PUSH2 0x36B5 DUP5 DUP3 DUP6 ADD PUSH2 0x3209 JUMP JUMPDEST PUSH1 0x20 DUP4 ADD MSTORE POP PUSH1 0x40 DUP3 ADD CALLDATALOAD PUSH8 0xFFFFFFFFFFFFFFFF DUP2 GT ISZERO PUSH2 0x36D9 JUMPI PUSH2 0x36D8 PUSH2 0x2D55 JUMP JUMPDEST JUMPDEST PUSH2 0x36E5 DUP5 DUP3 DUP6 ADD PUSH2 0x2DE6 JUMP JUMPDEST PUSH1 0x40 DUP4 ADD MSTORE POP PUSH1 0x60 DUP3 ADD CALLDATALOAD PUSH8 0xFFFFFFFFFFFFFFFF DUP2 GT ISZERO PUSH2 0x3709 JUMPI PUSH2 0x3708 PUSH2 0x2D55 JUMP JUMPDEST JUMPDEST PUSH2 0x3715 DUP5 DUP3 DUP6 ADD PUSH2 0x34CD JUMP JUMPDEST PUSH1 0x60 DUP4 ADD MSTORE POP PUSH1 0x80 PUSH2 0x3729 DUP5 DUP3 DUP6 ADD PUSH2 0x2726 JUMP JUMPDEST PUSH1 0x80 DUP4 ADD MSTORE POP PUSH1 0xA0 DUP3 ADD CALLDATALOAD PUSH8 0xFFFFFFFFFFFFFFFF DUP2 GT ISZERO PUSH2 0x374D JUMPI PUSH2 0x374C PUSH2 0x2D55 JUMP JUMPDEST JUMPDEST PUSH2 0x3759 DUP5 DUP3 DUP6 ADD PUSH2 0x2DE6 JUMP JUMPDEST PUSH1 0xA0 DUP4 ADD MSTORE POP SWAP3 SWAP2 POP POP JUMP JUMPDEST PUSH1 0x0 PUSH1 0x20 DUP3 DUP5 SUB SLT ISZERO PUSH2 0x377B JUMPI PUSH2 0x377A PUSH2 0x26FB JUMP JUMPDEST JUMPDEST PUSH1 0x0 DUP3 ADD CALLDATALOAD PUSH8 0xFFFFFFFFFFFFFFFF DUP2 GT ISZERO PUSH2 0x3799 JUMPI PUSH2 0x3798 PUSH2 0x2700 JUMP JUMPDEST JUMPDEST PUSH2 0x37A5 DUP5 DUP3 DUP6 ADD PUSH2 0x3639 JUMP JUMPDEST SWAP2 POP POP SWAP3 SWAP2 POP POP JUMP JUMPDEST PUSH32 0x4E487B7100000000000000000000000000000000000000000000000000000000 PUSH1 0x0 MSTORE PUSH1 0x22 PUSH1 0x4 MSTORE PUSH1 0x24 PUSH1 0x0 REVERT JUMPDEST PUSH1 0x0 PUSH1 0x2 DUP3 DIV SWAP1 POP PUSH1 0x1 DUP3 AND DUP1 PUSH2 0x37F5 JUMPI PUSH1 0x7F DUP3 AND SWAP2 POP JUMPDEST PUSH1 0x20 DUP3 LT DUP2 SUB PUSH2 0x3808 JUMPI PUSH2 0x3807 PUSH2 0x37AE JUMP JUMPDEST JUMPDEST POP SWAP2 SWAP1 POP JUMP JUMPDEST PUSH1 0x0 DUP3 DUP3 MSTORE PUSH1 0x20 DUP3 ADD SWAP1 POP SWAP3 SWAP2 POP POP JUMP JUMPDEST PUSH32 0x596F75277265206E6F7420616E206F776E6572206F6620746869732061647665 PUSH1 0x0 DUP3 ADD MSTORE PUSH32 0x72742E0000000000000000000000000000000000000000000000000000000000 PUSH1 0x20 DUP3 ADD MSTORE POP JUMP JUMPDEST PUSH1 0x0 PUSH2 0x387B PUSH1 0x23 DUP4 PUSH2 0x380E JUMP JUMPDEST SWAP2 POP PUSH2 0x3886 DUP3 PUSH2 0x381F JUMP JUMPDEST PUSH1 0x40 DUP3 ADD SWAP1 POP SWAP2 SWAP1 POP JUMP JUMPDEST PUSH1 0x0 PUSH1 0x20 DUP3 ADD SWAP1 POP DUP2 DUP2 SUB PUSH1 0x0 DUP4 ADD MSTORE PUSH2 0x38AA DUP2 PUSH2 0x386E JUMP JUMPDEST SWAP1 POP SWAP2 SWAP1 POP JUMP JUMPDEST PUSH32 0x4E487B7100000000000000000000000000000000000000000000000000000000 PUSH1 0x0 MSTORE PUSH1 0x11 PUSH1 0x4 MSTORE PUSH1 0x24 PUSH1 0x0 REVERT JUMPDEST PUSH1 0x0 PUSH2 0x38EB DUP3 PUSH2 0x2705 JUMP JUMPDEST SWAP2 POP PUSH2 0x38F6 DUP4 PUSH2 0x2705 JUMP JUMPDEST SWAP3 POP DUP3 DUP3 ADD SWAP1 POP DUP1 DUP3 GT ISZERO PUSH2 0x390E JUMPI PUSH2 0x390D PUSH2 0x38B1 JUMP JUMPDEST JUMPDEST SWAP3 SWAP2 POP POP JUMP JUMPDEST PUSH1 0x0 PUSH2 0x391F DUP3 PUSH2 0x2705 JUMP JUMPDEST SWAP2 POP PUSH32 0xFFFFFFFFFFFFFFFFFFFFFFFFFFFFFFFFFFFFFFFFFFFFFFFFFFFFFFFFFFFFFFFF DUP3 SUB PUSH2 0x3951 JUMPI PUSH2 0x3950 PUSH2 0x38B1 JUMP JUMPDEST JUMPDEST PUSH1 0x1 DUP3 ADD SWAP1 POP SWAP2 SWAP1 POP JUMP JUMPDEST PUSH32 0x4E487B7100000000000000000000000000000000000000000000000000000000 PUSH1 0x0 MSTORE PUSH1 0x32 PUSH1 0x4 MSTORE PUSH1 0x24 PUSH1 0x0 REVERT JUMPDEST PUSH32 0x596F7527726520746865206F776E6572206F6620746865206465616C2E000000 PUSH1 0x0 DUP3 ADD MSTORE POP JUMP JUMPDEST PUSH1 0x0 PUSH2 0x39C1 PUSH1 0x1D DUP4 PUSH2 0x380E JUMP JUMPDEST SWAP2 POP PUSH2 0x39CC DUP3 PUSH2 0x398B JUMP JUMPDEST PUSH1 0x20 DUP3 ADD SWAP1 POP SWAP2 SWAP1 POP JUMP JUMPDEST PUSH1 0x0 PUSH1 0x20 DUP3 ADD SWAP1 POP DUP2 DUP2 SUB PUSH1 0x0 DUP4 ADD MSTORE PUSH2 0x39F0 DUP2 PUSH2 0x39B4 JUMP JUMPDEST SWAP1 POP SWAP2 SWAP1 POP JUMP JUMPDEST PUSH32 0x54686973206465616C20697320616C726561647920696E2070726F636573732E PUSH1 0x0 DUP3 ADD MSTORE PUSH32 0x2052656C6F616420706167652E00000000000000000000000000000000000000 PUSH1 0x20 DUP3 ADD MSTORE POP JUMP JUMPDEST PUSH1 0x0 PUSH2 0x3A53 PUSH1 0x2D DUP4 PUSH2 0x380E JUMP JUMPDEST SWAP2 POP PUSH2 0x3A5E DUP3 PUSH2 0x39F7 JUMP JUMPDEST PUSH1 0x40 DUP3 ADD SWAP1 POP SWAP2 SWAP1 POP JUMP JUMPDEST PUSH1 0x0 PUSH1 0x20 DUP3 ADD SWAP1 POP DUP2 DUP2 SUB PUSH1 0x0 DUP4 ADD MSTORE PUSH2 0x3A82 DUP2 PUSH2 0x3A46 JUMP JUMPDEST SWAP1 POP SWAP2 SWAP1 POP JUMP JUMPDEST PUSH32 0x4E6F7420656E6F756768206D6F6E657920746F20616371756972652E00000000 PUSH1 0x0 DUP3 ADD MSTORE POP JUMP JUMPDEST PUSH1 0x0 PUSH2 0x3ABF PUSH1 0x1C DUP4 PUSH2 0x380E JUMP JUMPDEST SWAP2 POP PUSH2 0x3ACA DUP3 PUSH2 0x3A89 JUMP JUMPDEST PUSH1 0x20 DUP3 ADD SWAP1 POP SWAP2 SWAP1 POP JUMP JUMPDEST PUSH1 0x0 PUSH1 0x20 DUP3 ADD SWAP1 POP DUP2 DUP2 SUB PUSH1 0x0 DUP4 ADD MSTORE PUSH2 0x3AEE DUP2 PUSH2 0x3AB2 JUMP JUMPDEST SWAP1 POP SWAP2 SWAP1 POP JUMP JUMPDEST PUSH1 0x0 DUP2 SWAP1 POP DUP2 PUSH1 0x0 MSTORE PUSH1 0x20 PUSH1 0x0 KECCAK256 SWAP1 POP SWAP2 SWAP1 POP JUMP JUMPDEST PUSH1 0x0 PUSH1 0x20 PUSH1 0x1F DUP4 ADD DIV SWAP1 POP SWAP2 SWAP1 POP JUMP JUMPDEST PUSH1 0x0 DUP3 DUP3 SHL SWAP1 POP SWAP3 SWAP2 POP POP JUMP JUMPDEST PUSH1 0x0 PUSH1 0x8 DUP4 MUL PUSH2 0x3B57 PUSH32 0xFFFFFFFFFFFFFFFFFFFFFFFFFFFFFFFFFFFFFFFFFFFFFFFFFFFFFFFFFFFFFFFF DUP3 PUSH2 0x3B1A JUMP JUMPDEST PUSH2 0x3B61 DUP7 DUP4 PUSH2 0x3B1A JUMP JUMPDEST SWAP6 POP DUP1 NOT DUP5 AND SWAP4 POP DUP1 DUP7 AND DUP5 OR SWAP3 POP POP POP SWAP4 SWAP3 POP POP POP JUMP JUMPDEST PUSH1 0x0 DUP2 SWAP1 POP SWAP2 SWAP1 POP JUMP JUMPDEST PUSH1 0x0 PUSH2 0x3B9E PUSH2 0x3B99 PUSH2 0x3B94 DUP5 PUSH2 0x2705 JUMP JUMPDEST PUSH2 0x3B79 JUMP JUMPDEST PUSH2 0x2705 JUMP JUMPDEST SWAP1 POP SWAP2 SWAP1 POP JUMP JUMPDEST PUSH1 0x0 DUP2 SWAP1 POP SWAP2 SWAP1 POP JUMP JUMPDEST PUSH2 0x3BB8 DUP4 PUSH2 0x3B83 JUMP JUMPDEST PUSH2 0x3BCC PUSH2 0x3BC4 DUP3 PUSH2 0x3BA5 JUMP JUMPDEST DUP5 DUP5 SLOAD PUSH2 0x3B27 JUMP JUMPDEST DUP3 SSTORE POP POP POP POP JUMP JUMPDEST PUSH1 0x0 SWAP1 JUMP JUMPDEST PUSH2 0x3BE1 PUSH2 0x3BD4 JUMP JUMPDEST PUSH2 0x3BEC DUP2 DUP5 DUP5 PUSH2 0x3BAF JUMP JUMPDEST POP POP POP JUMP JUMPDEST JUMPDEST DUP2 DUP2 LT ISZERO PUSH2 0x3C10 JUMPI PUSH2 0x3C05 PUSH1 0x0 DUP3 PUSH2 0x3BD9 JUMP JUMPDEST PUSH1 0x1 DUP2 ADD SWAP1 POP PUSH2 0x3BF2 JUMP JUMPDEST POP POP JUMP JUMPDEST PUSH1 0x1F DUP3 GT ISZERO PUSH2 0x3C55 JUMPI PUSH2 0x3C26 DUP2 PUSH2 0x3AF5 JUMP JUMPDEST PUSH2 0x3C2F DUP5 PUSH2 0x3B0A JUMP JUMPDEST DUP2 ADD PUSH1 0x20 DUP6 LT ISZERO PUSH2 0x3C3E JUMPI DUP2 SWAP1 POP JUMPDEST PUSH2 0x3C52 PUSH2 0x3C4A DUP6 PUSH2 0x3B0A JUMP JUMPDEST DUP4 ADD DUP3 PUSH2 0x3BF1 JUMP JUMPDEST POP POP JUMPDEST POP POP POP JUMP JUMPDEST PUSH1 0x0 DUP3 DUP3 SHR SWAP1 POP SWAP3 SWAP2 POP POP JUMP JUMPDEST PUSH1 0x0 PUSH2 0x3C78 PUSH1 0x0 NOT DUP5 PUSH1 0x8 MUL PUSH2 0x3C5A JUMP JUMPDEST NOT DUP1 DUP4 AND SWAP2 POP POP SWAP3 SWAP2 POP POP JUMP JUMPDEST PUSH1 0x0 PUSH2 0x3C91 DUP4 DUP4 PUSH2 0x3C67 JUMP JUMPDEST SWAP2 POP DUP3 PUSH1 0x2 MUL DUP3 OR SWAP1 POP SWAP3 SWAP2 POP POP JUMP JUMPDEST PUSH2 0x3CAA DUP3 PUSH2 0x27B8 JUMP JUMPDEST PUSH8 0xFFFFFFFFFFFFFFFF DUP2 GT ISZERO PUSH2 0x3CC3 JUMPI PUSH2 0x3CC2 PUSH2 0x2CDA JUMP JUMPDEST JUMPDEST PUSH2 0x3CCD DUP3 SLOAD PUSH2 0x37DD JUMP JUMPDEST PUSH2 0x3CD8 DUP3 DUP3 DUP6 PUSH2 0x3C14 JUMP JUMPDEST PUSH1 0x0 PUSH1 0x20 SWAP1 POP PUSH1 0x1F DUP4 GT PUSH1 0x1 DUP2 EQ PUSH2 0x3D0B JUMPI PUSH1 0x0 DUP5 ISZERO PUSH2 0x3CF9 JUMPI DUP3 DUP8 ADD MLOAD SWAP1 POP JUMPDEST PUSH2 0x3D03 DUP6 DUP3 PUSH2 0x3C85 JUMP JUMPDEST DUP7 SSTORE POP PUSH2 0x3D6B JUMP JUMPDEST PUSH1 0x1F NOT DUP5 AND PUSH2 0x3D19 DUP7 PUSH2 0x3AF5 JUMP JUMPDEST PUSH1 0x0 JUMPDEST DUP3 DUP2 LT ISZERO PUSH2 0x3D41 JUMPI DUP5 DUP10 ADD MLOAD DUP3 SSTORE PUSH1 0x1 DUP3 ADD SWAP2 POP PUSH1 0x20 DUP6 ADD SWAP5 POP PUSH1 0x20 DUP2 ADD SWAP1 POP PUSH2 0x3D1C JUMP JUMPDEST DUP7 DUP4 LT ISZERO PUSH2 0x3D5E JUMPI DUP5 DUP10 ADD MLOAD PUSH2 0x3D5A PUSH1 0x1F DUP10 AND DUP3 PUSH2 0x3C67 JUMP JUMPDEST DUP4 SSTORE POP JUMPDEST PUSH1 0x1 PUSH1 0x2 DUP9 MUL ADD DUP9 SSTORE POP POP POP JUMPDEST POP POP POP POP POP POP JUMP JUMPDEST PUSH1 0x0 PUSH2 0x3D7E DUP3 PUSH2 0x2705 JUMP JUMPDEST SWAP2 POP PUSH2 0x3D89 DUP4 PUSH2 0x2705 JUMP JUMPDEST SWAP3 POP DUP3 DUP3 MUL PUSH2 0x3D97 DUP2 PUSH2 0x2705 JUMP JUMPDEST SWAP2 POP DUP3 DUP3 DIV DUP5 EQ DUP4 ISZERO OR PUSH2 0x3DAE JUMPI PUSH2 0x3DAD PUSH2 0x38B1 JUMP JUMPDEST JUMPDEST POP SWAP3 SWAP2 POP POP JUMP JUMPDEST PUSH32 0x4E487B7100000000000000000000000000000000000000000000000000000000 PUSH1 0x0 MSTORE PUSH1 0x12 PUSH1 0x4 MSTORE PUSH1 0x24 PUSH1 0x0 REVERT JUMPDEST PUSH1 0x0 PUSH2 0x3DEF DUP3 PUSH2 0x2705 JUMP JUMPDEST SWAP2 POP PUSH2 0x3DFA DUP4 PUSH2 0x2705 JUMP JUMPDEST SWAP3 POP DUP3 PUSH2 0x3E0A JUMPI PUSH2 0x3E09 PUSH2 0x3DB5 JUMP JUMPDEST JUMPDEST DUP3 DUP3 DIV SWAP1 POP SWAP3 SWAP2 POP POP JUMP JUMPDEST PUSH1 0x0 PUSH10 0xFFFFFFFFFFFFFFFFFFFF DUP3 AND SWAP1 POP SWAP2 SWAP1 POP JUMP JUMPDEST PUSH2 0x3E34 DUP2 PUSH2 0x3E15 JUMP JUMPDEST DUP2 EQ PUSH2 0x3E3F JUMPI PUSH1 0x0 DUP1 REVERT JUMPDEST POP JUMP JUMPDEST PUSH1 0x0 DUP2 MLOAD SWAP1 POP PUSH2 0x3E51 DUP2 PUSH2 0x3E2B JUMP JUMPDEST SWAP3 SWAP2 POP POP JUMP JUMPDEST PUSH1 0x0 DUP2 SWAP1 POP SWAP2 SWAP1 POP JUMP JUMPDEST PUSH2 0x3E6A DUP2 PUSH2 0x3E57 JUMP JUMPDEST DUP2 EQ PUSH2 0x3E75 JUMPI PUSH1 0x0 DUP1 REVERT JUMPDEST POP JUMP JUMPDEST PUSH1 0x0 DUP2 MLOAD SWAP1 POP PUSH2 0x3E87 DUP2 PUSH2 0x3E61 JUMP JUMPDEST SWAP3 SWAP2 POP POP JUMP JUMPDEST PUSH1 0x0 DUP2 MLOAD SWAP1 POP PUSH2 0x3E9C DUP2 PUSH2 0x270F JUMP JUMPDEST SWAP3 SWAP2 POP POP JUMP JUMPDEST PUSH1 0x0 DUP1 PUSH1 0x0 DUP1 PUSH1 0x0 PUSH1 0xA0 DUP7 DUP9 SUB SLT ISZERO PUSH2 0x3EBE JUMPI PUSH2 0x3EBD PUSH2 0x26FB JUMP JUMPDEST JUMPDEST PUSH1 0x0 PUSH2 0x3ECC DUP9 DUP3 DUP10 ADD PUSH2 0x3E42 JUMP JUMPDEST SWAP6 POP POP PUSH1 0x20 PUSH2 0x3EDD DUP9 DUP3 DUP10 ADD PUSH2 0x3E78 JUMP JUMPDEST SWAP5 POP POP PUSH1 0x40 PUSH2 0x3EEE DUP9 DUP3 DUP10 ADD PUSH2 0x3E8D JUMP JUMPDEST SWAP4 POP POP PUSH1 0x60 PUSH2 0x3EFF DUP9 DUP3 DUP10 ADD PUSH2 0x3E8D JUMP JUMPDEST SWAP3 POP POP PUSH1 0x80 PUSH2 0x3F10 DUP9 DUP3 DUP10 ADD PUSH2 0x3E42 JUMP JUMPDEST SWAP2 POP POP SWAP3 SWAP6 POP SWAP3 SWAP6 SWAP1 SWAP4 POP JUMP JUMPDEST PUSH1 0x0 PUSH2 0x3F28 DUP3 PUSH2 0x3E57 JUMP JUMPDEST SWAP2 POP PUSH2 0x3F33 DUP4 PUSH2 0x3E57 JUMP JUMPDEST SWAP3 POP DUP3 DUP3 MUL PUSH2 0x3F41 DUP2 PUSH2 0x3E57 JUMP JUMPDEST SWAP2 POP PUSH32 0x8000000000000000000000000000000000000000000000000000000000000000 DUP5 EQ PUSH1 0x0 DUP5 SLT AND ISZERO PUSH2 0x3F79 JUMPI PUSH2 0x3F78 PUSH2 0x38B1 JUMP JUMPDEST JUMPDEST DUP3 DUP3 SDIV DUP5 EQ DUP4 ISZERO OR PUSH2 0x3F8E JUMPI PUSH2 0x3F8D PUSH2 0x38B1 JUMP JUMPDEST JUMPDEST POP SWAP3 SWAP2 POP POP JUMP INVALID LOG2 PUSH5 0x6970667358 0x22 SLT KECCAK256 CHAINID SAR 0xED DUP7 0xB6 XOR 0x1F SLT 0xB7 SGT PUSH32 0x13982FC8C6806ECB2FFE4A0DF38B3C3ABBC7C2B7B364736F6C63430008120033 "
				},
				"gasEstimates": {
					"creation": {
						"codeDepositCost": "3266200",
						"executionCost": "8633",
						"totalCost": "3274833"
					},
					"external": {
						"AcquirerInfo(uint256,((string,string,string),(uint256,uint256,string,string),string))": "infinite",
						"AdDelete(uint256)": "27120",
						"CarHistory()": "211",
						"SellerInfo(((string,string,string),(uint256,uint256,string,string),string,(string,uint256,string,string,string,uint256,uint256,(uint256,uint256,string,string),(uint256,uint256)),uint256,string))": "infinite",
						"SetCarHistory((uint256,string,bool))": "infinite",
						"ShowAcquirerInfo(uint256)": "infinite",
						"ShowAdvertInfo()": "infinite",
						"ShowSoloAdvertInfo(uint256)": "infinite",
						"SignCheck(uint256,bool)": "infinite",
						"Test(uint256)": "infinite",
						"ToEthConverter(uint256)": "infinite",
						"currentEmptyId()": "2517",
						"deals(uint256)": "infinite"
					}
				},
				"methodIdentifiers": {
					"AcquirerInfo(uint256,((string,string,string),(uint256,uint256,string,string),string))": "c31e3a0a",
					"AdDelete(uint256)": "329e1ed2",
					"CarHistory()": "2888783e",
					"SellerInfo(((string,string,string),(uint256,uint256,string,string),string,(string,uint256,string,string,string,uint256,uint256,(uint256,uint256,string,string),(uint256,uint256)),uint256,string))": "c91a5172",
					"SetCarHistory((uint256,string,bool))": "1f801c0e",
					"ShowAcquirerInfo(uint256)": "afda5933",
					"ShowAdvertInfo()": "6d618d0f",
					"ShowSoloAdvertInfo(uint256)": "7a8b9fb4",
					"SignCheck(uint256,bool)": "4a99b536",
					"Test(uint256)": "63a242a6",
					"ToEthConverter(uint256)": "0c37d69b",
					"currentEmptyId()": "dd12d0b9",
					"deals(uint256)": "03988f84"
				}
			},
			"storageLayout": {
				"storage": [
					{
						"astId": 185,
						"contract": "AutoChain.sol:AutoChain",
						"label": "deals",
						"offset": 0,
						"slot": "0",
						"type": "t_mapping(t_uint256,t_struct(Deal)155_storage)"
					},
					{
						"astId": 188,
						"contract": "AutoChain.sol:AutoChain",
						"label": "currentEmptyId",
						"offset": 0,
						"slot": "1",
						"type": "t_uint256"
					}
				],
				"types": {
					"t_address": {
						"encoding": "inplace",
						"label": "address",
						"numberOfBytes": "20"
					},
					"t_bool": {
						"encoding": "inplace",
						"label": "bool",
						"numberOfBytes": "1"
					},
					"t_enum(Dealstatus)180": {
						"encoding": "inplace",
						"label": "enum AutoChain.Dealstatus",
						"numberOfBytes": "1"
					},
					"t_mapping(t_uint256,t_struct(Deal)155_storage)": {
						"encoding": "mapping",
						"key": "t_uint256",
						"label": "mapping(uint256 => struct AutoChain.Deal)",
						"numberOfBytes": "32",
						"value": "t_struct(Deal)155_storage"
					},
					"t_string_storage": {
						"encoding": "bytes",
						"label": "string",
						"numberOfBytes": "32"
					},
					"t_struct(AcquirerProfile)128_storage": {
						"encoding": "inplace",
						"label": "struct AutoChain.AcquirerProfile",
						"members": [
							{
								"astId": 122,
								"contract": "AutoChain.sol:AutoChain",
								"label": "fullAcquirerName",
								"offset": 0,
								"slot": "0",
								"type": "t_struct(FullName)68_storage"
							},
							{
								"astId": 125,
								"contract": "AutoChain.sol:AutoChain",
								"label": "acquirerPassport",
								"offset": 0,
								"slot": "3",
								"type": "t_struct(Passport)61_storage"
							},
							{
								"astId": 127,
								"contract": "AutoChain.sol:AutoChain",
								"label": "acquirerRegAddr",
								"offset": 0,
								"slot": "7",
								"type": "t_string_storage"
							}
						],
						"numberOfBytes": "256"
					},
					"t_struct(Advert)119_storage": {
						"encoding": "inplace",
						"label": "struct AutoChain.Advert",
						"members": [
							{
								"astId": 106,
								"contract": "AutoChain.sol:AutoChain",
								"label": "full_seller_name",
								"offset": 0,
								"slot": "0",
								"type": "t_struct(FullName)68_storage"
							},
							{
								"astId": 109,
								"contract": "AutoChain.sol:AutoChain",
								"label": "seller_passport",
								"offset": 0,
								"slot": "3",
								"type": "t_struct(Passport)61_storage"
							},
							{
								"astId": 111,
								"contract": "AutoChain.sol:AutoChain",
								"label": "seller_reg_addr",
								"offset": 0,
								"slot": "7",
								"type": "t_string_storage"
							},
							{
								"astId": 114,
								"contract": "AutoChain.sol:AutoChain",
								"label": "full_car_info",
								"offset": 0,
								"slot": "8",
								"type": "t_struct(CarInfo)89_storage"
							},
							{
								"astId": 116,
								"contract": "AutoChain.sol:AutoChain",
								"label": "car_cost",
								"offset": 0,
								"slot": "21",
								"type": "t_uint256"
							},
							{
								"astId": 118,
								"contract": "AutoChain.sol:AutoChain",
								"label": "description",
								"offset": 0,
								"slot": "22",
								"type": "t_string_storage"
							}
						],
						"numberOfBytes": "736"
					},
					"t_struct(CarInfo)89_storage": {
						"encoding": "inplace",
						"label": "struct AutoChain.CarInfo",
						"members": [
							{
								"astId": 70,
								"contract": "AutoChain.sol:AutoChain",
								"label": "model",
								"offset": 0,
								"slot": "0",
								"type": "t_string_storage"
							},
							{
								"astId": 72,
								"contract": "AutoChain.sol:AutoChain",
								"label": "release_year",
								"offset": 0,
								"slot": "1",
								"type": "t_uint256"
							},
							{
								"astId": 74,
								"contract": "AutoChain.sol:AutoChain",
								"label": "car_id",
								"offset": 0,
								"slot": "2",
								"type": "t_string_storage"
							},
							{
								"astId": 76,
								"contract": "AutoChain.sol:AutoChain",
								"label": "color",
								"offset": 0,
								"slot": "3",
								"type": "t_string_storage"
							},
							{
								"astId": 78,
								"contract": "AutoChain.sol:AutoChain",
								"label": "sign_id",
								"offset": 0,
								"slot": "4",
								"type": "t_string_storage"
							},
							{
								"astId": 80,
								"contract": "AutoChain.sol:AutoChain",
								"label": "mileage",
								"offset": 0,
								"slot": "5",
								"type": "t_uint256"
							},
							{
								"astId": 82,
								"contract": "AutoChain.sol:AutoChain",
								"label": "engine_volume",
								"offset": 0,
								"slot": "6",
								"type": "t_uint256"
							},
							{
								"astId": 85,
								"contract": "AutoChain.sol:AutoChain",
								"label": "car_passport",
								"offset": 0,
								"slot": "7",
								"type": "t_struct(CarPassport)98_storage"
							},
							{
								"astId": 88,
								"contract": "AutoChain.sol:AutoChain",
								"label": "car_registration",
								"offset": 0,
								"slot": "11",
								"type": "t_struct(CarRegistration)103_storage"
							}
						],
						"numberOfBytes": "416"
					},
					"t_struct(CarPassport)98_storage": {
						"encoding": "inplace",
						"label": "struct AutoChain.CarPassport",
						"members": [
							{
								"astId": 91,
								"contract": "AutoChain.sol:AutoChain",
								"label": "car_series",
								"offset": 0,
								"slot": "0",
								"type": "t_uint256"
							},
							{
								"astId": 93,
								"contract": "AutoChain.sol:AutoChain",
								"label": "car_number",
								"offset": 0,
								"slot": "1",
								"type": "t_uint256"
							},
							{
								"astId": 95,
								"contract": "AutoChain.sol:AutoChain",
								"label": "car_where_issued",
								"offset": 0,
								"slot": "2",
								"type": "t_string_storage"
							},
							{
								"astId": 97,
								"contract": "AutoChain.sol:AutoChain",
								"label": "car_when_issued",
								"offset": 0,
								"slot": "3",
								"type": "t_string_storage"
							}
						],
						"numberOfBytes": "128"
					},
					"t_struct(CarRegistration)103_storage": {
						"encoding": "inplace",
						"label": "struct AutoChain.CarRegistration",
						"members": [
							{
								"astId": 100,
								"contract": "AutoChain.sol:AutoChain",
								"label": "reg_car_series",
								"offset": 0,
								"slot": "0",
								"type": "t_uint256"
							},
							{
								"astId": 102,
								"contract": "AutoChain.sol:AutoChain",
								"label": "reg_car_number",
								"offset": 0,
								"slot": "1",
								"type": "t_uint256"
							}
						],
						"numberOfBytes": "64"
					},
					"t_struct(Deal)155_storage": {
						"encoding": "inplace",
						"label": "struct AutoChain.Deal",
						"members": [
							{
								"astId": 137,
								"contract": "AutoChain.sol:AutoChain",
								"label": "id",
								"offset": 0,
								"slot": "0",
								"type": "t_uint256"
							},
							{
								"astId": 139,
								"contract": "AutoChain.sol:AutoChain",
								"label": "sellerAddress",
								"offset": 0,
								"slot": "1",
								"type": "t_address"
							},
							{
								"astId": 142,
								"contract": "AutoChain.sol:AutoChain",
								"label": "advert",
								"offset": 0,
								"slot": "2",
								"type": "t_struct(Advert)119_storage"
							},
							{
								"astId": 144,
								"contract": "AutoChain.sol:AutoChain",
								"label": "acquirerAddress",
								"offset": 0,
								"slot": "25",
								"type": "t_address"
							},
							{
								"astId": 147,
								"contract": "AutoChain.sol:AutoChain",
								"label": "profile",
								"offset": 0,
								"slot": "26",
								"type": "t_struct(AcquirerProfile)128_storage"
							},
							{
								"astId": 150,
								"contract": "AutoChain.sol:AutoChain",
								"label": "status",
								"offset": 0,
								"slot": "34",
								"type": "t_enum(Dealstatus)180"
							},
							{
								"astId": 152,
								"contract": "AutoChain.sol:AutoChain",
								"label": "sellerSigned",
								"offset": 1,
								"slot": "34",
								"type": "t_bool"
							},
							{
								"astId": 154,
								"contract": "AutoChain.sol:AutoChain",
								"label": "buyerSigned",
								"offset": 2,
								"slot": "34",
								"type": "t_bool"
							}
						],
						"numberOfBytes": "1120"
					},
					"t_struct(FullName)68_storage": {
						"encoding": "inplace",
						"label": "struct AutoChain.FullName",
						"members": [
							{
								"astId": 63,
								"contract": "AutoChain.sol:AutoChain",
								"label": "name",
								"offset": 0,
								"slot": "0",
								"type": "t_string_storage"
							},
							{
								"astId": 65,
								"contract": "AutoChain.sol:AutoChain",
								"label": "surname",
								"offset": 0,
								"slot": "1",
								"type": "t_string_storage"
							},
							{
								"astId": 67,
								"contract": "AutoChain.sol:AutoChain",
								"label": "fathername",
								"offset": 0,
								"slot": "2",
								"type": "t_string_storage"
							}
						],
						"numberOfBytes": "96"
					},
					"t_struct(Passport)61_storage": {
						"encoding": "inplace",
						"label": "struct AutoChain.Passport",
						"members": [
							{
								"astId": 54,
								"contract": "AutoChain.sol:AutoChain",
								"label": "series",
								"offset": 0,
								"slot": "0",
								"type": "t_uint256"
							},
							{
								"astId": 56,
								"contract": "AutoChain.sol:AutoChain",
								"label": "number",
								"offset": 0,
								"slot": "1",
								"type": "t_uint256"
							},
							{
								"astId": 58,
								"contract": "AutoChain.sol:AutoChain",
								"label": "where_issued",
								"offset": 0,
								"slot": "2",
								"type": "t_string_storage"
							},
							{
								"astId": 60,
								"contract": "AutoChain.sol:AutoChain",
								"label": "when_issued",
								"offset": 0,
								"slot": "3",
								"type": "t_string_storage"
							}
						],
						"numberOfBytes": "128"
					},
					"t_uint256": {
						"encoding": "inplace",
						"label": "uint256",
						"numberOfBytes": "32"
					}
				}
			},
			"userdoc": {
				"kind": "user",
				"methods": {},
				"version": 1
			}
		}
	}
}