{
	"PriceConverter.sol": {
		"PriceConverter": {
			"abi": [
				{
					"inputs": [],
					"name": "getPrice",
					"outputs": [
						{
							"internalType": "uint256",
							"name": "",
							"type": "uint256"
						}
					],
					"stateMutability": "view",
					"type": "function"
				}
			],
			"devdoc": {
				"kind": "dev",
				"methods": {},
				"version": 1
			},
			"evm": {
				"assembly": "    /* \"PriceConverter.sol\":181:1693  library PriceConverter {... */\n  dataSize(sub_0)\n  dataOffset(sub_0)\n  0x0b\n  dup3\n  dup3\n  dup3\n  codecopy\n  dup1\n  mload\n  0x00\n  byte\n  0x73\n  eq\n  tag_1\n  jumpi\n  mstore(0x00, 0x4e487b7100000000000000000000000000000000000000000000000000000000)\n  mstore(0x04, 0x00)\n  revert(0x00, 0x24)\ntag_1:\n  mstore(0x00, address)\n  0x73\n  dup2\n  mstore8\n  dup3\n  dup2\n  return\nstop\n\nsub_0: assembly {\n        /* \"PriceConverter.sol\":181:1693  library PriceConverter {... */\n      eq(address, deployTimeAddress())\n      mstore(0x40, 0x80)\n      jumpi(tag_1, lt(calldatasize, 0x04))\n      shr(0xe0, calldataload(0x00))\n      dup1\n      0x98d5fdca\n      eq\n      tag_2\n      jumpi\n    tag_1:\n      0x00\n      dup1\n      revert\n        /* \"PriceConverter.sol\":211:1112  function getPrice() public view returns(uint256){... */\n    tag_2:\n      tag_3\n      tag_4\n      jump\t// in\n    tag_3:\n      mload(0x40)\n      tag_5\n      swap2\n      swap1\n      tag_6\n      jump\t// in\n    tag_5:\n      mload(0x40)\n      dup1\n      swap2\n      sub\n      swap1\n      return\n    tag_4:\n        /* \"PriceConverter.sol\":251:258  uint256 */\n      0x00\n        /* \"PriceConverter.sol\":441:472  AggregatorV3Interface priceFeed */\n      dup1\n        /* \"PriceConverter.sol\":497:539  0x694AA1769357215DE4FAC081bf1f309aDC325306 */\n      0x694aa1769357215de4fac081bf1f309adc325306\n        /* \"PriceConverter.sol\":441:540  AggregatorV3Interface priceFeed = AggregatorV3Interface(0x694AA1769357215DE4FAC081bf1f309aDC325306) */\n      swap1\n      pop\n        /* \"PriceConverter.sol\":665:677  int256 price */\n      0x00\n        /* \"PriceConverter.sol\":684:693  priceFeed */\n      dup2\n        /* \"PriceConverter.sol\":684:709  priceFeed.latestRoundData */\n      0xffffffffffffffffffffffffffffffffffffffff\n      and\n      0xfeaf968c\n        /* \"PriceConverter.sol\":684:711  priceFeed.latestRoundData() */\n      mload(0x40)\n      dup2\n      0xffffffff\n      and\n      0xe0\n      shl\n      dup2\n      mstore\n      0x04\n      add\n      0xa0\n      mload(0x40)\n      dup1\n      dup4\n      sub\n      dup2\n      dup7\n      gas\n      staticcall\n      iszero\n      dup1\n      iszero\n      tag_9\n      jumpi\n      returndatasize\n      0x00\n      dup1\n      returndatacopy\n      revert(0x00, returndatasize)\n    tag_9:\n      pop\n      pop\n      pop\n      pop\n      mload(0x40)\n      returndatasize\n      not(0x1f)\n      0x1f\n      dup3\n      add\n      and\n      dup3\n      add\n      dup1\n      0x40\n      mstore\n      pop\n      dup2\n      add\n      swap1\n      tag_10\n      swap2\n      swap1\n      tag_11\n      jump\t// in\n    tag_10:\n        /* \"PriceConverter.sol\":662:711  (, int256 price,,,) = priceFeed.latestRoundData() */\n      pop\n      pop\n      pop\n      swap2\n      pop\n      pop\n        /* \"PriceConverter.sol\":1098:1102  1e10 */\n      0x02540be400\n        /* \"PriceConverter.sol\":1090:1095  price */\n      dup2\n        /* \"PriceConverter.sol\":1090:1102  price * 1e10 */\n      tag_12\n      swap2\n      swap1\n      tag_13\n      jump\t// in\n    tag_12:\n        /* \"PriceConverter.sol\":1075:1103  return uint256(price * 1e10) */\n      swap3\n      pop\n      pop\n      pop\n        /* \"PriceConverter.sol\":211:1112  function getPrice() public view returns(uint256){... */\n      swap1\n      jump\t// out\n        /* \"#utility.yul\":7:84   */\n    tag_14:\n        /* \"#utility.yul\":44:51   */\n      0x00\n        /* \"#utility.yul\":73:78   */\n      dup2\n        /* \"#utility.yul\":62:78   */\n      swap1\n      pop\n        /* \"#utility.yul\":7:84   */\n      swap2\n      swap1\n      pop\n      jump\t// out\n        /* \"#utility.yul\":90:216   */\n    tag_15:\n        /* \"#utility.yul\":185:209   */\n      tag_31\n        /* \"#utility.yul\":203:208   */\n      dup2\n        /* \"#utility.yul\":185:209   */\n      tag_14\n      jump\t// in\n    tag_31:\n        /* \"#utility.yul\":180:183   */\n      dup3\n        /* \"#utility.yul\":173:210   */\n      mstore\n        /* \"#utility.yul\":90:216   */\n      pop\n      pop\n      jump\t// out\n        /* \"#utility.yul\":222:460   */\n    tag_6:\n        /* \"#utility.yul\":323:327   */\n      0x00\n        /* \"#utility.yul\":361:363   */\n      0x20\n        /* \"#utility.yul\":350:359   */\n      dup3\n        /* \"#utility.yul\":346:364   */\n      add\n        /* \"#utility.yul\":338:364   */\n      swap1\n      pop\n        /* \"#utility.yul\":374:453   */\n      tag_33\n        /* \"#utility.yul\":450:451   */\n      0x00\n        /* \"#utility.yul\":439:448   */\n      dup4\n        /* \"#utility.yul\":435:452   */\n      add\n        /* \"#utility.yul\":426:432   */\n      dup5\n        /* \"#utility.yul\":374:453   */\n      tag_15\n      jump\t// in\n    tag_33:\n        /* \"#utility.yul\":222:460   */\n      swap3\n      swap2\n      pop\n      pop\n      jump\t// out\n        /* \"#utility.yul\":547:664   */\n    tag_17:\n        /* \"#utility.yul\":656:657   */\n      0x00\n        /* \"#utility.yul\":653:654   */\n      dup1\n        /* \"#utility.yul\":646:658   */\n      revert\n        /* \"#utility.yul\":793:898   */\n    tag_19:\n        /* \"#utility.yul\":829:836   */\n      0x00\n        /* \"#utility.yul\":869:891   */\n      0xffffffffffffffffffff\n        /* \"#utility.yul\":862:867   */\n      dup3\n        /* \"#utility.yul\":858:892   */\n      and\n        /* \"#utility.yul\":847:892   */\n      swap1\n      pop\n        /* \"#utility.yul\":793:898   */\n      swap2\n      swap1\n      pop\n      jump\t// out\n        /* \"#utility.yul\":904:1024   */\n    tag_20:\n        /* \"#utility.yul\":976:999   */\n      tag_39\n        /* \"#utility.yul\":993:998   */\n      dup2\n        /* \"#utility.yul\":976:999   */\n      tag_19\n      jump\t// in\n    tag_39:\n        /* \"#utility.yul\":969:974   */\n      dup2\n        /* \"#utility.yul\":966:1000   */\n      eq\n        /* \"#utility.yul\":956:1018   */\n      tag_40\n      jumpi\n        /* \"#utility.yul\":1014:1015   */\n      0x00\n        /* \"#utility.yul\":1011:1012   */\n      dup1\n        /* \"#utility.yul\":1004:1016   */\n      revert\n        /* \"#utility.yul\":956:1018   */\n    tag_40:\n        /* \"#utility.yul\":904:1024   */\n      pop\n      jump\t// out\n        /* \"#utility.yul\":1030:1171   */\n    tag_21:\n        /* \"#utility.yul\":1086:1091   */\n      0x00\n        /* \"#utility.yul\":1117:1123   */\n      dup2\n        /* \"#utility.yul\":1111:1124   */\n      mload\n        /* \"#utility.yul\":1102:1124   */\n      swap1\n      pop\n        /* \"#utility.yul\":1133:1165   */\n      tag_42\n        /* \"#utility.yul\":1159:1164   */\n      dup2\n        /* \"#utility.yul\":1133:1165   */\n      tag_20\n      jump\t// in\n    tag_42:\n        /* \"#utility.yul\":1030:1171   */\n      swap3\n      swap2\n      pop\n      pop\n      jump\t// out\n        /* \"#utility.yul\":1177:1253   */\n    tag_22:\n        /* \"#utility.yul\":1213:1220   */\n      0x00\n        /* \"#utility.yul\":1242:1247   */\n      dup2\n        /* \"#utility.yul\":1231:1247   */\n      swap1\n      pop\n        /* \"#utility.yul\":1177:1253   */\n      swap2\n      swap1\n      pop\n      jump\t// out\n        /* \"#utility.yul\":1259:1379   */\n    tag_23:\n        /* \"#utility.yul\":1331:1354   */\n      tag_45\n        /* \"#utility.yul\":1348:1353   */\n      dup2\n        /* \"#utility.yul\":1331:1354   */\n      tag_22\n      jump\t// in\n    tag_45:\n        /* \"#utility.yul\":1324:1329   */\n      dup2\n        /* \"#utility.yul\":1321:1355   */\n      eq\n        /* \"#utility.yul\":1311:1373   */\n      tag_46\n      jumpi\n        /* \"#utility.yul\":1369:1370   */\n      0x00\n        /* \"#utility.yul\":1366:1367   */\n      dup1\n        /* \"#utility.yul\":1359:1371   */\n      revert\n        /* \"#utility.yul\":1311:1373   */\n    tag_46:\n        /* \"#utility.yul\":1259:1379   */\n      pop\n      jump\t// out\n        /* \"#utility.yul\":1385:1526   */\n    tag_24:\n        /* \"#utility.yul\":1441:1446   */\n      0x00\n        /* \"#utility.yul\":1472:1478   */\n      dup2\n        /* \"#utility.yul\":1466:1479   */\n      mload\n        /* \"#utility.yul\":1457:1479   */\n      swap1\n      pop\n        /* \"#utility.yul\":1488:1520   */\n      tag_48\n        /* \"#utility.yul\":1514:1519   */\n      dup2\n        /* \"#utility.yul\":1488:1520   */\n      tag_23\n      jump\t// in\n    tag_48:\n        /* \"#utility.yul\":1385:1526   */\n      swap3\n      swap2\n      pop\n      pop\n      jump\t// out\n        /* \"#utility.yul\":1532:1654   */\n    tag_25:\n        /* \"#utility.yul\":1605:1629   */\n      tag_50\n        /* \"#utility.yul\":1623:1628   */\n      dup2\n        /* \"#utility.yul\":1605:1629   */\n      tag_14\n      jump\t// in\n    tag_50:\n        /* \"#utility.yul\":1598:1603   */\n      dup2\n        /* \"#utility.yul\":1595:1630   */\n      eq\n        /* \"#utility.yul\":1585:1648   */\n      tag_51\n      jumpi\n        /* \"#utility.yul\":1644:1645   */\n      0x00\n        /* \"#utility.yul\":1641:1642   */\n      dup1\n        /* \"#utility.yul\":1634:1646   */\n      revert\n        /* \"#utility.yul\":1585:1648   */\n    tag_51:\n        /* \"#utility.yul\":1532:1654   */\n      pop\n      jump\t// out\n        /* \"#utility.yul\":1660:1803   */\n    tag_26:\n        /* \"#utility.yul\":1717:1722   */\n      0x00\n        /* \"#utility.yul\":1748:1754   */\n      dup2\n        /* \"#utility.yul\":1742:1755   */\n      mload\n        /* \"#utility.yul\":1733:1755   */\n      swap1\n      pop\n        /* \"#utility.yul\":1764:1797   */\n      tag_53\n        /* \"#utility.yul\":1791:1796   */\n      dup2\n        /* \"#utility.yul\":1764:1797   */\n      tag_25\n      jump\t// in\n    tag_53:\n        /* \"#utility.yul\":1660:1803   */\n      swap3\n      swap2\n      pop\n      pop\n      jump\t// out\n        /* \"#utility.yul\":1809:2780   */\n    tag_11:\n        /* \"#utility.yul\":1912:1918   */\n      0x00\n        /* \"#utility.yul\":1920:1926   */\n      dup1\n        /* \"#utility.yul\":1928:1934   */\n      0x00\n        /* \"#utility.yul\":1936:1942   */\n      dup1\n        /* \"#utility.yul\":1944:1950   */\n      0x00\n        /* \"#utility.yul\":1993:1996   */\n      0xa0\n        /* \"#utility.yul\":1981:1990   */\n      dup7\n        /* \"#utility.yul\":1972:1979   */\n      dup9\n        /* \"#utility.yul\":1968:1991   */\n      sub\n        /* \"#utility.yul\":1964:1997   */\n      slt\n        /* \"#utility.yul\":1961:2081   */\n      iszero\n      tag_55\n      jumpi\n        /* \"#utility.yul\":2000:2079   */\n      tag_56\n      tag_17\n      jump\t// in\n    tag_56:\n        /* \"#utility.yul\":1961:2081   */\n    tag_55:\n        /* \"#utility.yul\":2120:2121   */\n      0x00\n        /* \"#utility.yul\":2145:2208   */\n      tag_57\n        /* \"#utility.yul\":2200:2207   */\n      dup9\n        /* \"#utility.yul\":2191:2197   */\n      dup3\n        /* \"#utility.yul\":2180:2189   */\n      dup10\n        /* \"#utility.yul\":2176:2198   */\n      add\n        /* \"#utility.yul\":2145:2208   */\n      tag_21\n      jump\t// in\n    tag_57:\n        /* \"#utility.yul\":2135:2208   */\n      swap6\n      pop\n        /* \"#utility.yul\":2091:2218   */\n      pop\n        /* \"#utility.yul\":2257:2259   */\n      0x20\n        /* \"#utility.yul\":2283:2346   */\n      tag_58\n        /* \"#utility.yul\":2338:2345   */\n      dup9\n        /* \"#utility.yul\":2329:2335   */\n      dup3\n        /* \"#utility.yul\":2318:2327   */\n      dup10\n        /* \"#utility.yul\":2314:2336   */\n      add\n        /* \"#utility.yul\":2283:2346   */\n      tag_24\n      jump\t// in\n    tag_58:\n        /* \"#utility.yul\":2273:2346   */\n      swap5\n      pop\n        /* \"#utility.yul\":2228:2356   */\n      pop\n        /* \"#utility.yul\":2395:2397   */\n      0x40\n        /* \"#utility.yul\":2421:2485   */\n      tag_59\n        /* \"#utility.yul\":2477:2484   */\n      dup9\n        /* \"#utility.yul\":2468:2474   */\n      dup3\n        /* \"#utility.yul\":2457:2466   */\n      dup10\n        /* \"#utility.yul\":2453:2475   */\n      add\n        /* \"#utility.yul\":2421:2485   */\n      tag_26\n      jump\t// in\n    tag_59:\n        /* \"#utility.yul\":2411:2485   */\n      swap4\n      pop\n        /* \"#utility.yul\":2366:2495   */\n      pop\n        /* \"#utility.yul\":2534:2536   */\n      0x60\n        /* \"#utility.yul\":2560:2624   */\n      tag_60\n        /* \"#utility.yul\":2616:2623   */\n      dup9\n        /* \"#utility.yul\":2607:2613   */\n      dup3\n        /* \"#utility.yul\":2596:2605   */\n      dup10\n        /* \"#utility.yul\":2592:2614   */\n      add\n        /* \"#utility.yul\":2560:2624   */\n      tag_26\n      jump\t// in\n    tag_60:\n        /* \"#utility.yul\":2550:2624   */\n      swap3\n      pop\n        /* \"#utility.yul\":2505:2634   */\n      pop\n        /* \"#utility.yul\":2673:2676   */\n      0x80\n        /* \"#utility.yul\":2700:2763   */\n      tag_61\n        /* \"#utility.yul\":2755:2762   */\n      dup9\n        /* \"#utility.yul\":2746:2752   */\n      dup3\n        /* \"#utility.yul\":2735:2744   */\n      dup10\n        /* \"#utility.yul\":2731:2753   */\n      add\n        /* \"#utility.yul\":2700:2763   */\n      tag_21\n      jump\t// in\n    tag_61:\n        /* \"#utility.yul\":2690:2763   */\n      swap2\n      pop\n        /* \"#utility.yul\":2644:2773   */\n      pop\n        /* \"#utility.yul\":1809:2780   */\n      swap3\n      swap6\n      pop\n      swap3\n      swap6\n      swap1\n      swap4\n      pop\n      jump\t// out\n        /* \"#utility.yul\":2786:2966   */\n    tag_27:\n        /* \"#utility.yul\":2834:2911   */\n      0x4e487b7100000000000000000000000000000000000000000000000000000000\n        /* \"#utility.yul\":2831:2832   */\n      0x00\n        /* \"#utility.yul\":2824:2912   */\n      mstore\n        /* \"#utility.yul\":2931:2935   */\n      0x11\n        /* \"#utility.yul\":2928:2929   */\n      0x04\n        /* \"#utility.yul\":2921:2936   */\n      mstore\n        /* \"#utility.yul\":2955:2959   */\n      0x24\n        /* \"#utility.yul\":2952:2953   */\n      0x00\n        /* \"#utility.yul\":2945:2960   */\n      revert\n        /* \"#utility.yul\":2972:3528   */\n    tag_13:\n        /* \"#utility.yul\":3011:3018   */\n      0x00\n        /* \"#utility.yul\":3034:3053   */\n      tag_64\n        /* \"#utility.yul\":3051:3052   */\n      dup3\n        /* \"#utility.yul\":3034:3053   */\n      tag_22\n      jump\t// in\n    tag_64:\n        /* \"#utility.yul\":3029:3053   */\n      swap2\n      pop\n        /* \"#utility.yul\":3067:3086   */\n      tag_65\n        /* \"#utility.yul\":3084:3085   */\n      dup4\n        /* \"#utility.yul\":3067:3086   */\n      tag_22\n      jump\t// in\n    tag_65:\n        /* \"#utility.yul\":3062:3086   */\n      swap3\n      pop\n        /* \"#utility.yul\":3121:3122   */\n      dup3\n        /* \"#utility.yul\":3118:3119   */\n      dup3\n        /* \"#utility.yul\":3114:3123   */\n      mul\n        /* \"#utility.yul\":3143:3172   */\n      tag_66\n        /* \"#utility.yul\":3160:3171   */\n      dup2\n        /* \"#utility.yul\":3143:3172   */\n      tag_22\n      jump\t// in\n    tag_66:\n        /* \"#utility.yul\":3132:3172   */\n      swap2\n      pop\n        /* \"#utility.yul\":3230:3296   */\n      0x8000000000000000000000000000000000000000000000000000000000000000\n        /* \"#utility.yul\":3227:3228   */\n      dup5\n        /* \"#utility.yul\":3224:3297   */\n      eq\n        /* \"#utility.yul\":3220:3221   */\n      0x00\n        /* \"#utility.yul\":3217:3218   */\n      dup5\n        /* \"#utility.yul\":3213:3222   */\n      slt\n        /* \"#utility.yul\":3209:3298   */\n      and\n        /* \"#utility.yul\":3206:3321   */\n      iszero\n      tag_67\n      jumpi\n        /* \"#utility.yul\":3301:3319   */\n      tag_68\n      tag_27\n      jump\t// in\n    tag_68:\n        /* \"#utility.yul\":3206:3321   */\n    tag_67:\n        /* \"#utility.yul\":3471:3472   */\n      dup3\n        /* \"#utility.yul\":3462:3469   */\n      dup3\n        /* \"#utility.yul\":3457:3473   */\n      sdiv\n        /* \"#utility.yul\":3454:3455   */\n      dup5\n        /* \"#utility.yul\":3451:3474   */\n      eq\n        /* \"#utility.yul\":3431:3432   */\n      dup4\n        /* \"#utility.yul\":3424:3433   */\n      iszero\n        /* \"#utility.yul\":3404:3488   */\n      or\n        /* \"#utility.yul\":3381:3521   */\n      tag_69\n      jumpi\n        /* \"#utility.yul\":3501:3519   */\n      tag_70\n      tag_27\n      jump\t// in\n    tag_70:\n        /* \"#utility.yul\":3381:3521   */\n    tag_69:\n        /* \"#utility.yul\":3019:3528   */\n      pop\n        /* \"#utility.yul\":2972:3528   */\n      swap3\n      swap2\n      pop\n      pop\n      jump\t// out\n\n    auxdata: 0xa26469706673582212206f8bf5eea89c9a782c11636fc2eeeee8b8f775bb3be896282537aaa5df779c6964736f6c63430008120033\n}\n",
				"bytecode": {
					"linkReferences": {},
					"object": "610336610053600b82828239805160001a607314610046577f4e487b7100000000000000000000000000000000000000000000000000000000600052600060045260246000fd5b30600052607381538281f3fe73000000000000000000000000000000000000000030146080604052600436106100355760003560e01c806398d5fdca1461003a575b600080fd5b610042610058565b60405161004f919061011a565b60405180910390f35b60008073694aa1769357215de4fac081bf1f309adc325306905060008173ffffffffffffffffffffffffffffffffffffffff1663feaf968c6040518163ffffffff1660e01b815260040160a060405180830381865afa1580156100bf573d6000803e3d6000fd5b505050506040513d601f19601f820116820180604052508101906100e391906101de565b5050509150506402540be400816100fa9190610288565b9250505090565b6000819050919050565b61011481610101565b82525050565b600060208201905061012f600083018461010b565b92915050565b600080fd5b600069ffffffffffffffffffff82169050919050565b6101598161013a565b811461016457600080fd5b50565b60008151905061017681610150565b92915050565b6000819050919050565b61018f8161017c565b811461019a57600080fd5b50565b6000815190506101ac81610186565b92915050565b6101bb81610101565b81146101c657600080fd5b50565b6000815190506101d8816101b2565b92915050565b600080600080600060a086880312156101fa576101f9610135565b5b600061020888828901610167565b95505060206102198882890161019d565b945050604061022a888289016101c9565b935050606061023b888289016101c9565b925050608061024c88828901610167565b9150509295509295909350565b7f4e487b7100000000000000000000000000000000000000000000000000000000600052601160045260246000fd5b60006102938261017c565b915061029e8361017c565b92508282026102ac8161017c565b91507f800000000000000000000000000000000000000000000000000000000000000084146000841216156102e4576102e3610259565b5b82820584148315176102f9576102f8610259565b5b509291505056fea26469706673582212206f8bf5eea89c9a782c11636fc2eeeee8b8f775bb3be896282537aaa5df779c6964736f6c63430008120033",
					"opcodes": "PUSH2 0x336 PUSH2 0x53 PUSH1 0xB DUP3 DUP3 DUP3 CODECOPY DUP1 MLOAD PUSH1 0x0 BYTE PUSH1 0x73 EQ PUSH2 0x46 JUMPI PUSH32 0x4E487B7100000000000000000000000000000000000000000000000000000000 PUSH1 0x0 MSTORE PUSH1 0x0 PUSH1 0x4 MSTORE PUSH1 0x24 PUSH1 0x0 REVERT JUMPDEST ADDRESS PUSH1 0x0 MSTORE PUSH1 0x73 DUP2 MSTORE8 DUP3 DUP2 RETURN INVALID PUSH20 0x0 ADDRESS EQ PUSH1 0x80 PUSH1 0x40 MSTORE PUSH1 0x4 CALLDATASIZE LT PUSH2 0x35 JUMPI PUSH1 0x0 CALLDATALOAD PUSH1 0xE0 SHR DUP1 PUSH4 0x98D5FDCA EQ PUSH2 0x3A JUMPI JUMPDEST PUSH1 0x0 DUP1 REVERT JUMPDEST PUSH2 0x42 PUSH2 0x58 JUMP JUMPDEST PUSH1 0x40 MLOAD PUSH2 0x4F SWAP2 SWAP1 PUSH2 0x11A JUMP JUMPDEST PUSH1 0x40 MLOAD DUP1 SWAP2 SUB SWAP1 RETURN JUMPDEST PUSH1 0x0 DUP1 PUSH20 0x694AA1769357215DE4FAC081BF1F309ADC325306 SWAP1 POP PUSH1 0x0 DUP2 PUSH20 0xFFFFFFFFFFFFFFFFFFFFFFFFFFFFFFFFFFFFFFFF AND PUSH4 0xFEAF968C PUSH1 0x40 MLOAD DUP2 PUSH4 0xFFFFFFFF AND PUSH1 0xE0 SHL DUP2 MSTORE PUSH1 0x4 ADD PUSH1 0xA0 PUSH1 0x40 MLOAD DUP1 DUP4 SUB DUP2 DUP7 GAS STATICCALL ISZERO DUP1 ISZERO PUSH2 0xBF JUMPI RETURNDATASIZE PUSH1 0x0 DUP1 RETURNDATACOPY RETURNDATASIZE PUSH1 0x0 REVERT JUMPDEST POP POP POP POP PUSH1 0x40 MLOAD RETURNDATASIZE PUSH1 0x1F NOT PUSH1 0x1F DUP3 ADD AND DUP3 ADD DUP1 PUSH1 0x40 MSTORE POP DUP2 ADD SWAP1 PUSH2 0xE3 SWAP2 SWAP1 PUSH2 0x1DE JUMP JUMPDEST POP POP POP SWAP2 POP POP PUSH5 0x2540BE400 DUP2 PUSH2 0xFA SWAP2 SWAP1 PUSH2 0x288 JUMP JUMPDEST SWAP3 POP POP POP SWAP1 JUMP JUMPDEST PUSH1 0x0 DUP2 SWAP1 POP SWAP2 SWAP1 POP JUMP JUMPDEST PUSH2 0x114 DUP2 PUSH2 0x101 JUMP JUMPDEST DUP3 MSTORE POP POP JUMP JUMPDEST PUSH1 0x0 PUSH1 0x20 DUP3 ADD SWAP1 POP PUSH2 0x12F PUSH1 0x0 DUP4 ADD DUP5 PUSH2 0x10B JUMP JUMPDEST SWAP3 SWAP2 POP POP JUMP JUMPDEST PUSH1 0x0 DUP1 REVERT JUMPDEST PUSH1 0x0 PUSH10 0xFFFFFFFFFFFFFFFFFFFF DUP3 AND SWAP1 POP SWAP2 SWAP1 POP JUMP JUMPDEST PUSH2 0x159 DUP2 PUSH2 0x13A JUMP JUMPDEST DUP2 EQ PUSH2 0x164 JUMPI PUSH1 0x0 DUP1 REVERT JUMPDEST POP JUMP JUMPDEST PUSH1 0x0 DUP2 MLOAD SWAP1 POP PUSH2 0x176 DUP2 PUSH2 0x150 JUMP JUMPDEST SWAP3 SWAP2 POP POP JUMP JUMPDEST PUSH1 0x0 DUP2 SWAP1 POP SWAP2 SWAP1 POP JUMP JUMPDEST PUSH2 0x18F DUP2 PUSH2 0x17C JUMP JUMPDEST DUP2 EQ PUSH2 0x19A JUMPI PUSH1 0x0 DUP1 REVERT JUMPDEST POP JUMP JUMPDEST PUSH1 0x0 DUP2 MLOAD SWAP1 POP PUSH2 0x1AC DUP2 PUSH2 0x186 JUMP JUMPDEST SWAP3 SWAP2 POP POP JUMP JUMPDEST PUSH2 0x1BB DUP2 PUSH2 0x101 JUMP JUMPDEST DUP2 EQ PUSH2 0x1C6 JUMPI PUSH1 0x0 DUP1 REVERT JUMPDEST POP JUMP JUMPDEST PUSH1 0x0 DUP2 MLOAD SWAP1 POP PUSH2 0x1D8 DUP2 PUSH2 0x1B2 JUMP JUMPDEST SWAP3 SWAP2 POP POP JUMP JUMPDEST PUSH1 0x0 DUP1 PUSH1 0x0 DUP1 PUSH1 0x0 PUSH1 0xA0 DUP7 DUP9 SUB SLT ISZERO PUSH2 0x1FA JUMPI PUSH2 0x1F9 PUSH2 0x135 JUMP JUMPDEST JUMPDEST PUSH1 0x0 PUSH2 0x208 DUP9 DUP3 DUP10 ADD PUSH2 0x167 JUMP JUMPDEST SWAP6 POP POP PUSH1 0x20 PUSH2 0x219 DUP9 DUP3 DUP10 ADD PUSH2 0x19D JUMP JUMPDEST SWAP5 POP POP PUSH1 0x40 PUSH2 0x22A DUP9 DUP3 DUP10 ADD PUSH2 0x1C9 JUMP JUMPDEST SWAP4 POP POP PUSH1 0x60 PUSH2 0x23B DUP9 DUP3 DUP10 ADD PUSH2 0x1C9 JUMP JUMPDEST SWAP3 POP POP PUSH1 0x80 PUSH2 0x24C DUP9 DUP3 DUP10 ADD PUSH2 0x167 JUMP JUMPDEST SWAP2 POP POP SWAP3 SWAP6 POP SWAP3 SWAP6 SWAP1 SWAP4 POP JUMP JUMPDEST PUSH32 0x4E487B7100000000000000000000000000000000000000000000000000000000 PUSH1 0x0 MSTORE PUSH1 0x11 PUSH1 0x4 MSTORE PUSH1 0x24 PUSH1 0x0 REVERT JUMPDEST PUSH1 0x0 PUSH2 0x293 DUP3 PUSH2 0x17C JUMP JUMPDEST SWAP2 POP PUSH2 0x29E DUP4 PUSH2 0x17C JUMP JUMPDEST SWAP3 POP DUP3 DUP3 MUL PUSH2 0x2AC DUP2 PUSH2 0x17C JUMP JUMPDEST SWAP2 POP PUSH32 0x8000000000000000000000000000000000000000000000000000000000000000 DUP5 EQ PUSH1 0x0 DUP5 SLT AND ISZERO PUSH2 0x2E4 JUMPI PUSH2 0x2E3 PUSH2 0x259 JUMP JUMPDEST JUMPDEST DUP3 DUP3 SDIV DUP5 EQ DUP4 ISZERO OR PUSH2 0x2F9 JUMPI PUSH2 0x2F8 PUSH2 0x259 JUMP JUMPDEST JUMPDEST POP SWAP3 SWAP2 POP POP JUMP INVALID LOG2 PUSH5 0x6970667358 0x22 SLT KECCAK256 PUSH16 0x8BF5EEA89C9A782C11636FC2EEEEE8B8 0xF7 PUSH22 0xBB3BE896282537AAA5DF779C6964736F6C6343000812 STOP CALLER "
				},
				"gasEstimates": {
					"creation": {
						"codeDepositCost": "164400",
						"executionCost": "236",
						"totalCost": "164636"
					},
					"external": {
						"getPrice()": "infinite"
					},
					"internal": {
						"getConversionRate(uint256)": "infinite",
						"getVersion()": "infinite"
					}
				},
				"methodIdentifiers": {
					"getPrice()": "98d5fdca"
				}
			},
			"storageLayout": {
				"storage": [],
				"types": null
			},
			"userdoc": {
				"kind": "user",
				"methods": {},
				"version": 1
			}
		}
	}
}